{
  "_format": "hh-sol-artifact-1",
  "contractName": "CompanyRegistry",
  "sourceName": "contracts/CompanyRegistry.sol",
  "abi": [
    {
      "anonymous": false,
      "inputs": [
        {
          "indexed": false,
          "internalType": "string",
          "name": "name",
          "type": "string"
        },
        {
          "indexed": false,
          "internalType": "address",
          "name": "escrowAddress",
          "type": "address"
        },
        {
          "indexed": false,
          "internalType": "address",
          "name": "tokenAddress",
          "type": "address"
        }
      ],
      "name": "CompanyRegistered",
      "type": "event"
    },
    {
      "anonymous": false,
      "inputs": [
        {
          "indexed": true,
          "internalType": "address",
          "name": "escrowAddress",
          "type": "address"
        },
        {
          "indexed": false,
          "internalType": "uint256",
          "name": "reputationScore",
          "type": "uint256"
        }
      ],
      "name": "ReputationUpdated",
      "type": "event"
    },
    {
      "inputs": [
        {
          "internalType": "address",
          "name": "",
          "type": "address"
        }
      ],
      "name": "companies",
      "outputs": [
        {
          "internalType": "string",
          "name": "name",
          "type": "string"
        },
        {
          "internalType": "address",
          "name": "escrowAddress",
          "type": "address"
        },
        {
          "internalType": "address",
          "name": "tokenAddress",
          "type": "address"
        },
        {
          "internalType": "uint256",
          "name": "totalDeposits",
          "type": "uint256"
        },
        {
          "internalType": "uint256",
          "name": "reputationScore",
          "type": "uint256"
        },
        {
          "internalType": "bool",
          "name": "isRegistered",
          "type": "bool"
        }
      ],
      "stateMutability": "view",
      "type": "function"
    },
    {
      "inputs": [],
      "name": "getCompaniesByReputation",
      "outputs": [
        {
          "components": [
            {
              "internalType": "string",
              "name": "name",
              "type": "string"
            },
            {
              "internalType": "address",
              "name": "escrowAddress",
              "type": "address"
            },
            {
              "internalType": "address",
              "name": "tokenAddress",
              "type": "address"
            },
            {
              "internalType": "uint256",
              "name": "totalDeposits",
              "type": "uint256"
            },
            {
              "internalType": "uint256",
              "name": "reputationScore",
              "type": "uint256"
            },
            {
              "internalType": "bool",
              "name": "isRegistered",
              "type": "bool"
            }
          ],
          "internalType": "struct CompanyRegistry.Company[]",
          "name": "",
          "type": "tuple[]"
        }
      ],
      "stateMutability": "view",
      "type": "function"
    },
    {
      "inputs": [],
      "name": "getRegisteredCompanies",
      "outputs": [
        {
          "internalType": "address[]",
          "name": "",
          "type": "address[]"
        }
      ],
      "stateMutability": "view",
      "type": "function"
    },
    {
      "inputs": [
        {
          "internalType": "string",
          "name": "_name",
          "type": "string"
        },
        {
          "internalType": "address",
          "name": "_escrowAddress",
          "type": "address"
        },
        {
          "internalType": "address",
          "name": "_tokenAddress",
          "type": "address"
        }
      ],
      "name": "registerCompany",
      "outputs": [],
      "stateMutability": "nonpayable",
      "type": "function"
    },
    {
      "inputs": [
        {
          "internalType": "uint256",
          "name": "",
          "type": "uint256"
        }
      ],
      "name": "registeredCompanies",
      "outputs": [
        {
          "internalType": "address",
          "name": "",
          "type": "address"
        }
      ],
      "stateMutability": "view",
      "type": "function"
    },
    {
      "inputs": [
        {
          "internalType": "address",
          "name": "_escrowAddress",
          "type": "address"
        },
        {
          "internalType": "uint256",
          "name": "depositAmount",
          "type": "uint256"
        },
        {
          "internalType": "uint256",
          "name": "tokenPriceIncrease",
          "type": "uint256"
        }
      ],
      "name": "updateReputation",
      "outputs": [],
      "stateMutability": "nonpayable",
      "type": "function"
    },
    {
      "inputs": [
        {
          "internalType": "address",
          "name": "_escrowAddress",
          "type": "address"
        },
        {
          "internalType": "uint256",
          "name": "withdrawalAmount",
          "type": "uint256"
        }
      ],
      "name": "updateReputationDecrease",
      "outputs": [],
      "stateMutability": "nonpayable",
      "type": "function"
    }
  ],
  "bytecode": "0x608060405234801561001057600080fd5b50611a2e806100206000396000f3fe608060405234801561001057600080fd5b506004361061007d5760003560e01c80635e96b80d1161005b5780635e96b80d146100f1578063bc99743714610121578063ce0a8ed51461013d578063fcc436b11461015b5761007d565b80632c92a96914610082578063355e6ce81461009e57806335d2e6f1146100d3575b600080fd5b61009c60048036038101906100979190610da7565b610177565b005b6100b860048036038101906100b39190610dfa565b6102fd565b6040516100ca96959493929190610ef0565b60405180910390f35b6100db61040e565b6040516100e8919061111a565b60405180910390f35b61010b6004803603810190610106919061113c565b6107b6565b6040516101189190611169565b60405180910390f35b61013b60048036038101906101369190611184565b6107f5565b005b610145610964565b6040516101529190611273565b60405180910390f35b610175600480360381019061017091906113ca565b6109f2565b005b6000808473ffffffffffffffffffffffffffffffffffffffff1673ffffffffffffffffffffffffffffffffffffffff16815260200190815260200160002060050160009054906101000a900460ff16610205576040517f08c379a00000000000000000000000000000000000000000000000000000000081526004016101fc90611485565b60405180910390fd5b60008060008573ffffffffffffffffffffffffffffffffffffffff1673ffffffffffffffffffffffffffffffffffffffff16815260200190815260200160002090508281600301600082825461025b91906114d4565b92505081905550601e8261026f9190611508565b6046670de0b6b3a764000083600301546102899190611579565b6102939190611508565b61029d91906114d4565b81600401819055508373ffffffffffffffffffffffffffffffffffffffff167ffc577563f1b9a0461e24abef1e1fcc0d33d3d881f20b5df6dda59de4aae2c82182600401546040516102ef91906115aa565b60405180910390a250505050565b6000602052806000526040600020600091509050806000018054610320906115f4565b80601f016020809104026020016040519081016040528092919081815260200182805461034c906115f4565b80156103995780601f1061036e57610100808354040283529160200191610399565b820191906000526020600020905b81548152906001019060200180831161037c57829003601f168201915b5050505050908060010160009054906101000a900473ffffffffffffffffffffffffffffffffffffffff16908060020160009054906101000a900473ffffffffffffffffffffffffffffffffffffffff16908060030154908060040154908060050160009054906101000a900460ff16905086565b6060600060018054905067ffffffffffffffff8111156104315761043061129f565b5b60405190808252806020026020018201604052801561046a57816020015b610457610c9b565b81526020019060019003908161044f5790505b50905060005b6001805490508110156106a2576000806001838154811061049457610493611625565b5b9060005260206000200160009054906101000a900473ffffffffffffffffffffffffffffffffffffffff1673ffffffffffffffffffffffffffffffffffffffff1673ffffffffffffffffffffffffffffffffffffffff1681526020019081526020016000206040518060c0016040529081600082018054610514906115f4565b80601f0160208091040260200160405190810160405280929190818152602001828054610540906115f4565b801561058d5780601f106105625761010080835404028352916020019161058d565b820191906000526020600020905b81548152906001019060200180831161057057829003601f168201915b505050505081526020016001820160009054906101000a900473ffffffffffffffffffffffffffffffffffffffff1673ffffffffffffffffffffffffffffffffffffffff1673ffffffffffffffffffffffffffffffffffffffff1681526020016002820160009054906101000a900473ffffffffffffffffffffffffffffffffffffffff1673ffffffffffffffffffffffffffffffffffffffff1673ffffffffffffffffffffffffffffffffffffffff16815260200160038201548152602001600482015481526020016005820160009054906101000a900460ff16151515158152505082828151811061068457610683611625565b5b6020026020010181905250808061069a90611654565b915050610470565b5060005b81518110156107ae5760006001826106be91906114d4565b90505b825181101561079a578282815181106106dd576106dc611625565b5b6020026020010151608001518382815181106106fc576106fb611625565b5b602002602001015160800151111561078757600083838151811061072357610722611625565b5b602002602001015190508382815181106107405761073f611625565b5b602002602001015184848151811061075b5761075a611625565b5b60200260200101819052508084838151811061077a57610779611625565b5b6020026020010181905250505b808061079290611654565b9150506106c1565b5080806107a690611654565b9150506106a6565b508091505090565b600181815481106107c657600080fd5b906000526020600020016000915054906101000a900473ffffffffffffffffffffffffffffffffffffffff1681565b6000808373ffffffffffffffffffffffffffffffffffffffff1673ffffffffffffffffffffffffffffffffffffffff16815260200190815260200160002060050160009054906101000a900460ff16610883576040517f08c379a000000000000000000000000000000000000000000000000000000000815260040161087a90611485565b60405180910390fd5b60008060008473ffffffffffffffffffffffffffffffffffffffff1673ffffffffffffffffffffffffffffffffffffffff168152602001908152602001600020905060006078836108d49190611508565b90508082600401541061090157808260040160008282546108f5919061169c565b9250508190555061090c565b600082600401819055505b8373ffffffffffffffffffffffffffffffffffffffff167ffc577563f1b9a0461e24abef1e1fcc0d33d3d881f20b5df6dda59de4aae2c821836004015460405161095691906115aa565b60405180910390a250505050565b606060018054806020026020016040519081016040528092919081815260200182805480156109e857602002820191906000526020600020905b8160009054906101000a900473ffffffffffffffffffffffffffffffffffffffff1673ffffffffffffffffffffffffffffffffffffffff168152602001906001019080831161099e575b5050505050905090565b6000808373ffffffffffffffffffffffffffffffffffffffff1673ffffffffffffffffffffffffffffffffffffffff16815260200190815260200160002060050160009054906101000a900460ff1615610a81576040517f08c379a0000000000000000000000000000000000000000000000000000000008152600401610a789061171c565b60405180910390fd5b6040518060c001604052808481526020018373ffffffffffffffffffffffffffffffffffffffff1681526020018273ffffffffffffffffffffffffffffffffffffffff1681526020016000815260200160008152602001600115158152506000808473ffffffffffffffffffffffffffffffffffffffff1673ffffffffffffffffffffffffffffffffffffffff1681526020019081526020016000206000820151816000019081610b3291906118e8565b5060208201518160010160006101000a81548173ffffffffffffffffffffffffffffffffffffffff021916908373ffffffffffffffffffffffffffffffffffffffff16021790555060408201518160020160006101000a81548173ffffffffffffffffffffffffffffffffffffffff021916908373ffffffffffffffffffffffffffffffffffffffff160217905550606082015181600301556080820151816004015560a08201518160050160006101000a81548160ff0219169083151502179055509050506001829080600181540180825580915050600190039060005260206000200160009091909190916101000a81548173ffffffffffffffffffffffffffffffffffffffff021916908373ffffffffffffffffffffffffffffffffffffffff1602179055507f94aec3dc6cb6f40c1de17e8e63a10905c1d89509ee5f4649a1640ae029a25595838383604051610c8e939291906119ba565b60405180910390a1505050565b6040518060c0016040528060608152602001600073ffffffffffffffffffffffffffffffffffffffff168152602001600073ffffffffffffffffffffffffffffffffffffffff16815260200160008152602001600081526020016000151581525090565b6000604051905090565b600080fd5b600080fd5b600073ffffffffffffffffffffffffffffffffffffffff82169050919050565b6000610d3e82610d13565b9050919050565b610d4e81610d33565b8114610d5957600080fd5b50565b600081359050610d6b81610d45565b92915050565b6000819050919050565b610d8481610d71565b8114610d8f57600080fd5b50565b600081359050610da181610d7b565b92915050565b600080600060608486031215610dc057610dbf610d09565b5b6000610dce86828701610d5c565b9350506020610ddf86828701610d92565b9250506040610df086828701610d92565b9150509250925092565b600060208284031215610e1057610e0f610d09565b5b6000610e1e84828501610d5c565b91505092915050565b600081519050919050565b600082825260208201905092915050565b60005b83811015610e61578082015181840152602081019050610e46565b60008484015250505050565b6000601f19601f8301169050919050565b6000610e8982610e27565b610e938185610e32565b9350610ea3818560208601610e43565b610eac81610e6d565b840191505092915050565b610ec081610d33565b82525050565b610ecf81610d71565b82525050565b60008115159050919050565b610eea81610ed5565b82525050565b600060c0820190508181036000830152610f0a8189610e7e565b9050610f196020830188610eb7565b610f266040830187610eb7565b610f336060830186610ec6565b610f406080830185610ec6565b610f4d60a0830184610ee1565b979650505050505050565b600081519050919050565b600082825260208201905092915050565b6000819050602082019050919050565b600082825260208201905092915050565b6000610fa082610e27565b610faa8185610f84565b9350610fba818560208601610e43565b610fc381610e6d565b840191505092915050565b610fd781610d33565b82525050565b610fe681610d71565b82525050565b610ff581610ed5565b82525050565b600060c08301600083015184820360008601526110188282610f95565b915050602083015161102d6020860182610fce565b5060408301516110406040860182610fce565b5060608301516110536060860182610fdd565b5060808301516110666080860182610fdd565b5060a083015161107960a0860182610fec565b508091505092915050565b60006110908383610ffb565b905092915050565b6000602082019050919050565b60006110b082610f58565b6110ba8185610f63565b9350836020820285016110cc85610f74565b8060005b8581101561110857848403895281516110e98582611084565b94506110f483611098565b925060208a019950506001810190506110d0565b50829750879550505050505092915050565b6000602082019050818103600083015261113481846110a5565b905092915050565b60006020828403121561115257611151610d09565b5b600061116084828501610d92565b91505092915050565b600060208201905061117e6000830184610eb7565b92915050565b6000806040838503121561119b5761119a610d09565b5b60006111a985828601610d5c565b92505060206111ba85828601610d92565b9150509250929050565b600081519050919050565b600082825260208201905092915050565b6000819050602082019050919050565b60006111fc8383610fce565b60208301905092915050565b6000602082019050919050565b6000611220826111c4565b61122a81856111cf565b9350611235836111e0565b8060005b8381101561126657815161124d88826111f0565b975061125883611208565b925050600181019050611239565b5085935050505092915050565b6000602082019050818103600083015261128d8184611215565b905092915050565b600080fd5b600080fd5b7f4e487b7100000000000000000000000000000000000000000000000000000000600052604160045260246000fd5b6112d782610e6d565b810181811067ffffffffffffffff821117156112f6576112f561129f565b5b80604052505050565b6000611309610cff565b905061131582826112ce565b919050565b600067ffffffffffffffff8211156113355761133461129f565b5b61133e82610e6d565b9050602081019050919050565b82818337600083830152505050565b600061136d6113688461131a565b6112ff565b9050828152602081018484840111156113895761138861129a565b5b61139484828561134b565b509392505050565b600082601f8301126113b1576113b0611295565b5b81356113c184826020860161135a565b91505092915050565b6000806000606084860312156113e3576113e2610d09565b5b600084013567ffffffffffffffff81111561140157611400610d0e565b5b61140d8682870161139c565b935050602061141e86828701610d5c565b925050604061142f86828701610d5c565b9150509250925092565b7f436f6d70616e79206e6f74207265676973746572656400000000000000000000600082015250565b600061146f601683610e32565b915061147a82611439565b602082019050919050565b6000602082019050818103600083015261149e81611462565b9050919050565b7f4e487b7100000000000000000000000000000000000000000000000000000000600052601160045260246000fd5b60006114df82610d71565b91506114ea83610d71565b9250828201905080821115611502576115016114a5565b5b92915050565b600061151382610d71565b915061151e83610d71565b925082820261152c81610d71565b91508282048414831517611543576115426114a5565b5b5092915050565b7f4e487b7100000000000000000000000000000000000000000000000000000000600052601260045260246000fd5b600061158482610d71565b915061158f83610d71565b92508261159f5761159e61154a565b5b828204905092915050565b60006020820190506115bf6000830184610ec6565b92915050565b7f4e487b7100000000000000000000000000000000000000000000000000000000600052602260045260246000fd5b6000600282049050600182168061160c57607f821691505b60208210810361161f5761161e6115c5565b5b50919050565b7f4e487b7100000000000000000000000000000000000000000000000000000000600052603260045260246000fd5b600061165f82610d71565b91507fffffffffffffffffffffffffffffffffffffffffffffffffffffffffffffffff8203611691576116906114a5565b5b600182019050919050565b60006116a782610d71565b91506116b283610d71565b92508282039050818111156116ca576116c96114a5565b5b92915050565b7f436f6d70616e7920616c72656164792072656769737465726564000000000000600082015250565b6000611706601a83610e32565b9150611711826116d0565b602082019050919050565b60006020820190508181036000830152611735816116f9565b9050919050565b60008190508160005260206000209050919050565b60006020601f8301049050919050565b600082821b905092915050565b60006008830261179e7fffffffffffffffffffffffffffffffffffffffffffffffffffffffffffffffff82611761565b6117a88683611761565b95508019841693508086168417925050509392505050565b6000819050919050565b60006117e56117e06117db84610d71565b6117c0565b610d71565b9050919050565b6000819050919050565b6117ff836117ca565b61181361180b826117ec565b84845461176e565b825550505050565b600090565b61182861181b565b6118338184846117f6565b505050565b5b818110156118575761184c600082611820565b600181019050611839565b5050565b601f82111561189c5761186d8161173c565b61187684611751565b81016020851015611885578190505b61189961189185611751565b830182611838565b50505b505050565b600082821c905092915050565b60006118bf600019846008026118a1565b1980831691505092915050565b60006118d883836118ae565b9150826002028217905092915050565b6118f182610e27565b67ffffffffffffffff81111561190a5761190961129f565b5b61191482546115f4565b61191f82828561185b565b600060209050601f8311600181146119525760008415611940578287015190505b61194a85826118cc565b8655506119b2565b601f1984166119608661173c565b60005b8281101561198857848901518255600182019150602085019450602081019050611963565b868310156119a557848901516119a1601f8916826118ae565b8355505b6001600288020188555050505b505050505050565b600060608201905081810360008301526119d48186610e7e565b90506119e36020830185610eb7565b6119f06040830184610eb7565b94935050505056fea26469706673582212201b915c10acc3e7d4dfe2f5ab76c85fed3744fbe567f096de0997419c99ba8c4c64736f6c63430008140033",
  "linkReferences": {},
  "deployedLinkReferences": {}
}