{
  "_format": "hh-sol-artifact-1",
  "contractName": "CompanyRegistry",
  "sourceName": "contracts/CompanyRegistry.sol",
  "abi": [
    {
      "anonymous": false,
      "inputs": [
        {
          "indexed": false,
          "internalType": "string",
          "name": "name",
          "type": "string"
        },
        {
          "indexed": false,
          "internalType": "address",
          "name": "escrowAddress",
          "type": "address"
        },
        {
          "indexed": false,
          "internalType": "address",
          "name": "tokenAddress",
          "type": "address"
        },
        {
          "indexed": false,
          "internalType": "string",
          "name": "accountId",
          "type": "string"
        }
      ],
      "name": "CompanyRegistered",
      "type": "event"
    },
    {
      "anonymous": false,
      "inputs": [
        {
          "indexed": false,
          "internalType": "address",
          "name": "escrowAddress",
          "type": "address"
        },
        {
          "indexed": false,
          "internalType": "uint256",
          "name": "newReputation",
          "type": "uint256"
        }
      ],
      "name": "ReputationUpdated",
      "type": "event"
    },
    {
      "inputs": [
        {
          "internalType": "address",
          "name": "",
          "type": "address"
        }
      ],
      "name": "companies",
      "outputs": [
        {
          "internalType": "string",
          "name": "name",
          "type": "string"
        },
        {
          "internalType": "address",
          "name": "escrowAddress",
          "type": "address"
        },
        {
          "internalType": "address",
          "name": "tokenAddress",
          "type": "address"
        },
        {
          "internalType": "string",
          "name": "accountId",
          "type": "string"
        },
        {
          "internalType": "bool",
          "name": "isRegistered",
          "type": "bool"
        },
        {
          "internalType": "uint256",
          "name": "reputation",
          "type": "uint256"
        }
      ],
      "stateMutability": "view",
      "type": "function"
    },
    {
      "inputs": [
        {
          "internalType": "address",
          "name": "_escrowAddress",
          "type": "address"
        }
      ],
      "name": "getCompanyDetails",
      "outputs": [
        {
          "internalType": "string",
          "name": "name",
          "type": "string"
        },
        {
          "internalType": "address",
          "name": "escrowAddress",
          "type": "address"
        },
        {
          "internalType": "address",
          "name": "tokenAddress",
          "type": "address"
        },
        {
          "internalType": "string",
          "name": "accountId",
          "type": "string"
        },
        {
          "internalType": "uint256",
          "name": "reputation",
          "type": "uint256"
        }
      ],
      "stateMutability": "view",
      "type": "function"
    },
    {
      "inputs": [],
      "name": "getRegisteredCompanies",
      "outputs": [
        {
          "internalType": "address[]",
          "name": "",
          "type": "address[]"
        }
      ],
      "stateMutability": "view",
      "type": "function"
    },
    {
      "inputs": [
        {
          "internalType": "address",
          "name": "_companyAccount",
          "type": "address"
        }
      ],
      "name": "increaseReputation",
      "outputs": [],
      "stateMutability": "nonpayable",
      "type": "function"
    },
    {
      "inputs": [
        {
          "internalType": "string",
          "name": "_name",
          "type": "string"
        },
        {
          "internalType": "address",
          "name": "_escrowAddress",
          "type": "address"
        },
        {
          "internalType": "address",
          "name": "_tokenAddress",
          "type": "address"
        },
        {
          "internalType": "string",
          "name": "_accountId",
          "type": "string"
        }
      ],
      "name": "registerCompany",
      "outputs": [],
      "stateMutability": "nonpayable",
      "type": "function"
    },
    {
      "inputs": [
        {
          "internalType": "uint256",
          "name": "",
          "type": "uint256"
        }
      ],
      "name": "registeredCompanies",
      "outputs": [
        {
          "internalType": "address",
          "name": "",
          "type": "address"
        }
      ],
      "stateMutability": "view",
      "type": "function"
    }
  ],
  "bytecode": "0x608060405234801561001057600080fd5b50611483806100206000396000f3fe608060405234801561001057600080fd5b50600436106100625760003560e01c80630558d3e914610067578063355e6ce81461009b5780634f76dc61146100d05780635e96b80d146100ec578063878109f41461011c578063ce0a8ed514610138575b600080fd5b610081600480360381019061007c9190610ac0565b610156565b604051610092959493929190610ba5565b60405180910390f35b6100b560048036038101906100b09190610ac0565b6103cd565b6040516100c796959493929190610c21565b60405180910390f35b6100ea60048036038101906100e59190610ac0565b610566565b005b61010660048036038101906101019190610cbc565b6106ca565b6040516101139190610ce9565b60405180910390f35b61013660048036038101906101319190610e39565b610709565b005b6101406109c0565b60405161014d9190610f96565b60405180910390f35b606060008060606000806000808873ffffffffffffffffffffffffffffffffffffffff1673ffffffffffffffffffffffffffffffffffffffff1681526020019081526020016000206040518060c00160405290816000820180546101b990610fe7565b80601f01602080910402602001604051908101604052809291908181526020018280546101e590610fe7565b80156102325780601f1061020757610100808354040283529160200191610232565b820191906000526020600020905b81548152906001019060200180831161021557829003601f168201915b505050505081526020016001820160009054906101000a900473ffffffffffffffffffffffffffffffffffffffff1673ffffffffffffffffffffffffffffffffffffffff1673ffffffffffffffffffffffffffffffffffffffff1681526020016002820160009054906101000a900473ffffffffffffffffffffffffffffffffffffffff1673ffffffffffffffffffffffffffffffffffffffff1673ffffffffffffffffffffffffffffffffffffffff1681526020016003820180546102f790610fe7565b80601f016020809104026020016040519081016040528092919081815260200182805461032390610fe7565b80156103705780601f1061034557610100808354040283529160200191610370565b820191906000526020600020905b81548152906001019060200180831161035357829003601f168201915b505050505081526020016004820160009054906101000a900460ff16151515158152602001600582015481525050905080600001518160200151826040015183606001518460a00151955095509550955095505091939590929450565b60006020528060005260406000206000915090508060000180546103f090610fe7565b80601f016020809104026020016040519081016040528092919081815260200182805461041c90610fe7565b80156104695780601f1061043e57610100808354040283529160200191610469565b820191906000526020600020905b81548152906001019060200180831161044c57829003601f168201915b5050505050908060010160009054906101000a900473ffffffffffffffffffffffffffffffffffffffff16908060020160009054906101000a900473ffffffffffffffffffffffffffffffffffffffff16908060030180546104ca90610fe7565b80601f01602080910402602001604051908101604052809291908181526020018280546104f690610fe7565b80156105435780601f1061051857610100808354040283529160200191610543565b820191906000526020600020905b81548152906001019060200180831161052657829003601f168201915b5050505050908060040160009054906101000a900460ff16908060050154905086565b6000808273ffffffffffffffffffffffffffffffffffffffff1673ffffffffffffffffffffffffffffffffffffffff16815260200190815260200160002060040160009054906101000a900460ff166105f4576040517f08c379a00000000000000000000000000000000000000000000000000000000081526004016105eb90611064565b60405180910390fd5b600a6000808373ffffffffffffffffffffffffffffffffffffffff1673ffffffffffffffffffffffffffffffffffffffff168152602001908152602001600020600501600082825461064691906110b3565b925050819055507ffc577563f1b9a0461e24abef1e1fcc0d33d3d881f20b5df6dda59de4aae2c821816000808473ffffffffffffffffffffffffffffffffffffffff1673ffffffffffffffffffffffffffffffffffffffff168152602001908152602001600020600501546040516106bf9291906110e7565b60405180910390a150565b600181815481106106da57600080fd5b906000526020600020016000915054906101000a900473ffffffffffffffffffffffffffffffffffffffff1681565b6000808473ffffffffffffffffffffffffffffffffffffffff1673ffffffffffffffffffffffffffffffffffffffff16815260200190815260200160002060040160009054906101000a900460ff1615610798576040517f08c379a000000000000000000000000000000000000000000000000000000000815260040161078f9061115c565b60405180910390fd5b6040518060c001604052808581526020018473ffffffffffffffffffffffffffffffffffffffff1681526020018373ffffffffffffffffffffffffffffffffffffffff16815260200182815260200160011515815260200160008152506000808573ffffffffffffffffffffffffffffffffffffffff1673ffffffffffffffffffffffffffffffffffffffff16815260200190815260200160002060008201518160000190816108489190611328565b5060208201518160010160006101000a81548173ffffffffffffffffffffffffffffffffffffffff021916908373ffffffffffffffffffffffffffffffffffffffff16021790555060408201518160020160006101000a81548173ffffffffffffffffffffffffffffffffffffffff021916908373ffffffffffffffffffffffffffffffffffffffff16021790555060608201518160030190816108ec9190611328565b5060808201518160040160006101000a81548160ff02191690831515021790555060a082015181600501559050506001839080600181540180825580915050600190039060005260206000200160009091909190916101000a81548173ffffffffffffffffffffffffffffffffffffffff021916908373ffffffffffffffffffffffffffffffffffffffff1602179055507f563229acc2ccc1f36204a6cdd081433a78686bccebc8bfe180a640f3e8e27fb4848484846040516109b294939291906113fa565b60405180910390a150505050565b60606001805480602002602001604051908101604052809291908181526020018280548015610a4457602002820191906000526020600020905b8160009054906101000a900473ffffffffffffffffffffffffffffffffffffffff1673ffffffffffffffffffffffffffffffffffffffff16815260200190600101908083116109fa575b5050505050905090565b6000604051905090565b600080fd5b600080fd5b600073ffffffffffffffffffffffffffffffffffffffff82169050919050565b6000610a8d82610a62565b9050919050565b610a9d81610a82565b8114610aa857600080fd5b50565b600081359050610aba81610a94565b92915050565b600060208284031215610ad657610ad5610a58565b5b6000610ae484828501610aab565b91505092915050565b600081519050919050565b600082825260208201905092915050565b60005b83811015610b27578082015181840152602081019050610b0c565b60008484015250505050565b6000601f19601f8301169050919050565b6000610b4f82610aed565b610b598185610af8565b9350610b69818560208601610b09565b610b7281610b33565b840191505092915050565b610b8681610a82565b82525050565b6000819050919050565b610b9f81610b8c565b82525050565b600060a0820190508181036000830152610bbf8188610b44565b9050610bce6020830187610b7d565b610bdb6040830186610b7d565b8181036060830152610bed8185610b44565b9050610bfc6080830184610b96565b9695505050505050565b60008115159050919050565b610c1b81610c06565b82525050565b600060c0820190508181036000830152610c3b8189610b44565b9050610c4a6020830188610b7d565b610c576040830187610b7d565b8181036060830152610c698186610b44565b9050610c786080830185610c12565b610c8560a0830184610b96565b979650505050505050565b610c9981610b8c565b8114610ca457600080fd5b50565b600081359050610cb681610c90565b92915050565b600060208284031215610cd257610cd1610a58565b5b6000610ce084828501610ca7565b91505092915050565b6000602082019050610cfe6000830184610b7d565b92915050565b600080fd5b600080fd5b7f4e487b7100000000000000000000000000000000000000000000000000000000600052604160045260246000fd5b610d4682610b33565b810181811067ffffffffffffffff82111715610d6557610d64610d0e565b5b80604052505050565b6000610d78610a4e565b9050610d848282610d3d565b919050565b600067ffffffffffffffff821115610da457610da3610d0e565b5b610dad82610b33565b9050602081019050919050565b82818337600083830152505050565b6000610ddc610dd784610d89565b610d6e565b905082815260208101848484011115610df857610df7610d09565b5b610e03848285610dba565b509392505050565b600082601f830112610e2057610e1f610d04565b5b8135610e30848260208601610dc9565b91505092915050565b60008060008060808587031215610e5357610e52610a58565b5b600085013567ffffffffffffffff811115610e7157610e70610a5d565b5b610e7d87828801610e0b565b9450506020610e8e87828801610aab565b9350506040610e9f87828801610aab565b925050606085013567ffffffffffffffff811115610ec057610ebf610a5d565b5b610ecc87828801610e0b565b91505092959194509250565b600081519050919050565b600082825260208201905092915050565b6000819050602082019050919050565b610f0d81610a82565b82525050565b6000610f1f8383610f04565b60208301905092915050565b6000602082019050919050565b6000610f4382610ed8565b610f4d8185610ee3565b9350610f5883610ef4565b8060005b83811015610f89578151610f708882610f13565b9750610f7b83610f2b565b925050600181019050610f5c565b5085935050505092915050565b60006020820190508181036000830152610fb08184610f38565b905092915050565b7f4e487b7100000000000000000000000000000000000000000000000000000000600052602260045260246000fd5b60006002820490506001821680610fff57607f821691505b60208210810361101257611011610fb8565b5b50919050565b7f436f6d70616e79206e6f74207265676973746572656400000000000000000000600082015250565b600061104e601683610af8565b915061105982611018565b602082019050919050565b6000602082019050818103600083015261107d81611041565b9050919050565b7f4e487b7100000000000000000000000000000000000000000000000000000000600052601160045260246000fd5b60006110be82610b8c565b91506110c983610b8c565b92508282019050808211156110e1576110e0611084565b5b92915050565b60006040820190506110fc6000830185610b7d565b6111096020830184610b96565b9392505050565b7f436f6d70616e7920616c72656164792072656769737465726564000000000000600082015250565b6000611146601a83610af8565b915061115182611110565b602082019050919050565b6000602082019050818103600083015261117581611139565b9050919050565b60008190508160005260206000209050919050565b60006020601f8301049050919050565b600082821b905092915050565b6000600883026111de7fffffffffffffffffffffffffffffffffffffffffffffffffffffffffffffffff826111a1565b6111e886836111a1565b95508019841693508086168417925050509392505050565b6000819050919050565b600061122561122061121b84610b8c565b611200565b610b8c565b9050919050565b6000819050919050565b61123f8361120a565b61125361124b8261122c565b8484546111ae565b825550505050565b600090565b61126861125b565b611273818484611236565b505050565b5b818110156112975761128c600082611260565b600181019050611279565b5050565b601f8211156112dc576112ad8161117c565b6112b684611191565b810160208510156112c5578190505b6112d96112d185611191565b830182611278565b50505b505050565b600082821c905092915050565b60006112ff600019846008026112e1565b1980831691505092915050565b600061131883836112ee565b9150826002028217905092915050565b61133182610aed565b67ffffffffffffffff81111561134a57611349610d0e565b5b6113548254610fe7565b61135f82828561129b565b600060209050601f8311600181146113925760008415611380578287015190505b61138a858261130c565b8655506113f2565b601f1984166113a08661117c565b60005b828110156113c8578489015182556001820191506020850194506020810190506113a3565b868310156113e557848901516113e1601f8916826112ee565b8355505b6001600288020188555050505b505050505050565b600060808201905081810360008301526114148187610b44565b90506114236020830186610b7d565b6114306040830185610b7d565b81810360608301526114428184610b44565b90509594505050505056fea2646970667358221220ecb86560acc8fa178a22602c7c0423084becc3d1604daf850ab7ff19eb81caea64736f6c63430008140033",
  "linkReferences": {},
  "deployedLinkReferences": {}
}