{
    "_format": "hh-sol-artifact-1",
    "contractName": "CompanyRegistry",
    "sourceName": "contracts/CompanyRegistry.sol",
    "abi": [
        {
            "anonymous": false,
            "inputs": [
                {
                    "indexed": false,
                    "internalType": "string",
                    "name": "name",
                    "type": "string"
                },
                {
                    "indexed": false,
                    "internalType": "address",
                    "name": "escrowAddress",
                    "type": "address"
                },
                {
                    "indexed": false,
                    "internalType": "address",
                    "name": "tokenAddress",
                    "type": "address"
                }
            ],
            "name": "CompanyRegistered",
            "type": "event"
        },
        {
            "inputs": [
                {
                    "internalType": "address",
                    "name": "",
                    "type": "address"
                }
            ],
            "name": "companies",
            "outputs": [
                {
                    "internalType": "string",
                    "name": "name",
                    "type": "string"
                },
                {
                    "internalType": "address",
                    "name": "escrowAddress",
                    "type": "address"
                },
                {
                    "internalType": "address",
                    "name": "tokenAddress",
                    "type": "address"
                },
                {
                    "internalType": "bool",
                    "name": "isRegistered",
                    "type": "bool"
                }
            ],
            "stateMutability": "view",
            "type": "function"
        },
        {
            "inputs": [],
            "name": "getRegisteredCompanies",
            "outputs": [
                {
                    "internalType": "address[]",
                    "name": "",
                    "type": "address[]"
                }
            ],
            "stateMutability": "view",
            "type": "function"
        },
        {
            "inputs": [
                {
                    "internalType": "string",
                    "name": "_name",
                    "type": "string"
                },
                {
                    "internalType": "address",
                    "name": "_escrowAddress",
                    "type": "address"
                },
                {
                    "internalType": "address",
                    "name": "_tokenAddress",
                    "type": "address"
                }
            ],
            "name": "registerCompany",
            "outputs": [],
            "stateMutability": "nonpayable",
            "type": "function"
        },
        {
            "inputs": [
                {
                    "internalType": "uint256",
                    "name": "",
                    "type": "uint256"
                }
            ],
            "name": "registeredCompanies",
            "outputs": [
                {
                    "internalType": "address",
                    "name": "",
                    "type": "address"
                }
            ],
            "stateMutability": "view",
            "type": "function"
        }
    ],
    "bytecode": "0x608060405234801561001057600080fd5b50610dac806100206000396000f3fe608060405234801561001057600080fd5b506004361061004c5760003560e01c8063355e6ce8146100515780635e96b80d14610084578063ce0a8ed5146100b4578063fcc436b1146100d2575b600080fd5b61006b600480360381019061006691906105b9565b6100ee565b60405161007b94939291906106a0565b60405180910390f35b61009e60048036038101906100999190610722565b6101f3565b6040516100ab919061074f565b60405180910390f35b6100bc610232565b6040516100c99190610828565b60405180910390f35b6100ec60048036038101906100e7919061097f565b6102c0565b005b600060205280600052604060002060009150905080600001805461011190610a1d565b80601f016020809104026020016040519081016040528092919081815260200182805461013d90610a1d565b801561018a5780601f1061015f5761010080835404028352916020019161018a565b820191906000526020600020905b81548152906001019060200180831161016d57829003601f168201915b5050505050908060010160009054906101000a900473ffffffffffffffffffffffffffffffffffffffff16908060020160009054906101000a900473ffffffffffffffffffffffffffffffffffffffff16908060020160149054906101000a900460ff16905084565b6001818154811061020357600080fd5b906000526020600020016000915054906101000a900473ffffffffffffffffffffffffffffffffffffffff1681565b606060018054806020026020016040519081016040528092919081815260200182805480156102b657602002820191906000526020600020905b8160009054906101000a900473ffffffffffffffffffffffffffffffffffffffff1673ffffffffffffffffffffffffffffffffffffffff168152602001906001019080831161026c575b5050505050905090565b6000808373ffffffffffffffffffffffffffffffffffffffff1673ffffffffffffffffffffffffffffffffffffffff16815260200190815260200160002060020160149054906101000a900460ff161561034f576040517f08c379a000000000000000000000000000000000000000000000000000000000815260040161034690610a9a565b60405180910390fd5b60405180608001604052808481526020018373ffffffffffffffffffffffffffffffffffffffff1681526020018273ffffffffffffffffffffffffffffffffffffffff168152602001600115158152506000808473ffffffffffffffffffffffffffffffffffffffff1673ffffffffffffffffffffffffffffffffffffffff16815260200190815260200160002060008201518160000190816103f29190610c66565b5060208201518160010160006101000a81548173ffffffffffffffffffffffffffffffffffffffff021916908373ffffffffffffffffffffffffffffffffffffffff16021790555060408201518160020160006101000a81548173ffffffffffffffffffffffffffffffffffffffff021916908373ffffffffffffffffffffffffffffffffffffffff16021790555060608201518160020160146101000a81548160ff0219169083151502179055509050506001829080600181540180825580915050600190039060005260206000200160009091909190916101000a81548173ffffffffffffffffffffffffffffffffffffffff021916908373ffffffffffffffffffffffffffffffffffffffff1602179055507f94aec3dc6cb6f40c1de17e8e63a10905c1d89509ee5f4649a1640ae029a2559583838360405161053a93929190610d38565b60405180910390a1505050565b6000604051905090565b600080fd5b600080fd5b600073ffffffffffffffffffffffffffffffffffffffff82169050919050565b60006105868261055b565b9050919050565b6105968161057b565b81146105a157600080fd5b50565b6000813590506105b38161058d565b92915050565b6000602082840312156105cf576105ce610551565b5b60006105dd848285016105a4565b91505092915050565b600081519050919050565b600082825260208201905092915050565b60005b83811015610620578082015181840152602081019050610605565b60008484015250505050565b6000601f19601f8301169050919050565b6000610648826105e6565b61065281856105f1565b9350610662818560208601610602565b61066b8161062c565b840191505092915050565b61067f8161057b565b82525050565b60008115159050919050565b61069a81610685565b82525050565b600060808201905081810360008301526106ba818761063d565b90506106c96020830186610676565b6106d66040830185610676565b6106e36060830184610691565b95945050505050565b6000819050919050565b6106ff816106ec565b811461070a57600080fd5b50565b60008135905061071c816106f6565b92915050565b60006020828403121561073857610737610551565b5b60006107468482850161070d565b91505092915050565b60006020820190506107646000830184610676565b92915050565b600081519050919050565b600082825260208201905092915050565b6000819050602082019050919050565b61079f8161057b565b82525050565b60006107b18383610796565b60208301905092915050565b6000602082019050919050565b60006107d58261076a565b6107df8185610775565b93506107ea83610786565b8060005b8381101561081b57815161080288826107a5565b975061080d836107bd565b9250506001810190506107ee565b5085935050505092915050565b6000602082019050818103600083015261084281846107ca565b905092915050565b600080fd5b600080fd5b7f4e487b7100000000000000000000000000000000000000000000000000000000600052604160045260246000fd5b61088c8261062c565b810181811067ffffffffffffffff821117156108ab576108aa610854565b5b80604052505050565b60006108be610547565b90506108ca8282610883565b919050565b600067ffffffffffffffff8211156108ea576108e9610854565b5b6108f38261062c565b9050602081019050919050565b82818337600083830152505050565b600061092261091d846108cf565b6108b4565b90508281526020810184848401111561093e5761093d61084f565b5b610949848285610900565b509392505050565b600082601f8301126109665761096561084a565b5b813561097684826020860161090f565b91505092915050565b60008060006060848603121561099857610997610551565b5b600084013567ffffffffffffffff8111156109b6576109b5610556565b5b6109c286828701610951565b93505060206109d3868287016105a4565b92505060406109e4868287016105a4565b9150509250925092565b7f4e487b7100000000000000000000000000000000000000000000000000000000600052602260045260246000fd5b60006002820490506001821680610a3557607f821691505b602082108103610a4857610a476109ee565b5b50919050565b7f436f6d70616e7920616c72656164792072656769737465726564000000000000600082015250565b6000610a84601a836105f1565b9150610a8f82610a4e565b602082019050919050565b60006020820190508181036000830152610ab381610a77565b9050919050565b60008190508160005260206000209050919050565b60006020601f8301049050919050565b600082821b905092915050565b600060088302610b1c7fffffffffffffffffffffffffffffffffffffffffffffffffffffffffffffffff82610adf565b610b268683610adf565b95508019841693508086168417925050509392505050565b6000819050919050565b6000610b63610b5e610b59846106ec565b610b3e565b6106ec565b9050919050565b6000819050919050565b610b7d83610b48565b610b91610b8982610b6a565b848454610aec565b825550505050565b600090565b610ba6610b99565b610bb1818484610b74565b505050565b5b81811015610bd557610bca600082610b9e565b600181019050610bb7565b5050565b601f821115610c1a57610beb81610aba565b610bf484610acf565b81016020851015610c03578190505b610c17610c0f85610acf565b830182610bb6565b50505b505050565b600082821c905092915050565b6000610c3d60001984600802610c1f565b1980831691505092915050565b6000610c568383610c2c565b9150826002028217905092915050565b610c6f826105e6565b67ffffffffffffffff811115610c8857610c87610854565b5b610c928254610a1d565b610c9d828285610bd9565b600060209050601f831160018114610cd05760008415610cbe578287015190505b610cc88582610c4a565b865550610d30565b601f198416610cde86610aba565b60005b82811015610d0657848901518255600182019150602085019450602081019050610ce1565b86831015610d235784890151610d1f601f891682610c2c565b8355505b6001600288020188555050505b505050505050565b60006060820190508181036000830152610d52818661063d565b9050610d616020830185610676565b610d6e6040830184610676565b94935050505056fea2646970667358221220e7c79e8693c7a3f74d7a0bbeb309abff37097479ae36f7cb050c8717e5396ba964736f6c63430008140033",
    "linkReferences": {},
    "deployedLinkReferences": {}
}