{
  "_format": "hh-sol-artifact-1",
  "contractName": "CompanyRegistry",
  "sourceName": "contracts/CompanyRegistry.sol",
  "abi": [
    {
      "anonymous": false,
      "inputs": [
        {
          "indexed": false,
          "internalType": "string",
          "name": "name",
          "type": "string"
        },
        {
          "indexed": false,
          "internalType": "address",
          "name": "escrowAddress",
          "type": "address"
        },
        {
          "indexed": false,
          "internalType": "address",
          "name": "tokenAddress",
          "type": "address"
        }
      ],
      "name": "CompanyRegistered",
      "type": "event"
    },
    {
      "anonymous": false,
      "inputs": [
        {
          "indexed": true,
          "internalType": "address",
          "name": "escrowAddress",
          "type": "address"
        },
        {
          "indexed": false,
          "internalType": "uint256",
          "name": "reputationScore",
          "type": "uint256"
        }
      ],
      "name": "ReputationUpdated",
      "type": "event"
    },
    {
      "inputs": [
        {
          "internalType": "address",
          "name": "",
          "type": "address"
        }
      ],
      "name": "companies",
      "outputs": [
        {
          "internalType": "string",
          "name": "name",
          "type": "string"
        },
        {
          "internalType": "address",
          "name": "escrowAddress",
          "type": "address"
        },
        {
          "internalType": "address",
          "name": "tokenAddress",
          "type": "address"
        },
        {
          "internalType": "uint256",
          "name": "totalDeposits",
          "type": "uint256"
        },
        {
          "internalType": "uint256",
          "name": "reputationScore",
          "type": "uint256"
        },
        {
          "internalType": "bool",
          "name": "isRegistered",
          "type": "bool"
        }
      ],
      "stateMutability": "view",
      "type": "function"
    },
    {
      "inputs": [],
      "name": "getCompaniesByReputation",
      "outputs": [
        {
          "components": [
            {
              "internalType": "string",
              "name": "name",
              "type": "string"
            },
            {
              "internalType": "address",
              "name": "escrowAddress",
              "type": "address"
            },
            {
              "internalType": "address",
              "name": "tokenAddress",
              "type": "address"
            },
            {
              "internalType": "uint256",
              "name": "totalDeposits",
              "type": "uint256"
            },
            {
              "internalType": "uint256",
              "name": "reputationScore",
              "type": "uint256"
            },
            {
              "internalType": "bool",
              "name": "isRegistered",
              "type": "bool"
            }
          ],
          "internalType": "struct CompanyRegistry.Company[]",
          "name": "",
          "type": "tuple[]"
        }
      ],
      "stateMutability": "view",
      "type": "function"
    },
    {
      "inputs": [],
      "name": "getRegisteredCompanies",
      "outputs": [
        {
          "internalType": "address[]",
          "name": "",
          "type": "address[]"
        }
      ],
      "stateMutability": "view",
      "type": "function"
    },
    {
      "inputs": [
        {
          "internalType": "string",
          "name": "_name",
          "type": "string"
        },
        {
          "internalType": "address",
          "name": "_escrowAddress",
          "type": "address"
        },
        {
          "internalType": "address",
          "name": "_tokenAddress",
          "type": "address"
        }
      ],
      "name": "registerCompany",
      "outputs": [],
      "stateMutability": "nonpayable",
      "type": "function"
    },
    {
      "inputs": [
        {
          "internalType": "uint256",
          "name": "",
          "type": "uint256"
        }
      ],
      "name": "registeredCompanies",
      "outputs": [
        {
          "internalType": "address",
          "name": "",
          "type": "address"
        }
      ],
      "stateMutability": "view",
      "type": "function"
    },
    {
      "inputs": [
        {
          "internalType": "address",
          "name": "_escrowAddress",
          "type": "address"
        },
        {
          "internalType": "uint256",
          "name": "depositAmount",
          "type": "uint256"
        },
        {
          "internalType": "uint256",
          "name": "tokenPriceIncrease",
          "type": "uint256"
        }
      ],
      "name": "updateReputation",
      "outputs": [],
      "stateMutability": "nonpayable",
      "type": "function"
    },
    {
      "inputs": [
        {
          "internalType": "address",
          "name": "_escrowAddress",
          "type": "address"
        },
        {
          "internalType": "uint256",
          "name": "withdrawalAmount",
          "type": "uint256"
        }
      ],
      "name": "updateReputationDecrease",
      "outputs": [],
      "stateMutability": "nonpayable",
      "type": "function"
    }
  ],
  "bytecode": "0x608060405234801561001057600080fd5b50611b1c806100206000396000f3fe608060405234801561001057600080fd5b506004361061007d5760003560e01c80635e96b80d1161005b5780635e96b80d146100f1578063bc99743714610121578063ce0a8ed51461013d578063fcc436b11461015b5761007d565b80632c92a96914610082578063355e6ce81461009e57806335d2e6f1146100d3575b600080fd5b61009c60048036038101906100979190610e03565b610177565b005b6100b860048036038101906100b39190610e56565b6102fd565b6040516100ca96959493929190610f4c565b60405180910390f35b6100db61040e565b6040516100e89190611176565b60405180910390f35b61010b60048036038101906101069190611198565b6107b6565b60405161011891906111c5565b60405180910390f35b61013b600480360381019061013691906111e0565b6107f5565b005b6101456109c0565b60405161015291906112cf565b60405180910390f35b61017560048036038101906101709190611426565b610a4e565b005b6000808473ffffffffffffffffffffffffffffffffffffffff1673ffffffffffffffffffffffffffffffffffffffff16815260200190815260200160002060050160009054906101000a900460ff16610205576040517f08c379a00000000000000000000000000000000000000000000000000000000081526004016101fc906114e1565b60405180910390fd5b60008060008573ffffffffffffffffffffffffffffffffffffffff1673ffffffffffffffffffffffffffffffffffffffff16815260200190815260200160002090508281600301600082825461025b9190611530565b92505081905550601e8261026f9190611564565b6046670de0b6b3a7640000836003015461028991906115d5565b6102939190611564565b61029d9190611530565b81600401819055508373ffffffffffffffffffffffffffffffffffffffff167ffc577563f1b9a0461e24abef1e1fcc0d33d3d881f20b5df6dda59de4aae2c82182600401546040516102ef9190611606565b60405180910390a250505050565b600060205280600052604060002060009150905080600001805461032090611650565b80601f016020809104026020016040519081016040528092919081815260200182805461034c90611650565b80156103995780601f1061036e57610100808354040283529160200191610399565b820191906000526020600020905b81548152906001019060200180831161037c57829003601f168201915b5050505050908060010160009054906101000a900473ffffffffffffffffffffffffffffffffffffffff16908060020160009054906101000a900473ffffffffffffffffffffffffffffffffffffffff16908060030154908060040154908060050160009054906101000a900460ff16905086565b6060600060018054905067ffffffffffffffff811115610431576104306112fb565b5b60405190808252806020026020018201604052801561046a57816020015b610457610cf7565b81526020019060019003908161044f5790505b50905060005b6001805490508110156106a2576000806001838154811061049457610493611681565b5b9060005260206000200160009054906101000a900473ffffffffffffffffffffffffffffffffffffffff1673ffffffffffffffffffffffffffffffffffffffff1673ffffffffffffffffffffffffffffffffffffffff1681526020019081526020016000206040518060c001604052908160008201805461051490611650565b80601f016020809104026020016040519081016040528092919081815260200182805461054090611650565b801561058d5780601f106105625761010080835404028352916020019161058d565b820191906000526020600020905b81548152906001019060200180831161057057829003601f168201915b505050505081526020016001820160009054906101000a900473ffffffffffffffffffffffffffffffffffffffff1673ffffffffffffffffffffffffffffffffffffffff1673ffffffffffffffffffffffffffffffffffffffff1681526020016002820160009054906101000a900473ffffffffffffffffffffffffffffffffffffffff1673ffffffffffffffffffffffffffffffffffffffff1673ffffffffffffffffffffffffffffffffffffffff16815260200160038201548152602001600482015481526020016005820160009054906101000a900460ff16151515158152505082828151811061068457610683611681565b5b6020026020010181905250808061069a906116b0565b915050610470565b5060005b81518110156107ae5760006001826106be9190611530565b90505b825181101561079a578282815181106106dd576106dc611681565b5b6020026020010151608001518382815181106106fc576106fb611681565b5b602002602001015160800151111561078757600083838151811061072357610722611681565b5b602002602001015190508382815181106107405761073f611681565b5b602002602001015184848151811061075b5761075a611681565b5b60200260200101819052508084838151811061077a57610779611681565b5b6020026020010181905250505b8080610792906116b0565b9150506106c1565b5080806107a6906116b0565b9150506106a6565b508091505090565b600181815481106107c657600080fd5b906000526020600020016000915054906101000a900473ffffffffffffffffffffffffffffffffffffffff1681565b6000808373ffffffffffffffffffffffffffffffffffffffff1673ffffffffffffffffffffffffffffffffffffffff16815260200190815260200160002060050160009054906101000a900460ff16610883576040517f08c379a000000000000000000000000000000000000000000000000000000000815260040161087a906114e1565b60405180910390fd5b60008060008473ffffffffffffffffffffffffffffffffffffffff1673ffffffffffffffffffffffffffffffffffffffff168152602001908152602001600020905060008160030154905060008111610911576040517f08c379a00000000000000000000000000000000000000000000000000000000081526004016109089061176a565b60405180910390fd5b6000818360040154856109249190611564565b61092e91906115d5565b9050808360040154111561095c5780836004016000828254610950919061178a565b92505081905550610967565b600083600401819055505b8473ffffffffffffffffffffffffffffffffffffffff167ffc577563f1b9a0461e24abef1e1fcc0d33d3d881f20b5df6dda59de4aae2c82184600401546040516109b19190611606565b60405180910390a25050505050565b60606001805480602002602001604051908101604052809291908181526020018280548015610a4457602002820191906000526020600020905b8160009054906101000a900473ffffffffffffffffffffffffffffffffffffffff1673ffffffffffffffffffffffffffffffffffffffff16815260200190600101908083116109fa575b5050505050905090565b6000808373ffffffffffffffffffffffffffffffffffffffff1673ffffffffffffffffffffffffffffffffffffffff16815260200190815260200160002060050160009054906101000a900460ff1615610add576040517f08c379a0000000000000000000000000000000000000000000000000000000008152600401610ad49061180a565b60405180910390fd5b6040518060c001604052808481526020018373ffffffffffffffffffffffffffffffffffffffff1681526020018273ffffffffffffffffffffffffffffffffffffffff1681526020016000815260200160008152602001600115158152506000808473ffffffffffffffffffffffffffffffffffffffff1673ffffffffffffffffffffffffffffffffffffffff1681526020019081526020016000206000820151816000019081610b8e91906119d6565b5060208201518160010160006101000a81548173ffffffffffffffffffffffffffffffffffffffff021916908373ffffffffffffffffffffffffffffffffffffffff16021790555060408201518160020160006101000a81548173ffffffffffffffffffffffffffffffffffffffff021916908373ffffffffffffffffffffffffffffffffffffffff160217905550606082015181600301556080820151816004015560a08201518160050160006101000a81548160ff0219169083151502179055509050506001829080600181540180825580915050600190039060005260206000200160009091909190916101000a81548173ffffffffffffffffffffffffffffffffffffffff021916908373ffffffffffffffffffffffffffffffffffffffff1602179055507f94aec3dc6cb6f40c1de17e8e63a10905c1d89509ee5f4649a1640ae029a25595838383604051610cea93929190611aa8565b60405180910390a1505050565b6040518060c0016040528060608152602001600073ffffffffffffffffffffffffffffffffffffffff168152602001600073ffffffffffffffffffffffffffffffffffffffff16815260200160008152602001600081526020016000151581525090565b6000604051905090565b600080fd5b600080fd5b600073ffffffffffffffffffffffffffffffffffffffff82169050919050565b6000610d9a82610d6f565b9050919050565b610daa81610d8f565b8114610db557600080fd5b50565b600081359050610dc781610da1565b92915050565b6000819050919050565b610de081610dcd565b8114610deb57600080fd5b50565b600081359050610dfd81610dd7565b92915050565b600080600060608486031215610e1c57610e1b610d65565b5b6000610e2a86828701610db8565b9350506020610e3b86828701610dee565b9250506040610e4c86828701610dee565b9150509250925092565b600060208284031215610e6c57610e6b610d65565b5b6000610e7a84828501610db8565b91505092915050565b600081519050919050565b600082825260208201905092915050565b60005b83811015610ebd578082015181840152602081019050610ea2565b60008484015250505050565b6000601f19601f8301169050919050565b6000610ee582610e83565b610eef8185610e8e565b9350610eff818560208601610e9f565b610f0881610ec9565b840191505092915050565b610f1c81610d8f565b82525050565b610f2b81610dcd565b82525050565b60008115159050919050565b610f4681610f31565b82525050565b600060c0820190508181036000830152610f668189610eda565b9050610f756020830188610f13565b610f826040830187610f13565b610f8f6060830186610f22565b610f9c6080830185610f22565b610fa960a0830184610f3d565b979650505050505050565b600081519050919050565b600082825260208201905092915050565b6000819050602082019050919050565b600082825260208201905092915050565b6000610ffc82610e83565b6110068185610fe0565b9350611016818560208601610e9f565b61101f81610ec9565b840191505092915050565b61103381610d8f565b82525050565b61104281610dcd565b82525050565b61105181610f31565b82525050565b600060c08301600083015184820360008601526110748282610ff1565b9150506020830151611089602086018261102a565b50604083015161109c604086018261102a565b5060608301516110af6060860182611039565b5060808301516110c26080860182611039565b5060a08301516110d560a0860182611048565b508091505092915050565b60006110ec8383611057565b905092915050565b6000602082019050919050565b600061110c82610fb4565b6111168185610fbf565b93508360208202850161112885610fd0565b8060005b85811015611164578484038952815161114585826110e0565b9450611150836110f4565b925060208a0199505060018101905061112c565b50829750879550505050505092915050565b600060208201905081810360008301526111908184611101565b905092915050565b6000602082840312156111ae576111ad610d65565b5b60006111bc84828501610dee565b91505092915050565b60006020820190506111da6000830184610f13565b92915050565b600080604083850312156111f7576111f6610d65565b5b600061120585828601610db8565b925050602061121685828601610dee565b9150509250929050565b600081519050919050565b600082825260208201905092915050565b6000819050602082019050919050565b6000611258838361102a565b60208301905092915050565b6000602082019050919050565b600061127c82611220565b611286818561122b565b93506112918361123c565b8060005b838110156112c25781516112a9888261124c565b97506112b483611264565b925050600181019050611295565b5085935050505092915050565b600060208201905081810360008301526112e98184611271565b905092915050565b600080fd5b600080fd5b7f4e487b7100000000000000000000000000000000000000000000000000000000600052604160045260246000fd5b61133382610ec9565b810181811067ffffffffffffffff82111715611352576113516112fb565b5b80604052505050565b6000611365610d5b565b9050611371828261132a565b919050565b600067ffffffffffffffff821115611391576113906112fb565b5b61139a82610ec9565b9050602081019050919050565b82818337600083830152505050565b60006113c96113c484611376565b61135b565b9050828152602081018484840111156113e5576113e46112f6565b5b6113f08482856113a7565b509392505050565b600082601f83011261140d5761140c6112f1565b5b813561141d8482602086016113b6565b91505092915050565b60008060006060848603121561143f5761143e610d65565b5b600084013567ffffffffffffffff81111561145d5761145c610d6a565b5b611469868287016113f8565b935050602061147a86828701610db8565b925050604061148b86828701610db8565b9150509250925092565b7f436f6d70616e79206e6f74207265676973746572656400000000000000000000600082015250565b60006114cb601683610e8e565b91506114d682611495565b602082019050919050565b600060208201905081810360008301526114fa816114be565b9050919050565b7f4e487b7100000000000000000000000000000000000000000000000000000000600052601160045260246000fd5b600061153b82610dcd565b915061154683610dcd565b925082820190508082111561155e5761155d611501565b5b92915050565b600061156f82610dcd565b915061157a83610dcd565b925082820261158881610dcd565b9150828204841483151761159f5761159e611501565b5b5092915050565b7f4e487b7100000000000000000000000000000000000000000000000000000000600052601260045260246000fd5b60006115e082610dcd565b91506115eb83610dcd565b9250826115fb576115fa6115a6565b5b828204905092915050565b600060208201905061161b6000830184610f22565b92915050565b7f4e487b7100000000000000000000000000000000000000000000000000000000600052602260045260246000fd5b6000600282049050600182168061166857607f821691505b60208210810361167b5761167a611621565b5b50919050565b7f4e487b7100000000000000000000000000000000000000000000000000000000600052603260045260246000fd5b60006116bb82610dcd565b91507fffffffffffffffffffffffffffffffffffffffffffffffffffffffffffffffff82036116ed576116ec611501565b5b600182019050919050565b7f4e6f206465706f7369747320746f2063616c63756c617465207265707574617460008201527f696f6e2064656372656173650000000000000000000000000000000000000000602082015250565b6000611754602c83610e8e565b915061175f826116f8565b604082019050919050565b6000602082019050818103600083015261178381611747565b9050919050565b600061179582610dcd565b91506117a083610dcd565b92508282039050818111156117b8576117b7611501565b5b92915050565b7f436f6d70616e7920616c72656164792072656769737465726564000000000000600082015250565b60006117f4601a83610e8e565b91506117ff826117be565b602082019050919050565b60006020820190508181036000830152611823816117e7565b9050919050565b60008190508160005260206000209050919050565b60006020601f8301049050919050565b600082821b905092915050565b60006008830261188c7fffffffffffffffffffffffffffffffffffffffffffffffffffffffffffffffff8261184f565b611896868361184f565b95508019841693508086168417925050509392505050565b6000819050919050565b60006118d36118ce6118c984610dcd565b6118ae565b610dcd565b9050919050565b6000819050919050565b6118ed836118b8565b6119016118f9826118da565b84845461185c565b825550505050565b600090565b611916611909565b6119218184846118e4565b505050565b5b818110156119455761193a60008261190e565b600181019050611927565b5050565b601f82111561198a5761195b8161182a565b6119648461183f565b81016020851015611973578190505b61198761197f8561183f565b830182611926565b50505b505050565b600082821c905092915050565b60006119ad6000198460080261198f565b1980831691505092915050565b60006119c6838361199c565b9150826002028217905092915050565b6119df82610e83565b67ffffffffffffffff8111156119f8576119f76112fb565b5b611a028254611650565b611a0d828285611949565b600060209050601f831160018114611a405760008415611a2e578287015190505b611a3885826119ba565b865550611aa0565b601f198416611a4e8661182a565b60005b82811015611a7657848901518255600182019150602085019450602081019050611a51565b86831015611a935784890151611a8f601f89168261199c565b8355505b6001600288020188555050505b505050505050565b60006060820190508181036000830152611ac28186610eda565b9050611ad16020830185610f13565b611ade6040830184610f13565b94935050505056fea2646970667358221220a3fe78b8f78b308a84d4e072b1d1300484a4d2b0ca2dc8eb4ec50dfc5d749f7d64736f6c63430008140033",
  "linkReferences": {},
  "deployedLinkReferences": {}
}