{
  "_format": "hh-sol-artifact-1",
  "contractName": "CompanyRegistry",
  "sourceName": "contracts/CompanyRegistry.sol",
  "abi": [
    {
      "anonymous": false,
      "inputs": [
        {
          "indexed": false,
          "internalType": "string",
          "name": "name",
          "type": "string"
        },
        {
          "indexed": false,
          "internalType": "address",
          "name": "escrowAddress",
          "type": "address"
        },
        {
          "indexed": false,
          "internalType": "address",
          "name": "tokenAddress",
          "type": "address"
        }
      ],
      "name": "CompanyRegistered",
      "type": "event"
    },
    {
      "anonymous": false,
      "inputs": [
        {
          "indexed": true,
          "internalType": "address",
          "name": "escrowAddress",
          "type": "address"
        },
        {
          "indexed": false,
          "internalType": "uint256",
          "name": "reputationScore",
          "type": "uint256"
        }
      ],
      "name": "ReputationUpdated",
      "type": "event"
    },
    {
      "inputs": [
        {
          "internalType": "address",
          "name": "",
          "type": "address"
        }
      ],
      "name": "companies",
      "outputs": [
        {
          "internalType": "string",
          "name": "name",
          "type": "string"
        },
        {
          "internalType": "address",
          "name": "escrowAddress",
          "type": "address"
        },
        {
          "internalType": "address",
          "name": "tokenAddress",
          "type": "address"
        },
        {
          "internalType": "uint256",
          "name": "totalDeposits",
          "type": "uint256"
        },
        {
          "internalType": "uint256",
          "name": "reputationScore",
          "type": "uint256"
        },
        {
          "internalType": "bool",
          "name": "isRegistered",
          "type": "bool"
        }
      ],
      "stateMutability": "view",
      "type": "function"
    },
    {
      "inputs": [],
      "name": "getCompaniesByReputation",
      "outputs": [
        {
          "components": [
            {
              "internalType": "string",
              "name": "name",
              "type": "string"
            },
            {
              "internalType": "address",
              "name": "escrowAddress",
              "type": "address"
            },
            {
              "internalType": "address",
              "name": "tokenAddress",
              "type": "address"
            },
            {
              "internalType": "uint256",
              "name": "totalDeposits",
              "type": "uint256"
            },
            {
              "internalType": "uint256",
              "name": "reputationScore",
              "type": "uint256"
            },
            {
              "internalType": "bool",
              "name": "isRegistered",
              "type": "bool"
            }
          ],
          "internalType": "struct CompanyRegistry.Company[]",
          "name": "",
          "type": "tuple[]"
        }
      ],
      "stateMutability": "view",
      "type": "function"
    },
    {
      "inputs": [],
      "name": "getRegisteredCompanies",
      "outputs": [
        {
          "internalType": "address[]",
          "name": "",
          "type": "address[]"
        }
      ],
      "stateMutability": "view",
      "type": "function"
    },
    {
      "inputs": [
        {
          "internalType": "string",
          "name": "_name",
          "type": "string"
        },
        {
          "internalType": "address",
          "name": "_escrowAddress",
          "type": "address"
        },
        {
          "internalType": "address",
          "name": "_tokenAddress",
          "type": "address"
        }
      ],
      "name": "registerCompany",
      "outputs": [],
      "stateMutability": "nonpayable",
      "type": "function"
    },
    {
      "inputs": [
        {
          "internalType": "uint256",
          "name": "",
          "type": "uint256"
        }
      ],
      "name": "registeredCompanies",
      "outputs": [
        {
          "internalType": "address",
          "name": "",
          "type": "address"
        }
      ],
      "stateMutability": "view",
      "type": "function"
    },
    {
      "inputs": [
        {
          "internalType": "address",
          "name": "_escrowAddress",
          "type": "address"
        },
        {
          "internalType": "uint256",
          "name": "depositAmount",
          "type": "uint256"
        },
        {
          "internalType": "uint256",
          "name": "tokenPriceIncrease",
          "type": "uint256"
        }
      ],
      "name": "updateReputation",
      "outputs": [],
      "stateMutability": "nonpayable",
      "type": "function"
    }
  ],
  "bytecode": "0x608060405234801561001057600080fd5b50611814806100206000396000f3fe608060405234801561001057600080fd5b50600436106100625760003560e01c80632c92a96914610067578063355e6ce81461008357806335d2e6f1146100b85780635e96b80d146100d6578063ce0a8ed514610106578063fcc436b114610124575b600080fd5b610081600480360381019061007c9190610c01565b610140565b005b61009d60048036038101906100989190610c54565b6102c6565b6040516100af96959493929190610d4a565b60405180910390f35b6100c06103d7565b6040516100cd9190610f74565b60405180910390f35b6100f060048036038101906100eb9190610f96565b61077f565b6040516100fd9190610fc3565b60405180910390f35b61010e6107be565b60405161011b919061108d565b60405180910390f35b61013e600480360381019061013991906111e4565b61084c565b005b6000808473ffffffffffffffffffffffffffffffffffffffff1673ffffffffffffffffffffffffffffffffffffffff16815260200190815260200160002060050160009054906101000a900460ff166101ce576040517f08c379a00000000000000000000000000000000000000000000000000000000081526004016101c59061129f565b60405180910390fd5b60008060008573ffffffffffffffffffffffffffffffffffffffff1673ffffffffffffffffffffffffffffffffffffffff16815260200190815260200160002090508281600301600082825461022491906112ee565b92505081905550601e826102389190611322565b6046670de0b6b3a764000083600301546102529190611393565b61025c9190611322565b61026691906112ee565b81600401819055508373ffffffffffffffffffffffffffffffffffffffff167ffc577563f1b9a0461e24abef1e1fcc0d33d3d881f20b5df6dda59de4aae2c82182600401546040516102b891906113c4565b60405180910390a250505050565b60006020528060005260406000206000915090508060000180546102e99061140e565b80601f01602080910402602001604051908101604052809291908181526020018280546103159061140e565b80156103625780601f1061033757610100808354040283529160200191610362565b820191906000526020600020905b81548152906001019060200180831161034557829003601f168201915b5050505050908060010160009054906101000a900473ffffffffffffffffffffffffffffffffffffffff16908060020160009054906101000a900473ffffffffffffffffffffffffffffffffffffffff16908060030154908060040154908060050160009054906101000a900460ff16905086565b6060600060018054905067ffffffffffffffff8111156103fa576103f96110b9565b5b60405190808252806020026020018201604052801561043357816020015b610420610af5565b8152602001906001900390816104185790505b50905060005b60018054905081101561066b576000806001838154811061045d5761045c61143f565b5b9060005260206000200160009054906101000a900473ffffffffffffffffffffffffffffffffffffffff1673ffffffffffffffffffffffffffffffffffffffff1673ffffffffffffffffffffffffffffffffffffffff1681526020019081526020016000206040518060c00160405290816000820180546104dd9061140e565b80601f01602080910402602001604051908101604052809291908181526020018280546105099061140e565b80156105565780601f1061052b57610100808354040283529160200191610556565b820191906000526020600020905b81548152906001019060200180831161053957829003601f168201915b505050505081526020016001820160009054906101000a900473ffffffffffffffffffffffffffffffffffffffff1673ffffffffffffffffffffffffffffffffffffffff1673ffffffffffffffffffffffffffffffffffffffff1681526020016002820160009054906101000a900473ffffffffffffffffffffffffffffffffffffffff1673ffffffffffffffffffffffffffffffffffffffff1673ffffffffffffffffffffffffffffffffffffffff16815260200160038201548152602001600482015481526020016005820160009054906101000a900460ff16151515158152505082828151811061064d5761064c61143f565b5b602002602001018190525080806106639061146e565b915050610439565b5060005b815181101561077757600060018261068791906112ee565b90505b8251811015610763578282815181106106a6576106a561143f565b5b6020026020010151608001518382815181106106c5576106c461143f565b5b60200260200101516080015111156107505760008383815181106106ec576106eb61143f565b5b602002602001015190508382815181106107095761070861143f565b5b60200260200101518484815181106107245761072361143f565b5b6020026020010181905250808483815181106107435761074261143f565b5b6020026020010181905250505b808061075b9061146e565b91505061068a565b50808061076f9061146e565b91505061066f565b508091505090565b6001818154811061078f57600080fd5b906000526020600020016000915054906101000a900473ffffffffffffffffffffffffffffffffffffffff1681565b6060600180548060200260200160405190810160405280929190818152602001828054801561084257602002820191906000526020600020905b8160009054906101000a900473ffffffffffffffffffffffffffffffffffffffff1673ffffffffffffffffffffffffffffffffffffffff16815260200190600101908083116107f8575b5050505050905090565b6000808373ffffffffffffffffffffffffffffffffffffffff1673ffffffffffffffffffffffffffffffffffffffff16815260200190815260200160002060050160009054906101000a900460ff16156108db576040517f08c379a00000000000000000000000000000000000000000000000000000000081526004016108d290611502565b60405180910390fd5b6040518060c001604052808481526020018373ffffffffffffffffffffffffffffffffffffffff1681526020018273ffffffffffffffffffffffffffffffffffffffff1681526020016000815260200160008152602001600115158152506000808473ffffffffffffffffffffffffffffffffffffffff1673ffffffffffffffffffffffffffffffffffffffff168152602001908152602001600020600082015181600001908161098c91906116ce565b5060208201518160010160006101000a81548173ffffffffffffffffffffffffffffffffffffffff021916908373ffffffffffffffffffffffffffffffffffffffff16021790555060408201518160020160006101000a81548173ffffffffffffffffffffffffffffffffffffffff021916908373ffffffffffffffffffffffffffffffffffffffff160217905550606082015181600301556080820151816004015560a08201518160050160006101000a81548160ff0219169083151502179055509050506001829080600181540180825580915050600190039060005260206000200160009091909190916101000a81548173ffffffffffffffffffffffffffffffffffffffff021916908373ffffffffffffffffffffffffffffffffffffffff1602179055507f94aec3dc6cb6f40c1de17e8e63a10905c1d89509ee5f4649a1640ae029a25595838383604051610ae8939291906117a0565b60405180910390a1505050565b6040518060c0016040528060608152602001600073ffffffffffffffffffffffffffffffffffffffff168152602001600073ffffffffffffffffffffffffffffffffffffffff16815260200160008152602001600081526020016000151581525090565b6000604051905090565b600080fd5b600080fd5b600073ffffffffffffffffffffffffffffffffffffffff82169050919050565b6000610b9882610b6d565b9050919050565b610ba881610b8d565b8114610bb357600080fd5b50565b600081359050610bc581610b9f565b92915050565b6000819050919050565b610bde81610bcb565b8114610be957600080fd5b50565b600081359050610bfb81610bd5565b92915050565b600080600060608486031215610c1a57610c19610b63565b5b6000610c2886828701610bb6565b9350506020610c3986828701610bec565b9250506040610c4a86828701610bec565b9150509250925092565b600060208284031215610c6a57610c69610b63565b5b6000610c7884828501610bb6565b91505092915050565b600081519050919050565b600082825260208201905092915050565b60005b83811015610cbb578082015181840152602081019050610ca0565b60008484015250505050565b6000601f19601f8301169050919050565b6000610ce382610c81565b610ced8185610c8c565b9350610cfd818560208601610c9d565b610d0681610cc7565b840191505092915050565b610d1a81610b8d565b82525050565b610d2981610bcb565b82525050565b60008115159050919050565b610d4481610d2f565b82525050565b600060c0820190508181036000830152610d648189610cd8565b9050610d736020830188610d11565b610d806040830187610d11565b610d8d6060830186610d20565b610d9a6080830185610d20565b610da760a0830184610d3b565b979650505050505050565b600081519050919050565b600082825260208201905092915050565b6000819050602082019050919050565b600082825260208201905092915050565b6000610dfa82610c81565b610e048185610dde565b9350610e14818560208601610c9d565b610e1d81610cc7565b840191505092915050565b610e3181610b8d565b82525050565b610e4081610bcb565b82525050565b610e4f81610d2f565b82525050565b600060c0830160008301518482036000860152610e728282610def565b9150506020830151610e876020860182610e28565b506040830151610e9a6040860182610e28565b506060830151610ead6060860182610e37565b506080830151610ec06080860182610e37565b5060a0830151610ed360a0860182610e46565b508091505092915050565b6000610eea8383610e55565b905092915050565b6000602082019050919050565b6000610f0a82610db2565b610f148185610dbd565b935083602082028501610f2685610dce565b8060005b85811015610f625784840389528151610f438582610ede565b9450610f4e83610ef2565b925060208a01995050600181019050610f2a565b50829750879550505050505092915050565b60006020820190508181036000830152610f8e8184610eff565b905092915050565b600060208284031215610fac57610fab610b63565b5b6000610fba84828501610bec565b91505092915050565b6000602082019050610fd86000830184610d11565b92915050565b600081519050919050565b600082825260208201905092915050565b6000819050602082019050919050565b60006110168383610e28565b60208301905092915050565b6000602082019050919050565b600061103a82610fde565b6110448185610fe9565b935061104f83610ffa565b8060005b83811015611080578151611067888261100a565b975061107283611022565b925050600181019050611053565b5085935050505092915050565b600060208201905081810360008301526110a7818461102f565b905092915050565b600080fd5b600080fd5b7f4e487b7100000000000000000000000000000000000000000000000000000000600052604160045260246000fd5b6110f182610cc7565b810181811067ffffffffffffffff821117156111105761110f6110b9565b5b80604052505050565b6000611123610b59565b905061112f82826110e8565b919050565b600067ffffffffffffffff82111561114f5761114e6110b9565b5b61115882610cc7565b9050602081019050919050565b82818337600083830152505050565b600061118761118284611134565b611119565b9050828152602081018484840111156111a3576111a26110b4565b5b6111ae848285611165565b509392505050565b600082601f8301126111cb576111ca6110af565b5b81356111db848260208601611174565b91505092915050565b6000806000606084860312156111fd576111fc610b63565b5b600084013567ffffffffffffffff81111561121b5761121a610b68565b5b611227868287016111b6565b935050602061123886828701610bb6565b925050604061124986828701610bb6565b9150509250925092565b7f436f6d70616e79206e6f74207265676973746572656400000000000000000000600082015250565b6000611289601683610c8c565b915061129482611253565b602082019050919050565b600060208201905081810360008301526112b88161127c565b9050919050565b7f4e487b7100000000000000000000000000000000000000000000000000000000600052601160045260246000fd5b60006112f982610bcb565b915061130483610bcb565b925082820190508082111561131c5761131b6112bf565b5b92915050565b600061132d82610bcb565b915061133883610bcb565b925082820261134681610bcb565b9150828204841483151761135d5761135c6112bf565b5b5092915050565b7f4e487b7100000000000000000000000000000000000000000000000000000000600052601260045260246000fd5b600061139e82610bcb565b91506113a983610bcb565b9250826113b9576113b8611364565b5b828204905092915050565b60006020820190506113d96000830184610d20565b92915050565b7f4e487b7100000000000000000000000000000000000000000000000000000000600052602260045260246000fd5b6000600282049050600182168061142657607f821691505b602082108103611439576114386113df565b5b50919050565b7f4e487b7100000000000000000000000000000000000000000000000000000000600052603260045260246000fd5b600061147982610bcb565b91507fffffffffffffffffffffffffffffffffffffffffffffffffffffffffffffffff82036114ab576114aa6112bf565b5b600182019050919050565b7f436f6d70616e7920616c72656164792072656769737465726564000000000000600082015250565b60006114ec601a83610c8c565b91506114f7826114b6565b602082019050919050565b6000602082019050818103600083015261151b816114df565b9050919050565b60008190508160005260206000209050919050565b60006020601f8301049050919050565b600082821b905092915050565b6000600883026115847fffffffffffffffffffffffffffffffffffffffffffffffffffffffffffffffff82611547565b61158e8683611547565b95508019841693508086168417925050509392505050565b6000819050919050565b60006115cb6115c66115c184610bcb565b6115a6565b610bcb565b9050919050565b6000819050919050565b6115e5836115b0565b6115f96115f1826115d2565b848454611554565b825550505050565b600090565b61160e611601565b6116198184846115dc565b505050565b5b8181101561163d57611632600082611606565b60018101905061161f565b5050565b601f8211156116825761165381611522565b61165c84611537565b8101602085101561166b578190505b61167f61167785611537565b83018261161e565b50505b505050565b600082821c905092915050565b60006116a560001984600802611687565b1980831691505092915050565b60006116be8383611694565b9150826002028217905092915050565b6116d782610c81565b67ffffffffffffffff8111156116f0576116ef6110b9565b5b6116fa825461140e565b611705828285611641565b600060209050601f8311600181146117385760008415611726578287015190505b61173085826116b2565b865550611798565b601f19841661174686611522565b60005b8281101561176e57848901518255600182019150602085019450602081019050611749565b8683101561178b5784890151611787601f891682611694565b8355505b6001600288020188555050505b505050505050565b600060608201905081810360008301526117ba8186610cd8565b90506117c96020830185610d11565b6117d66040830184610d11565b94935050505056fea2646970667358221220cce25dc84af1a9348aa2ca5231aba308e07c66a7146a6028b7fe89bc1c61408964736f6c63430008140033",
  "linkReferences": {},
  "deployedLinkReferences": {}
}