{
  "_format": "hh-sol-artifact-1",
  "contractName": "DemandBasedToken",
  "sourceName": "contracts/DemandBasedToken.sol",
  "abi": [
    {
      "inputs": [
        {
          "internalType": "uint256",
          "name": "_initialPrice",
          "type": "uint256"
        }
      ],
      "stateMutability": "nonpayable",
      "type": "constructor"
    },
    {
      "inputs": [],
      "name": "AccessControlBadConfirmation",
      "type": "error"
    },
    {
      "inputs": [
        {
          "internalType": "address",
          "name": "account",
          "type": "address"
        },
        {
          "internalType": "bytes32",
          "name": "neededRole",
          "type": "bytes32"
        }
      ],
      "name": "AccessControlUnauthorizedAccount",
      "type": "error"
    },
    {
      "inputs": [
        {
          "internalType": "address",
          "name": "spender",
          "type": "address"
        },
        {
          "internalType": "uint256",
          "name": "allowance",
          "type": "uint256"
        },
        {
          "internalType": "uint256",
          "name": "needed",
          "type": "uint256"
        }
      ],
      "name": "ERC20InsufficientAllowance",
      "type": "error"
    },
    {
      "inputs": [
        {
          "internalType": "address",
          "name": "sender",
          "type": "address"
        },
        {
          "internalType": "uint256",
          "name": "balance",
          "type": "uint256"
        },
        {
          "internalType": "uint256",
          "name": "needed",
          "type": "uint256"
        }
      ],
      "name": "ERC20InsufficientBalance",
      "type": "error"
    },
    {
      "inputs": [
        {
          "internalType": "address",
          "name": "approver",
          "type": "address"
        }
      ],
      "name": "ERC20InvalidApprover",
      "type": "error"
    },
    {
      "inputs": [
        {
          "internalType": "address",
          "name": "receiver",
          "type": "address"
        }
      ],
      "name": "ERC20InvalidReceiver",
      "type": "error"
    },
    {
      "inputs": [
        {
          "internalType": "address",
          "name": "sender",
          "type": "address"
        }
      ],
      "name": "ERC20InvalidSender",
      "type": "error"
    },
    {
      "inputs": [
        {
          "internalType": "address",
          "name": "spender",
          "type": "address"
        }
      ],
      "name": "ERC20InvalidSpender",
      "type": "error"
    },
    {
      "anonymous": false,
      "inputs": [
        {
          "indexed": true,
          "internalType": "address",
          "name": "owner",
          "type": "address"
        },
        {
          "indexed": true,
          "internalType": "address",
          "name": "spender",
          "type": "address"
        },
        {
          "indexed": false,
          "internalType": "uint256",
          "name": "value",
          "type": "uint256"
        }
      ],
      "name": "Approval",
      "type": "event"
    },
    {
      "anonymous": false,
      "inputs": [
        {
          "indexed": false,
          "internalType": "uint256",
          "name": "newPrice",
          "type": "uint256"
        }
      ],
      "name": "PriceUpdated",
      "type": "event"
    },
    {
      "anonymous": false,
      "inputs": [
        {
          "indexed": true,
          "internalType": "bytes32",
          "name": "role",
          "type": "bytes32"
        },
        {
          "indexed": true,
          "internalType": "bytes32",
          "name": "previousAdminRole",
          "type": "bytes32"
        },
        {
          "indexed": true,
          "internalType": "bytes32",
          "name": "newAdminRole",
          "type": "bytes32"
        }
      ],
      "name": "RoleAdminChanged",
      "type": "event"
    },
    {
      "anonymous": false,
      "inputs": [
        {
          "indexed": true,
          "internalType": "bytes32",
          "name": "role",
          "type": "bytes32"
        },
        {
          "indexed": true,
          "internalType": "address",
          "name": "account",
          "type": "address"
        },
        {
          "indexed": true,
          "internalType": "address",
          "name": "sender",
          "type": "address"
        }
      ],
      "name": "RoleGranted",
      "type": "event"
    },
    {
      "anonymous": false,
      "inputs": [
        {
          "indexed": true,
          "internalType": "bytes32",
          "name": "role",
          "type": "bytes32"
        },
        {
          "indexed": true,
          "internalType": "address",
          "name": "account",
          "type": "address"
        },
        {
          "indexed": true,
          "internalType": "address",
          "name": "sender",
          "type": "address"
        }
      ],
      "name": "RoleRevoked",
      "type": "event"
    },
    {
      "anonymous": false,
      "inputs": [
        {
          "indexed": true,
          "internalType": "address",
          "name": "buyer",
          "type": "address"
        },
        {
          "indexed": false,
          "internalType": "uint256",
          "name": "amount",
          "type": "uint256"
        },
        {
          "indexed": false,
          "internalType": "uint256",
          "name": "price",
          "type": "uint256"
        }
      ],
      "name": "TokensMinted",
      "type": "event"
    },
    {
      "anonymous": false,
      "inputs": [
        {
          "indexed": true,
          "internalType": "address",
          "name": "from",
          "type": "address"
        },
        {
          "indexed": true,
          "internalType": "address",
          "name": "to",
          "type": "address"
        },
        {
          "indexed": false,
          "internalType": "uint256",
          "name": "value",
          "type": "uint256"
        }
      ],
      "name": "Transfer",
      "type": "event"
    },
    {
      "inputs": [],
      "name": "DEFAULT_ADMIN_ROLE",
      "outputs": [
        {
          "internalType": "bytes32",
          "name": "",
          "type": "bytes32"
        }
      ],
      "stateMutability": "view",
      "type": "function"
    },
    {
      "inputs": [],
      "name": "MINTER_ROLE",
      "outputs": [
        {
          "internalType": "bytes32",
          "name": "",
          "type": "bytes32"
        }
      ],
      "stateMutability": "view",
      "type": "function"
    },
    {
      "inputs": [
        {
          "internalType": "address",
          "name": "owner",
          "type": "address"
        },
        {
          "internalType": "address",
          "name": "spender",
          "type": "address"
        }
      ],
      "name": "allowance",
      "outputs": [
        {
          "internalType": "uint256",
          "name": "",
          "type": "uint256"
        }
      ],
      "stateMutability": "view",
      "type": "function"
    },
    {
      "inputs": [
        {
          "internalType": "address",
          "name": "spender",
          "type": "address"
        },
        {
          "internalType": "uint256",
          "name": "value",
          "type": "uint256"
        }
      ],
      "name": "approve",
      "outputs": [
        {
          "internalType": "bool",
          "name": "",
          "type": "bool"
        }
      ],
      "stateMutability": "nonpayable",
      "type": "function"
    },
    {
      "inputs": [
        {
          "internalType": "address",
          "name": "account",
          "type": "address"
        }
      ],
      "name": "balanceOf",
      "outputs": [
        {
          "internalType": "uint256",
          "name": "",
          "type": "uint256"
        }
      ],
      "stateMutability": "view",
      "type": "function"
    },
    {
      "inputs": [],
      "name": "decimals",
      "outputs": [
        {
          "internalType": "uint8",
          "name": "",
          "type": "uint8"
        }
      ],
      "stateMutability": "view",
      "type": "function"
    },
    {
      "inputs": [
        {
          "internalType": "bytes32",
          "name": "role",
          "type": "bytes32"
        }
      ],
      "name": "getRoleAdmin",
      "outputs": [
        {
          "internalType": "bytes32",
          "name": "",
          "type": "bytes32"
        }
      ],
      "stateMutability": "view",
      "type": "function"
    },
    {
      "inputs": [],
      "name": "getTokenPrice",
      "outputs": [
        {
          "internalType": "uint256",
          "name": "",
          "type": "uint256"
        }
      ],
      "stateMutability": "view",
      "type": "function"
    },
    {
      "inputs": [
        {
          "internalType": "bytes32",
          "name": "role",
          "type": "bytes32"
        },
        {
          "internalType": "address",
          "name": "account",
          "type": "address"
        }
      ],
      "name": "grantRole",
      "outputs": [],
      "stateMutability": "nonpayable",
      "type": "function"
    },
    {
      "inputs": [
        {
          "internalType": "bytes32",
          "name": "role",
          "type": "bytes32"
        },
        {
          "internalType": "address",
          "name": "account",
          "type": "address"
        }
      ],
      "name": "hasRole",
      "outputs": [
        {
          "internalType": "bool",
          "name": "",
          "type": "bool"
        }
      ],
      "stateMutability": "view",
      "type": "function"
    },
    {
      "inputs": [],
      "name": "initialPrice",
      "outputs": [
        {
          "internalType": "uint256",
          "name": "",
          "type": "uint256"
        }
      ],
      "stateMutability": "view",
      "type": "function"
    },
    {
      "inputs": [
        {
          "internalType": "address",
          "name": "buyer",
          "type": "address"
        },
        {
          "internalType": "uint256",
          "name": "tokensToMint",
          "type": "uint256"
        }
      ],
      "name": "mintTokens",
      "outputs": [],
      "stateMutability": "nonpayable",
      "type": "function"
    },
    {
      "inputs": [],
      "name": "name",
      "outputs": [
        {
          "internalType": "string",
          "name": "",
          "type": "string"
        }
      ],
      "stateMutability": "view",
      "type": "function"
    },
    {
      "inputs": [],
      "name": "owner",
      "outputs": [
        {
          "internalType": "address",
          "name": "",
          "type": "address"
        }
      ],
      "stateMutability": "view",
      "type": "function"
    },
    {
      "inputs": [
        {
          "internalType": "bytes32",
          "name": "role",
          "type": "bytes32"
        },
        {
          "internalType": "address",
          "name": "callerConfirmation",
          "type": "address"
        }
      ],
      "name": "renounceRole",
      "outputs": [],
      "stateMutability": "nonpayable",
      "type": "function"
    },
    {
      "inputs": [
        {
          "internalType": "bytes32",
          "name": "role",
          "type": "bytes32"
        },
        {
          "internalType": "address",
          "name": "account",
          "type": "address"
        }
      ],
      "name": "revokeRole",
      "outputs": [],
      "stateMutability": "nonpayable",
      "type": "function"
    },
    {
      "inputs": [
        {
          "internalType": "bytes4",
          "name": "interfaceId",
          "type": "bytes4"
        }
      ],
      "name": "supportsInterface",
      "outputs": [
        {
          "internalType": "bool",
          "name": "",
          "type": "bool"
        }
      ],
      "stateMutability": "view",
      "type": "function"
    },
    {
      "inputs": [],
      "name": "symbol",
      "outputs": [
        {
          "internalType": "string",
          "name": "",
          "type": "string"
        }
      ],
      "stateMutability": "view",
      "type": "function"
    },
    {
      "inputs": [],
      "name": "tokenPrice",
      "outputs": [
        {
          "internalType": "uint256",
          "name": "",
          "type": "uint256"
        }
      ],
      "stateMutability": "view",
      "type": "function"
    },
    {
      "inputs": [],
      "name": "totalDeposited",
      "outputs": [
        {
          "internalType": "uint256",
          "name": "",
          "type": "uint256"
        }
      ],
      "stateMutability": "view",
      "type": "function"
    },
    {
      "inputs": [],
      "name": "totalSupply",
      "outputs": [
        {
          "internalType": "uint256",
          "name": "",
          "type": "uint256"
        }
      ],
      "stateMutability": "view",
      "type": "function"
    },
    {
      "inputs": [
        {
          "internalType": "address",
          "name": "to",
          "type": "address"
        },
        {
          "internalType": "uint256",
          "name": "value",
          "type": "uint256"
        }
      ],
      "name": "transfer",
      "outputs": [
        {
          "internalType": "bool",
          "name": "",
          "type": "bool"
        }
      ],
      "stateMutability": "nonpayable",
      "type": "function"
    },
    {
      "inputs": [
        {
          "internalType": "address",
          "name": "from",
          "type": "address"
        },
        {
          "internalType": "address",
          "name": "to",
          "type": "address"
        },
        {
          "internalType": "uint256",
          "name": "value",
          "type": "uint256"
        }
      ],
      "name": "transferFrom",
      "outputs": [
        {
          "internalType": "bool",
          "name": "",
          "type": "bool"
        }
      ],
      "stateMutability": "nonpayable",
      "type": "function"
    },
    {
      "inputs": [
        {
          "internalType": "uint256",
          "name": "withdrawalAmount",
          "type": "uint256"
        }
      ],
      "name": "updatePriceOnWithdraw",
      "outputs": [],
      "stateMutability": "nonpayable",
      "type": "function"
    }
  ],
  "bytecode": "0x60806040523480156200001157600080fd5b506040516200229b3803806200229b833981810160405281019062000037919062000321565b6040518060400160405280601081526020017f44656d616e644261736564546f6b656e000000000000000000000000000000008152506040518060400160405280600381526020017f44425400000000000000000000000000000000000000000000000000000000008152508160039081620000b49190620005c3565b508060049081620000c69190620005c3565b50505033600660006101000a81548173ffffffffffffffffffffffffffffffffffffffff021916908373ffffffffffffffffffffffffffffffffffffffff160217905550806008819055506008546007819055506200012f6000801b336200016a60201b60201c565b50620001627f9f2df0fed2c77648de5860a4cc508cd0818c85b8b8a1ab4ceeef8d981c8956a6336200016a60201b60201c565b5050620006aa565b60006200017e83836200026e60201b60201c565b620002635760016005600085815260200190815260200160002060000160008473ffffffffffffffffffffffffffffffffffffffff1673ffffffffffffffffffffffffffffffffffffffff16815260200190815260200160002060006101000a81548160ff021916908315150217905550620001ff620002d960201b60201c565b73ffffffffffffffffffffffffffffffffffffffff168273ffffffffffffffffffffffffffffffffffffffff16847f2f8788117e7eff1d82e926ec794901d17c78024a50270940304540a733656f0d60405160405180910390a46001905062000268565b600090505b92915050565b60006005600084815260200190815260200160002060000160008373ffffffffffffffffffffffffffffffffffffffff1673ffffffffffffffffffffffffffffffffffffffff16815260200190815260200160002060009054906101000a900460ff16905092915050565b600033905090565b600080fd5b6000819050919050565b620002fb81620002e6565b81146200030757600080fd5b50565b6000815190506200031b81620002f0565b92915050565b6000602082840312156200033a5762000339620002e1565b5b60006200034a848285016200030a565b91505092915050565b600081519050919050565b7f4e487b7100000000000000000000000000000000000000000000000000000000600052604160045260246000fd5b7f4e487b7100000000000000000000000000000000000000000000000000000000600052602260045260246000fd5b60006002820490506001821680620003d557607f821691505b602082108103620003eb57620003ea6200038d565b5b50919050565b60008190508160005260206000209050919050565b60006020601f8301049050919050565b600082821b905092915050565b600060088302620004557fffffffffffffffffffffffffffffffffffffffffffffffffffffffffffffffff8262000416565b62000461868362000416565b95508019841693508086168417925050509392505050565b6000819050919050565b6000620004a46200049e6200049884620002e6565b62000479565b620002e6565b9050919050565b6000819050919050565b620004c08362000483565b620004d8620004cf82620004ab565b84845462000423565b825550505050565b600090565b620004ef620004e0565b620004fc818484620004b5565b505050565b5b81811015620005245762000518600082620004e5565b60018101905062000502565b5050565b601f82111562000573576200053d81620003f1565b620005488462000406565b8101602085101562000558578190505b62000570620005678562000406565b83018262000501565b50505b505050565b600082821c905092915050565b6000620005986000198460080262000578565b1980831691505092915050565b6000620005b3838362000585565b9150826002028217905092915050565b620005ce8262000353565b67ffffffffffffffff811115620005ea57620005e96200035e565b5b620005f68254620003bc565b6200060382828562000528565b600060209050601f8311600181146200063b576000841562000626578287015190505b620006328582620005a5565b865550620006a2565b601f1984166200064b86620003f1565b60005b8281101562000675578489015182556001820191506020850194506020810190506200064e565b8683101562000695578489015162000691601f89168262000585565b8355505b6001600288020188555050505b505050505050565b611be180620006ba6000396000f3fe608060405234801561001057600080fd5b50600436106101585760003560e01c80637ff9b596116100c3578063d12607b81161007c578063d12607b8146103f3578063d53913931461040f578063d547741f1461042d578063dd62ed3e14610449578063f0dda65c14610479578063ff50abdc1461049557610158565b80637ff9b5961461031b5780638da5cb5b1461033957806391d148541461035757806395d89b4114610387578063a217fddf146103a5578063a9059cbb146103c357610158565b8063248a9ca311610115578063248a9ca3146102475780632f2ff15d14610277578063313ce5671461029357806336568abe146102b15780634b94f50e146102cd57806370a08231146102eb57610158565b806301ffc9a71461015d57806306fdde031461018d578063095ea7b3146101ab57806318160ddd146101db5780631d0806ae146101f957806323b872dd14610217575b600080fd5b610177600480360381019061017291906114c9565b6104b3565b6040516101849190611511565b60405180910390f35b61019561052d565b6040516101a291906115bc565b60405180910390f35b6101c560048036038101906101c09190611672565b6105bf565b6040516101d29190611511565b60405180910390f35b6101e36105e2565b6040516101f091906116c1565b60405180910390f35b6102016105ec565b60405161020e91906116c1565b60405180910390f35b610231600480360381019061022c91906116dc565b6105f2565b60405161023e9190611511565b60405180910390f35b610261600480360381019061025c9190611765565b610621565b60405161026e91906117a1565b60405180910390f35b610291600480360381019061028c91906117bc565b610641565b005b61029b610663565b6040516102a89190611818565b60405180910390f35b6102cb60048036038101906102c691906117bc565b61066c565b005b6102d56106e7565b6040516102e291906116c1565b60405180910390f35b61030560048036038101906103009190611833565b6106f1565b60405161031291906116c1565b60405180910390f35b610323610739565b60405161033091906116c1565b60405180910390f35b61034161073f565b60405161034e919061186f565b60405180910390f35b610371600480360381019061036c91906117bc565b610765565b60405161037e9190611511565b60405180910390f35b61038f6107d0565b60405161039c91906115bc565b60405180910390f35b6103ad610862565b6040516103ba91906117a1565b60405180910390f35b6103dd60048036038101906103d89190611672565b610869565b6040516103ea9190611511565b60405180910390f35b61040d6004803603810190610408919061188a565b61088c565b005b6104176109af565b60405161042491906117a1565b60405180910390f35b610447600480360381019061044291906117bc565b6109d3565b005b610463600480360381019061045e91906118b7565b6109f5565b60405161047091906116c1565b60405180910390f35b610493600480360381019061048e9190611672565b610a7c565b005b61049d610b28565b6040516104aa91906116c1565b60405180910390f35b60007f7965db0b000000000000000000000000000000000000000000000000000000007bffffffffffffffffffffffffffffffffffffffffffffffffffffffff1916827bffffffffffffffffffffffffffffffffffffffffffffffffffffffff19161480610526575061052582610b2e565b5b9050919050565b60606003805461053c90611926565b80601f016020809104026020016040519081016040528092919081815260200182805461056890611926565b80156105b55780601f1061058a576101008083540402835291602001916105b5565b820191906000526020600020905b81548152906001019060200180831161059857829003601f168201915b5050505050905090565b6000806105ca610b98565b90506105d7818585610ba0565b600191505092915050565b6000600254905090565b60085481565b6000806105fd610b98565b905061060a858285610bb2565b610615858585610c46565b60019150509392505050565b600060056000838152602001908152602001600020600101549050919050565b61064a82610621565b61065381610d3a565b61065d8383610d4e565b50505050565b60006012905090565b610674610b98565b73ffffffffffffffffffffffffffffffffffffffff168173ffffffffffffffffffffffffffffffffffffffff16146106d8576040517f6697b23200000000000000000000000000000000000000000000000000000000815260040160405180910390fd5b6106e28282610e40565b505050565b6000600754905090565b60008060008373ffffffffffffffffffffffffffffffffffffffff1673ffffffffffffffffffffffffffffffffffffffff168152602001908152602001600020549050919050565b60075481565b600660009054906101000a900473ffffffffffffffffffffffffffffffffffffffff1681565b60006005600084815260200190815260200160002060000160008373ffffffffffffffffffffffffffffffffffffffff1673ffffffffffffffffffffffffffffffffffffffff16815260200190815260200160002060009054906101000a900460ff16905092915050565b6060600480546107df90611926565b80601f016020809104026020016040519081016040528092919081815260200182805461080b90611926565b80156108585780601f1061082d57610100808354040283529160200191610858565b820191906000526020600020905b81548152906001019060200180831161083b57829003601f168201915b5050505050905090565b6000801b81565b600080610874610b98565b9050610881818585610c46565b600191505092915050565b7f9f2df0fed2c77648de5860a4cc508cd0818c85b8b8a1ab4ceeef8d981c8956a66108b681610d3a565b6009548211156108fb576040517f08c379a00000000000000000000000000000000000000000000000000000000081526004016108f2906119c9565b60405180910390fd5b816009600082825461090d9190611a18565b925050819055506000600954600754846109279190611a4c565b6109319190611abd565b9050600854816109419190611aee565b6007541161095757600854600781905550610971565b80600760008282546109699190611a18565b925050819055505b7f66cbca4f3c64fecf1dcb9ce094abcf7f68c3450a1d4e3a8e917dd621edb4ebe06007546040516109a291906116c1565b60405180910390a1505050565b7f9f2df0fed2c77648de5860a4cc508cd0818c85b8b8a1ab4ceeef8d981c8956a681565b6109dc82610621565b6109e581610d3a565b6109ef8383610e40565b50505050565b6000600160008473ffffffffffffffffffffffffffffffffffffffff1673ffffffffffffffffffffffffffffffffffffffff16815260200190815260200160002060008373ffffffffffffffffffffffffffffffffffffffff1673ffffffffffffffffffffffffffffffffffffffff16815260200190815260200160002054905092915050565b7f9f2df0fed2c77648de5860a4cc508cd0818c85b8b8a1ab4ceeef8d981c8956a6610aa681610d3a565b8160096000828254610ab89190611aee565b92505081905550610ac98383610f33565b610ad1610fb5565b8273ffffffffffffffffffffffffffffffffffffffff167f2e8ac5177a616f2aec08c3048f5021e4e9743ece034e8d83ba5caf76688bb47583600754604051610b1b929190611b22565b60405180910390a2505050565b60095481565b60007f01ffc9a7000000000000000000000000000000000000000000000000000000007bffffffffffffffffffffffffffffffffffffffffffffffffffffffff1916827bffffffffffffffffffffffffffffffffffffffffffffffffffffffff1916149050919050565b600033905090565b610bad838383600161101f565b505050565b6000610bbe84846109f5565b90507fffffffffffffffffffffffffffffffffffffffffffffffffffffffffffffffff8114610c405781811015610c30578281836040517ffb8f41b2000000000000000000000000000000000000000000000000000000008152600401610c2793929190611b4b565b60405180910390fd5b610c3f8484848403600061101f565b5b50505050565b600073ffffffffffffffffffffffffffffffffffffffff168373ffffffffffffffffffffffffffffffffffffffff1603610cb85760006040517f96c6fd1e000000000000000000000000000000000000000000000000000000008152600401610caf919061186f565b60405180910390fd5b600073ffffffffffffffffffffffffffffffffffffffff168273ffffffffffffffffffffffffffffffffffffffff1603610d2a5760006040517fec442f05000000000000000000000000000000000000000000000000000000008152600401610d21919061186f565b60405180910390fd5b610d358383836111f6565b505050565b610d4b81610d46610b98565b61141b565b50565b6000610d5a8383610765565b610e355760016005600085815260200190815260200160002060000160008473ffffffffffffffffffffffffffffffffffffffff1673ffffffffffffffffffffffffffffffffffffffff16815260200190815260200160002060006101000a81548160ff021916908315150217905550610dd2610b98565b73ffffffffffffffffffffffffffffffffffffffff168273ffffffffffffffffffffffffffffffffffffffff16847f2f8788117e7eff1d82e926ec794901d17c78024a50270940304540a733656f0d60405160405180910390a460019050610e3a565b600090505b92915050565b6000610e4c8383610765565b15610f285760006005600085815260200190815260200160002060000160008473ffffffffffffffffffffffffffffffffffffffff1673ffffffffffffffffffffffffffffffffffffffff16815260200190815260200160002060006101000a81548160ff021916908315150217905550610ec5610b98565b73ffffffffffffffffffffffffffffffffffffffff168273ffffffffffffffffffffffffffffffffffffffff16847ff6391f5c32d9c69d2a47ea670b442974b53935d1edc7fd64eb21e047a839171b60405160405180910390a460019050610f2d565b600090505b92915050565b600073ffffffffffffffffffffffffffffffffffffffff168273ffffffffffffffffffffffffffffffffffffffff1603610fa55760006040517fec442f05000000000000000000000000000000000000000000000000000000008152600401610f9c919061186f565b60405180910390fd5b610fb1600083836111f6565b5050565b6000678ac7230489e80000600954610fcd9190611abd565b905080600854610fdd9190611aee565b6007819055507f66cbca4f3c64fecf1dcb9ce094abcf7f68c3450a1d4e3a8e917dd621edb4ebe060075460405161101491906116c1565b60405180910390a150565b600073ffffffffffffffffffffffffffffffffffffffff168473ffffffffffffffffffffffffffffffffffffffff16036110915760006040517fe602df05000000000000000000000000000000000000000000000000000000008152600401611088919061186f565b60405180910390fd5b600073ffffffffffffffffffffffffffffffffffffffff168373ffffffffffffffffffffffffffffffffffffffff16036111035760006040517f94280d620000000000000000000000000000000000000000000000000000000081526004016110fa919061186f565b60405180910390fd5b81600160008673ffffffffffffffffffffffffffffffffffffffff1673ffffffffffffffffffffffffffffffffffffffff16815260200190815260200160002060008573ffffffffffffffffffffffffffffffffffffffff1673ffffffffffffffffffffffffffffffffffffffff1681526020019081526020016000208190555080156111f0578273ffffffffffffffffffffffffffffffffffffffff168473ffffffffffffffffffffffffffffffffffffffff167f8c5be1e5ebec7d5bd14f71427d1e84f3dd0314c0f7b2291e5b200ac8c7c3b925846040516111e791906116c1565b60405180910390a35b50505050565b600073ffffffffffffffffffffffffffffffffffffffff168373ffffffffffffffffffffffffffffffffffffffff160361124857806002600082825461123c9190611aee565b9250508190555061131b565b60008060008573ffffffffffffffffffffffffffffffffffffffff1673ffffffffffffffffffffffffffffffffffffffff168152602001908152602001600020549050818110156112d4578381836040517fe450d38c0000000000000000000000000000000000000000000000000000000081526004016112cb93929190611b4b565b60405180910390fd5b8181036000808673ffffffffffffffffffffffffffffffffffffffff1673ffffffffffffffffffffffffffffffffffffffff16815260200190815260200160002081905550505b600073ffffffffffffffffffffffffffffffffffffffff168273ffffffffffffffffffffffffffffffffffffffff160361136457806002600082825403925050819055506113b1565b806000808473ffffffffffffffffffffffffffffffffffffffff1673ffffffffffffffffffffffffffffffffffffffff168152602001908152602001600020600082825401925050819055505b8173ffffffffffffffffffffffffffffffffffffffff168373ffffffffffffffffffffffffffffffffffffffff167fddf252ad1be2c89b69c2b068fc378daa952ba7f163c4a11628f55a4df523b3ef8360405161140e91906116c1565b60405180910390a3505050565b6114258282610765565b6114685780826040517fe2517d3f00000000000000000000000000000000000000000000000000000000815260040161145f929190611b82565b60405180910390fd5b5050565b600080fd5b60007fffffffff0000000000000000000000000000000000000000000000000000000082169050919050565b6114a681611471565b81146114b157600080fd5b50565b6000813590506114c38161149d565b92915050565b6000602082840312156114df576114de61146c565b5b60006114ed848285016114b4565b91505092915050565b60008115159050919050565b61150b816114f6565b82525050565b60006020820190506115266000830184611502565b92915050565b600081519050919050565b600082825260208201905092915050565b60005b8381101561156657808201518184015260208101905061154b565b60008484015250505050565b6000601f19601f8301169050919050565b600061158e8261152c565b6115988185611537565b93506115a8818560208601611548565b6115b181611572565b840191505092915050565b600060208201905081810360008301526115d68184611583565b905092915050565b600073ffffffffffffffffffffffffffffffffffffffff82169050919050565b6000611609826115de565b9050919050565b611619816115fe565b811461162457600080fd5b50565b60008135905061163681611610565b92915050565b6000819050919050565b61164f8161163c565b811461165a57600080fd5b50565b60008135905061166c81611646565b92915050565b600080604083850312156116895761168861146c565b5b600061169785828601611627565b92505060206116a88582860161165d565b9150509250929050565b6116bb8161163c565b82525050565b60006020820190506116d660008301846116b2565b92915050565b6000806000606084860312156116f5576116f461146c565b5b600061170386828701611627565b935050602061171486828701611627565b92505060406117258682870161165d565b9150509250925092565b6000819050919050565b6117428161172f565b811461174d57600080fd5b50565b60008135905061175f81611739565b92915050565b60006020828403121561177b5761177a61146c565b5b600061178984828501611750565b91505092915050565b61179b8161172f565b82525050565b60006020820190506117b66000830184611792565b92915050565b600080604083850312156117d3576117d261146c565b5b60006117e185828601611750565b92505060206117f285828601611627565b9150509250929050565b600060ff82169050919050565b611812816117fc565b82525050565b600060208201905061182d6000830184611809565b92915050565b6000602082840312156118495761184861146c565b5b600061185784828501611627565b91505092915050565b611869816115fe565b82525050565b60006020820190506118846000830184611860565b92915050565b6000602082840312156118a05761189f61146c565b5b60006118ae8482850161165d565b91505092915050565b600080604083850312156118ce576118cd61146c565b5b60006118dc85828601611627565b92505060206118ed85828601611627565b9150509250929050565b7f4e487b7100000000000000000000000000000000000000000000000000000000600052602260045260246000fd5b6000600282049050600182168061193e57607f821691505b602082108103611951576119506118f7565b5b50919050565b7f5769746864726177616c206578636565647320746f74616c206465706f73697460008201527f6564000000000000000000000000000000000000000000000000000000000000602082015250565b60006119b3602283611537565b91506119be82611957565b604082019050919050565b600060208201905081810360008301526119e2816119a6565b9050919050565b7f4e487b7100000000000000000000000000000000000000000000000000000000600052601160045260246000fd5b6000611a238261163c565b9150611a2e8361163c565b9250828203905081811115611a4657611a456119e9565b5b92915050565b6000611a578261163c565b9150611a628361163c565b9250828202611a708161163c565b91508282048414831517611a8757611a866119e9565b5b5092915050565b7f4e487b7100000000000000000000000000000000000000000000000000000000600052601260045260246000fd5b6000611ac88261163c565b9150611ad38361163c565b925082611ae357611ae2611a8e565b5b828204905092915050565b6000611af98261163c565b9150611b048361163c565b9250828201905080821115611b1c57611b1b6119e9565b5b92915050565b6000604082019050611b3760008301856116b2565b611b4460208301846116b2565b9392505050565b6000606082019050611b606000830186611860565b611b6d60208301856116b2565b611b7a60408301846116b2565b949350505050565b6000604082019050611b976000830185611860565b611ba46020830184611792565b939250505056fea26469706673582212201637b1899941010ec7cb11ebfc982f65da353a31d90c51f08a38b07dc20cb2e064736f6c63430008140033",
  "linkReferences": {},
  "deployedLinkReferences": {}
}