{
  "_format": "hh-sol-artifact-1",
  "contractName": "DemandBasedToken",
  "sourceName": "contracts/DemandBasedToken.sol",
  "abi": [
    {
      "inputs": [
        {
          "internalType": "uint256",
          "name": "_initialPrice",
          "type": "uint256"
        }
      ],
      "stateMutability": "nonpayable",
      "type": "constructor"
    },
    {
      "inputs": [
        {
          "internalType": "address",
          "name": "spender",
          "type": "address"
        },
        {
          "internalType": "uint256",
          "name": "allowance",
          "type": "uint256"
        },
        {
          "internalType": "uint256",
          "name": "needed",
          "type": "uint256"
        }
      ],
      "name": "ERC20InsufficientAllowance",
      "type": "error"
    },
    {
      "inputs": [
        {
          "internalType": "address",
          "name": "sender",
          "type": "address"
        },
        {
          "internalType": "uint256",
          "name": "balance",
          "type": "uint256"
        },
        {
          "internalType": "uint256",
          "name": "needed",
          "type": "uint256"
        }
      ],
      "name": "ERC20InsufficientBalance",
      "type": "error"
    },
    {
      "inputs": [
        {
          "internalType": "address",
          "name": "approver",
          "type": "address"
        }
      ],
      "name": "ERC20InvalidApprover",
      "type": "error"
    },
    {
      "inputs": [
        {
          "internalType": "address",
          "name": "receiver",
          "type": "address"
        }
      ],
      "name": "ERC20InvalidReceiver",
      "type": "error"
    },
    {
      "inputs": [
        {
          "internalType": "address",
          "name": "sender",
          "type": "address"
        }
      ],
      "name": "ERC20InvalidSender",
      "type": "error"
    },
    {
      "inputs": [
        {
          "internalType": "address",
          "name": "spender",
          "type": "address"
        }
      ],
      "name": "ERC20InvalidSpender",
      "type": "error"
    },
    {
      "anonymous": false,
      "inputs": [
        {
          "indexed": true,
          "internalType": "address",
          "name": "owner",
          "type": "address"
        },
        {
          "indexed": true,
          "internalType": "address",
          "name": "spender",
          "type": "address"
        },
        {
          "indexed": false,
          "internalType": "uint256",
          "name": "value",
          "type": "uint256"
        }
      ],
      "name": "Approval",
      "type": "event"
    },
    {
      "anonymous": false,
      "inputs": [
        {
          "indexed": false,
          "internalType": "uint256",
          "name": "newPrice",
          "type": "uint256"
        }
      ],
      "name": "PriceUpdated",
      "type": "event"
    },
    {
      "anonymous": false,
      "inputs": [
        {
          "indexed": true,
          "internalType": "address",
          "name": "buyer",
          "type": "address"
        },
        {
          "indexed": false,
          "internalType": "uint256",
          "name": "amount",
          "type": "uint256"
        },
        {
          "indexed": false,
          "internalType": "uint256",
          "name": "price",
          "type": "uint256"
        }
      ],
      "name": "TokensMinted",
      "type": "event"
    },
    {
      "anonymous": false,
      "inputs": [
        {
          "indexed": true,
          "internalType": "address",
          "name": "seller",
          "type": "address"
        },
        {
          "indexed": false,
          "internalType": "uint256",
          "name": "amount",
          "type": "uint256"
        },
        {
          "indexed": false,
          "internalType": "uint256",
          "name": "price",
          "type": "uint256"
        }
      ],
      "name": "TokensWithdrawn",
      "type": "event"
    },
    {
      "anonymous": false,
      "inputs": [
        {
          "indexed": true,
          "internalType": "address",
          "name": "from",
          "type": "address"
        },
        {
          "indexed": true,
          "internalType": "address",
          "name": "to",
          "type": "address"
        },
        {
          "indexed": false,
          "internalType": "uint256",
          "name": "value",
          "type": "uint256"
        }
      ],
      "name": "Transfer",
      "type": "event"
    },
    {
      "inputs": [
        {
          "internalType": "address",
          "name": "owner",
          "type": "address"
        },
        {
          "internalType": "address",
          "name": "spender",
          "type": "address"
        }
      ],
      "name": "allowance",
      "outputs": [
        {
          "internalType": "uint256",
          "name": "",
          "type": "uint256"
        }
      ],
      "stateMutability": "view",
      "type": "function"
    },
    {
      "inputs": [
        {
          "internalType": "address",
          "name": "spender",
          "type": "address"
        },
        {
          "internalType": "uint256",
          "name": "value",
          "type": "uint256"
        }
      ],
      "name": "approve",
      "outputs": [
        {
          "internalType": "bool",
          "name": "",
          "type": "bool"
        }
      ],
      "stateMutability": "nonpayable",
      "type": "function"
    },
    {
      "inputs": [
        {
          "internalType": "address",
          "name": "account",
          "type": "address"
        }
      ],
      "name": "balanceOf",
      "outputs": [
        {
          "internalType": "uint256",
          "name": "",
          "type": "uint256"
        }
      ],
      "stateMutability": "view",
      "type": "function"
    },
    {
      "inputs": [],
      "name": "decimals",
      "outputs": [
        {
          "internalType": "uint8",
          "name": "",
          "type": "uint8"
        }
      ],
      "stateMutability": "view",
      "type": "function"
    },
    {
      "inputs": [],
      "name": "depositLiquidity",
      "outputs": [],
      "stateMutability": "payable",
      "type": "function"
    },
    {
      "inputs": [],
      "name": "initialPrice",
      "outputs": [
        {
          "internalType": "uint256",
          "name": "",
          "type": "uint256"
        }
      ],
      "stateMutability": "view",
      "type": "function"
    },
    {
      "inputs": [],
      "name": "mintTokens",
      "outputs": [],
      "stateMutability": "payable",
      "type": "function"
    },
    {
      "inputs": [],
      "name": "name",
      "outputs": [
        {
          "internalType": "string",
          "name": "",
          "type": "string"
        }
      ],
      "stateMutability": "view",
      "type": "function"
    },
    {
      "inputs": [],
      "name": "owner",
      "outputs": [
        {
          "internalType": "address",
          "name": "",
          "type": "address"
        }
      ],
      "stateMutability": "view",
      "type": "function"
    },
    {
      "inputs": [],
      "name": "symbol",
      "outputs": [
        {
          "internalType": "string",
          "name": "",
          "type": "string"
        }
      ],
      "stateMutability": "view",
      "type": "function"
    },
    {
      "inputs": [],
      "name": "tokenPrice",
      "outputs": [
        {
          "internalType": "uint256",
          "name": "",
          "type": "uint256"
        }
      ],
      "stateMutability": "view",
      "type": "function"
    },
    {
      "inputs": [],
      "name": "totalDeposited",
      "outputs": [
        {
          "internalType": "uint256",
          "name": "",
          "type": "uint256"
        }
      ],
      "stateMutability": "view",
      "type": "function"
    },
    {
      "inputs": [],
      "name": "totalSupply",
      "outputs": [
        {
          "internalType": "uint256",
          "name": "",
          "type": "uint256"
        }
      ],
      "stateMutability": "view",
      "type": "function"
    },
    {
      "inputs": [],
      "name": "totalWithdrawn",
      "outputs": [
        {
          "internalType": "uint256",
          "name": "",
          "type": "uint256"
        }
      ],
      "stateMutability": "view",
      "type": "function"
    },
    {
      "inputs": [
        {
          "internalType": "address",
          "name": "to",
          "type": "address"
        },
        {
          "internalType": "uint256",
          "name": "value",
          "type": "uint256"
        }
      ],
      "name": "transfer",
      "outputs": [
        {
          "internalType": "bool",
          "name": "",
          "type": "bool"
        }
      ],
      "stateMutability": "nonpayable",
      "type": "function"
    },
    {
      "inputs": [
        {
          "internalType": "address",
          "name": "from",
          "type": "address"
        },
        {
          "internalType": "address",
          "name": "to",
          "type": "address"
        },
        {
          "internalType": "uint256",
          "name": "value",
          "type": "uint256"
        }
      ],
      "name": "transferFrom",
      "outputs": [
        {
          "internalType": "bool",
          "name": "",
          "type": "bool"
        }
      ],
      "stateMutability": "nonpayable",
      "type": "function"
    },
    {
      "inputs": [
        {
          "internalType": "uint256",
          "name": "amount",
          "type": "uint256"
        }
      ],
      "name": "withdrawTokens",
      "outputs": [],
      "stateMutability": "nonpayable",
      "type": "function"
    },
    {
      "stateMutability": "payable",
      "type": "receive"
    }
  ],
  "bytecode": "0x60806040523480156200001157600080fd5b5060405162001e1e38038062001e1e83398181016040528101906200003791906200015f565b6040518060400160405280601081526020017f44656d616e644261736564546f6b656e000000000000000000000000000000008152506040518060400160405280600381526020017f44425400000000000000000000000000000000000000000000000000000000008152508160039081620000b4919062000401565b508060049081620000c6919062000401565b50505033600560006101000a81548173ffffffffffffffffffffffffffffffffffffffff021916908373ffffffffffffffffffffffffffffffffffffffff160217905550806009819055508060068190555050620004e8565b600080fd5b6000819050919050565b620001398162000124565b81146200014557600080fd5b50565b60008151905062000159816200012e565b92915050565b6000602082840312156200017857620001776200011f565b5b6000620001888482850162000148565b91505092915050565b600081519050919050565b7f4e487b7100000000000000000000000000000000000000000000000000000000600052604160045260246000fd5b7f4e487b7100000000000000000000000000000000000000000000000000000000600052602260045260246000fd5b600060028204905060018216806200021357607f821691505b602082108103620002295762000228620001cb565b5b50919050565b60008190508160005260206000209050919050565b60006020601f8301049050919050565b600082821b905092915050565b600060088302620002937fffffffffffffffffffffffffffffffffffffffffffffffffffffffffffffffff8262000254565b6200029f868362000254565b95508019841693508086168417925050509392505050565b6000819050919050565b6000620002e2620002dc620002d68462000124565b620002b7565b62000124565b9050919050565b6000819050919050565b620002fe83620002c1565b620003166200030d82620002e9565b84845462000261565b825550505050565b600090565b6200032d6200031e565b6200033a818484620002f3565b505050565b5b8181101562000362576200035660008262000323565b60018101905062000340565b5050565b601f821115620003b1576200037b816200022f565b620003868462000244565b8101602085101562000396578190505b620003ae620003a58562000244565b8301826200033f565b50505b505050565b600082821c905092915050565b6000620003d660001984600802620003b6565b1980831691505092915050565b6000620003f18383620003c3565b9150826002028217905092915050565b6200040c8262000191565b67ffffffffffffffff8111156200042857620004276200019c565b5b620004348254620001fa565b6200044182828562000366565b600060209050601f83116001811462000479576000841562000464578287015190505b620004708582620003e3565b865550620004e0565b601f19841662000489866200022f565b60005b82811015620004b3578489015182556001820191506020850194506020810190506200048c565b86831015620004d35784890151620004cf601f891682620003c3565b8355505b6001600288020188555050505b505050505050565b61192680620004f86000396000f3fe6080604052600436106101025760003560e01c806370a0823111610095578063a9059cbb11610064578063a9059cbb14610346578063ca593c5914610383578063dd62ed3e1461038d578063eeb9635c146103ca578063ff50abdc146103d457610109565b806370a08231146102885780637ff9b596146102c55780638da5cb5b146102f057806395d89b411461031b57610109565b806323b872dd116100d157806323b872dd146101cc578063313ce56714610209578063315a095d146102345780634b3197131461025d57610109565b806306fdde031461010e578063095ea7b31461013957806318160ddd146101765780631d0806ae146101a157610109565b3661010957005b600080fd5b34801561011a57600080fd5b506101236103ff565b6040516101309190611232565b60405180910390f35b34801561014557600080fd5b50610160600480360381019061015b91906112ed565b610491565b60405161016d9190611348565b60405180910390f35b34801561018257600080fd5b5061018b6104b4565b6040516101989190611372565b60405180910390f35b3480156101ad57600080fd5b506101b66104be565b6040516101c39190611372565b60405180910390f35b3480156101d857600080fd5b506101f360048036038101906101ee919061138d565b6104c4565b6040516102009190611348565b60405180910390f35b34801561021557600080fd5b5061021e6104f3565b60405161022b91906113fc565b60405180910390f35b34801561024057600080fd5b5061025b60048036038101906102569190611417565b6104fc565b005b34801561026957600080fd5b50610272610677565b60405161027f9190611372565b60405180910390f35b34801561029457600080fd5b506102af60048036038101906102aa9190611444565b61067d565b6040516102bc9190611372565b60405180910390f35b3480156102d157600080fd5b506102da6106c5565b6040516102e79190611372565b60405180910390f35b3480156102fc57600080fd5b506103056106cb565b6040516103129190611480565b60405180910390f35b34801561032757600080fd5b506103306106f1565b60405161033d9190611232565b60405180910390f35b34801561035257600080fd5b5061036d600480360381019061036891906112ed565b610783565b60405161037a9190611348565b60405180910390f35b61038b6107a6565b005b34801561039957600080fd5b506103b460048036038101906103af919061149b565b61087b565b6040516103c19190611372565b60405180910390f35b6103d2610902565b005b3480156103e057600080fd5b506103e96109ea565b6040516103f69190611372565b60405180910390f35b60606003805461040e9061150a565b80601f016020809104026020016040519081016040528092919081815260200182805461043a9061150a565b80156104875780601f1061045c57610100808354040283529160200191610487565b820191906000526020600020905b81548152906001019060200180831161046a57829003601f168201915b5050505050905090565b60008061049c6109f0565b90506104a98185856109f8565b600191505092915050565b6000600254905090565b60095481565b6000806104cf6109f0565b90506104dc858285610a0a565b6104e7858585610a9e565b60019150509392505050565b60006012905090565b806105063361067d565b1015610547576040517f08c379a000000000000000000000000000000000000000000000000000000000815260040161053e90611587565b60405180910390fd5b6000670de0b6b3a76400006006548361056091906115d6565b61056a9190611647565b9050804710156105af576040517f08c379a00000000000000000000000000000000000000000000000000000000081526004016105a6906116c4565b60405180910390fd5b80600860008282546105c191906116e4565b925050819055506105d23383610b92565b3373ffffffffffffffffffffffffffffffffffffffff166108fc829081150290604051600060405180830381858888f19350505050158015610618573d6000803e3d6000fd5b50610621610c14565b3373ffffffffffffffffffffffffffffffffffffffff167fffe903c0abe6b2dbb2f3474ef43d7a3c1fca49e5a774453423ca8e1952aabffa8360065460405161066b929190611718565b60405180910390a25050565b60085481565b60008060008373ffffffffffffffffffffffffffffffffffffffff1673ffffffffffffffffffffffffffffffffffffffff168152602001908152602001600020549050919050565b60065481565b600560009054906101000a900473ffffffffffffffffffffffffffffffffffffffff1681565b6060600480546107009061150a565b80601f016020809104026020016040519081016040528092919081815260200182805461072c9061150a565b80156107795780601f1061074e57610100808354040283529160200191610779565b820191906000526020600020905b81548152906001019060200180831161075c57829003601f168201915b5050505050905090565b60008061078e6109f0565b905061079b818585610a9e565b600191505092915050565b600560009054906101000a900473ffffffffffffffffffffffffffffffffffffffff1673ffffffffffffffffffffffffffffffffffffffff163373ffffffffffffffffffffffffffffffffffffffff1614610836576040517f08c379a000000000000000000000000000000000000000000000000000000000815260040161082d9061178d565b60405180910390fd5b60003411610879576040517f08c379a0000000000000000000000000000000000000000000000000000000008152600401610870906117f9565b60405180910390fd5b565b6000600160008473ffffffffffffffffffffffffffffffffffffffff1673ffffffffffffffffffffffffffffffffffffffff16815260200190815260200160002060008373ffffffffffffffffffffffffffffffffffffffff1673ffffffffffffffffffffffffffffffffffffffff16815260200190815260200160002054905092915050565b60003411610945576040517f08c379a000000000000000000000000000000000000000000000000000000000815260040161093c90611865565b60405180910390fd5b6000600654670de0b6b3a76400003461095e91906115d6565b6109689190611647565b9050346007600082825461097c91906116e4565b9250508190555061098d3382610c9c565b610995610d1e565b3373ffffffffffffffffffffffffffffffffffffffff167f2e8ac5177a616f2aec08c3048f5021e4e9743ece034e8d83ba5caf76688bb475826006546040516109df929190611718565b60405180910390a250565b60075481565b600033905090565b610a058383836001610da6565b505050565b6000610a16848461087b565b90507fffffffffffffffffffffffffffffffffffffffffffffffffffffffffffffffff8114610a985781811015610a88578281836040517ffb8f41b2000000000000000000000000000000000000000000000000000000008152600401610a7f93929190611885565b60405180910390fd5b610a9784848484036000610da6565b5b50505050565b600073ffffffffffffffffffffffffffffffffffffffff168373ffffffffffffffffffffffffffffffffffffffff1603610b105760006040517f96c6fd1e000000000000000000000000000000000000000000000000000000008152600401610b079190611480565b60405180910390fd5b600073ffffffffffffffffffffffffffffffffffffffff168273ffffffffffffffffffffffffffffffffffffffff1603610b825760006040517fec442f05000000000000000000000000000000000000000000000000000000008152600401610b799190611480565b60405180910390fd5b610b8d838383610f7d565b505050565b600073ffffffffffffffffffffffffffffffffffffffff168273ffffffffffffffffffffffffffffffffffffffff1603610c045760006040517f96c6fd1e000000000000000000000000000000000000000000000000000000008152600401610bfb9190611480565b60405180910390fd5b610c1082600083610f7d565b5050565b6000610c1e6104b4565b9050600a81670de0b6b3a7640000600854610c3991906115d6565b610c439190611647565b610c4d9190611647565b600954610c5a91906118bc565b6006819055507f66cbca4f3c64fecf1dcb9ce094abcf7f68c3450a1d4e3a8e917dd621edb4ebe0600654604051610c919190611372565b60405180910390a150565b600073ffffffffffffffffffffffffffffffffffffffff168273ffffffffffffffffffffffffffffffffffffffff1603610d0e5760006040517fec442f05000000000000000000000000000000000000000000000000000000008152600401610d059190611480565b60405180910390fd5b610d1a60008383610f7d565b5050565b6000610d286104b4565b9050600a81670de0b6b3a7640000600754610d4391906115d6565b610d4d9190611647565b610d579190611647565b600954610d6491906116e4565b6006819055507f66cbca4f3c64fecf1dcb9ce094abcf7f68c3450a1d4e3a8e917dd621edb4ebe0600654604051610d9b9190611372565b60405180910390a150565b600073ffffffffffffffffffffffffffffffffffffffff168473ffffffffffffffffffffffffffffffffffffffff1603610e185760006040517fe602df05000000000000000000000000000000000000000000000000000000008152600401610e0f9190611480565b60405180910390fd5b600073ffffffffffffffffffffffffffffffffffffffff168373ffffffffffffffffffffffffffffffffffffffff1603610e8a5760006040517f94280d62000000000000000000000000000000000000000000000000000000008152600401610e819190611480565b60405180910390fd5b81600160008673ffffffffffffffffffffffffffffffffffffffff1673ffffffffffffffffffffffffffffffffffffffff16815260200190815260200160002060008573ffffffffffffffffffffffffffffffffffffffff1673ffffffffffffffffffffffffffffffffffffffff168152602001908152602001600020819055508015610f77578273ffffffffffffffffffffffffffffffffffffffff168473ffffffffffffffffffffffffffffffffffffffff167f8c5be1e5ebec7d5bd14f71427d1e84f3dd0314c0f7b2291e5b200ac8c7c3b92584604051610f6e9190611372565b60405180910390a35b50505050565b600073ffffffffffffffffffffffffffffffffffffffff168373ffffffffffffffffffffffffffffffffffffffff1603610fcf578060026000828254610fc391906116e4565b925050819055506110a2565b60008060008573ffffffffffffffffffffffffffffffffffffffff1673ffffffffffffffffffffffffffffffffffffffff1681526020019081526020016000205490508181101561105b578381836040517fe450d38c00000000000000000000000000000000000000000000000000000000815260040161105293929190611885565b60405180910390fd5b8181036000808673ffffffffffffffffffffffffffffffffffffffff1673ffffffffffffffffffffffffffffffffffffffff16815260200190815260200160002081905550505b600073ffffffffffffffffffffffffffffffffffffffff168273ffffffffffffffffffffffffffffffffffffffff16036110eb5780600260008282540392505081905550611138565b806000808473ffffffffffffffffffffffffffffffffffffffff1673ffffffffffffffffffffffffffffffffffffffff168152602001908152602001600020600082825401925050819055505b8173ffffffffffffffffffffffffffffffffffffffff168373ffffffffffffffffffffffffffffffffffffffff167fddf252ad1be2c89b69c2b068fc378daa952ba7f163c4a11628f55a4df523b3ef836040516111959190611372565b60405180910390a3505050565b600081519050919050565b600082825260208201905092915050565b60005b838110156111dc5780820151818401526020810190506111c1565b60008484015250505050565b6000601f19601f8301169050919050565b6000611204826111a2565b61120e81856111ad565b935061121e8185602086016111be565b611227816111e8565b840191505092915050565b6000602082019050818103600083015261124c81846111f9565b905092915050565b600080fd5b600073ffffffffffffffffffffffffffffffffffffffff82169050919050565b600061128482611259565b9050919050565b61129481611279565b811461129f57600080fd5b50565b6000813590506112b18161128b565b92915050565b6000819050919050565b6112ca816112b7565b81146112d557600080fd5b50565b6000813590506112e7816112c1565b92915050565b6000806040838503121561130457611303611254565b5b6000611312858286016112a2565b9250506020611323858286016112d8565b9150509250929050565b60008115159050919050565b6113428161132d565b82525050565b600060208201905061135d6000830184611339565b92915050565b61136c816112b7565b82525050565b60006020820190506113876000830184611363565b92915050565b6000806000606084860312156113a6576113a5611254565b5b60006113b4868287016112a2565b93505060206113c5868287016112a2565b92505060406113d6868287016112d8565b9150509250925092565b600060ff82169050919050565b6113f6816113e0565b82525050565b600060208201905061141160008301846113ed565b92915050565b60006020828403121561142d5761142c611254565b5b600061143b848285016112d8565b91505092915050565b60006020828403121561145a57611459611254565b5b6000611468848285016112a2565b91505092915050565b61147a81611279565b82525050565b60006020820190506114956000830184611471565b92915050565b600080604083850312156114b2576114b1611254565b5b60006114c0858286016112a2565b92505060206114d1858286016112a2565b9150509250929050565b7f4e487b7100000000000000000000000000000000000000000000000000000000600052602260045260246000fd5b6000600282049050600182168061152257607f821691505b602082108103611535576115346114db565b5b50919050565b7f4e6f7420656e6f75676820746f6b656e7320746f207769746864726177000000600082015250565b6000611571601d836111ad565b915061157c8261153b565b602082019050919050565b600060208201905081810360008301526115a081611564565b9050919050565b7f4e487b7100000000000000000000000000000000000000000000000000000000600052601160045260246000fd5b60006115e1826112b7565b91506115ec836112b7565b92508282026115fa816112b7565b91508282048414831517611611576116106115a7565b5b5092915050565b7f4e487b7100000000000000000000000000000000000000000000000000000000600052601260045260246000fd5b6000611652826112b7565b915061165d836112b7565b92508261166d5761166c611618565b5b828204905092915050565b7f436f6e74726163742068617320696e73756666696369656e7420455448000000600082015250565b60006116ae601d836111ad565b91506116b982611678565b602082019050919050565b600060208201905081810360008301526116dd816116a1565b9050919050565b60006116ef826112b7565b91506116fa836112b7565b9250828201905080821115611712576117116115a7565b5b92915050565b600060408201905061172d6000830185611363565b61173a6020830184611363565b9392505050565b7f4e6f742074686520636f6e7472616374206f776e657200000000000000000000600082015250565b60006117776016836111ad565b915061178282611741565b602082019050919050565b600060208201905081810360008301526117a68161176a565b9050919050565b7f4d7573742073656e642045544820746f20616464206c69717569646974790000600082015250565b60006117e3601e836111ad565b91506117ee826117ad565b602082019050919050565b60006020820190508181036000830152611812816117d6565b9050919050565b7f4d7573742073656e642045544820746f2062757920746f6b656e730000000000600082015250565b600061184f601b836111ad565b915061185a82611819565b602082019050919050565b6000602082019050818103600083015261187e81611842565b9050919050565b600060608201905061189a6000830186611471565b6118a76020830185611363565b6118b46040830184611363565b949350505050565b60006118c7826112b7565b91506118d2836112b7565b92508282039050818111156118ea576118e96115a7565b5b9291505056fea26469706673582212203b38b8c3dd91e9d47405f1a51510a1597ee261c15dd8ef41fa76c0ef051612b764736f6c63430008140033",
  "linkReferences": {},
  "deployedLinkReferences": {}
}