{
  "_format": "hh-sol-artifact-1",
  "contractName": "EscrowWallet",
  "sourceName": "contracts/Escrow.sol",
  "abi": [
    {
      "inputs": [
        {
          "internalType": "address",
          "name": "_token",
          "type": "address"
        },
        {
          "internalType": "address",
          "name": "_companyAccount",
          "type": "address"
        }
      ],
      "stateMutability": "nonpayable",
      "type": "constructor"
    },
    {
      "anonymous": false,
      "inputs": [
        {
          "indexed": true,
          "internalType": "address",
          "name": "investor",
          "type": "address"
        },
        {
          "indexed": false,
          "internalType": "uint256",
          "name": "amount",
          "type": "uint256"
        },
        {
          "indexed": false,
          "internalType": "uint256",
          "name": "tokensMinted",
          "type": "uint256"
        }
      ],
      "name": "DepositMade",
      "type": "event"
    },
    {
      "anonymous": false,
      "inputs": [
        {
          "indexed": false,
          "internalType": "uint256",
          "name": "amount",
          "type": "uint256"
        }
      ],
      "name": "FundsReleased",
      "type": "event"
    },
    {
      "anonymous": false,
      "inputs": [
        {
          "indexed": false,
          "internalType": "uint256",
          "name": "milestoneNumber",
          "type": "uint256"
        }
      ],
      "name": "MilestoneApproved",
      "type": "event"
    },
    {
      "inputs": [],
      "name": "approveMilestone",
      "outputs": [],
      "stateMutability": "nonpayable",
      "type": "function"
    },
    {
      "inputs": [],
      "name": "companyAccount",
      "outputs": [
        {
          "internalType": "address",
          "name": "",
          "type": "address"
        }
      ],
      "stateMutability": "view",
      "type": "function"
    },
    {
      "inputs": [],
      "name": "currentMilestone",
      "outputs": [
        {
          "internalType": "uint256",
          "name": "",
          "type": "uint256"
        }
      ],
      "stateMutability": "view",
      "type": "function"
    },
    {
      "inputs": [],
      "name": "deposit",
      "outputs": [],
      "stateMutability": "payable",
      "type": "function"
    },
    {
      "inputs": [],
      "name": "getBalance",
      "outputs": [
        {
          "internalType": "uint256",
          "name": "",
          "type": "uint256"
        }
      ],
      "stateMutability": "view",
      "type": "function"
    },
    {
      "inputs": [],
      "name": "investor",
      "outputs": [
        {
          "internalType": "address",
          "name": "",
          "type": "address"
        }
      ],
      "stateMutability": "view",
      "type": "function"
    },
    {
      "inputs": [],
      "name": "lastTokenPrice",
      "outputs": [
        {
          "internalType": "uint256",
          "name": "",
          "type": "uint256"
        }
      ],
      "stateMutability": "view",
      "type": "function"
    },
    {
      "inputs": [],
      "name": "milestoneCount",
      "outputs": [
        {
          "internalType": "uint256",
          "name": "",
          "type": "uint256"
        }
      ],
      "stateMutability": "view",
      "type": "function"
    },
    {
      "inputs": [],
      "name": "milestoneMet",
      "outputs": [
        {
          "internalType": "bool",
          "name": "",
          "type": "bool"
        }
      ],
      "stateMutability": "view",
      "type": "function"
    },
    {
      "inputs": [],
      "name": "owner",
      "outputs": [
        {
          "internalType": "address",
          "name": "",
          "type": "address"
        }
      ],
      "stateMutability": "view",
      "type": "function"
    },
    {
      "inputs": [
        {
          "internalType": "uint256",
          "name": "_milestoneCount",
          "type": "uint256"
        }
      ],
      "name": "setMilestone",
      "outputs": [],
      "stateMutability": "nonpayable",
      "type": "function"
    },
    {
      "inputs": [],
      "name": "token",
      "outputs": [
        {
          "internalType": "contract DemandBasedToken",
          "name": "",
          "type": "address"
        }
      ],
      "stateMutability": "view",
      "type": "function"
    }
  ],
  "bytecode": "0x60806040523480156200001157600080fd5b506040516200121938038062001219833981810160405281019062000037919062000215565b336000806101000a81548173ffffffffffffffffffffffffffffffffffffffff021916908373ffffffffffffffffffffffffffffffffffffffff16021790555081600160006101000a81548173ffffffffffffffffffffffffffffffffffffffff021916908373ffffffffffffffffffffffffffffffffffffffff16021790555080600660006101000a81548173ffffffffffffffffffffffffffffffffffffffff021916908373ffffffffffffffffffffffffffffffffffffffff160217905550600160009054906101000a900473ffffffffffffffffffffffffffffffffffffffff1673ffffffffffffffffffffffffffffffffffffffff16637ff9b5966040518163ffffffff1660e01b8152600401602060405180830381865afa15801562000167573d6000803e3d6000fd5b505050506040513d601f19601f820116820180604052508101906200018d919062000297565b600481905550600060028190555060006003819055505050620002c9565b600080fd5b600073ffffffffffffffffffffffffffffffffffffffff82169050919050565b6000620001dd82620001b0565b9050919050565b620001ef81620001d0565b8114620001fb57600080fd5b50565b6000815190506200020f81620001e4565b92915050565b600080604083850312156200022f576200022e620001ab565b5b60006200023f85828601620001fe565b92505060206200025285828601620001fe565b9150509250929050565b6000819050919050565b62000271816200025c565b81146200027d57600080fd5b50565b600081519050620002918162000266565b92915050565b600060208284031215620002b057620002af620001ab565b5b6000620002c08482850162000280565b91505092915050565b610f4080620002d96000396000f3fe6080604052600436106100a75760003560e01c8063996d1c0611610064578063996d1c061461019a578063b0304813146101c5578063b64d7df1146101f0578063c547092b1461021b578063d0e30db014610244578063fc0c546a1461024e576100a7565b80630681ca55146100ac57806312065fe0146100d75780631e0018d614610102578063642a833f1461012d5780638da5cb5b1461015857806391f8533914610183575b600080fd5b3480156100b857600080fd5b506100c1610279565b6040516100ce919061092b565b60405180910390f35b3480156100e357600080fd5b506100ec61027f565b6040516100f9919061092b565b60405180910390f35b34801561010e57600080fd5b50610117610287565b6040516101249190610987565b60405180910390f35b34801561013957600080fd5b506101426102ad565b60405161014f9190610987565b60405180910390f35b34801561016457600080fd5b5061016d6102d3565b60405161017a9190610987565b60405180910390f35b34801561018f57600080fd5b506101986102f7565b005b3480156101a657600080fd5b506101af610402565b6040516101bc91906109bd565b60405180910390f35b3480156101d157600080fd5b506101da610415565b6040516101e7919061092b565b60405180910390f35b3480156101fc57600080fd5b5061020561041b565b604051610212919061092b565b60405180910390f35b34801561022757600080fd5b50610242600480360381019061023d9190610a09565b610421565b005b61024c6104b9565b005b34801561025a57600080fd5b50610263610826565b6040516102709190610a95565b60405180910390f35b60025481565b600047905090565b600560009054906101000a900473ffffffffffffffffffffffffffffffffffffffff1681565b600660009054906101000a900473ffffffffffffffffffffffffffffffffffffffff1681565b60008054906101000a900473ffffffffffffffffffffffffffffffffffffffff1681565b600560009054906101000a900473ffffffffffffffffffffffffffffffffffffffff1673ffffffffffffffffffffffffffffffffffffffff163373ffffffffffffffffffffffffffffffffffffffff1614610387576040517f08c379a000000000000000000000000000000000000000000000000000000000815260040161037e90610b33565b60405180910390fd5b600254600354106103cd576040517f08c379a00000000000000000000000000000000000000000000000000000000081526004016103c490610b9f565b60405180910390fd5b600360008154809291906103e090610bee565b91905055506001600660146101000a81548160ff021916908315150217905550565b600660149054906101000a900460ff1681565b60035481565b60045481565b60008054906101000a900473ffffffffffffffffffffffffffffffffffffffff1673ffffffffffffffffffffffffffffffffffffffff163373ffffffffffffffffffffffffffffffffffffffff16146104af576040517f08c379a00000000000000000000000000000000000000000000000000000000081526004016104a690610ca8565b60405180910390fd5b8060028190555050565b600034116104fc576040517f08c379a00000000000000000000000000000000000000000000000000000000081526004016104f390610d14565b60405180910390fd5b60025460035410610542576040517f08c379a000000000000000000000000000000000000000000000000000000000815260040161053990610d80565b60405180910390fd5b6000600160009054906101000a900473ffffffffffffffffffffffffffffffffffffffff1673ffffffffffffffffffffffffffffffffffffffff16637ff9b5966040518163ffffffff1660e01b8152600401602060405180830381865afa1580156105b1573d6000803e3d6000fd5b505050506040513d601f19601f820116820180604052508101906105d59190610db5565b670de0b6b3a7640000346105e99190610de2565b6105f39190610e53565b9050600160009054906101000a900473ffffffffffffffffffffffffffffffffffffffff1673ffffffffffffffffffffffffffffffffffffffff1663f0dda65c33836040518363ffffffff1660e01b8152600401610652929190610e84565b600060405180830381600087803b15801561066c57600080fd5b505af1158015610680573d6000803e3d6000fd5b505050503373ffffffffffffffffffffffffffffffffffffffff167f0b05f0d1cd0819f155b8a61f60baf7767c1ee49d04aeaab701df236140eb93f934836040516106cc929190610ead565b60405180910390a260006064600a346106e59190610de2565b6106ef9190610e53565b9050600660009054906101000a900473ffffffffffffffffffffffffffffffffffffffff1673ffffffffffffffffffffffffffffffffffffffff166108fc829081150290604051600060405180830381858888f19350505050158015610759573d6000803e3d6000fd5b506000600160009054906101000a900473ffffffffffffffffffffffffffffffffffffffff1673ffffffffffffffffffffffffffffffffffffffff16637ff9b5966040518163ffffffff1660e01b8152600401602060405180830381865afa1580156107c9573d6000803e3d6000fd5b505050506040513d601f19601f820116820180604052508101906107ed9190610db5565b905060146004546107fe9190610e53565b60045461080b9190610ed6565b8110610821578060048190555061082061084c565b5b505050565b600160009054906101000a900473ffffffffffffffffffffffffffffffffffffffff1681565b600047905060006064600a836108629190610de2565b61086c9190610e53565b9050600660009054906101000a900473ffffffffffffffffffffffffffffffffffffffff1673ffffffffffffffffffffffffffffffffffffffff166108fc829081150290604051600060405180830381858888f193505050501580156108d6573d6000803e3d6000fd5b507f952b264c8e0a06cddb4bbaa6d6af1d565145329fd95bbe72cb2b53942b2dc96681604051610906919061092b565b60405180910390a15050565b6000819050919050565b61092581610912565b82525050565b6000602082019050610940600083018461091c565b92915050565b600073ffffffffffffffffffffffffffffffffffffffff82169050919050565b600061097182610946565b9050919050565b61098181610966565b82525050565b600060208201905061099c6000830184610978565b92915050565b60008115159050919050565b6109b7816109a2565b82525050565b60006020820190506109d260008301846109ae565b92915050565b600080fd5b6109e681610912565b81146109f157600080fd5b50565b600081359050610a03816109dd565b92915050565b600060208284031215610a1f57610a1e6109d8565b5b6000610a2d848285016109f4565b91505092915050565b6000819050919050565b6000610a5b610a56610a5184610946565b610a36565b610946565b9050919050565b6000610a6d82610a40565b9050919050565b6000610a7f82610a62565b9050919050565b610a8f81610a74565b82525050565b6000602082019050610aaa6000830184610a86565b92915050565b600082825260208201905092915050565b7f4f6e6c7920696e766573746f722063616e20617070726f7665206d696c65737460008201527f6f6e650000000000000000000000000000000000000000000000000000000000602082015250565b6000610b1d602383610ab0565b9150610b2882610ac1565b604082019050919050565b60006020820190508181036000830152610b4c81610b10565b9050919050565b7f416c6c206d696c6573746f6e6573206d65740000000000000000000000000000600082015250565b6000610b89601283610ab0565b9150610b9482610b53565b602082019050919050565b60006020820190508181036000830152610bb881610b7c565b9050919050565b7f4e487b7100000000000000000000000000000000000000000000000000000000600052601160045260246000fd5b6000610bf982610912565b91507fffffffffffffffffffffffffffffffffffffffffffffffffffffffffffffffff8203610c2b57610c2a610bbf565b5b600182019050919050565b7f4f6e6c79206f776e65722063616e2063616c6c20746869732066756e6374696f60008201527f6e00000000000000000000000000000000000000000000000000000000000000602082015250565b6000610c92602183610ab0565b9150610c9d82610c36565b604082019050919050565b60006020820190508181036000830152610cc181610c85565b9050919050565b7f4d757374206465706f73697420736f6d652066756e6473000000000000000000600082015250565b6000610cfe601783610ab0565b9150610d0982610cc8565b602082019050919050565b60006020820190508181036000830152610d2d81610cf1565b9050919050565b7f416c6c206d696c6573746f6e657320616c726561647920616368696576656400600082015250565b6000610d6a601f83610ab0565b9150610d7582610d34565b602082019050919050565b60006020820190508181036000830152610d9981610d5d565b9050919050565b600081519050610daf816109dd565b92915050565b600060208284031215610dcb57610dca6109d8565b5b6000610dd984828501610da0565b91505092915050565b6000610ded82610912565b9150610df883610912565b9250828202610e0681610912565b91508282048414831517610e1d57610e1c610bbf565b5b5092915050565b7f4e487b7100000000000000000000000000000000000000000000000000000000600052601260045260246000fd5b6000610e5e82610912565b9150610e6983610912565b925082610e7957610e78610e24565b5b828204905092915050565b6000604082019050610e996000830185610978565b610ea6602083018461091c565b9392505050565b6000604082019050610ec2600083018561091c565b610ecf602083018461091c565b9392505050565b6000610ee182610912565b9150610eec83610912565b9250828201905080821115610f0457610f03610bbf565b5b9291505056fea26469706673582212205f9f98b8d9d8b343f2ca779707d85752bc6fe246c4a2019bc055bce04577917e64736f6c63430008140033",
  "linkReferences": {},
  "deployedLinkReferences": {}
}