{
  "_format": "hh-sol-artifact-1",
  "contractName": "EscrowWallet",
  "sourceName": "contracts/Escrow.sol",
  "abi": [
    {
      "inputs": [
        {
          "internalType": "address",
          "name": "_token",
          "type": "address"
        },
        {
          "internalType": "address",
          "name": "_companyAccount",
          "type": "address"
        },
        {
          "internalType": "address",
          "name": "_companyRegistry",
          "type": "address"
        }
      ],
      "stateMutability": "nonpayable",
      "type": "constructor"
    },
    {
      "anonymous": false,
      "inputs": [
        {
          "indexed": true,
          "internalType": "address",
          "name": "investor",
          "type": "address"
        },
        {
          "indexed": false,
          "internalType": "uint256",
          "name": "amount",
          "type": "uint256"
        },
        {
          "indexed": false,
          "internalType": "uint256",
          "name": "tokensMinted",
          "type": "uint256"
        }
      ],
      "name": "DepositMade",
      "type": "event"
    },
    {
      "anonymous": false,
      "inputs": [
        {
          "indexed": true,
          "internalType": "address",
          "name": "user",
          "type": "address"
        },
        {
          "indexed": false,
          "internalType": "uint256",
          "name": "amount",
          "type": "uint256"
        },
        {
          "indexed": false,
          "internalType": "string",
          "name": "withdrawalType",
          "type": "string"
        }
      ],
      "name": "FundsReleased",
      "type": "event"
    },
    {
      "inputs": [],
      "name": "companyAccount",
      "outputs": [
        {
          "internalType": "address",
          "name": "",
          "type": "address"
        }
      ],
      "stateMutability": "view",
      "type": "function"
    },
    {
      "inputs": [],
      "name": "companyRegistry",
      "outputs": [
        {
          "internalType": "contract CompanyRegistry",
          "name": "",
          "type": "address"
        }
      ],
      "stateMutability": "view",
      "type": "function"
    },
    {
      "inputs": [],
      "name": "deposit",
      "outputs": [],
      "stateMutability": "payable",
      "type": "function"
    },
    {
      "inputs": [
        {
          "internalType": "address payable",
          "name": "user",
          "type": "address"
        }
      ],
      "name": "fullWithdrawal",
      "outputs": [],
      "stateMutability": "nonpayable",
      "type": "function"
    },
    {
      "inputs": [
        {
          "internalType": "address",
          "name": "",
          "type": "address"
        }
      ],
      "name": "fullWithdrawalAmounts",
      "outputs": [
        {
          "internalType": "uint256",
          "name": "",
          "type": "uint256"
        }
      ],
      "stateMutability": "view",
      "type": "function"
    },
    {
      "inputs": [],
      "name": "getBalance",
      "outputs": [
        {
          "internalType": "uint256",
          "name": "",
          "type": "uint256"
        }
      ],
      "stateMutability": "view",
      "type": "function"
    },
    {
      "inputs": [
        {
          "internalType": "address payable",
          "name": "user",
          "type": "address"
        }
      ],
      "name": "immediateWithdrawal",
      "outputs": [],
      "stateMutability": "nonpayable",
      "type": "function"
    },
    {
      "inputs": [],
      "name": "lastTokenPrice",
      "outputs": [
        {
          "internalType": "uint256",
          "name": "",
          "type": "uint256"
        }
      ],
      "stateMutability": "view",
      "type": "function"
    },
    {
      "inputs": [
        {
          "internalType": "address",
          "name": "",
          "type": "address"
        }
      ],
      "name": "lastWithdrawalTime",
      "outputs": [
        {
          "internalType": "uint256",
          "name": "",
          "type": "uint256"
        }
      ],
      "stateMutability": "view",
      "type": "function"
    },
    {
      "inputs": [],
      "name": "owner",
      "outputs": [
        {
          "internalType": "address",
          "name": "",
          "type": "address"
        }
      ],
      "stateMutability": "view",
      "type": "function"
    },
    {
      "inputs": [
        {
          "internalType": "address payable",
          "name": "user",
          "type": "address"
        }
      ],
      "name": "pacedWithdrawal",
      "outputs": [],
      "stateMutability": "nonpayable",
      "type": "function"
    },
    {
      "inputs": [
        {
          "internalType": "address",
          "name": "",
          "type": "address"
        }
      ],
      "name": "pacedWithdrawalAmounts",
      "outputs": [
        {
          "internalType": "uint256",
          "name": "",
          "type": "uint256"
        }
      ],
      "stateMutability": "view",
      "type": "function"
    },
    {
      "inputs": [],
      "name": "token",
      "outputs": [
        {
          "internalType": "contract DemandBasedToken",
          "name": "",
          "type": "address"
        }
      ],
      "stateMutability": "view",
      "type": "function"
    },
    {
      "inputs": [
        {
          "internalType": "address",
          "name": "",
          "type": "address"
        }
      ],
      "name": "withdrawalCooldown",
      "outputs": [
        {
          "internalType": "uint256",
          "name": "",
          "type": "uint256"
        }
      ],
      "stateMutability": "view",
      "type": "function"
    }
  ],
  "bytecode": "0x60806040523480156200001157600080fd5b50604051620025fb380380620025fb833981810160405281019062000037919062000247565b336000806101000a81548173ffffffffffffffffffffffffffffffffffffffff021916908373ffffffffffffffffffffffffffffffffffffffff16021790555082600160006101000a81548173ffffffffffffffffffffffffffffffffffffffff021916908373ffffffffffffffffffffffffffffffffffffffff16021790555081600360006101000a81548173ffffffffffffffffffffffffffffffffffffffff021916908373ffffffffffffffffffffffffffffffffffffffff16021790555080600260006101000a81548173ffffffffffffffffffffffffffffffffffffffff021916908373ffffffffffffffffffffffffffffffffffffffff160217905550600160009054906101000a900473ffffffffffffffffffffffffffffffffffffffff1673ffffffffffffffffffffffffffffffffffffffff16637ff9b5966040518163ffffffff1660e01b8152600401602060405180830381865afa158015620001a8573d6000803e3d6000fd5b505050506040513d601f19601f82011682018060405250810190620001ce9190620002de565b60048190555050505062000310565b600080fd5b600073ffffffffffffffffffffffffffffffffffffffff82169050919050565b60006200020f82620001e2565b9050919050565b620002218162000202565b81146200022d57600080fd5b50565b600081519050620002418162000216565b92915050565b600080600060608486031215620002635762000262620001dd565b5b6000620002738682870162000230565b9350506020620002868682870162000230565b9250506040620002998682870162000230565b9150509250925092565b6000819050919050565b620002b881620002a3565b8114620002c457600080fd5b50565b600081519050620002d881620002ad565b92915050565b600060208284031215620002f757620002f6620001dd565b5b60006200030784828501620002c7565b91505092915050565b6122db80620003206000396000f3fe6080604052600436106100dd5760003560e01c8063a8164b381161007f578063c51aba2b11610059578063c51aba2b146102c0578063d0e30db0146102eb578063f3bb41e6146102f5578063fc0c546a14610332576100dd565b8063a8164b381461021b578063b64d7df114610258578063bd4c692f14610283576100dd565b8063642a833f116100bb578063642a833f1461017357806377f7b7cf1461019e5780638c80e9f7146101c75780638da5cb5b146101f0576100dd565b806312065fe0146100e257806343195c1b1461010d5780634de5120e14610136575b600080fd5b3480156100ee57600080fd5b506100f761035d565b6040516101049190611773565b60405180910390f35b34801561011957600080fd5b50610134600480360381019061012f91906117f1565b610365565b005b34801561014257600080fd5b5061015d6004803603810190610158919061185c565b6106ab565b60405161016a9190611773565b60405180910390f35b34801561017f57600080fd5b506101886106c3565b6040516101959190611898565b60405180910390f35b3480156101aa57600080fd5b506101c560048036038101906101c091906117f1565b6106e9565b005b3480156101d357600080fd5b506101ee60048036038101906101e991906117f1565b610c64565b005b3480156101fc57600080fd5b5061020561116b565b6040516102129190611898565b60405180910390f35b34801561022757600080fd5b50610242600480360381019061023d919061185c565b61118f565b60405161024f9190611773565b60405180910390f35b34801561026457600080fd5b5061026d6111a7565b60405161027a9190611773565b60405180910390f35b34801561028f57600080fd5b506102aa60048036038101906102a5919061185c565b6111ad565b6040516102b79190611773565b60405180910390f35b3480156102cc57600080fd5b506102d56111c5565b6040516102e29190611912565b60405180910390f35b6102f36111eb565b005b34801561030157600080fd5b5061031c6004803603810190610317919061185c565b61171c565b6040516103299190611773565b60405180910390f35b34801561033e57600080fd5b50610347611734565b604051610354919061194e565b60405180910390f35b600047905090565b600560008273ffffffffffffffffffffffffffffffffffffffff1673ffffffffffffffffffffffffffffffffffffffff168152602001908152602001600020544210156103e7576040517f08c379a00000000000000000000000000000000000000000000000000000000081526004016103de906119c6565b60405180910390fd5b60004790506000811161042f576040517f08c379a000000000000000000000000000000000000000000000000000000000815260040161042690611a32565b60405180910390fd5b60006064600a836104409190611a81565b61044a9190611af2565b90506000811161048f576040517f08c379a000000000000000000000000000000000000000000000000000000000815260040161048690611b6f565b60405180910390fd5b60008373ffffffffffffffffffffffffffffffffffffffff16826040516104b590611bc0565b60006040518083038185875af1925050503d80600081146104f2576040519150601f19603f3d011682016040523d82523d6000602084013e6104f7565b606091505b505090508061053b576040517f08c379a000000000000000000000000000000000000000000000000000000000815260040161053290611c21565b60405180910390fd5b8373ffffffffffffffffffffffffffffffffffffffff167faaa4c1d2f9bd4d04637fae0fa2a7fa9fbc5394f5c4809d31bd15032ca3faacab836040516105819190611c8d565b60405180910390a2600260009054906101000a900473ffffffffffffffffffffffffffffffffffffffff1673ffffffffffffffffffffffffffffffffffffffff1663bc99743730846040518363ffffffff1660e01b81526004016105e6929190611cbb565b600060405180830381600087803b15801561060057600080fd5b505af1158015610614573d6000803e3d6000fd5b50505050600160009054906101000a900473ffffffffffffffffffffffffffffffffffffffff1673ffffffffffffffffffffffffffffffffffffffff1663d12607b8836040518263ffffffff1660e01b81526004016106739190611773565b600060405180830381600087803b15801561068d57600080fd5b505af11580156106a1573d6000803e3d6000fd5b5050505050505050565b60066020528060005260406000206000915090505481565b600360009054906101000a900473ffffffffffffffffffffffffffffffffffffffff1681565b600560008273ffffffffffffffffffffffffffffffffffffffff1673ffffffffffffffffffffffffffffffffffffffff1681526020019081526020016000205442101561076b576040517f08c379a0000000000000000000000000000000000000000000000000000000008152600401610762906119c6565b60405180910390fd5b6000479050600081116107b3576040517f08c379a00000000000000000000000000000000000000000000000000000000081526004016107aa90611a32565b60405180910390fd5b600060646046836107c49190611a81565b6107ce9190611af2565b90506000600660008573ffffffffffffffffffffffffffffffffffffffff1673ffffffffffffffffffffffffffffffffffffffff168152602001908152602001600020544261081d9190611ce4565b905062015180811015610865576040517f08c379a000000000000000000000000000000000000000000000000000000000815260040161085c90611d8a565b60405180910390fd5b60006202a30082106108915760466014846108809190611a81565b61088a9190611af2565b90506108d8565b6201518082106108bb576046601e846108aa9190611a81565b6108b49190611af2565b90506108d7565b60466014846108ca9190611a81565b6108d49190611af2565b90505b5b80600760008773ffffffffffffffffffffffffffffffffffffffff1673ffffffffffffffffffffffffffffffffffffffff16815260200190815260200160002060008282546109279190611daa565b9250508190555082600760008773ffffffffffffffffffffffffffffffffffffffff1673ffffffffffffffffffffffffffffffffffffffff1681526020019081526020016000205411156109b0576040517f08c379a00000000000000000000000000000000000000000000000000000000081526004016109a790611e2a565b60405180910390fd5b42600660008773ffffffffffffffffffffffffffffffffffffffff1673ffffffffffffffffffffffffffffffffffffffff1681526020019081526020016000208190555060008573ffffffffffffffffffffffffffffffffffffffff1682604051610a1a90611bc0565b60006040518083038185875af1925050503d8060008114610a57576040519150601f19603f3d011682016040523d82523d6000602084013e610a5c565b606091505b5050905080610aa0576040517f08c379a0000000000000000000000000000000000000000000000000000000008152600401610a9790611e96565b60405180910390fd5b8573ffffffffffffffffffffffffffffffffffffffff167faaa4c1d2f9bd4d04637fae0fa2a7fa9fbc5394f5c4809d31bd15032ca3faacab83604051610ae69190611f02565b60405180910390a2600260009054906101000a900473ffffffffffffffffffffffffffffffffffffffff1673ffffffffffffffffffffffffffffffffffffffff1663bc99743730846040518363ffffffff1660e01b8152600401610b4b929190611cbb565b600060405180830381600087803b158015610b6557600080fd5b505af1158015610b79573d6000803e3d6000fd5b50505050600160009054906101000a900473ffffffffffffffffffffffffffffffffffffffff1673ffffffffffffffffffffffffffffffffffffffff1663d12607b8836040518263ffffffff1660e01b8152600401610bd89190611773565b600060405180830381600087803b158015610bf257600080fd5b505af1158015610c06573d6000803e3d6000fd5b505050506201518042610c199190611daa565b600560008873ffffffffffffffffffffffffffffffffffffffff1673ffffffffffffffffffffffffffffffffffffffff16815260200190815260200160002081905550505050505050565b600560008273ffffffffffffffffffffffffffffffffffffffff1673ffffffffffffffffffffffffffffffffffffffff16815260200190815260200160002054421015610ce6576040517f08c379a0000000000000000000000000000000000000000000000000000000008152600401610cdd906119c6565b60405180910390fd5b600047905060008111610d2e576040517f08c379a0000000000000000000000000000000000000000000000000000000008152600401610d2590611a32565b60405180910390fd5b60006064600a83610d3f9190611a81565b610d499190611af2565b90506000600660008573ffffffffffffffffffffffffffffffffffffffff1673ffffffffffffffffffffffffffffffffffffffff1681526020019081526020016000205442610d989190611ce4565b905062015180811015610de0576040517f08c379a0000000000000000000000000000000000000000000000000000000008152600401610dd790611fa2565b60405180910390fd5b81600860008673ffffffffffffffffffffffffffffffffffffffff1673ffffffffffffffffffffffffffffffffffffffff1681526020019081526020016000206000828254610e2f9190611daa565b9250508190555082600860008673ffffffffffffffffffffffffffffffffffffffff1673ffffffffffffffffffffffffffffffffffffffff168152602001908152602001600020541115610eb8576040517f08c379a0000000000000000000000000000000000000000000000000000000008152600401610eaf9061200e565b60405180910390fd5b42600660008673ffffffffffffffffffffffffffffffffffffffff1673ffffffffffffffffffffffffffffffffffffffff1681526020019081526020016000208190555060008473ffffffffffffffffffffffffffffffffffffffff1683604051610f2290611bc0565b60006040518083038185875af1925050503d8060008114610f5f576040519150601f19603f3d011682016040523d82523d6000602084013e610f64565b606091505b5050905080610fa8576040517f08c379a0000000000000000000000000000000000000000000000000000000008152600401610f9f9061207a565b60405180910390fd5b8473ffffffffffffffffffffffffffffffffffffffff167faaa4c1d2f9bd4d04637fae0fa2a7fa9fbc5394f5c4809d31bd15032ca3faacab84604051610fee91906120e6565b60405180910390a2600260009054906101000a900473ffffffffffffffffffffffffffffffffffffffff1673ffffffffffffffffffffffffffffffffffffffff1663bc99743730856040518363ffffffff1660e01b8152600401611053929190611cbb565b600060405180830381600087803b15801561106d57600080fd5b505af1158015611081573d6000803e3d6000fd5b50505050600160009054906101000a900473ffffffffffffffffffffffffffffffffffffffff1673ffffffffffffffffffffffffffffffffffffffff1663d12607b8846040518263ffffffff1660e01b81526004016110e09190611773565b600060405180830381600087803b1580156110fa57600080fd5b505af115801561110e573d6000803e3d6000fd5b505050506202a300426111219190611daa565b600560008773ffffffffffffffffffffffffffffffffffffffff1673ffffffffffffffffffffffffffffffffffffffff168152602001908152602001600020819055505050505050565b60008054906101000a900473ffffffffffffffffffffffffffffffffffffffff1681565b60086020528060005260406000206000915090505481565b60045481565b60076020528060005260406000206000915090505481565b600260009054906101000a900473ffffffffffffffffffffffffffffffffffffffff1681565b6000341161122e576040517f08c379a000000000000000000000000000000000000000000000000000000000815260040161122590612160565b60405180910390fd5b6000600160009054906101000a900473ffffffffffffffffffffffffffffffffffffffff1673ffffffffffffffffffffffffffffffffffffffff16637ff9b5966040518163ffffffff1660e01b8152600401602060405180830381865afa15801561129d573d6000803e3d6000fd5b505050506040513d601f19601f820116820180604052508101906112c191906121ac565b670de0b6b3a7640000346112d59190611a81565b6112df9190611af2565b9050600160009054906101000a900473ffffffffffffffffffffffffffffffffffffffff1673ffffffffffffffffffffffffffffffffffffffff1663f0dda65c33836040518363ffffffff1660e01b815260040161133e929190611cbb565b600060405180830381600087803b15801561135857600080fd5b505af115801561136c573d6000803e3d6000fd5b505050506000600454600160009054906101000a900473ffffffffffffffffffffffffffffffffffffffff1673ffffffffffffffffffffffffffffffffffffffff16637ff9b5966040518163ffffffff1660e01b8152600401602060405180830381865afa1580156113e2573d6000803e3d6000fd5b505050506040513d601f19601f8201168201806040525081019061140691906121ac565b116114125760006114b1565b600454600160009054906101000a900473ffffffffffffffffffffffffffffffffffffffff1673ffffffffffffffffffffffffffffffffffffffff16637ff9b5966040518163ffffffff1660e01b8152600401602060405180830381865afa158015611482573d6000803e3d6000fd5b505050506040513d601f19601f820116820180604052508101906114a691906121ac565b6114b09190611ce4565b5b9050600160009054906101000a900473ffffffffffffffffffffffffffffffffffffffff1673ffffffffffffffffffffffffffffffffffffffff16637ff9b5966040518163ffffffff1660e01b8152600401602060405180830381865afa158015611520573d6000803e3d6000fd5b505050506040513d601f19601f8201168201806040525081019061154491906121ac565b600481905550600260009054906101000a900473ffffffffffffffffffffffffffffffffffffffff1673ffffffffffffffffffffffffffffffffffffffff16632c92a9693034846040518463ffffffff1660e01b81526004016115a9939291906121d9565b600060405180830381600087803b1580156115c357600080fd5b505af11580156115d7573d6000803e3d6000fd5b505050503373ffffffffffffffffffffffffffffffffffffffff167f0b05f0d1cd0819f155b8a61f60baf7767c1ee49d04aeaab701df236140eb93f93484604051611623929190612210565b60405180910390a260006064600a3461163c9190611a81565b6116469190611af2565b90506000600360009054906101000a900473ffffffffffffffffffffffffffffffffffffffff1673ffffffffffffffffffffffffffffffffffffffff168260405161169090611bc0565b60006040518083038185875af1925050503d80600081146116cd576040519150601f19603f3d011682016040523d82523d6000602084013e6116d2565b606091505b5050905080611716576040517f08c379a000000000000000000000000000000000000000000000000000000000815260040161170d90612285565b60405180910390fd5b50505050565b60056020528060005260406000206000915090505481565b600160009054906101000a900473ffffffffffffffffffffffffffffffffffffffff1681565b6000819050919050565b61176d8161175a565b82525050565b60006020820190506117886000830184611764565b92915050565b600080fd5b600073ffffffffffffffffffffffffffffffffffffffff82169050919050565b60006117be82611793565b9050919050565b6117ce816117b3565b81146117d957600080fd5b50565b6000813590506117eb816117c5565b92915050565b6000602082840312156118075761180661178e565b5b6000611815848285016117dc565b91505092915050565b600061182982611793565b9050919050565b6118398161181e565b811461184457600080fd5b50565b60008135905061185681611830565b92915050565b6000602082840312156118725761187161178e565b5b600061188084828501611847565b91505092915050565b6118928161181e565b82525050565b60006020820190506118ad6000830184611889565b92915050565b6000819050919050565b60006118d86118d36118ce84611793565b6118b3565b611793565b9050919050565b60006118ea826118bd565b9050919050565b60006118fc826118df565b9050919050565b61190c816118f1565b82525050565b60006020820190506119276000830184611903565b92915050565b6000611938826118df565b9050919050565b6119488161192d565b82525050565b6000602082019050611963600083018461193f565b92915050565b600082825260208201905092915050565b7f436f6f6c646f776e20706572696f64206e6f74206f7665720000000000000000600082015250565b60006119b0601883611969565b91506119bb8261197a565b602082019050919050565b600060208201905081810360008301526119df816119a3565b9050919050565b7f496e73756666696369656e7420636f6e74726163742062616c616e6365000000600082015250565b6000611a1c601d83611969565b9150611a27826119e6565b602082019050919050565b60006020820190508181036000830152611a4b81611a0f565b9050919050565b7f4e487b7100000000000000000000000000000000000000000000000000000000600052601160045260246000fd5b6000611a8c8261175a565b9150611a978361175a565b9250828202611aa58161175a565b91508282048414831517611abc57611abb611a52565b5b5092915050565b7f4e487b7100000000000000000000000000000000000000000000000000000000600052601260045260246000fd5b6000611afd8261175a565b9150611b088361175a565b925082611b1857611b17611ac3565b5b828204905092915050565b7f5a65726f207769746864726177616c20616d6f756e7400000000000000000000600082015250565b6000611b59601683611969565b9150611b6482611b23565b602082019050919050565b60006020820190508181036000830152611b8881611b4c565b9050919050565b600081905092915050565b50565b6000611baa600083611b8f565b9150611bb582611b9a565b600082019050919050565b6000611bcb82611b9d565b9150819050919050565b7f496d6d656469617465207769746864726177616c206661696c65640000000000600082015250565b6000611c0b601b83611969565b9150611c1682611bd5565b602082019050919050565b60006020820190508181036000830152611c3a81611bfe565b9050919050565b7f496d6d6564696174650000000000000000000000000000000000000000000000600082015250565b6000611c77600983611969565b9150611c8282611c41565b602082019050919050565b6000604082019050611ca26000830184611764565b8181036020830152611cb381611c6a565b905092915050565b6000604082019050611cd06000830185611889565b611cdd6020830184611764565b9392505050565b6000611cef8261175a565b9150611cfa8361175a565b9250828203905081811115611d1257611d11611a52565b5b92915050565b7f5061636564207769746864726177616c206e6f7420617661696c61626c65207960008201527f6574000000000000000000000000000000000000000000000000000000000000602082015250565b6000611d74602283611969565b9150611d7f82611d18565b604082019050919050565b60006020820190508181036000830152611da381611d67565b9050919050565b6000611db58261175a565b9150611dc08361175a565b9250828201905080821115611dd857611dd7611a52565b5b92915050565b7f45786365656473207061636564206c696d697400000000000000000000000000600082015250565b6000611e14601383611969565b9150611e1f82611dde565b602082019050919050565b60006020820190508181036000830152611e4381611e07565b9050919050565b7f5061636564207769746864726177616c206661696c6564000000000000000000600082015250565b6000611e80601783611969565b9150611e8b82611e4a565b602082019050919050565b60006020820190508181036000830152611eaf81611e73565b9050919050565b7f5061636564000000000000000000000000000000000000000000000000000000600082015250565b6000611eec600583611969565b9150611ef782611eb6565b602082019050919050565b6000604082019050611f176000830184611764565b8181036020830152611f2881611edf565b905092915050565b7f4461696c79207769746864726177616c206e6f7420617661696c61626c65207960008201527f6574000000000000000000000000000000000000000000000000000000000000602082015250565b6000611f8c602283611969565b9150611f9782611f30565b604082019050919050565b60006020820190508181036000830152611fbb81611f7f565b9050919050565b7f457863656564732066756c6c207769746864726177616c206c696d6974000000600082015250565b6000611ff8601d83611969565b915061200382611fc2565b602082019050919050565b6000602082019050818103600083015261202781611feb565b9050919050565b7f46756c6c207769746864726177616c206661696c656400000000000000000000600082015250565b6000612064601683611969565b915061206f8261202e565b602082019050919050565b6000602082019050818103600083015261209381612057565b9050919050565b7f46756c6c00000000000000000000000000000000000000000000000000000000600082015250565b60006120d0600483611969565b91506120db8261209a565b602082019050919050565b60006040820190506120fb6000830184611764565b818103602083015261210c816120c3565b905092915050565b7f4d757374206465706f73697420736f6d652066756e6473000000000000000000600082015250565b600061214a601783611969565b915061215582612114565b602082019050919050565b600060208201905081810360008301526121798161213d565b9050919050565b6121898161175a565b811461219457600080fd5b50565b6000815190506121a681612180565b92915050565b6000602082840312156121c2576121c161178e565b5b60006121d084828501612197565b91505092915050565b60006060820190506121ee6000830186611889565b6121fb6020830185611764565b6122086040830184611764565b949350505050565b60006040820190506122256000830185611764565b6122326020830184611764565b9392505050565b7f5061796d656e7420746f20636f6d70616e79206661696c656400000000000000600082015250565b600061226f601983611969565b915061227a82612239565b602082019050919050565b6000602082019050818103600083015261229e81612262565b905091905056fea26469706673582212205aef35f44e30ace1557ff5c95e9bf91e5a030eab220cf7b0eb37b5273269365064736f6c63430008140033",
  "linkReferences": {},
  "deployedLinkReferences": {}
}