{
  "_format": "hh-sol-artifact-1",
  "contractName": "EscrowWallet",
  "sourceName": "contracts/Escrow.sol",
  "abi": [
    {
      "inputs": [
        {
          "internalType": "address",
          "name": "_token",
          "type": "address"
        },
        {
          "internalType": "address",
          "name": "_companyAccount",
          "type": "address"
        }
      ],
      "stateMutability": "nonpayable",
      "type": "constructor"
    },
    {
      "anonymous": false,
      "inputs": [
        {
          "indexed": true,
          "internalType": "address",
          "name": "investor",
          "type": "address"
        },
        {
          "indexed": false,
          "internalType": "uint256",
          "name": "amount",
          "type": "uint256"
        },
        {
          "indexed": false,
          "internalType": "uint256",
          "name": "tokensMinted",
          "type": "uint256"
        }
      ],
      "name": "DepositMade",
      "type": "event"
    },
    {
      "anonymous": false,
      "inputs": [
        {
          "indexed": false,
          "internalType": "uint256",
          "name": "amount",
          "type": "uint256"
        }
      ],
      "name": "FundsReleased",
      "type": "event"
    },
    {
      "inputs": [],
      "name": "companyAccount",
      "outputs": [
        {
          "internalType": "address",
          "name": "",
          "type": "address"
        }
      ],
      "stateMutability": "view",
      "type": "function"
    },
    {
      "inputs": [],
      "name": "currentMilestone",
      "outputs": [
        {
          "internalType": "uint256",
          "name": "",
          "type": "uint256"
        }
      ],
      "stateMutability": "view",
      "type": "function"
    },
    {
      "inputs": [],
      "name": "deposit",
      "outputs": [],
      "stateMutability": "payable",
      "type": "function"
    },
    {
      "inputs": [],
      "name": "getBalance",
      "outputs": [
        {
          "internalType": "uint256",
          "name": "",
          "type": "uint256"
        }
      ],
      "stateMutability": "view",
      "type": "function"
    },
    {
      "inputs": [],
      "name": "lastTokenPrice",
      "outputs": [
        {
          "internalType": "uint256",
          "name": "",
          "type": "uint256"
        }
      ],
      "stateMutability": "view",
      "type": "function"
    },
    {
      "inputs": [],
      "name": "milestoneCount",
      "outputs": [
        {
          "internalType": "uint256",
          "name": "",
          "type": "uint256"
        }
      ],
      "stateMutability": "view",
      "type": "function"
    },
    {
      "inputs": [],
      "name": "owner",
      "outputs": [
        {
          "internalType": "address",
          "name": "",
          "type": "address"
        }
      ],
      "stateMutability": "view",
      "type": "function"
    },
    {
      "inputs": [],
      "name": "token",
      "outputs": [
        {
          "internalType": "contract DemandBasedToken",
          "name": "",
          "type": "address"
        }
      ],
      "stateMutability": "view",
      "type": "function"
    }
  ],
  "bytecode": "0x60806040523480156200001157600080fd5b5060405162000c5c38038062000c5c833981810160405281019062000037919062000205565b336000806101000a81548173ffffffffffffffffffffffffffffffffffffffff021916908373ffffffffffffffffffffffffffffffffffffffff16021790555081600160006101000a81548173ffffffffffffffffffffffffffffffffffffffff021916908373ffffffffffffffffffffffffffffffffffffffff16021790555080600560006101000a81548173ffffffffffffffffffffffffffffffffffffffff021916908373ffffffffffffffffffffffffffffffffffffffff160217905550600160009054906101000a900473ffffffffffffffffffffffffffffffffffffffff1673ffffffffffffffffffffffffffffffffffffffff16637ff9b5966040518163ffffffff1660e01b8152600401602060405180830381865afa15801562000167573d6000803e3d6000fd5b505050506040513d601f19601f820116820180604052508101906200018d919062000287565b6004819055505050620002b9565b600080fd5b600073ffffffffffffffffffffffffffffffffffffffff82169050919050565b6000620001cd82620001a0565b9050919050565b620001df81620001c0565b8114620001eb57600080fd5b50565b600081519050620001ff81620001d4565b92915050565b600080604083850312156200021f576200021e6200019b565b5b60006200022f85828601620001ee565b92505060206200024285828601620001ee565b9150509250929050565b6000819050919050565b62000261816200024c565b81146200026d57600080fd5b50565b600081519050620002818162000256565b92915050565b600060208284031215620002a0576200029f6200019b565b5b6000620002b08482850162000270565b91505092915050565b61099380620002c96000396000f3fe60806040526004361061007b5760003560e01c8063b03048131161004e578063b03048131461012c578063b64d7df114610157578063d0e30db014610182578063fc0c546a1461018c5761007b565b80630681ca551461008057806312065fe0146100ab578063642a833f146100d65780638da5cb5b14610101575b600080fd5b34801561008c57600080fd5b506100956101b7565b6040516100a2919061063a565b60405180910390f35b3480156100b757600080fd5b506100c06101bd565b6040516100cd919061063a565b60405180910390f35b3480156100e257600080fd5b506100eb6101c5565b6040516100f89190610696565b60405180910390f35b34801561010d57600080fd5b506101166101eb565b6040516101239190610696565b60405180910390f35b34801561013857600080fd5b5061014161020f565b60405161014e919061063a565b60405180910390f35b34801561016357600080fd5b5061016c610215565b604051610179919061063a565b60405180910390f35b61018a61021b565b005b34801561019857600080fd5b506101a1610535565b6040516101ae9190610710565b60405180910390f35b60025481565b600047905090565b600560009054906101000a900473ffffffffffffffffffffffffffffffffffffffff1681565b60008054906101000a900473ffffffffffffffffffffffffffffffffffffffff1681565b60035481565b60045481565b6000341161025e576040517f08c379a000000000000000000000000000000000000000000000000000000000815260040161025590610788565b60405180910390fd5b6000600160009054906101000a900473ffffffffffffffffffffffffffffffffffffffff1673ffffffffffffffffffffffffffffffffffffffff16637ff9b5966040518163ffffffff1660e01b8152600401602060405180830381865afa1580156102cd573d6000803e3d6000fd5b505050506040513d601f19601f820116820180604052508101906102f191906107d9565b670de0b6b3a7640000346103059190610835565b61030f91906108a6565b9050600160009054906101000a900473ffffffffffffffffffffffffffffffffffffffff1673ffffffffffffffffffffffffffffffffffffffff1663f0dda65c33836040518363ffffffff1660e01b815260040161036e9291906108d7565b600060405180830381600087803b15801561038857600080fd5b505af115801561039c573d6000803e3d6000fd5b505050503373ffffffffffffffffffffffffffffffffffffffff167f0b05f0d1cd0819f155b8a61f60baf7767c1ee49d04aeaab701df236140eb93f934836040516103e8929190610900565b60405180910390a260006064600a346104019190610835565b61040b91906108a6565b9050600560009054906101000a900473ffffffffffffffffffffffffffffffffffffffff1673ffffffffffffffffffffffffffffffffffffffff166108fc829081150290604051600060405180830381858888f19350505050158015610475573d6000803e3d6000fd5b506000600160009054906101000a900473ffffffffffffffffffffffffffffffffffffffff1673ffffffffffffffffffffffffffffffffffffffff16637ff9b5966040518163ffffffff1660e01b8152600401602060405180830381865afa1580156104e5573d6000803e3d6000fd5b505050506040513d601f19601f8201168201806040525081019061050991906107d9565b9050606460045461051a9190610929565b8110610530578060048190555061052f61055b565b5b505050565b600160009054906101000a900473ffffffffffffffffffffffffffffffffffffffff1681565b600047905060006064600a836105719190610835565b61057b91906108a6565b9050600560009054906101000a900473ffffffffffffffffffffffffffffffffffffffff1673ffffffffffffffffffffffffffffffffffffffff166108fc829081150290604051600060405180830381858888f193505050501580156105e5573d6000803e3d6000fd5b507f952b264c8e0a06cddb4bbaa6d6af1d565145329fd95bbe72cb2b53942b2dc96681604051610615919061063a565b60405180910390a15050565b6000819050919050565b61063481610621565b82525050565b600060208201905061064f600083018461062b565b92915050565b600073ffffffffffffffffffffffffffffffffffffffff82169050919050565b600061068082610655565b9050919050565b61069081610675565b82525050565b60006020820190506106ab6000830184610687565b92915050565b6000819050919050565b60006106d66106d16106cc84610655565b6106b1565b610655565b9050919050565b60006106e8826106bb565b9050919050565b60006106fa826106dd565b9050919050565b61070a816106ef565b82525050565b60006020820190506107256000830184610701565b92915050565b600082825260208201905092915050565b7f4d757374206465706f73697420736f6d652066756e6473000000000000000000600082015250565b600061077260178361072b565b915061077d8261073c565b602082019050919050565b600060208201905081810360008301526107a181610765565b9050919050565b600080fd5b6107b681610621565b81146107c157600080fd5b50565b6000815190506107d3816107ad565b92915050565b6000602082840312156107ef576107ee6107a8565b5b60006107fd848285016107c4565b91505092915050565b7f4e487b7100000000000000000000000000000000000000000000000000000000600052601160045260246000fd5b600061084082610621565b915061084b83610621565b925082820261085981610621565b915082820484148315176108705761086f610806565b5b5092915050565b7f4e487b7100000000000000000000000000000000000000000000000000000000600052601260045260246000fd5b60006108b182610621565b91506108bc83610621565b9250826108cc576108cb610877565b5b828204905092915050565b60006040820190506108ec6000830185610687565b6108f9602083018461062b565b9392505050565b6000604082019050610915600083018561062b565b610922602083018461062b565b9392505050565b600061093482610621565b915061093f83610621565b925082820190508082111561095757610956610806565b5b9291505056fea264697066735822122056cf75713b7e8c7a39b70f1afe26efaf954ec24a31647b603534fb5f135e507764736f6c63430008140033",
  "linkReferences": {},
  "deployedLinkReferences": {}
}