{
  "_format": "hh-sol-artifact-1",
  "contractName": "EscrowWallet",
  "sourceName": "contracts/Escrow.sol",
  "abi": [
    {
      "inputs": [],
      "stateMutability": "nonpayable",
      "type": "constructor"
    },
    {
      "inputs": [],
      "name": "approveMilestone",
      "outputs": [],
      "stateMutability": "nonpayable",
      "type": "function"
    },
    {
      "inputs": [],
      "name": "deposit",
      "outputs": [],
      "stateMutability": "payable",
      "type": "function"
    },
    {
      "inputs": [],
      "name": "getBalance",
      "outputs": [
        {
          "internalType": "uint256",
          "name": "",
          "type": "uint256"
        }
      ],
      "stateMutability": "view",
      "type": "function"
    },
    {
      "inputs": [],
      "name": "investor",
      "outputs": [
        {
          "internalType": "address",
          "name": "",
          "type": "address"
        }
      ],
      "stateMutability": "view",
      "type": "function"
    },
    {
      "inputs": [],
      "name": "milestoneCount",
      "outputs": [
        {
          "internalType": "uint256",
          "name": "",
          "type": "uint256"
        }
      ],
      "stateMutability": "view",
      "type": "function"
    },
    {
      "inputs": [],
      "name": "milestoneMet",
      "outputs": [
        {
          "internalType": "bool",
          "name": "",
          "type": "bool"
        }
      ],
      "stateMutability": "view",
      "type": "function"
    },
    {
      "inputs": [],
      "name": "owner",
      "outputs": [
        {
          "internalType": "address",
          "name": "",
          "type": "address"
        }
      ],
      "stateMutability": "view",
      "type": "function"
    },
    {
      "inputs": [],
      "name": "releaseFunds",
      "outputs": [],
      "stateMutability": "nonpayable",
      "type": "function"
    },
    {
      "inputs": [
        {
          "internalType": "uint256",
          "name": "_milestoneCount",
          "type": "uint256"
        }
      ],
      "name": "setMilestone",
      "outputs": [],
      "stateMutability": "nonpayable",
      "type": "function"
    }
  ],
  "bytecode": "0x608060405234801561001057600080fd5b50336000806101000a81548173ffffffffffffffffffffffffffffffffffffffff021916908373ffffffffffffffffffffffffffffffffffffffff1602179055506107f2806100606000396000f3fe6080604052600436106100865760003560e01c80638da5cb5b116100595780638da5cb5b1461012357806391f853391461014e578063996d1c0614610165578063c547092b14610190578063d0e30db0146101b957610086565b80630681ca551461008b57806312065fe0146100b65780631e0018d6146100e157806369d895751461010c575b600080fd5b34801561009757600080fd5b506100a06101c3565b6040516100ad91906104a4565b60405180910390f35b3480156100c257600080fd5b506100cb6101c9565b6040516100d891906104a4565b60405180910390f35b3480156100ed57600080fd5b506100f66101d1565b6040516101039190610500565b60405180910390f35b34801561011857600080fd5b506101216101f7565b005b34801561012f57600080fd5b506101386102ca565b6040516101459190610500565b60405180910390f35b34801561015a57600080fd5b506101636102ee565b005b34801561017157600080fd5b5061017a61039b565b6040516101879190610536565b60405180910390f35b34801561019c57600080fd5b506101b760048036038101906101b29190610582565b6103ae565b005b6101c1610446565b005b60025481565b600047905090565b600160009054906101000a900473ffffffffffffffffffffffffffffffffffffffff1681565b600360009054906101000a900460ff16610246576040517f08c379a000000000000000000000000000000000000000000000000000000000815260040161023d9061060c565b60405180910390fd5b60008054906101000a900473ffffffffffffffffffffffffffffffffffffffff1673ffffffffffffffffffffffffffffffffffffffff166108fc479081150290604051600060405180830381858888f193505050501580156102ac573d6000803e3d6000fd5b506000600360006101000a81548160ff021916908315150217905550565b60008054906101000a900473ffffffffffffffffffffffffffffffffffffffff1681565b600160009054906101000a900473ffffffffffffffffffffffffffffffffffffffff1673ffffffffffffffffffffffffffffffffffffffff163373ffffffffffffffffffffffffffffffffffffffff161461037e576040517f08c379a00000000000000000000000000000000000000000000000000000000081526004016103759061069e565b60405180910390fd5b6001600360006101000a81548160ff021916908315150217905550565b600360009054906101000a900460ff1681565b60008054906101000a900473ffffffffffffffffffffffffffffffffffffffff1673ffffffffffffffffffffffffffffffffffffffff163373ffffffffffffffffffffffffffffffffffffffff161461043c576040517f08c379a000000000000000000000000000000000000000000000000000000000815260040161043390610730565b60405180910390fd5b8060028190555050565b60003411610489576040517f08c379a00000000000000000000000000000000000000000000000000000000081526004016104809061079c565b60405180910390fd5b565b6000819050919050565b61049e8161048b565b82525050565b60006020820190506104b96000830184610495565b92915050565b600073ffffffffffffffffffffffffffffffffffffffff82169050919050565b60006104ea826104bf565b9050919050565b6104fa816104df565b82525050565b600060208201905061051560008301846104f1565b92915050565b60008115159050919050565b6105308161051b565b82525050565b600060208201905061054b6000830184610527565b92915050565b600080fd5b61055f8161048b565b811461056a57600080fd5b50565b60008135905061057c81610556565b92915050565b60006020828403121561059857610597610551565b5b60006105a68482850161056d565b91505092915050565b600082825260208201905092915050565b7f4d696c6573746f6e65206e6f7420796574206d65740000000000000000000000600082015250565b60006105f66015836105af565b9150610601826105c0565b602082019050919050565b60006020820190508181036000830152610625816105e9565b9050919050565b7f4f6e6c792074686520696e766573746f722063616e20617070726f7665206d6960008201527f6c6573746f6e6573000000000000000000000000000000000000000000000000602082015250565b60006106886028836105af565b91506106938261062c565b604082019050919050565b600060208201905081810360008301526106b78161067b565b9050919050565b7f4f6e6c7920746865206f776e65722063616e20736574206d696c6573746f6e6560008201527f7300000000000000000000000000000000000000000000000000000000000000602082015250565b600061071a6021836105af565b9150610725826106be565b604082019050919050565b600060208201905081810360008301526107498161070d565b9050919050565b7f4d757374206465706f73697420736f6d652066756e6473000000000000000000600082015250565b60006107866017836105af565b915061079182610750565b602082019050919050565b600060208201905081810360008301526107b581610779565b905091905056fea264697066735822122051f34357d2e9b861e11f389be3f269b198acdd59a951d6f74c717a48b601646a64736f6c63430008140033",
  "linkReferences": {},
  "deployedLinkReferences": {}
}