{
  "_format": "hh-sol-artifact-1",
  "contractName": "EscrowWallet",
  "sourceName": "contracts/Escrow.sol",
  "abi": [
    {
      "inputs": [
        {
          "internalType": "address",
          "name": "_token",
          "type": "address"
        },
        {
          "internalType": "address",
          "name": "_companyAccount",
          "type": "address"
        },
        {
          "internalType": "address",
          "name": "_companyRegistry",
          "type": "address"
        }
      ],
      "stateMutability": "nonpayable",
      "type": "constructor"
    },
    {
      "anonymous": false,
      "inputs": [
        {
          "indexed": true,
          "internalType": "address",
          "name": "investor",
          "type": "address"
        },
        {
          "indexed": false,
          "internalType": "uint256",
          "name": "amount",
          "type": "uint256"
        },
        {
          "indexed": false,
          "internalType": "uint256",
          "name": "tokensMinted",
          "type": "uint256"
        }
      ],
      "name": "DepositMade",
      "type": "event"
    },
    {
      "anonymous": false,
      "inputs": [
        {
          "indexed": false,
          "internalType": "uint256",
          "name": "amount",
          "type": "uint256"
        }
      ],
      "name": "FundsReleased",
      "type": "event"
    },
    {
      "inputs": [],
      "name": "companyAccount",
      "outputs": [
        {
          "internalType": "address",
          "name": "",
          "type": "address"
        }
      ],
      "stateMutability": "view",
      "type": "function"
    },
    {
      "inputs": [],
      "name": "companyRegistry",
      "outputs": [
        {
          "internalType": "contract CompanyRegistry",
          "name": "",
          "type": "address"
        }
      ],
      "stateMutability": "view",
      "type": "function"
    },
    {
      "inputs": [],
      "name": "deposit",
      "outputs": [],
      "stateMutability": "payable",
      "type": "function"
    },
    {
      "inputs": [],
      "name": "getBalance",
      "outputs": [
        {
          "internalType": "uint256",
          "name": "",
          "type": "uint256"
        }
      ],
      "stateMutability": "view",
      "type": "function"
    },
    {
      "inputs": [],
      "name": "lastTokenPrice",
      "outputs": [
        {
          "internalType": "uint256",
          "name": "",
          "type": "uint256"
        }
      ],
      "stateMutability": "view",
      "type": "function"
    },
    {
      "inputs": [],
      "name": "owner",
      "outputs": [
        {
          "internalType": "address",
          "name": "",
          "type": "address"
        }
      ],
      "stateMutability": "view",
      "type": "function"
    },
    {
      "inputs": [],
      "name": "token",
      "outputs": [
        {
          "internalType": "contract DemandBasedToken",
          "name": "",
          "type": "address"
        }
      ],
      "stateMutability": "view",
      "type": "function"
    }
  ],
  "bytecode": "0x60806040523480156200001157600080fd5b5060405162000df538038062000df5833981810160405281019062000037919062000247565b336000806101000a81548173ffffffffffffffffffffffffffffffffffffffff021916908373ffffffffffffffffffffffffffffffffffffffff16021790555082600160006101000a81548173ffffffffffffffffffffffffffffffffffffffff021916908373ffffffffffffffffffffffffffffffffffffffff16021790555081600360006101000a81548173ffffffffffffffffffffffffffffffffffffffff021916908373ffffffffffffffffffffffffffffffffffffffff16021790555080600260006101000a81548173ffffffffffffffffffffffffffffffffffffffff021916908373ffffffffffffffffffffffffffffffffffffffff160217905550600160009054906101000a900473ffffffffffffffffffffffffffffffffffffffff1673ffffffffffffffffffffffffffffffffffffffff16637ff9b5966040518163ffffffff1660e01b8152600401602060405180830381865afa158015620001a8573d6000803e3d6000fd5b505050506040513d601f19601f82011682018060405250810190620001ce9190620002de565b60048190555050505062000310565b600080fd5b600073ffffffffffffffffffffffffffffffffffffffff82169050919050565b60006200020f82620001e2565b9050919050565b620002218162000202565b81146200022d57600080fd5b50565b600081519050620002418162000216565b92915050565b600080600060608486031215620002635762000262620001dd565b5b6000620002738682870162000230565b9350506020620002868682870162000230565b9250506040620002998682870162000230565b9150509250925092565b6000819050919050565b620002b881620002a3565b8114620002c457600080fd5b50565b600081519050620002d881620002ad565b92915050565b600060208284031215620002f757620002f6620001dd565b5b60006200030784828501620002c7565b91505092915050565b610ad580620003206000396000f3fe6080604052600436106100705760003560e01c8063b64d7df11161004e578063b64d7df1146100f6578063c51aba2b14610121578063d0e30db01461014c578063fc0c546a1461015657610070565b806312065fe014610075578063642a833f146100a05780638da5cb5b146100cb575b600080fd5b34801561008157600080fd5b5061008a610181565b6040516100979190610709565b60405180910390f35b3480156100ac57600080fd5b506100b5610189565b6040516100c29190610765565b60405180910390f35b3480156100d757600080fd5b506100e06101af565b6040516100ed9190610765565b60405180910390f35b34801561010257600080fd5b5061010b6101d3565b6040516101189190610709565b60405180910390f35b34801561012d57600080fd5b506101366101d9565b60405161014391906107df565b60405180910390f35b6101546101ff565b005b34801561016257600080fd5b5061016b6106ca565b604051610178919061081b565b60405180910390f35b600047905090565b600360009054906101000a900473ffffffffffffffffffffffffffffffffffffffff1681565b60008054906101000a900473ffffffffffffffffffffffffffffffffffffffff1681565b60045481565b600260009054906101000a900473ffffffffffffffffffffffffffffffffffffffff1681565b60003411610242576040517f08c379a000000000000000000000000000000000000000000000000000000000815260040161023990610893565b60405180910390fd5b6000600160009054906101000a900473ffffffffffffffffffffffffffffffffffffffff1673ffffffffffffffffffffffffffffffffffffffff16637ff9b5966040518163ffffffff1660e01b8152600401602060405180830381865afa1580156102b1573d6000803e3d6000fd5b505050506040513d601f19601f820116820180604052508101906102d591906108e4565b670de0b6b3a7640000346102e99190610940565b6102f391906109b1565b9050600160009054906101000a900473ffffffffffffffffffffffffffffffffffffffff1673ffffffffffffffffffffffffffffffffffffffff1663f0dda65c33836040518363ffffffff1660e01b81526004016103529291906109e2565b600060405180830381600087803b15801561036c57600080fd5b505af1158015610380573d6000803e3d6000fd5b505050506000600454600160009054906101000a900473ffffffffffffffffffffffffffffffffffffffff1673ffffffffffffffffffffffffffffffffffffffff16637ff9b5966040518163ffffffff1660e01b8152600401602060405180830381865afa1580156103f6573d6000803e3d6000fd5b505050506040513d601f19601f8201168201806040525081019061041a91906108e4565b116104265760006104c5565b600454600160009054906101000a900473ffffffffffffffffffffffffffffffffffffffff1673ffffffffffffffffffffffffffffffffffffffff16637ff9b5966040518163ffffffff1660e01b8152600401602060405180830381865afa158015610496573d6000803e3d6000fd5b505050506040513d601f19601f820116820180604052508101906104ba91906108e4565b6104c49190610a0b565b5b9050600160009054906101000a900473ffffffffffffffffffffffffffffffffffffffff1673ffffffffffffffffffffffffffffffffffffffff16637ff9b5966040518163ffffffff1660e01b8152600401602060405180830381865afa158015610534573d6000803e3d6000fd5b505050506040513d601f19601f8201168201806040525081019061055891906108e4565b600481905550600260009054906101000a900473ffffffffffffffffffffffffffffffffffffffff1673ffffffffffffffffffffffffffffffffffffffff16632c92a9693034846040518463ffffffff1660e01b81526004016105bd93929190610a3f565b600060405180830381600087803b1580156105d757600080fd5b505af11580156105eb573d6000803e3d6000fd5b505050503373ffffffffffffffffffffffffffffffffffffffff167f0b05f0d1cd0819f155b8a61f60baf7767c1ee49d04aeaab701df236140eb93f93484604051610637929190610a76565b60405180910390a260006064600a346106509190610940565b61065a91906109b1565b9050600360009054906101000a900473ffffffffffffffffffffffffffffffffffffffff1673ffffffffffffffffffffffffffffffffffffffff166108fc829081150290604051600060405180830381858888f193505050501580156106c4573d6000803e3d6000fd5b50505050565b600160009054906101000a900473ffffffffffffffffffffffffffffffffffffffff1681565b6000819050919050565b610703816106f0565b82525050565b600060208201905061071e60008301846106fa565b92915050565b600073ffffffffffffffffffffffffffffffffffffffff82169050919050565b600061074f82610724565b9050919050565b61075f81610744565b82525050565b600060208201905061077a6000830184610756565b92915050565b6000819050919050565b60006107a56107a061079b84610724565b610780565b610724565b9050919050565b60006107b78261078a565b9050919050565b60006107c9826107ac565b9050919050565b6107d9816107be565b82525050565b60006020820190506107f460008301846107d0565b92915050565b6000610805826107ac565b9050919050565b610815816107fa565b82525050565b6000602082019050610830600083018461080c565b92915050565b600082825260208201905092915050565b7f4d757374206465706f73697420736f6d652066756e6473000000000000000000600082015250565b600061087d601783610836565b915061088882610847565b602082019050919050565b600060208201905081810360008301526108ac81610870565b9050919050565b600080fd5b6108c1816106f0565b81146108cc57600080fd5b50565b6000815190506108de816108b8565b92915050565b6000602082840312156108fa576108f96108b3565b5b6000610908848285016108cf565b91505092915050565b7f4e487b7100000000000000000000000000000000000000000000000000000000600052601160045260246000fd5b600061094b826106f0565b9150610956836106f0565b9250828202610964816106f0565b9150828204841483151761097b5761097a610911565b5b5092915050565b7f4e487b7100000000000000000000000000000000000000000000000000000000600052601260045260246000fd5b60006109bc826106f0565b91506109c7836106f0565b9250826109d7576109d6610982565b5b828204905092915050565b60006040820190506109f76000830185610756565b610a0460208301846106fa565b9392505050565b6000610a16826106f0565b9150610a21836106f0565b9250828203905081811115610a3957610a38610911565b5b92915050565b6000606082019050610a546000830186610756565b610a6160208301856106fa565b610a6e60408301846106fa565b949350505050565b6000604082019050610a8b60008301856106fa565b610a9860208301846106fa565b939250505056fea264697066735822122033877c835b30b1f10132ce30784e19ff2a3086172f333523adb06ca44448290e64736f6c63430008140033",
  "linkReferences": {},
  "deployedLinkReferences": {}
}