{"contracts/CompanyRegistry.sol":{"CompanyRegistry":{"abi":[{"anonymous":false,"inputs":[{"indexed":false,"internalType":"string","name":"name","type":"string"},{"indexed":false,"internalType":"address","name":"escrowAddress","type":"address"},{"indexed":false,"internalType":"address","name":"tokenAddress","type":"address"}],"name":"CompanyRegistered","type":"event"},{"anonymous":false,"inputs":[{"indexed":true,"internalType":"address","name":"escrowAddress","type":"address"},{"indexed":false,"internalType":"uint256","name":"reputationScore","type":"uint256"}],"name":"ReputationUpdated","type":"event"},{"inputs":[{"internalType":"address","name":"","type":"address"}],"name":"companies","outputs":[{"internalType":"string","name":"name","type":"string"},{"internalType":"address","name":"escrowAddress","type":"address"},{"internalType":"address","name":"tokenAddress","type":"address"},{"internalType":"uint256","name":"totalDeposits","type":"uint256"},{"internalType":"uint256","name":"reputationScore","type":"uint256"},{"internalType":"bool","name":"isRegistered","type":"bool"}],"stateMutability":"view","type":"function"},{"inputs":[],"name":"getCompaniesByReputation","outputs":[{"components":[{"internalType":"string","name":"name","type":"string"},{"internalType":"address","name":"escrowAddress","type":"address"},{"internalType":"address","name":"tokenAddress","type":"address"},{"internalType":"uint256","name":"totalDeposits","type":"uint256"},{"internalType":"uint256","name":"reputationScore","type":"uint256"},{"internalType":"bool","name":"isRegistered","type":"bool"}],"internalType":"struct CompanyRegistry.Company[]","name":"","type":"tuple[]"}],"stateMutability":"view","type":"function"},{"inputs":[],"name":"getRegisteredCompanies","outputs":[{"internalType":"address[]","name":"","type":"address[]"}],"stateMutability":"view","type":"function"},{"inputs":[{"internalType":"string","name":"_name","type":"string"},{"internalType":"address","name":"_escrowAddress","type":"address"},{"internalType":"address","name":"_tokenAddress","type":"address"}],"name":"registerCompany","outputs":[],"stateMutability":"nonpayable","type":"function"},{"inputs":[{"internalType":"uint256","name":"","type":"uint256"}],"name":"registeredCompanies","outputs":[{"internalType":"address","name":"","type":"address"}],"stateMutability":"view","type":"function"},{"inputs":[{"internalType":"address","name":"_escrowAddress","type":"address"},{"internalType":"uint256","name":"depositAmount","type":"uint256"},{"internalType":"uint256","name":"tokenPriceIncrease","type":"uint256"}],"name":"updateReputation","outputs":[],"stateMutability":"nonpayable","type":"function"}],"evm":{"bytecode":{"linkReferences":{},"object":"608060405234801561001057600080fd5b50611814806100206000396000f3fe608060405234801561001057600080fd5b50600436106100625760003560e01c80632c92a96914610067578063355e6ce81461008357806335d2e6f1146100b85780635e96b80d146100d6578063ce0a8ed514610106578063fcc436b114610124575b600080fd5b610081600480360381019061007c9190610c01565b610140565b005b61009d60048036038101906100989190610c54565b6102c6565b6040516100af96959493929190610d4a565b60405180910390f35b6100c06103d7565b6040516100cd9190610f74565b60405180910390f35b6100f060048036038101906100eb9190610f96565b61077f565b6040516100fd9190610fc3565b60405180910390f35b61010e6107be565b60405161011b919061108d565b60405180910390f35b61013e600480360381019061013991906111e4565b61084c565b005b6000808473ffffffffffffffffffffffffffffffffffffffff1673ffffffffffffffffffffffffffffffffffffffff16815260200190815260200160002060050160009054906101000a900460ff166101ce576040517f08c379a00000000000000000000000000000000000000000000000000000000081526004016101c59061129f565b60405180910390fd5b60008060008573ffffffffffffffffffffffffffffffffffffffff1673ffffffffffffffffffffffffffffffffffffffff16815260200190815260200160002090508281600301600082825461022491906112ee565b92505081905550601e826102389190611322565b6046670de0b6b3a764000083600301546102529190611393565b61025c9190611322565b61026691906112ee565b81600401819055508373ffffffffffffffffffffffffffffffffffffffff167ffc577563f1b9a0461e24abef1e1fcc0d33d3d881f20b5df6dda59de4aae2c82182600401546040516102b891906113c4565b60405180910390a250505050565b60006020528060005260406000206000915090508060000180546102e99061140e565b80601f01602080910402602001604051908101604052809291908181526020018280546103159061140e565b80156103625780601f1061033757610100808354040283529160200191610362565b820191906000526020600020905b81548152906001019060200180831161034557829003601f168201915b5050505050908060010160009054906101000a900473ffffffffffffffffffffffffffffffffffffffff16908060020160009054906101000a900473ffffffffffffffffffffffffffffffffffffffff16908060030154908060040154908060050160009054906101000a900460ff16905086565b6060600060018054905067ffffffffffffffff8111156103fa576103f96110b9565b5b60405190808252806020026020018201604052801561043357816020015b610420610af5565b8152602001906001900390816104185790505b50905060005b60018054905081101561066b576000806001838154811061045d5761045c61143f565b5b9060005260206000200160009054906101000a900473ffffffffffffffffffffffffffffffffffffffff1673ffffffffffffffffffffffffffffffffffffffff1673ffffffffffffffffffffffffffffffffffffffff1681526020019081526020016000206040518060c00160405290816000820180546104dd9061140e565b80601f01602080910402602001604051908101604052809291908181526020018280546105099061140e565b80156105565780601f1061052b57610100808354040283529160200191610556565b820191906000526020600020905b81548152906001019060200180831161053957829003601f168201915b505050505081526020016001820160009054906101000a900473ffffffffffffffffffffffffffffffffffffffff1673ffffffffffffffffffffffffffffffffffffffff1673ffffffffffffffffffffffffffffffffffffffff1681526020016002820160009054906101000a900473ffffffffffffffffffffffffffffffffffffffff1673ffffffffffffffffffffffffffffffffffffffff1673ffffffffffffffffffffffffffffffffffffffff16815260200160038201548152602001600482015481526020016005820160009054906101000a900460ff16151515158152505082828151811061064d5761064c61143f565b5b602002602001018190525080806106639061146e565b915050610439565b5060005b815181101561077757600060018261068791906112ee565b90505b8251811015610763578282815181106106a6576106a561143f565b5b6020026020010151608001518382815181106106c5576106c461143f565b5b60200260200101516080015111156107505760008383815181106106ec576106eb61143f565b5b602002602001015190508382815181106107095761070861143f565b5b60200260200101518484815181106107245761072361143f565b5b6020026020010181905250808483815181106107435761074261143f565b5b6020026020010181905250505b808061075b9061146e565b91505061068a565b50808061076f9061146e565b91505061066f565b508091505090565b6001818154811061078f57600080fd5b906000526020600020016000915054906101000a900473ffffffffffffffffffffffffffffffffffffffff1681565b6060600180548060200260200160405190810160405280929190818152602001828054801561084257602002820191906000526020600020905b8160009054906101000a900473ffffffffffffffffffffffffffffffffffffffff1673ffffffffffffffffffffffffffffffffffffffff16815260200190600101908083116107f8575b5050505050905090565b6000808373ffffffffffffffffffffffffffffffffffffffff1673ffffffffffffffffffffffffffffffffffffffff16815260200190815260200160002060050160009054906101000a900460ff16156108db576040517f08c379a00000000000000000000000000000000000000000000000000000000081526004016108d290611502565b60405180910390fd5b6040518060c001604052808481526020018373ffffffffffffffffffffffffffffffffffffffff1681526020018273ffffffffffffffffffffffffffffffffffffffff1681526020016000815260200160008152602001600115158152506000808473ffffffffffffffffffffffffffffffffffffffff1673ffffffffffffffffffffffffffffffffffffffff168152602001908152602001600020600082015181600001908161098c91906116ce565b5060208201518160010160006101000a81548173ffffffffffffffffffffffffffffffffffffffff021916908373ffffffffffffffffffffffffffffffffffffffff16021790555060408201518160020160006101000a81548173ffffffffffffffffffffffffffffffffffffffff021916908373ffffffffffffffffffffffffffffffffffffffff160217905550606082015181600301556080820151816004015560a08201518160050160006101000a81548160ff0219169083151502179055509050506001829080600181540180825580915050600190039060005260206000200160009091909190916101000a81548173ffffffffffffffffffffffffffffffffffffffff021916908373ffffffffffffffffffffffffffffffffffffffff1602179055507f94aec3dc6cb6f40c1de17e8e63a10905c1d89509ee5f4649a1640ae029a25595838383604051610ae8939291906117a0565b60405180910390a1505050565b6040518060c0016040528060608152602001600073ffffffffffffffffffffffffffffffffffffffff168152602001600073ffffffffffffffffffffffffffffffffffffffff16815260200160008152602001600081526020016000151581525090565b6000604051905090565b600080fd5b600080fd5b600073ffffffffffffffffffffffffffffffffffffffff82169050919050565b6000610b9882610b6d565b9050919050565b610ba881610b8d565b8114610bb357600080fd5b50565b600081359050610bc581610b9f565b92915050565b6000819050919050565b610bde81610bcb565b8114610be957600080fd5b50565b600081359050610bfb81610bd5565b92915050565b600080600060608486031215610c1a57610c19610b63565b5b6000610c2886828701610bb6565b9350506020610c3986828701610bec565b9250506040610c4a86828701610bec565b9150509250925092565b600060208284031215610c6a57610c69610b63565b5b6000610c7884828501610bb6565b91505092915050565b600081519050919050565b600082825260208201905092915050565b60005b83811015610cbb578082015181840152602081019050610ca0565b60008484015250505050565b6000601f19601f8301169050919050565b6000610ce382610c81565b610ced8185610c8c565b9350610cfd818560208601610c9d565b610d0681610cc7565b840191505092915050565b610d1a81610b8d565b82525050565b610d2981610bcb565b82525050565b60008115159050919050565b610d4481610d2f565b82525050565b600060c0820190508181036000830152610d648189610cd8565b9050610d736020830188610d11565b610d806040830187610d11565b610d8d6060830186610d20565b610d9a6080830185610d20565b610da760a0830184610d3b565b979650505050505050565b600081519050919050565b600082825260208201905092915050565b6000819050602082019050919050565b600082825260208201905092915050565b6000610dfa82610c81565b610e048185610dde565b9350610e14818560208601610c9d565b610e1d81610cc7565b840191505092915050565b610e3181610b8d565b82525050565b610e4081610bcb565b82525050565b610e4f81610d2f565b82525050565b600060c0830160008301518482036000860152610e728282610def565b9150506020830151610e876020860182610e28565b506040830151610e9a6040860182610e28565b506060830151610ead6060860182610e37565b506080830151610ec06080860182610e37565b5060a0830151610ed360a0860182610e46565b508091505092915050565b6000610eea8383610e55565b905092915050565b6000602082019050919050565b6000610f0a82610db2565b610f148185610dbd565b935083602082028501610f2685610dce565b8060005b85811015610f625784840389528151610f438582610ede565b9450610f4e83610ef2565b925060208a01995050600181019050610f2a565b50829750879550505050505092915050565b60006020820190508181036000830152610f8e8184610eff565b905092915050565b600060208284031215610fac57610fab610b63565b5b6000610fba84828501610bec565b91505092915050565b6000602082019050610fd86000830184610d11565b92915050565b600081519050919050565b600082825260208201905092915050565b6000819050602082019050919050565b60006110168383610e28565b60208301905092915050565b6000602082019050919050565b600061103a82610fde565b6110448185610fe9565b935061104f83610ffa565b8060005b83811015611080578151611067888261100a565b975061107283611022565b925050600181019050611053565b5085935050505092915050565b600060208201905081810360008301526110a7818461102f565b905092915050565b600080fd5b600080fd5b7f4e487b7100000000000000000000000000000000000000000000000000000000600052604160045260246000fd5b6110f182610cc7565b810181811067ffffffffffffffff821117156111105761110f6110b9565b5b80604052505050565b6000611123610b59565b905061112f82826110e8565b919050565b600067ffffffffffffffff82111561114f5761114e6110b9565b5b61115882610cc7565b9050602081019050919050565b82818337600083830152505050565b600061118761118284611134565b611119565b9050828152602081018484840111156111a3576111a26110b4565b5b6111ae848285611165565b509392505050565b600082601f8301126111cb576111ca6110af565b5b81356111db848260208601611174565b91505092915050565b6000806000606084860312156111fd576111fc610b63565b5b600084013567ffffffffffffffff81111561121b5761121a610b68565b5b611227868287016111b6565b935050602061123886828701610bb6565b925050604061124986828701610bb6565b9150509250925092565b7f436f6d70616e79206e6f74207265676973746572656400000000000000000000600082015250565b6000611289601683610c8c565b915061129482611253565b602082019050919050565b600060208201905081810360008301526112b88161127c565b9050919050565b7f4e487b7100000000000000000000000000000000000000000000000000000000600052601160045260246000fd5b60006112f982610bcb565b915061130483610bcb565b925082820190508082111561131c5761131b6112bf565b5b92915050565b600061132d82610bcb565b915061133883610bcb565b925082820261134681610bcb565b9150828204841483151761135d5761135c6112bf565b5b5092915050565b7f4e487b7100000000000000000000000000000000000000000000000000000000600052601260045260246000fd5b600061139e82610bcb565b91506113a983610bcb565b9250826113b9576113b8611364565b5b828204905092915050565b60006020820190506113d96000830184610d20565b92915050565b7f4e487b7100000000000000000000000000000000000000000000000000000000600052602260045260246000fd5b6000600282049050600182168061142657607f821691505b602082108103611439576114386113df565b5b50919050565b7f4e487b7100000000000000000000000000000000000000000000000000000000600052603260045260246000fd5b600061147982610bcb565b91507fffffffffffffffffffffffffffffffffffffffffffffffffffffffffffffffff82036114ab576114aa6112bf565b5b600182019050919050565b7f436f6d70616e7920616c72656164792072656769737465726564000000000000600082015250565b60006114ec601a83610c8c565b91506114f7826114b6565b602082019050919050565b6000602082019050818103600083015261151b816114df565b9050919050565b60008190508160005260206000209050919050565b60006020601f8301049050919050565b600082821b905092915050565b6000600883026115847fffffffffffffffffffffffffffffffffffffffffffffffffffffffffffffffff82611547565b61158e8683611547565b95508019841693508086168417925050509392505050565b6000819050919050565b60006115cb6115c66115c184610bcb565b6115a6565b610bcb565b9050919050565b6000819050919050565b6115e5836115b0565b6115f96115f1826115d2565b848454611554565b825550505050565b600090565b61160e611601565b6116198184846115dc565b505050565b5b8181101561163d57611632600082611606565b60018101905061161f565b5050565b601f8211156116825761165381611522565b61165c84611537565b8101602085101561166b578190505b61167f61167785611537565b83018261161e565b50505b505050565b600082821c905092915050565b60006116a560001984600802611687565b1980831691505092915050565b60006116be8383611694565b9150826002028217905092915050565b6116d782610c81565b67ffffffffffffffff8111156116f0576116ef6110b9565b5b6116fa825461140e565b611705828285611641565b600060209050601f8311600181146117385760008415611726578287015190505b61173085826116b2565b865550611798565b601f19841661174686611522565b60005b8281101561176e57848901518255600182019150602085019450602081019050611749565b8683101561178b5784890151611787601f891682611694565b8355505b6001600288020188555050505b505050505050565b600060608201905081810360008301526117ba8186610cd8565b90506117c96020830185610d11565b6117d66040830184610d11565b94935050505056fea2646970667358221220cce25dc84af1a9348aa2ca5231aba308e07c66a7146a6028b7fe89bc1c61408964736f6c63430008140033","opcodes":"PUSH1 0x80 PUSH1 0x40 MSTORE CALLVALUE DUP1 ISZERO PUSH2 0x10 JUMPI PUSH1 0x0 DUP1 REVERT JUMPDEST POP PUSH2 0x1814 DUP1 PUSH2 0x20 PUSH1 0x0 CODECOPY PUSH1 0x0 RETURN INVALID PUSH1 0x80 PUSH1 0x40 MSTORE CALLVALUE DUP1 ISZERO PUSH2 0x10 JUMPI PUSH1 0x0 DUP1 REVERT JUMPDEST POP PUSH1 0x4 CALLDATASIZE LT PUSH2 0x62 JUMPI PUSH1 0x0 CALLDATALOAD PUSH1 0xE0 SHR DUP1 PUSH4 0x2C92A969 EQ PUSH2 0x67 JUMPI DUP1 PUSH4 0x355E6CE8 EQ PUSH2 0x83 JUMPI DUP1 PUSH4 0x35D2E6F1 EQ PUSH2 0xB8 JUMPI DUP1 PUSH4 0x5E96B80D EQ PUSH2 0xD6 JUMPI DUP1 PUSH4 0xCE0A8ED5 EQ PUSH2 0x106 JUMPI DUP1 PUSH4 0xFCC436B1 EQ PUSH2 0x124 JUMPI JUMPDEST PUSH1 0x0 DUP1 REVERT JUMPDEST PUSH2 0x81 PUSH1 0x4 DUP1 CALLDATASIZE SUB DUP2 ADD SWAP1 PUSH2 0x7C SWAP2 SWAP1 PUSH2 0xC01 JUMP JUMPDEST PUSH2 0x140 JUMP JUMPDEST STOP JUMPDEST PUSH2 0x9D PUSH1 0x4 DUP1 CALLDATASIZE SUB DUP2 ADD SWAP1 PUSH2 0x98 SWAP2 SWAP1 PUSH2 0xC54 JUMP JUMPDEST PUSH2 0x2C6 JUMP JUMPDEST PUSH1 0x40 MLOAD PUSH2 0xAF SWAP7 SWAP6 SWAP5 SWAP4 SWAP3 SWAP2 SWAP1 PUSH2 0xD4A JUMP JUMPDEST PUSH1 0x40 MLOAD DUP1 SWAP2 SUB SWAP1 RETURN JUMPDEST PUSH2 0xC0 PUSH2 0x3D7 JUMP JUMPDEST PUSH1 0x40 MLOAD PUSH2 0xCD SWAP2 SWAP1 PUSH2 0xF74 JUMP JUMPDEST PUSH1 0x40 MLOAD DUP1 SWAP2 SUB SWAP1 RETURN JUMPDEST PUSH2 0xF0 PUSH1 0x4 DUP1 CALLDATASIZE SUB DUP2 ADD SWAP1 PUSH2 0xEB SWAP2 SWAP1 PUSH2 0xF96 JUMP JUMPDEST PUSH2 0x77F JUMP JUMPDEST PUSH1 0x40 MLOAD PUSH2 0xFD SWAP2 SWAP1 PUSH2 0xFC3 JUMP JUMPDEST PUSH1 0x40 MLOAD DUP1 SWAP2 SUB SWAP1 RETURN JUMPDEST PUSH2 0x10E PUSH2 0x7BE JUMP JUMPDEST PUSH1 0x40 MLOAD PUSH2 0x11B SWAP2 SWAP1 PUSH2 0x108D JUMP JUMPDEST PUSH1 0x40 MLOAD DUP1 SWAP2 SUB SWAP1 RETURN JUMPDEST PUSH2 0x13E PUSH1 0x4 DUP1 CALLDATASIZE SUB DUP2 ADD SWAP1 PUSH2 0x139 SWAP2 SWAP1 PUSH2 0x11E4 JUMP JUMPDEST PUSH2 0x84C JUMP JUMPDEST STOP JUMPDEST PUSH1 0x0 DUP1 DUP5 PUSH20 0xFFFFFFFFFFFFFFFFFFFFFFFFFFFFFFFFFFFFFFFF AND PUSH20 0xFFFFFFFFFFFFFFFFFFFFFFFFFFFFFFFFFFFFFFFF AND DUP2 MSTORE PUSH1 0x20 ADD SWAP1 DUP2 MSTORE PUSH1 0x20 ADD PUSH1 0x0 KECCAK256 PUSH1 0x5 ADD PUSH1 0x0 SWAP1 SLOAD SWAP1 PUSH2 0x100 EXP SWAP1 DIV PUSH1 0xFF AND PUSH2 0x1CE JUMPI PUSH1 0x40 MLOAD PUSH32 0x8C379A000000000000000000000000000000000000000000000000000000000 DUP2 MSTORE PUSH1 0x4 ADD PUSH2 0x1C5 SWAP1 PUSH2 0x129F JUMP JUMPDEST PUSH1 0x40 MLOAD DUP1 SWAP2 SUB SWAP1 REVERT JUMPDEST PUSH1 0x0 DUP1 PUSH1 0x0 DUP6 PUSH20 0xFFFFFFFFFFFFFFFFFFFFFFFFFFFFFFFFFFFFFFFF AND PUSH20 0xFFFFFFFFFFFFFFFFFFFFFFFFFFFFFFFFFFFFFFFF AND DUP2 MSTORE PUSH1 0x20 ADD SWAP1 DUP2 MSTORE PUSH1 0x20 ADD PUSH1 0x0 KECCAK256 SWAP1 POP DUP3 DUP2 PUSH1 0x3 ADD PUSH1 0x0 DUP3 DUP3 SLOAD PUSH2 0x224 SWAP2 SWAP1 PUSH2 0x12EE JUMP JUMPDEST SWAP3 POP POP DUP2 SWAP1 SSTORE POP PUSH1 0x1E DUP3 PUSH2 0x238 SWAP2 SWAP1 PUSH2 0x1322 JUMP JUMPDEST PUSH1 0x46 PUSH8 0xDE0B6B3A7640000 DUP4 PUSH1 0x3 ADD SLOAD PUSH2 0x252 SWAP2 SWAP1 PUSH2 0x1393 JUMP JUMPDEST PUSH2 0x25C SWAP2 SWAP1 PUSH2 0x1322 JUMP JUMPDEST PUSH2 0x266 SWAP2 SWAP1 PUSH2 0x12EE JUMP JUMPDEST DUP2 PUSH1 0x4 ADD DUP2 SWAP1 SSTORE POP DUP4 PUSH20 0xFFFFFFFFFFFFFFFFFFFFFFFFFFFFFFFFFFFFFFFF AND PUSH32 0xFC577563F1B9A0461E24ABEF1E1FCC0D33D3D881F20B5DF6DDA59DE4AAE2C821 DUP3 PUSH1 0x4 ADD SLOAD PUSH1 0x40 MLOAD PUSH2 0x2B8 SWAP2 SWAP1 PUSH2 0x13C4 JUMP JUMPDEST PUSH1 0x40 MLOAD DUP1 SWAP2 SUB SWAP1 LOG2 POP POP POP POP JUMP JUMPDEST PUSH1 0x0 PUSH1 0x20 MSTORE DUP1 PUSH1 0x0 MSTORE PUSH1 0x40 PUSH1 0x0 KECCAK256 PUSH1 0x0 SWAP2 POP SWAP1 POP DUP1 PUSH1 0x0 ADD DUP1 SLOAD PUSH2 0x2E9 SWAP1 PUSH2 0x140E JUMP JUMPDEST DUP1 PUSH1 0x1F ADD PUSH1 0x20 DUP1 SWAP2 DIV MUL PUSH1 0x20 ADD PUSH1 0x40 MLOAD SWAP1 DUP2 ADD PUSH1 0x40 MSTORE DUP1 SWAP3 SWAP2 SWAP1 DUP2 DUP2 MSTORE PUSH1 0x20 ADD DUP3 DUP1 SLOAD PUSH2 0x315 SWAP1 PUSH2 0x140E JUMP JUMPDEST DUP1 ISZERO PUSH2 0x362 JUMPI DUP1 PUSH1 0x1F LT PUSH2 0x337 JUMPI PUSH2 0x100 DUP1 DUP4 SLOAD DIV MUL DUP4 MSTORE SWAP2 PUSH1 0x20 ADD SWAP2 PUSH2 0x362 JUMP JUMPDEST DUP3 ADD SWAP2 SWAP1 PUSH1 0x0 MSTORE PUSH1 0x20 PUSH1 0x0 KECCAK256 SWAP1 JUMPDEST DUP2 SLOAD DUP2 MSTORE SWAP1 PUSH1 0x1 ADD SWAP1 PUSH1 0x20 ADD DUP1 DUP4 GT PUSH2 0x345 JUMPI DUP3 SWAP1 SUB PUSH1 0x1F AND DUP3 ADD SWAP2 JUMPDEST POP POP POP POP POP SWAP1 DUP1 PUSH1 0x1 ADD PUSH1 0x0 SWAP1 SLOAD SWAP1 PUSH2 0x100 EXP SWAP1 DIV PUSH20 0xFFFFFFFFFFFFFFFFFFFFFFFFFFFFFFFFFFFFFFFF AND SWAP1 DUP1 PUSH1 0x2 ADD PUSH1 0x0 SWAP1 SLOAD SWAP1 PUSH2 0x100 EXP SWAP1 DIV PUSH20 0xFFFFFFFFFFFFFFFFFFFFFFFFFFFFFFFFFFFFFFFF AND SWAP1 DUP1 PUSH1 0x3 ADD SLOAD SWAP1 DUP1 PUSH1 0x4 ADD SLOAD SWAP1 DUP1 PUSH1 0x5 ADD PUSH1 0x0 SWAP1 SLOAD SWAP1 PUSH2 0x100 EXP SWAP1 DIV PUSH1 0xFF AND SWAP1 POP DUP7 JUMP JUMPDEST PUSH1 0x60 PUSH1 0x0 PUSH1 0x1 DUP1 SLOAD SWAP1 POP PUSH8 0xFFFFFFFFFFFFFFFF DUP2 GT ISZERO PUSH2 0x3FA JUMPI PUSH2 0x3F9 PUSH2 0x10B9 JUMP JUMPDEST JUMPDEST PUSH1 0x40 MLOAD SWAP1 DUP1 DUP3 MSTORE DUP1 PUSH1 0x20 MUL PUSH1 0x20 ADD DUP3 ADD PUSH1 0x40 MSTORE DUP1 ISZERO PUSH2 0x433 JUMPI DUP2 PUSH1 0x20 ADD JUMPDEST PUSH2 0x420 PUSH2 0xAF5 JUMP JUMPDEST DUP2 MSTORE PUSH1 0x20 ADD SWAP1 PUSH1 0x1 SWAP1 SUB SWAP1 DUP2 PUSH2 0x418 JUMPI SWAP1 POP JUMPDEST POP SWAP1 POP PUSH1 0x0 JUMPDEST PUSH1 0x1 DUP1 SLOAD SWAP1 POP DUP2 LT ISZERO PUSH2 0x66B JUMPI PUSH1 0x0 DUP1 PUSH1 0x1 DUP4 DUP2 SLOAD DUP2 LT PUSH2 0x45D JUMPI PUSH2 0x45C PUSH2 0x143F JUMP JUMPDEST JUMPDEST SWAP1 PUSH1 0x0 MSTORE PUSH1 0x20 PUSH1 0x0 KECCAK256 ADD PUSH1 0x0 SWAP1 SLOAD SWAP1 PUSH2 0x100 EXP SWAP1 DIV PUSH20 0xFFFFFFFFFFFFFFFFFFFFFFFFFFFFFFFFFFFFFFFF AND PUSH20 0xFFFFFFFFFFFFFFFFFFFFFFFFFFFFFFFFFFFFFFFF AND PUSH20 0xFFFFFFFFFFFFFFFFFFFFFFFFFFFFFFFFFFFFFFFF AND DUP2 MSTORE PUSH1 0x20 ADD SWAP1 DUP2 MSTORE PUSH1 0x20 ADD PUSH1 0x0 KECCAK256 PUSH1 0x40 MLOAD DUP1 PUSH1 0xC0 ADD PUSH1 0x40 MSTORE SWAP1 DUP2 PUSH1 0x0 DUP3 ADD DUP1 SLOAD PUSH2 0x4DD SWAP1 PUSH2 0x140E JUMP JUMPDEST DUP1 PUSH1 0x1F ADD PUSH1 0x20 DUP1 SWAP2 DIV MUL PUSH1 0x20 ADD PUSH1 0x40 MLOAD SWAP1 DUP2 ADD PUSH1 0x40 MSTORE DUP1 SWAP3 SWAP2 SWAP1 DUP2 DUP2 MSTORE PUSH1 0x20 ADD DUP3 DUP1 SLOAD PUSH2 0x509 SWAP1 PUSH2 0x140E JUMP JUMPDEST DUP1 ISZERO PUSH2 0x556 JUMPI DUP1 PUSH1 0x1F LT PUSH2 0x52B JUMPI PUSH2 0x100 DUP1 DUP4 SLOAD DIV MUL DUP4 MSTORE SWAP2 PUSH1 0x20 ADD SWAP2 PUSH2 0x556 JUMP JUMPDEST DUP3 ADD SWAP2 SWAP1 PUSH1 0x0 MSTORE PUSH1 0x20 PUSH1 0x0 KECCAK256 SWAP1 JUMPDEST DUP2 SLOAD DUP2 MSTORE SWAP1 PUSH1 0x1 ADD SWAP1 PUSH1 0x20 ADD DUP1 DUP4 GT PUSH2 0x539 JUMPI DUP3 SWAP1 SUB PUSH1 0x1F AND DUP3 ADD SWAP2 JUMPDEST POP POP POP POP POP DUP2 MSTORE PUSH1 0x20 ADD PUSH1 0x1 DUP3 ADD PUSH1 0x0 SWAP1 SLOAD SWAP1 PUSH2 0x100 EXP SWAP1 DIV PUSH20 0xFFFFFFFFFFFFFFFFFFFFFFFFFFFFFFFFFFFFFFFF AND PUSH20 0xFFFFFFFFFFFFFFFFFFFFFFFFFFFFFFFFFFFFFFFF AND PUSH20 0xFFFFFFFFFFFFFFFFFFFFFFFFFFFFFFFFFFFFFFFF AND DUP2 MSTORE PUSH1 0x20 ADD PUSH1 0x2 DUP3 ADD PUSH1 0x0 SWAP1 SLOAD SWAP1 PUSH2 0x100 EXP SWAP1 DIV PUSH20 0xFFFFFFFFFFFFFFFFFFFFFFFFFFFFFFFFFFFFFFFF AND PUSH20 0xFFFFFFFFFFFFFFFFFFFFFFFFFFFFFFFFFFFFFFFF AND PUSH20 0xFFFFFFFFFFFFFFFFFFFFFFFFFFFFFFFFFFFFFFFF AND DUP2 MSTORE PUSH1 0x20 ADD PUSH1 0x3 DUP3 ADD SLOAD DUP2 MSTORE PUSH1 0x20 ADD PUSH1 0x4 DUP3 ADD SLOAD DUP2 MSTORE PUSH1 0x20 ADD PUSH1 0x5 DUP3 ADD PUSH1 0x0 SWAP1 SLOAD SWAP1 PUSH2 0x100 EXP SWAP1 DIV PUSH1 0xFF AND ISZERO ISZERO ISZERO ISZERO DUP2 MSTORE POP POP DUP3 DUP3 DUP2 MLOAD DUP2 LT PUSH2 0x64D JUMPI PUSH2 0x64C PUSH2 0x143F JUMP JUMPDEST JUMPDEST PUSH1 0x20 MUL PUSH1 0x20 ADD ADD DUP2 SWAP1 MSTORE POP DUP1 DUP1 PUSH2 0x663 SWAP1 PUSH2 0x146E JUMP JUMPDEST SWAP2 POP POP PUSH2 0x439 JUMP JUMPDEST POP PUSH1 0x0 JUMPDEST DUP2 MLOAD DUP2 LT ISZERO PUSH2 0x777 JUMPI PUSH1 0x0 PUSH1 0x1 DUP3 PUSH2 0x687 SWAP2 SWAP1 PUSH2 0x12EE JUMP JUMPDEST SWAP1 POP JUMPDEST DUP3 MLOAD DUP2 LT ISZERO PUSH2 0x763 JUMPI DUP3 DUP3 DUP2 MLOAD DUP2 LT PUSH2 0x6A6 JUMPI PUSH2 0x6A5 PUSH2 0x143F JUMP JUMPDEST JUMPDEST PUSH1 0x20 MUL PUSH1 0x20 ADD ADD MLOAD PUSH1 0x80 ADD MLOAD DUP4 DUP3 DUP2 MLOAD DUP2 LT PUSH2 0x6C5 JUMPI PUSH2 0x6C4 PUSH2 0x143F JUMP JUMPDEST JUMPDEST PUSH1 0x20 MUL PUSH1 0x20 ADD ADD MLOAD PUSH1 0x80 ADD MLOAD GT ISZERO PUSH2 0x750 JUMPI PUSH1 0x0 DUP4 DUP4 DUP2 MLOAD DUP2 LT PUSH2 0x6EC JUMPI PUSH2 0x6EB PUSH2 0x143F JUMP JUMPDEST JUMPDEST PUSH1 0x20 MUL PUSH1 0x20 ADD ADD MLOAD SWAP1 POP DUP4 DUP3 DUP2 MLOAD DUP2 LT PUSH2 0x709 JUMPI PUSH2 0x708 PUSH2 0x143F JUMP JUMPDEST JUMPDEST PUSH1 0x20 MUL PUSH1 0x20 ADD ADD MLOAD DUP5 DUP5 DUP2 MLOAD DUP2 LT PUSH2 0x724 JUMPI PUSH2 0x723 PUSH2 0x143F JUMP JUMPDEST JUMPDEST PUSH1 0x20 MUL PUSH1 0x20 ADD ADD DUP2 SWAP1 MSTORE POP DUP1 DUP5 DUP4 DUP2 MLOAD DUP2 LT PUSH2 0x743 JUMPI PUSH2 0x742 PUSH2 0x143F JUMP JUMPDEST JUMPDEST PUSH1 0x20 MUL PUSH1 0x20 ADD ADD DUP2 SWAP1 MSTORE POP POP JUMPDEST DUP1 DUP1 PUSH2 0x75B SWAP1 PUSH2 0x146E JUMP JUMPDEST SWAP2 POP POP PUSH2 0x68A JUMP JUMPDEST POP DUP1 DUP1 PUSH2 0x76F SWAP1 PUSH2 0x146E JUMP JUMPDEST SWAP2 POP POP PUSH2 0x66F JUMP JUMPDEST POP DUP1 SWAP2 POP POP SWAP1 JUMP JUMPDEST PUSH1 0x1 DUP2 DUP2 SLOAD DUP2 LT PUSH2 0x78F JUMPI PUSH1 0x0 DUP1 REVERT JUMPDEST SWAP1 PUSH1 0x0 MSTORE PUSH1 0x20 PUSH1 0x0 KECCAK256 ADD PUSH1 0x0 SWAP2 POP SLOAD SWAP1 PUSH2 0x100 EXP SWAP1 DIV PUSH20 0xFFFFFFFFFFFFFFFFFFFFFFFFFFFFFFFFFFFFFFFF AND DUP2 JUMP JUMPDEST PUSH1 0x60 PUSH1 0x1 DUP1 SLOAD DUP1 PUSH1 0x20 MUL PUSH1 0x20 ADD PUSH1 0x40 MLOAD SWAP1 DUP2 ADD PUSH1 0x40 MSTORE DUP1 SWAP3 SWAP2 SWAP1 DUP2 DUP2 MSTORE PUSH1 0x20 ADD DUP3 DUP1 SLOAD DUP1 ISZERO PUSH2 0x842 JUMPI PUSH1 0x20 MUL DUP3 ADD SWAP2 SWAP1 PUSH1 0x0 MSTORE PUSH1 0x20 PUSH1 0x0 KECCAK256 SWAP1 JUMPDEST DUP2 PUSH1 0x0 SWAP1 SLOAD SWAP1 PUSH2 0x100 EXP SWAP1 DIV PUSH20 0xFFFFFFFFFFFFFFFFFFFFFFFFFFFFFFFFFFFFFFFF AND PUSH20 0xFFFFFFFFFFFFFFFFFFFFFFFFFFFFFFFFFFFFFFFF AND DUP2 MSTORE PUSH1 0x20 ADD SWAP1 PUSH1 0x1 ADD SWAP1 DUP1 DUP4 GT PUSH2 0x7F8 JUMPI JUMPDEST POP POP POP POP POP SWAP1 POP SWAP1 JUMP JUMPDEST PUSH1 0x0 DUP1 DUP4 PUSH20 0xFFFFFFFFFFFFFFFFFFFFFFFFFFFFFFFFFFFFFFFF AND PUSH20 0xFFFFFFFFFFFFFFFFFFFFFFFFFFFFFFFFFFFFFFFF AND DUP2 MSTORE PUSH1 0x20 ADD SWAP1 DUP2 MSTORE PUSH1 0x20 ADD PUSH1 0x0 KECCAK256 PUSH1 0x5 ADD PUSH1 0x0 SWAP1 SLOAD SWAP1 PUSH2 0x100 EXP SWAP1 DIV PUSH1 0xFF AND ISZERO PUSH2 0x8DB JUMPI PUSH1 0x40 MLOAD PUSH32 0x8C379A000000000000000000000000000000000000000000000000000000000 DUP2 MSTORE PUSH1 0x4 ADD PUSH2 0x8D2 SWAP1 PUSH2 0x1502 JUMP JUMPDEST PUSH1 0x40 MLOAD DUP1 SWAP2 SUB SWAP1 REVERT JUMPDEST PUSH1 0x40 MLOAD DUP1 PUSH1 0xC0 ADD PUSH1 0x40 MSTORE DUP1 DUP5 DUP2 MSTORE PUSH1 0x20 ADD DUP4 PUSH20 0xFFFFFFFFFFFFFFFFFFFFFFFFFFFFFFFFFFFFFFFF AND DUP2 MSTORE PUSH1 0x20 ADD DUP3 PUSH20 0xFFFFFFFFFFFFFFFFFFFFFFFFFFFFFFFFFFFFFFFF AND DUP2 MSTORE PUSH1 0x20 ADD PUSH1 0x0 DUP2 MSTORE PUSH1 0x20 ADD PUSH1 0x0 DUP2 MSTORE PUSH1 0x20 ADD PUSH1 0x1 ISZERO ISZERO DUP2 MSTORE POP PUSH1 0x0 DUP1 DUP5 PUSH20 0xFFFFFFFFFFFFFFFFFFFFFFFFFFFFFFFFFFFFFFFF AND PUSH20 0xFFFFFFFFFFFFFFFFFFFFFFFFFFFFFFFFFFFFFFFF AND DUP2 MSTORE PUSH1 0x20 ADD SWAP1 DUP2 MSTORE PUSH1 0x20 ADD PUSH1 0x0 KECCAK256 PUSH1 0x0 DUP3 ADD MLOAD DUP2 PUSH1 0x0 ADD SWAP1 DUP2 PUSH2 0x98C SWAP2 SWAP1 PUSH2 0x16CE JUMP JUMPDEST POP PUSH1 0x20 DUP3 ADD MLOAD DUP2 PUSH1 0x1 ADD PUSH1 0x0 PUSH2 0x100 EXP DUP2 SLOAD DUP2 PUSH20 0xFFFFFFFFFFFFFFFFFFFFFFFFFFFFFFFFFFFFFFFF MUL NOT AND SWAP1 DUP4 PUSH20 0xFFFFFFFFFFFFFFFFFFFFFFFFFFFFFFFFFFFFFFFF AND MUL OR SWAP1 SSTORE POP PUSH1 0x40 DUP3 ADD MLOAD DUP2 PUSH1 0x2 ADD PUSH1 0x0 PUSH2 0x100 EXP DUP2 SLOAD DUP2 PUSH20 0xFFFFFFFFFFFFFFFFFFFFFFFFFFFFFFFFFFFFFFFF MUL NOT AND SWAP1 DUP4 PUSH20 0xFFFFFFFFFFFFFFFFFFFFFFFFFFFFFFFFFFFFFFFF AND MUL OR SWAP1 SSTORE POP PUSH1 0x60 DUP3 ADD MLOAD DUP2 PUSH1 0x3 ADD SSTORE PUSH1 0x80 DUP3 ADD MLOAD DUP2 PUSH1 0x4 ADD SSTORE PUSH1 0xA0 DUP3 ADD MLOAD DUP2 PUSH1 0x5 ADD PUSH1 0x0 PUSH2 0x100 EXP DUP2 SLOAD DUP2 PUSH1 0xFF MUL NOT AND SWAP1 DUP4 ISZERO ISZERO MUL OR SWAP1 SSTORE POP SWAP1 POP POP PUSH1 0x1 DUP3 SWAP1 DUP1 PUSH1 0x1 DUP2 SLOAD ADD DUP1 DUP3 SSTORE DUP1 SWAP2 POP POP PUSH1 0x1 SWAP1 SUB SWAP1 PUSH1 0x0 MSTORE PUSH1 0x20 PUSH1 0x0 KECCAK256 ADD PUSH1 0x0 SWAP1 SWAP2 SWAP1 SWAP2 SWAP1 SWAP2 PUSH2 0x100 EXP DUP2 SLOAD DUP2 PUSH20 0xFFFFFFFFFFFFFFFFFFFFFFFFFFFFFFFFFFFFFFFF MUL NOT AND SWAP1 DUP4 PUSH20 0xFFFFFFFFFFFFFFFFFFFFFFFFFFFFFFFFFFFFFFFF AND MUL OR SWAP1 SSTORE POP PUSH32 0x94AEC3DC6CB6F40C1DE17E8E63A10905C1D89509EE5F4649A1640AE029A25595 DUP4 DUP4 DUP4 PUSH1 0x40 MLOAD PUSH2 0xAE8 SWAP4 SWAP3 SWAP2 SWAP1 PUSH2 0x17A0 JUMP JUMPDEST PUSH1 0x40 MLOAD DUP1 SWAP2 SUB SWAP1 LOG1 POP POP POP JUMP JUMPDEST PUSH1 0x40 MLOAD DUP1 PUSH1 0xC0 ADD PUSH1 0x40 MSTORE DUP1 PUSH1 0x60 DUP2 MSTORE PUSH1 0x20 ADD PUSH1 0x0 PUSH20 0xFFFFFFFFFFFFFFFFFFFFFFFFFFFFFFFFFFFFFFFF AND DUP2 MSTORE PUSH1 0x20 ADD PUSH1 0x0 PUSH20 0xFFFFFFFFFFFFFFFFFFFFFFFFFFFFFFFFFFFFFFFF AND DUP2 MSTORE PUSH1 0x20 ADD PUSH1 0x0 DUP2 MSTORE PUSH1 0x20 ADD PUSH1 0x0 DUP2 MSTORE PUSH1 0x20 ADD PUSH1 0x0 ISZERO ISZERO DUP2 MSTORE POP SWAP1 JUMP JUMPDEST PUSH1 0x0 PUSH1 0x40 MLOAD SWAP1 POP SWAP1 JUMP JUMPDEST PUSH1 0x0 DUP1 REVERT JUMPDEST PUSH1 0x0 DUP1 REVERT JUMPDEST PUSH1 0x0 PUSH20 0xFFFFFFFFFFFFFFFFFFFFFFFFFFFFFFFFFFFFFFFF DUP3 AND SWAP1 POP SWAP2 SWAP1 POP JUMP JUMPDEST PUSH1 0x0 PUSH2 0xB98 DUP3 PUSH2 0xB6D JUMP JUMPDEST SWAP1 POP SWAP2 SWAP1 POP JUMP JUMPDEST PUSH2 0xBA8 DUP2 PUSH2 0xB8D JUMP JUMPDEST DUP2 EQ PUSH2 0xBB3 JUMPI PUSH1 0x0 DUP1 REVERT JUMPDEST POP JUMP JUMPDEST PUSH1 0x0 DUP2 CALLDATALOAD SWAP1 POP PUSH2 0xBC5 DUP2 PUSH2 0xB9F JUMP JUMPDEST SWAP3 SWAP2 POP POP JUMP JUMPDEST PUSH1 0x0 DUP2 SWAP1 POP SWAP2 SWAP1 POP JUMP JUMPDEST PUSH2 0xBDE DUP2 PUSH2 0xBCB JUMP JUMPDEST DUP2 EQ PUSH2 0xBE9 JUMPI PUSH1 0x0 DUP1 REVERT JUMPDEST POP JUMP JUMPDEST PUSH1 0x0 DUP2 CALLDATALOAD SWAP1 POP PUSH2 0xBFB DUP2 PUSH2 0xBD5 JUMP JUMPDEST SWAP3 SWAP2 POP POP JUMP JUMPDEST PUSH1 0x0 DUP1 PUSH1 0x0 PUSH1 0x60 DUP5 DUP7 SUB SLT ISZERO PUSH2 0xC1A JUMPI PUSH2 0xC19 PUSH2 0xB63 JUMP JUMPDEST JUMPDEST PUSH1 0x0 PUSH2 0xC28 DUP7 DUP3 DUP8 ADD PUSH2 0xBB6 JUMP JUMPDEST SWAP4 POP POP PUSH1 0x20 PUSH2 0xC39 DUP7 DUP3 DUP8 ADD PUSH2 0xBEC JUMP JUMPDEST SWAP3 POP POP PUSH1 0x40 PUSH2 0xC4A DUP7 DUP3 DUP8 ADD PUSH2 0xBEC JUMP JUMPDEST SWAP2 POP POP SWAP3 POP SWAP3 POP SWAP3 JUMP JUMPDEST PUSH1 0x0 PUSH1 0x20 DUP3 DUP5 SUB SLT ISZERO PUSH2 0xC6A JUMPI PUSH2 0xC69 PUSH2 0xB63 JUMP JUMPDEST JUMPDEST PUSH1 0x0 PUSH2 0xC78 DUP5 DUP3 DUP6 ADD PUSH2 0xBB6 JUMP JUMPDEST SWAP2 POP POP SWAP3 SWAP2 POP POP JUMP JUMPDEST PUSH1 0x0 DUP2 MLOAD SWAP1 POP SWAP2 SWAP1 POP JUMP JUMPDEST PUSH1 0x0 DUP3 DUP3 MSTORE PUSH1 0x20 DUP3 ADD SWAP1 POP SWAP3 SWAP2 POP POP JUMP JUMPDEST PUSH1 0x0 JUMPDEST DUP4 DUP2 LT ISZERO PUSH2 0xCBB JUMPI DUP1 DUP3 ADD MLOAD DUP2 DUP5 ADD MSTORE PUSH1 0x20 DUP2 ADD SWAP1 POP PUSH2 0xCA0 JUMP JUMPDEST PUSH1 0x0 DUP5 DUP5 ADD MSTORE POP POP POP POP JUMP JUMPDEST PUSH1 0x0 PUSH1 0x1F NOT PUSH1 0x1F DUP4 ADD AND SWAP1 POP SWAP2 SWAP1 POP JUMP JUMPDEST PUSH1 0x0 PUSH2 0xCE3 DUP3 PUSH2 0xC81 JUMP JUMPDEST PUSH2 0xCED DUP2 DUP6 PUSH2 0xC8C JUMP JUMPDEST SWAP4 POP PUSH2 0xCFD DUP2 DUP6 PUSH1 0x20 DUP7 ADD PUSH2 0xC9D JUMP JUMPDEST PUSH2 0xD06 DUP2 PUSH2 0xCC7 JUMP JUMPDEST DUP5 ADD SWAP2 POP POP SWAP3 SWAP2 POP POP JUMP JUMPDEST PUSH2 0xD1A DUP2 PUSH2 0xB8D JUMP JUMPDEST DUP3 MSTORE POP POP JUMP JUMPDEST PUSH2 0xD29 DUP2 PUSH2 0xBCB JUMP JUMPDEST DUP3 MSTORE POP POP JUMP JUMPDEST PUSH1 0x0 DUP2 ISZERO ISZERO SWAP1 POP SWAP2 SWAP1 POP JUMP JUMPDEST PUSH2 0xD44 DUP2 PUSH2 0xD2F JUMP JUMPDEST DUP3 MSTORE POP POP JUMP JUMPDEST PUSH1 0x0 PUSH1 0xC0 DUP3 ADD SWAP1 POP DUP2 DUP2 SUB PUSH1 0x0 DUP4 ADD MSTORE PUSH2 0xD64 DUP2 DUP10 PUSH2 0xCD8 JUMP JUMPDEST SWAP1 POP PUSH2 0xD73 PUSH1 0x20 DUP4 ADD DUP9 PUSH2 0xD11 JUMP JUMPDEST PUSH2 0xD80 PUSH1 0x40 DUP4 ADD DUP8 PUSH2 0xD11 JUMP JUMPDEST PUSH2 0xD8D PUSH1 0x60 DUP4 ADD DUP7 PUSH2 0xD20 JUMP JUMPDEST PUSH2 0xD9A PUSH1 0x80 DUP4 ADD DUP6 PUSH2 0xD20 JUMP JUMPDEST PUSH2 0xDA7 PUSH1 0xA0 DUP4 ADD DUP5 PUSH2 0xD3B JUMP JUMPDEST SWAP8 SWAP7 POP POP POP POP POP POP POP JUMP JUMPDEST PUSH1 0x0 DUP2 MLOAD SWAP1 POP SWAP2 SWAP1 POP JUMP JUMPDEST PUSH1 0x0 DUP3 DUP3 MSTORE PUSH1 0x20 DUP3 ADD SWAP1 POP SWAP3 SWAP2 POP POP JUMP JUMPDEST PUSH1 0x0 DUP2 SWAP1 POP PUSH1 0x20 DUP3 ADD SWAP1 POP SWAP2 SWAP1 POP JUMP JUMPDEST PUSH1 0x0 DUP3 DUP3 MSTORE PUSH1 0x20 DUP3 ADD SWAP1 POP SWAP3 SWAP2 POP POP JUMP JUMPDEST PUSH1 0x0 PUSH2 0xDFA DUP3 PUSH2 0xC81 JUMP JUMPDEST PUSH2 0xE04 DUP2 DUP6 PUSH2 0xDDE JUMP JUMPDEST SWAP4 POP PUSH2 0xE14 DUP2 DUP6 PUSH1 0x20 DUP7 ADD PUSH2 0xC9D JUMP JUMPDEST PUSH2 0xE1D DUP2 PUSH2 0xCC7 JUMP JUMPDEST DUP5 ADD SWAP2 POP POP SWAP3 SWAP2 POP POP JUMP JUMPDEST PUSH2 0xE31 DUP2 PUSH2 0xB8D JUMP JUMPDEST DUP3 MSTORE POP POP JUMP JUMPDEST PUSH2 0xE40 DUP2 PUSH2 0xBCB JUMP JUMPDEST DUP3 MSTORE POP POP JUMP JUMPDEST PUSH2 0xE4F DUP2 PUSH2 0xD2F JUMP JUMPDEST DUP3 MSTORE POP POP JUMP JUMPDEST PUSH1 0x0 PUSH1 0xC0 DUP4 ADD PUSH1 0x0 DUP4 ADD MLOAD DUP5 DUP3 SUB PUSH1 0x0 DUP7 ADD MSTORE PUSH2 0xE72 DUP3 DUP3 PUSH2 0xDEF JUMP JUMPDEST SWAP2 POP POP PUSH1 0x20 DUP4 ADD MLOAD PUSH2 0xE87 PUSH1 0x20 DUP7 ADD DUP3 PUSH2 0xE28 JUMP JUMPDEST POP PUSH1 0x40 DUP4 ADD MLOAD PUSH2 0xE9A PUSH1 0x40 DUP7 ADD DUP3 PUSH2 0xE28 JUMP JUMPDEST POP PUSH1 0x60 DUP4 ADD MLOAD PUSH2 0xEAD PUSH1 0x60 DUP7 ADD DUP3 PUSH2 0xE37 JUMP JUMPDEST POP PUSH1 0x80 DUP4 ADD MLOAD PUSH2 0xEC0 PUSH1 0x80 DUP7 ADD DUP3 PUSH2 0xE37 JUMP JUMPDEST POP PUSH1 0xA0 DUP4 ADD MLOAD PUSH2 0xED3 PUSH1 0xA0 DUP7 ADD DUP3 PUSH2 0xE46 JUMP JUMPDEST POP DUP1 SWAP2 POP POP SWAP3 SWAP2 POP POP JUMP JUMPDEST PUSH1 0x0 PUSH2 0xEEA DUP4 DUP4 PUSH2 0xE55 JUMP JUMPDEST SWAP1 POP SWAP3 SWAP2 POP POP JUMP JUMPDEST PUSH1 0x0 PUSH1 0x20 DUP3 ADD SWAP1 POP SWAP2 SWAP1 POP JUMP JUMPDEST PUSH1 0x0 PUSH2 0xF0A DUP3 PUSH2 0xDB2 JUMP JUMPDEST PUSH2 0xF14 DUP2 DUP6 PUSH2 0xDBD JUMP JUMPDEST SWAP4 POP DUP4 PUSH1 0x20 DUP3 MUL DUP6 ADD PUSH2 0xF26 DUP6 PUSH2 0xDCE JUMP JUMPDEST DUP1 PUSH1 0x0 JUMPDEST DUP6 DUP2 LT ISZERO PUSH2 0xF62 JUMPI DUP5 DUP5 SUB DUP10 MSTORE DUP2 MLOAD PUSH2 0xF43 DUP6 DUP3 PUSH2 0xEDE JUMP JUMPDEST SWAP5 POP PUSH2 0xF4E DUP4 PUSH2 0xEF2 JUMP JUMPDEST SWAP3 POP PUSH1 0x20 DUP11 ADD SWAP10 POP POP PUSH1 0x1 DUP2 ADD SWAP1 POP PUSH2 0xF2A JUMP JUMPDEST POP DUP3 SWAP8 POP DUP8 SWAP6 POP POP POP POP POP POP SWAP3 SWAP2 POP POP JUMP JUMPDEST PUSH1 0x0 PUSH1 0x20 DUP3 ADD SWAP1 POP DUP2 DUP2 SUB PUSH1 0x0 DUP4 ADD MSTORE PUSH2 0xF8E DUP2 DUP5 PUSH2 0xEFF JUMP JUMPDEST SWAP1 POP SWAP3 SWAP2 POP POP JUMP JUMPDEST PUSH1 0x0 PUSH1 0x20 DUP3 DUP5 SUB SLT ISZERO PUSH2 0xFAC JUMPI PUSH2 0xFAB PUSH2 0xB63 JUMP JUMPDEST JUMPDEST PUSH1 0x0 PUSH2 0xFBA DUP5 DUP3 DUP6 ADD PUSH2 0xBEC JUMP JUMPDEST SWAP2 POP POP SWAP3 SWAP2 POP POP JUMP JUMPDEST PUSH1 0x0 PUSH1 0x20 DUP3 ADD SWAP1 POP PUSH2 0xFD8 PUSH1 0x0 DUP4 ADD DUP5 PUSH2 0xD11 JUMP JUMPDEST SWAP3 SWAP2 POP POP JUMP JUMPDEST PUSH1 0x0 DUP2 MLOAD SWAP1 POP SWAP2 SWAP1 POP JUMP JUMPDEST PUSH1 0x0 DUP3 DUP3 MSTORE PUSH1 0x20 DUP3 ADD SWAP1 POP SWAP3 SWAP2 POP POP JUMP JUMPDEST PUSH1 0x0 DUP2 SWAP1 POP PUSH1 0x20 DUP3 ADD SWAP1 POP SWAP2 SWAP1 POP JUMP JUMPDEST PUSH1 0x0 PUSH2 0x1016 DUP4 DUP4 PUSH2 0xE28 JUMP JUMPDEST PUSH1 0x20 DUP4 ADD SWAP1 POP SWAP3 SWAP2 POP POP JUMP JUMPDEST PUSH1 0x0 PUSH1 0x20 DUP3 ADD SWAP1 POP SWAP2 SWAP1 POP JUMP JUMPDEST PUSH1 0x0 PUSH2 0x103A DUP3 PUSH2 0xFDE JUMP JUMPDEST PUSH2 0x1044 DUP2 DUP6 PUSH2 0xFE9 JUMP JUMPDEST SWAP4 POP PUSH2 0x104F DUP4 PUSH2 0xFFA JUMP JUMPDEST DUP1 PUSH1 0x0 JUMPDEST DUP4 DUP2 LT ISZERO PUSH2 0x1080 JUMPI DUP2 MLOAD PUSH2 0x1067 DUP9 DUP3 PUSH2 0x100A JUMP JUMPDEST SWAP8 POP PUSH2 0x1072 DUP4 PUSH2 0x1022 JUMP JUMPDEST SWAP3 POP POP PUSH1 0x1 DUP2 ADD SWAP1 POP PUSH2 0x1053 JUMP JUMPDEST POP DUP6 SWAP4 POP POP POP POP SWAP3 SWAP2 POP POP JUMP JUMPDEST PUSH1 0x0 PUSH1 0x20 DUP3 ADD SWAP1 POP DUP2 DUP2 SUB PUSH1 0x0 DUP4 ADD MSTORE PUSH2 0x10A7 DUP2 DUP5 PUSH2 0x102F JUMP JUMPDEST SWAP1 POP SWAP3 SWAP2 POP POP JUMP JUMPDEST PUSH1 0x0 DUP1 REVERT JUMPDEST PUSH1 0x0 DUP1 REVERT JUMPDEST PUSH32 0x4E487B7100000000000000000000000000000000000000000000000000000000 PUSH1 0x0 MSTORE PUSH1 0x41 PUSH1 0x4 MSTORE PUSH1 0x24 PUSH1 0x0 REVERT JUMPDEST PUSH2 0x10F1 DUP3 PUSH2 0xCC7 JUMP JUMPDEST DUP2 ADD DUP2 DUP2 LT PUSH8 0xFFFFFFFFFFFFFFFF DUP3 GT OR ISZERO PUSH2 0x1110 JUMPI PUSH2 0x110F PUSH2 0x10B9 JUMP JUMPDEST JUMPDEST DUP1 PUSH1 0x40 MSTORE POP POP POP JUMP JUMPDEST PUSH1 0x0 PUSH2 0x1123 PUSH2 0xB59 JUMP JUMPDEST SWAP1 POP PUSH2 0x112F DUP3 DUP3 PUSH2 0x10E8 JUMP JUMPDEST SWAP2 SWAP1 POP JUMP JUMPDEST PUSH1 0x0 PUSH8 0xFFFFFFFFFFFFFFFF DUP3 GT ISZERO PUSH2 0x114F JUMPI PUSH2 0x114E PUSH2 0x10B9 JUMP JUMPDEST JUMPDEST PUSH2 0x1158 DUP3 PUSH2 0xCC7 JUMP JUMPDEST SWAP1 POP PUSH1 0x20 DUP2 ADD SWAP1 POP SWAP2 SWAP1 POP JUMP JUMPDEST DUP3 DUP2 DUP4 CALLDATACOPY PUSH1 0x0 DUP4 DUP4 ADD MSTORE POP POP POP JUMP JUMPDEST PUSH1 0x0 PUSH2 0x1187 PUSH2 0x1182 DUP5 PUSH2 0x1134 JUMP JUMPDEST PUSH2 0x1119 JUMP JUMPDEST SWAP1 POP DUP3 DUP2 MSTORE PUSH1 0x20 DUP2 ADD DUP5 DUP5 DUP5 ADD GT ISZERO PUSH2 0x11A3 JUMPI PUSH2 0x11A2 PUSH2 0x10B4 JUMP JUMPDEST JUMPDEST PUSH2 0x11AE DUP5 DUP3 DUP6 PUSH2 0x1165 JUMP JUMPDEST POP SWAP4 SWAP3 POP POP POP JUMP JUMPDEST PUSH1 0x0 DUP3 PUSH1 0x1F DUP4 ADD SLT PUSH2 0x11CB JUMPI PUSH2 0x11CA PUSH2 0x10AF JUMP JUMPDEST JUMPDEST DUP2 CALLDATALOAD PUSH2 0x11DB DUP5 DUP3 PUSH1 0x20 DUP7 ADD PUSH2 0x1174 JUMP JUMPDEST SWAP2 POP POP SWAP3 SWAP2 POP POP JUMP JUMPDEST PUSH1 0x0 DUP1 PUSH1 0x0 PUSH1 0x60 DUP5 DUP7 SUB SLT ISZERO PUSH2 0x11FD JUMPI PUSH2 0x11FC PUSH2 0xB63 JUMP JUMPDEST JUMPDEST PUSH1 0x0 DUP5 ADD CALLDATALOAD PUSH8 0xFFFFFFFFFFFFFFFF DUP2 GT ISZERO PUSH2 0x121B JUMPI PUSH2 0x121A PUSH2 0xB68 JUMP JUMPDEST JUMPDEST PUSH2 0x1227 DUP7 DUP3 DUP8 ADD PUSH2 0x11B6 JUMP JUMPDEST SWAP4 POP POP PUSH1 0x20 PUSH2 0x1238 DUP7 DUP3 DUP8 ADD PUSH2 0xBB6 JUMP JUMPDEST SWAP3 POP POP PUSH1 0x40 PUSH2 0x1249 DUP7 DUP3 DUP8 ADD PUSH2 0xBB6 JUMP JUMPDEST SWAP2 POP POP SWAP3 POP SWAP3 POP SWAP3 JUMP JUMPDEST PUSH32 0x436F6D70616E79206E6F74207265676973746572656400000000000000000000 PUSH1 0x0 DUP3 ADD MSTORE POP JUMP JUMPDEST PUSH1 0x0 PUSH2 0x1289 PUSH1 0x16 DUP4 PUSH2 0xC8C JUMP JUMPDEST SWAP2 POP PUSH2 0x1294 DUP3 PUSH2 0x1253 JUMP JUMPDEST PUSH1 0x20 DUP3 ADD SWAP1 POP SWAP2 SWAP1 POP JUMP JUMPDEST PUSH1 0x0 PUSH1 0x20 DUP3 ADD SWAP1 POP DUP2 DUP2 SUB PUSH1 0x0 DUP4 ADD MSTORE PUSH2 0x12B8 DUP2 PUSH2 0x127C JUMP JUMPDEST SWAP1 POP SWAP2 SWAP1 POP JUMP JUMPDEST PUSH32 0x4E487B7100000000000000000000000000000000000000000000000000000000 PUSH1 0x0 MSTORE PUSH1 0x11 PUSH1 0x4 MSTORE PUSH1 0x24 PUSH1 0x0 REVERT JUMPDEST PUSH1 0x0 PUSH2 0x12F9 DUP3 PUSH2 0xBCB JUMP JUMPDEST SWAP2 POP PUSH2 0x1304 DUP4 PUSH2 0xBCB JUMP JUMPDEST SWAP3 POP DUP3 DUP3 ADD SWAP1 POP DUP1 DUP3 GT ISZERO PUSH2 0x131C JUMPI PUSH2 0x131B PUSH2 0x12BF JUMP JUMPDEST JUMPDEST SWAP3 SWAP2 POP POP JUMP JUMPDEST PUSH1 0x0 PUSH2 0x132D DUP3 PUSH2 0xBCB JUMP JUMPDEST SWAP2 POP PUSH2 0x1338 DUP4 PUSH2 0xBCB JUMP JUMPDEST SWAP3 POP DUP3 DUP3 MUL PUSH2 0x1346 DUP2 PUSH2 0xBCB JUMP JUMPDEST SWAP2 POP DUP3 DUP3 DIV DUP5 EQ DUP4 ISZERO OR PUSH2 0x135D JUMPI PUSH2 0x135C PUSH2 0x12BF JUMP JUMPDEST JUMPDEST POP SWAP3 SWAP2 POP POP JUMP JUMPDEST PUSH32 0x4E487B7100000000000000000000000000000000000000000000000000000000 PUSH1 0x0 MSTORE PUSH1 0x12 PUSH1 0x4 MSTORE PUSH1 0x24 PUSH1 0x0 REVERT JUMPDEST PUSH1 0x0 PUSH2 0x139E DUP3 PUSH2 0xBCB JUMP JUMPDEST SWAP2 POP PUSH2 0x13A9 DUP4 PUSH2 0xBCB JUMP JUMPDEST SWAP3 POP DUP3 PUSH2 0x13B9 JUMPI PUSH2 0x13B8 PUSH2 0x1364 JUMP JUMPDEST JUMPDEST DUP3 DUP3 DIV SWAP1 POP SWAP3 SWAP2 POP POP JUMP JUMPDEST PUSH1 0x0 PUSH1 0x20 DUP3 ADD SWAP1 POP PUSH2 0x13D9 PUSH1 0x0 DUP4 ADD DUP5 PUSH2 0xD20 JUMP JUMPDEST SWAP3 SWAP2 POP POP JUMP JUMPDEST PUSH32 0x4E487B7100000000000000000000000000000000000000000000000000000000 PUSH1 0x0 MSTORE PUSH1 0x22 PUSH1 0x4 MSTORE PUSH1 0x24 PUSH1 0x0 REVERT JUMPDEST PUSH1 0x0 PUSH1 0x2 DUP3 DIV SWAP1 POP PUSH1 0x1 DUP3 AND DUP1 PUSH2 0x1426 JUMPI PUSH1 0x7F DUP3 AND SWAP2 POP JUMPDEST PUSH1 0x20 DUP3 LT DUP2 SUB PUSH2 0x1439 JUMPI PUSH2 0x1438 PUSH2 0x13DF JUMP JUMPDEST JUMPDEST POP SWAP2 SWAP1 POP JUMP JUMPDEST PUSH32 0x4E487B7100000000000000000000000000000000000000000000000000000000 PUSH1 0x0 MSTORE PUSH1 0x32 PUSH1 0x4 MSTORE PUSH1 0x24 PUSH1 0x0 REVERT JUMPDEST PUSH1 0x0 PUSH2 0x1479 DUP3 PUSH2 0xBCB JUMP JUMPDEST SWAP2 POP PUSH32 0xFFFFFFFFFFFFFFFFFFFFFFFFFFFFFFFFFFFFFFFFFFFFFFFFFFFFFFFFFFFFFFFF DUP3 SUB PUSH2 0x14AB JUMPI PUSH2 0x14AA PUSH2 0x12BF JUMP JUMPDEST JUMPDEST PUSH1 0x1 DUP3 ADD SWAP1 POP SWAP2 SWAP1 POP JUMP JUMPDEST PUSH32 0x436F6D70616E7920616C72656164792072656769737465726564000000000000 PUSH1 0x0 DUP3 ADD MSTORE POP JUMP JUMPDEST PUSH1 0x0 PUSH2 0x14EC PUSH1 0x1A DUP4 PUSH2 0xC8C JUMP JUMPDEST SWAP2 POP PUSH2 0x14F7 DUP3 PUSH2 0x14B6 JUMP JUMPDEST PUSH1 0x20 DUP3 ADD SWAP1 POP SWAP2 SWAP1 POP JUMP JUMPDEST PUSH1 0x0 PUSH1 0x20 DUP3 ADD SWAP1 POP DUP2 DUP2 SUB PUSH1 0x0 DUP4 ADD MSTORE PUSH2 0x151B DUP2 PUSH2 0x14DF JUMP JUMPDEST SWAP1 POP SWAP2 SWAP1 POP JUMP JUMPDEST PUSH1 0x0 DUP2 SWAP1 POP DUP2 PUSH1 0x0 MSTORE PUSH1 0x20 PUSH1 0x0 KECCAK256 SWAP1 POP SWAP2 SWAP1 POP JUMP JUMPDEST PUSH1 0x0 PUSH1 0x20 PUSH1 0x1F DUP4 ADD DIV SWAP1 POP SWAP2 SWAP1 POP JUMP JUMPDEST PUSH1 0x0 DUP3 DUP3 SHL SWAP1 POP SWAP3 SWAP2 POP POP JUMP JUMPDEST PUSH1 0x0 PUSH1 0x8 DUP4 MUL PUSH2 0x1584 PUSH32 0xFFFFFFFFFFFFFFFFFFFFFFFFFFFFFFFFFFFFFFFFFFFFFFFFFFFFFFFFFFFFFFFF DUP3 PUSH2 0x1547 JUMP JUMPDEST PUSH2 0x158E DUP7 DUP4 PUSH2 0x1547 JUMP JUMPDEST SWAP6 POP DUP1 NOT DUP5 AND SWAP4 POP DUP1 DUP7 AND DUP5 OR SWAP3 POP POP POP SWAP4 SWAP3 POP POP POP JUMP JUMPDEST PUSH1 0x0 DUP2 SWAP1 POP SWAP2 SWAP1 POP JUMP JUMPDEST PUSH1 0x0 PUSH2 0x15CB PUSH2 0x15C6 PUSH2 0x15C1 DUP5 PUSH2 0xBCB JUMP JUMPDEST PUSH2 0x15A6 JUMP JUMPDEST PUSH2 0xBCB JUMP JUMPDEST SWAP1 POP SWAP2 SWAP1 POP JUMP JUMPDEST PUSH1 0x0 DUP2 SWAP1 POP SWAP2 SWAP1 POP JUMP JUMPDEST PUSH2 0x15E5 DUP4 PUSH2 0x15B0 JUMP JUMPDEST PUSH2 0x15F9 PUSH2 0x15F1 DUP3 PUSH2 0x15D2 JUMP JUMPDEST DUP5 DUP5 SLOAD PUSH2 0x1554 JUMP JUMPDEST DUP3 SSTORE POP POP POP POP JUMP JUMPDEST PUSH1 0x0 SWAP1 JUMP JUMPDEST PUSH2 0x160E PUSH2 0x1601 JUMP JUMPDEST PUSH2 0x1619 DUP2 DUP5 DUP5 PUSH2 0x15DC JUMP JUMPDEST POP POP POP JUMP JUMPDEST JUMPDEST DUP2 DUP2 LT ISZERO PUSH2 0x163D JUMPI PUSH2 0x1632 PUSH1 0x0 DUP3 PUSH2 0x1606 JUMP JUMPDEST PUSH1 0x1 DUP2 ADD SWAP1 POP PUSH2 0x161F JUMP JUMPDEST POP POP JUMP JUMPDEST PUSH1 0x1F DUP3 GT ISZERO PUSH2 0x1682 JUMPI PUSH2 0x1653 DUP2 PUSH2 0x1522 JUMP JUMPDEST PUSH2 0x165C DUP5 PUSH2 0x1537 JUMP JUMPDEST DUP2 ADD PUSH1 0x20 DUP6 LT ISZERO PUSH2 0x166B JUMPI DUP2 SWAP1 POP JUMPDEST PUSH2 0x167F PUSH2 0x1677 DUP6 PUSH2 0x1537 JUMP JUMPDEST DUP4 ADD DUP3 PUSH2 0x161E JUMP JUMPDEST POP POP JUMPDEST POP POP POP JUMP JUMPDEST PUSH1 0x0 DUP3 DUP3 SHR SWAP1 POP SWAP3 SWAP2 POP POP JUMP JUMPDEST PUSH1 0x0 PUSH2 0x16A5 PUSH1 0x0 NOT DUP5 PUSH1 0x8 MUL PUSH2 0x1687 JUMP JUMPDEST NOT DUP1 DUP4 AND SWAP2 POP POP SWAP3 SWAP2 POP POP JUMP JUMPDEST PUSH1 0x0 PUSH2 0x16BE DUP4 DUP4 PUSH2 0x1694 JUMP JUMPDEST SWAP2 POP DUP3 PUSH1 0x2 MUL DUP3 OR SWAP1 POP SWAP3 SWAP2 POP POP JUMP JUMPDEST PUSH2 0x16D7 DUP3 PUSH2 0xC81 JUMP JUMPDEST PUSH8 0xFFFFFFFFFFFFFFFF DUP2 GT ISZERO PUSH2 0x16F0 JUMPI PUSH2 0x16EF PUSH2 0x10B9 JUMP JUMPDEST JUMPDEST PUSH2 0x16FA DUP3 SLOAD PUSH2 0x140E JUMP JUMPDEST PUSH2 0x1705 DUP3 DUP3 DUP6 PUSH2 0x1641 JUMP JUMPDEST PUSH1 0x0 PUSH1 0x20 SWAP1 POP PUSH1 0x1F DUP4 GT PUSH1 0x1 DUP2 EQ PUSH2 0x1738 JUMPI PUSH1 0x0 DUP5 ISZERO PUSH2 0x1726 JUMPI DUP3 DUP8 ADD MLOAD SWAP1 POP JUMPDEST PUSH2 0x1730 DUP6 DUP3 PUSH2 0x16B2 JUMP JUMPDEST DUP7 SSTORE POP PUSH2 0x1798 JUMP JUMPDEST PUSH1 0x1F NOT DUP5 AND PUSH2 0x1746 DUP7 PUSH2 0x1522 JUMP JUMPDEST PUSH1 0x0 JUMPDEST DUP3 DUP2 LT ISZERO PUSH2 0x176E JUMPI DUP5 DUP10 ADD MLOAD DUP3 SSTORE PUSH1 0x1 DUP3 ADD SWAP2 POP PUSH1 0x20 DUP6 ADD SWAP5 POP PUSH1 0x20 DUP2 ADD SWAP1 POP PUSH2 0x1749 JUMP JUMPDEST DUP7 DUP4 LT ISZERO PUSH2 0x178B JUMPI DUP5 DUP10 ADD MLOAD PUSH2 0x1787 PUSH1 0x1F DUP10 AND DUP3 PUSH2 0x1694 JUMP JUMPDEST DUP4 SSTORE POP JUMPDEST PUSH1 0x1 PUSH1 0x2 DUP9 MUL ADD DUP9 SSTORE POP POP POP JUMPDEST POP POP POP POP POP POP JUMP JUMPDEST PUSH1 0x0 PUSH1 0x60 DUP3 ADD SWAP1 POP DUP2 DUP2 SUB PUSH1 0x0 DUP4 ADD MSTORE PUSH2 0x17BA DUP2 DUP7 PUSH2 0xCD8 JUMP JUMPDEST SWAP1 POP PUSH2 0x17C9 PUSH1 0x20 DUP4 ADD DUP6 PUSH2 0xD11 JUMP JUMPDEST PUSH2 0x17D6 PUSH1 0x40 DUP4 ADD DUP5 PUSH2 0xD11 JUMP JUMPDEST SWAP5 SWAP4 POP POP POP POP JUMP INVALID LOG2 PUSH5 0x6970667358 0x22 SLT KECCAK256 0xCC 0xE2 0x5D 0xC8 0x4A CALL 0xA9 CALLVALUE DUP11 LOG2 0xCA MSTORE BALANCE 0xAB LOG3 ADDMOD 0xE0 PUSH29 0x66A7146A6028B7FE89BC1C61408964736F6C6343000814003300000000 "},"methodIdentifiers":{"companies(address)":"355e6ce8","getCompaniesByReputation()":"35d2e6f1","getRegisteredCompanies()":"ce0a8ed5","registerCompany(string,address,address)":"fcc436b1","registeredCompanies(uint256)":"5e96b80d","updateReputation(address,uint256,uint256)":"2c92a969"}}}}}