{"contracts/CompanyRegistry.sol":{"CompanyRegistry":{"abi":[{"anonymous":false,"inputs":[{"indexed":false,"internalType":"string","name":"name","type":"string"},{"indexed":false,"internalType":"address","name":"escrowAddress","type":"address"},{"indexed":false,"internalType":"address","name":"tokenAddress","type":"address"}],"name":"CompanyRegistered","type":"event"},{"anonymous":false,"inputs":[{"indexed":true,"internalType":"address","name":"escrowAddress","type":"address"},{"indexed":false,"internalType":"uint256","name":"reputationScore","type":"uint256"}],"name":"ReputationUpdated","type":"event"},{"inputs":[{"internalType":"address","name":"","type":"address"}],"name":"companies","outputs":[{"internalType":"string","name":"name","type":"string"},{"internalType":"address","name":"escrowAddress","type":"address"},{"internalType":"address","name":"tokenAddress","type":"address"},{"internalType":"uint256","name":"totalDeposits","type":"uint256"},{"internalType":"uint256","name":"reputationScore","type":"uint256"},{"internalType":"bool","name":"isRegistered","type":"bool"}],"stateMutability":"view","type":"function"},{"inputs":[],"name":"getCompaniesByReputation","outputs":[{"components":[{"internalType":"string","name":"name","type":"string"},{"internalType":"address","name":"escrowAddress","type":"address"},{"internalType":"address","name":"tokenAddress","type":"address"},{"internalType":"uint256","name":"totalDeposits","type":"uint256"},{"internalType":"uint256","name":"reputationScore","type":"uint256"},{"internalType":"bool","name":"isRegistered","type":"bool"}],"internalType":"struct CompanyRegistry.Company[]","name":"","type":"tuple[]"}],"stateMutability":"view","type":"function"},{"inputs":[],"name":"getRegisteredCompanies","outputs":[{"internalType":"address[]","name":"","type":"address[]"}],"stateMutability":"view","type":"function"},{"inputs":[{"internalType":"string","name":"_name","type":"string"},{"internalType":"address","name":"_escrowAddress","type":"address"},{"internalType":"address","name":"_tokenAddress","type":"address"}],"name":"registerCompany","outputs":[],"stateMutability":"nonpayable","type":"function"},{"inputs":[{"internalType":"uint256","name":"","type":"uint256"}],"name":"registeredCompanies","outputs":[{"internalType":"address","name":"","type":"address"}],"stateMutability":"view","type":"function"},{"inputs":[{"internalType":"address","name":"_escrowAddress","type":"address"},{"internalType":"uint256","name":"depositAmount","type":"uint256"},{"internalType":"uint256","name":"tokenPriceIncrease","type":"uint256"}],"name":"updateReputation","outputs":[],"stateMutability":"nonpayable","type":"function"},{"inputs":[{"internalType":"address","name":"_escrowAddress","type":"address"},{"internalType":"uint256","name":"withdrawalAmount","type":"uint256"}],"name":"updateReputationDecrease","outputs":[],"stateMutability":"nonpayable","type":"function"}],"evm":{"bytecode":{"linkReferences":{},"object":"608060405234801561001057600080fd5b50611a2e806100206000396000f3fe608060405234801561001057600080fd5b506004361061007d5760003560e01c80635e96b80d1161005b5780635e96b80d146100f1578063bc99743714610121578063ce0a8ed51461013d578063fcc436b11461015b5761007d565b80632c92a96914610082578063355e6ce81461009e57806335d2e6f1146100d3575b600080fd5b61009c60048036038101906100979190610da7565b610177565b005b6100b860048036038101906100b39190610dfa565b6102fd565b6040516100ca96959493929190610ef0565b60405180910390f35b6100db61040e565b6040516100e8919061111a565b60405180910390f35b61010b6004803603810190610106919061113c565b6107b6565b6040516101189190611169565b60405180910390f35b61013b60048036038101906101369190611184565b6107f5565b005b610145610964565b6040516101529190611273565b60405180910390f35b610175600480360381019061017091906113ca565b6109f2565b005b6000808473ffffffffffffffffffffffffffffffffffffffff1673ffffffffffffffffffffffffffffffffffffffff16815260200190815260200160002060050160009054906101000a900460ff16610205576040517f08c379a00000000000000000000000000000000000000000000000000000000081526004016101fc90611485565b60405180910390fd5b60008060008573ffffffffffffffffffffffffffffffffffffffff1673ffffffffffffffffffffffffffffffffffffffff16815260200190815260200160002090508281600301600082825461025b91906114d4565b92505081905550601e8261026f9190611508565b6046670de0b6b3a764000083600301546102899190611579565b6102939190611508565b61029d91906114d4565b81600401819055508373ffffffffffffffffffffffffffffffffffffffff167ffc577563f1b9a0461e24abef1e1fcc0d33d3d881f20b5df6dda59de4aae2c82182600401546040516102ef91906115aa565b60405180910390a250505050565b6000602052806000526040600020600091509050806000018054610320906115f4565b80601f016020809104026020016040519081016040528092919081815260200182805461034c906115f4565b80156103995780601f1061036e57610100808354040283529160200191610399565b820191906000526020600020905b81548152906001019060200180831161037c57829003601f168201915b5050505050908060010160009054906101000a900473ffffffffffffffffffffffffffffffffffffffff16908060020160009054906101000a900473ffffffffffffffffffffffffffffffffffffffff16908060030154908060040154908060050160009054906101000a900460ff16905086565b6060600060018054905067ffffffffffffffff8111156104315761043061129f565b5b60405190808252806020026020018201604052801561046a57816020015b610457610c9b565b81526020019060019003908161044f5790505b50905060005b6001805490508110156106a2576000806001838154811061049457610493611625565b5b9060005260206000200160009054906101000a900473ffffffffffffffffffffffffffffffffffffffff1673ffffffffffffffffffffffffffffffffffffffff1673ffffffffffffffffffffffffffffffffffffffff1681526020019081526020016000206040518060c0016040529081600082018054610514906115f4565b80601f0160208091040260200160405190810160405280929190818152602001828054610540906115f4565b801561058d5780601f106105625761010080835404028352916020019161058d565b820191906000526020600020905b81548152906001019060200180831161057057829003601f168201915b505050505081526020016001820160009054906101000a900473ffffffffffffffffffffffffffffffffffffffff1673ffffffffffffffffffffffffffffffffffffffff1673ffffffffffffffffffffffffffffffffffffffff1681526020016002820160009054906101000a900473ffffffffffffffffffffffffffffffffffffffff1673ffffffffffffffffffffffffffffffffffffffff1673ffffffffffffffffffffffffffffffffffffffff16815260200160038201548152602001600482015481526020016005820160009054906101000a900460ff16151515158152505082828151811061068457610683611625565b5b6020026020010181905250808061069a90611654565b915050610470565b5060005b81518110156107ae5760006001826106be91906114d4565b90505b825181101561079a578282815181106106dd576106dc611625565b5b6020026020010151608001518382815181106106fc576106fb611625565b5b602002602001015160800151111561078757600083838151811061072357610722611625565b5b602002602001015190508382815181106107405761073f611625565b5b602002602001015184848151811061075b5761075a611625565b5b60200260200101819052508084838151811061077a57610779611625565b5b6020026020010181905250505b808061079290611654565b9150506106c1565b5080806107a690611654565b9150506106a6565b508091505090565b600181815481106107c657600080fd5b906000526020600020016000915054906101000a900473ffffffffffffffffffffffffffffffffffffffff1681565b6000808373ffffffffffffffffffffffffffffffffffffffff1673ffffffffffffffffffffffffffffffffffffffff16815260200190815260200160002060050160009054906101000a900460ff16610883576040517f08c379a000000000000000000000000000000000000000000000000000000000815260040161087a90611485565b60405180910390fd5b60008060008473ffffffffffffffffffffffffffffffffffffffff1673ffffffffffffffffffffffffffffffffffffffff168152602001908152602001600020905060006078836108d49190611508565b90508082600401541061090157808260040160008282546108f5919061169c565b9250508190555061090c565b600082600401819055505b8373ffffffffffffffffffffffffffffffffffffffff167ffc577563f1b9a0461e24abef1e1fcc0d33d3d881f20b5df6dda59de4aae2c821836004015460405161095691906115aa565b60405180910390a250505050565b606060018054806020026020016040519081016040528092919081815260200182805480156109e857602002820191906000526020600020905b8160009054906101000a900473ffffffffffffffffffffffffffffffffffffffff1673ffffffffffffffffffffffffffffffffffffffff168152602001906001019080831161099e575b5050505050905090565b6000808373ffffffffffffffffffffffffffffffffffffffff1673ffffffffffffffffffffffffffffffffffffffff16815260200190815260200160002060050160009054906101000a900460ff1615610a81576040517f08c379a0000000000000000000000000000000000000000000000000000000008152600401610a789061171c565b60405180910390fd5b6040518060c001604052808481526020018373ffffffffffffffffffffffffffffffffffffffff1681526020018273ffffffffffffffffffffffffffffffffffffffff1681526020016000815260200160008152602001600115158152506000808473ffffffffffffffffffffffffffffffffffffffff1673ffffffffffffffffffffffffffffffffffffffff1681526020019081526020016000206000820151816000019081610b3291906118e8565b5060208201518160010160006101000a81548173ffffffffffffffffffffffffffffffffffffffff021916908373ffffffffffffffffffffffffffffffffffffffff16021790555060408201518160020160006101000a81548173ffffffffffffffffffffffffffffffffffffffff021916908373ffffffffffffffffffffffffffffffffffffffff160217905550606082015181600301556080820151816004015560a08201518160050160006101000a81548160ff0219169083151502179055509050506001829080600181540180825580915050600190039060005260206000200160009091909190916101000a81548173ffffffffffffffffffffffffffffffffffffffff021916908373ffffffffffffffffffffffffffffffffffffffff1602179055507f94aec3dc6cb6f40c1de17e8e63a10905c1d89509ee5f4649a1640ae029a25595838383604051610c8e939291906119ba565b60405180910390a1505050565b6040518060c0016040528060608152602001600073ffffffffffffffffffffffffffffffffffffffff168152602001600073ffffffffffffffffffffffffffffffffffffffff16815260200160008152602001600081526020016000151581525090565b6000604051905090565b600080fd5b600080fd5b600073ffffffffffffffffffffffffffffffffffffffff82169050919050565b6000610d3e82610d13565b9050919050565b610d4e81610d33565b8114610d5957600080fd5b50565b600081359050610d6b81610d45565b92915050565b6000819050919050565b610d8481610d71565b8114610d8f57600080fd5b50565b600081359050610da181610d7b565b92915050565b600080600060608486031215610dc057610dbf610d09565b5b6000610dce86828701610d5c565b9350506020610ddf86828701610d92565b9250506040610df086828701610d92565b9150509250925092565b600060208284031215610e1057610e0f610d09565b5b6000610e1e84828501610d5c565b91505092915050565b600081519050919050565b600082825260208201905092915050565b60005b83811015610e61578082015181840152602081019050610e46565b60008484015250505050565b6000601f19601f8301169050919050565b6000610e8982610e27565b610e938185610e32565b9350610ea3818560208601610e43565b610eac81610e6d565b840191505092915050565b610ec081610d33565b82525050565b610ecf81610d71565b82525050565b60008115159050919050565b610eea81610ed5565b82525050565b600060c0820190508181036000830152610f0a8189610e7e565b9050610f196020830188610eb7565b610f266040830187610eb7565b610f336060830186610ec6565b610f406080830185610ec6565b610f4d60a0830184610ee1565b979650505050505050565b600081519050919050565b600082825260208201905092915050565b6000819050602082019050919050565b600082825260208201905092915050565b6000610fa082610e27565b610faa8185610f84565b9350610fba818560208601610e43565b610fc381610e6d565b840191505092915050565b610fd781610d33565b82525050565b610fe681610d71565b82525050565b610ff581610ed5565b82525050565b600060c08301600083015184820360008601526110188282610f95565b915050602083015161102d6020860182610fce565b5060408301516110406040860182610fce565b5060608301516110536060860182610fdd565b5060808301516110666080860182610fdd565b5060a083015161107960a0860182610fec565b508091505092915050565b60006110908383610ffb565b905092915050565b6000602082019050919050565b60006110b082610f58565b6110ba8185610f63565b9350836020820285016110cc85610f74565b8060005b8581101561110857848403895281516110e98582611084565b94506110f483611098565b925060208a019950506001810190506110d0565b50829750879550505050505092915050565b6000602082019050818103600083015261113481846110a5565b905092915050565b60006020828403121561115257611151610d09565b5b600061116084828501610d92565b91505092915050565b600060208201905061117e6000830184610eb7565b92915050565b6000806040838503121561119b5761119a610d09565b5b60006111a985828601610d5c565b92505060206111ba85828601610d92565b9150509250929050565b600081519050919050565b600082825260208201905092915050565b6000819050602082019050919050565b60006111fc8383610fce565b60208301905092915050565b6000602082019050919050565b6000611220826111c4565b61122a81856111cf565b9350611235836111e0565b8060005b8381101561126657815161124d88826111f0565b975061125883611208565b925050600181019050611239565b5085935050505092915050565b6000602082019050818103600083015261128d8184611215565b905092915050565b600080fd5b600080fd5b7f4e487b7100000000000000000000000000000000000000000000000000000000600052604160045260246000fd5b6112d782610e6d565b810181811067ffffffffffffffff821117156112f6576112f561129f565b5b80604052505050565b6000611309610cff565b905061131582826112ce565b919050565b600067ffffffffffffffff8211156113355761133461129f565b5b61133e82610e6d565b9050602081019050919050565b82818337600083830152505050565b600061136d6113688461131a565b6112ff565b9050828152602081018484840111156113895761138861129a565b5b61139484828561134b565b509392505050565b600082601f8301126113b1576113b0611295565b5b81356113c184826020860161135a565b91505092915050565b6000806000606084860312156113e3576113e2610d09565b5b600084013567ffffffffffffffff81111561140157611400610d0e565b5b61140d8682870161139c565b935050602061141e86828701610d5c565b925050604061142f86828701610d5c565b9150509250925092565b7f436f6d70616e79206e6f74207265676973746572656400000000000000000000600082015250565b600061146f601683610e32565b915061147a82611439565b602082019050919050565b6000602082019050818103600083015261149e81611462565b9050919050565b7f4e487b7100000000000000000000000000000000000000000000000000000000600052601160045260246000fd5b60006114df82610d71565b91506114ea83610d71565b9250828201905080821115611502576115016114a5565b5b92915050565b600061151382610d71565b915061151e83610d71565b925082820261152c81610d71565b91508282048414831517611543576115426114a5565b5b5092915050565b7f4e487b7100000000000000000000000000000000000000000000000000000000600052601260045260246000fd5b600061158482610d71565b915061158f83610d71565b92508261159f5761159e61154a565b5b828204905092915050565b60006020820190506115bf6000830184610ec6565b92915050565b7f4e487b7100000000000000000000000000000000000000000000000000000000600052602260045260246000fd5b6000600282049050600182168061160c57607f821691505b60208210810361161f5761161e6115c5565b5b50919050565b7f4e487b7100000000000000000000000000000000000000000000000000000000600052603260045260246000fd5b600061165f82610d71565b91507fffffffffffffffffffffffffffffffffffffffffffffffffffffffffffffffff8203611691576116906114a5565b5b600182019050919050565b60006116a782610d71565b91506116b283610d71565b92508282039050818111156116ca576116c96114a5565b5b92915050565b7f436f6d70616e7920616c72656164792072656769737465726564000000000000600082015250565b6000611706601a83610e32565b9150611711826116d0565b602082019050919050565b60006020820190508181036000830152611735816116f9565b9050919050565b60008190508160005260206000209050919050565b60006020601f8301049050919050565b600082821b905092915050565b60006008830261179e7fffffffffffffffffffffffffffffffffffffffffffffffffffffffffffffffff82611761565b6117a88683611761565b95508019841693508086168417925050509392505050565b6000819050919050565b60006117e56117e06117db84610d71565b6117c0565b610d71565b9050919050565b6000819050919050565b6117ff836117ca565b61181361180b826117ec565b84845461176e565b825550505050565b600090565b61182861181b565b6118338184846117f6565b505050565b5b818110156118575761184c600082611820565b600181019050611839565b5050565b601f82111561189c5761186d8161173c565b61187684611751565b81016020851015611885578190505b61189961189185611751565b830182611838565b50505b505050565b600082821c905092915050565b60006118bf600019846008026118a1565b1980831691505092915050565b60006118d883836118ae565b9150826002028217905092915050565b6118f182610e27565b67ffffffffffffffff81111561190a5761190961129f565b5b61191482546115f4565b61191f82828561185b565b600060209050601f8311600181146119525760008415611940578287015190505b61194a85826118cc565b8655506119b2565b601f1984166119608661173c565b60005b8281101561198857848901518255600182019150602085019450602081019050611963565b868310156119a557848901516119a1601f8916826118ae565b8355505b6001600288020188555050505b505050505050565b600060608201905081810360008301526119d48186610e7e565b90506119e36020830185610eb7565b6119f06040830184610eb7565b94935050505056fea26469706673582212201b915c10acc3e7d4dfe2f5ab76c85fed3744fbe567f096de0997419c99ba8c4c64736f6c63430008140033","opcodes":"PUSH1 0x80 PUSH1 0x40 MSTORE CALLVALUE DUP1 ISZERO PUSH2 0x10 JUMPI PUSH1 0x0 DUP1 REVERT JUMPDEST POP PUSH2 0x1A2E DUP1 PUSH2 0x20 PUSH1 0x0 CODECOPY PUSH1 0x0 RETURN INVALID PUSH1 0x80 PUSH1 0x40 MSTORE CALLVALUE DUP1 ISZERO PUSH2 0x10 JUMPI PUSH1 0x0 DUP1 REVERT JUMPDEST POP PUSH1 0x4 CALLDATASIZE LT PUSH2 0x7D JUMPI PUSH1 0x0 CALLDATALOAD PUSH1 0xE0 SHR DUP1 PUSH4 0x5E96B80D GT PUSH2 0x5B JUMPI DUP1 PUSH4 0x5E96B80D EQ PUSH2 0xF1 JUMPI DUP1 PUSH4 0xBC997437 EQ PUSH2 0x121 JUMPI DUP1 PUSH4 0xCE0A8ED5 EQ PUSH2 0x13D JUMPI DUP1 PUSH4 0xFCC436B1 EQ PUSH2 0x15B JUMPI PUSH2 0x7D JUMP JUMPDEST DUP1 PUSH4 0x2C92A969 EQ PUSH2 0x82 JUMPI DUP1 PUSH4 0x355E6CE8 EQ PUSH2 0x9E JUMPI DUP1 PUSH4 0x35D2E6F1 EQ PUSH2 0xD3 JUMPI JUMPDEST PUSH1 0x0 DUP1 REVERT JUMPDEST PUSH2 0x9C PUSH1 0x4 DUP1 CALLDATASIZE SUB DUP2 ADD SWAP1 PUSH2 0x97 SWAP2 SWAP1 PUSH2 0xDA7 JUMP JUMPDEST PUSH2 0x177 JUMP JUMPDEST STOP JUMPDEST PUSH2 0xB8 PUSH1 0x4 DUP1 CALLDATASIZE SUB DUP2 ADD SWAP1 PUSH2 0xB3 SWAP2 SWAP1 PUSH2 0xDFA JUMP JUMPDEST PUSH2 0x2FD JUMP JUMPDEST PUSH1 0x40 MLOAD PUSH2 0xCA SWAP7 SWAP6 SWAP5 SWAP4 SWAP3 SWAP2 SWAP1 PUSH2 0xEF0 JUMP JUMPDEST PUSH1 0x40 MLOAD DUP1 SWAP2 SUB SWAP1 RETURN JUMPDEST PUSH2 0xDB PUSH2 0x40E JUMP JUMPDEST PUSH1 0x40 MLOAD PUSH2 0xE8 SWAP2 SWAP1 PUSH2 0x111A JUMP JUMPDEST PUSH1 0x40 MLOAD DUP1 SWAP2 SUB SWAP1 RETURN JUMPDEST PUSH2 0x10B PUSH1 0x4 DUP1 CALLDATASIZE SUB DUP2 ADD SWAP1 PUSH2 0x106 SWAP2 SWAP1 PUSH2 0x113C JUMP JUMPDEST PUSH2 0x7B6 JUMP JUMPDEST PUSH1 0x40 MLOAD PUSH2 0x118 SWAP2 SWAP1 PUSH2 0x1169 JUMP JUMPDEST PUSH1 0x40 MLOAD DUP1 SWAP2 SUB SWAP1 RETURN JUMPDEST PUSH2 0x13B PUSH1 0x4 DUP1 CALLDATASIZE SUB DUP2 ADD SWAP1 PUSH2 0x136 SWAP2 SWAP1 PUSH2 0x1184 JUMP JUMPDEST PUSH2 0x7F5 JUMP JUMPDEST STOP JUMPDEST PUSH2 0x145 PUSH2 0x964 JUMP JUMPDEST PUSH1 0x40 MLOAD PUSH2 0x152 SWAP2 SWAP1 PUSH2 0x1273 JUMP JUMPDEST PUSH1 0x40 MLOAD DUP1 SWAP2 SUB SWAP1 RETURN JUMPDEST PUSH2 0x175 PUSH1 0x4 DUP1 CALLDATASIZE SUB DUP2 ADD SWAP1 PUSH2 0x170 SWAP2 SWAP1 PUSH2 0x13CA JUMP JUMPDEST PUSH2 0x9F2 JUMP JUMPDEST STOP JUMPDEST PUSH1 0x0 DUP1 DUP5 PUSH20 0xFFFFFFFFFFFFFFFFFFFFFFFFFFFFFFFFFFFFFFFF AND PUSH20 0xFFFFFFFFFFFFFFFFFFFFFFFFFFFFFFFFFFFFFFFF AND DUP2 MSTORE PUSH1 0x20 ADD SWAP1 DUP2 MSTORE PUSH1 0x20 ADD PUSH1 0x0 KECCAK256 PUSH1 0x5 ADD PUSH1 0x0 SWAP1 SLOAD SWAP1 PUSH2 0x100 EXP SWAP1 DIV PUSH1 0xFF AND PUSH2 0x205 JUMPI PUSH1 0x40 MLOAD PUSH32 0x8C379A000000000000000000000000000000000000000000000000000000000 DUP2 MSTORE PUSH1 0x4 ADD PUSH2 0x1FC SWAP1 PUSH2 0x1485 JUMP JUMPDEST PUSH1 0x40 MLOAD DUP1 SWAP2 SUB SWAP1 REVERT JUMPDEST PUSH1 0x0 DUP1 PUSH1 0x0 DUP6 PUSH20 0xFFFFFFFFFFFFFFFFFFFFFFFFFFFFFFFFFFFFFFFF AND PUSH20 0xFFFFFFFFFFFFFFFFFFFFFFFFFFFFFFFFFFFFFFFF AND DUP2 MSTORE PUSH1 0x20 ADD SWAP1 DUP2 MSTORE PUSH1 0x20 ADD PUSH1 0x0 KECCAK256 SWAP1 POP DUP3 DUP2 PUSH1 0x3 ADD PUSH1 0x0 DUP3 DUP3 SLOAD PUSH2 0x25B SWAP2 SWAP1 PUSH2 0x14D4 JUMP JUMPDEST SWAP3 POP POP DUP2 SWAP1 SSTORE POP PUSH1 0x1E DUP3 PUSH2 0x26F SWAP2 SWAP1 PUSH2 0x1508 JUMP JUMPDEST PUSH1 0x46 PUSH8 0xDE0B6B3A7640000 DUP4 PUSH1 0x3 ADD SLOAD PUSH2 0x289 SWAP2 SWAP1 PUSH2 0x1579 JUMP JUMPDEST PUSH2 0x293 SWAP2 SWAP1 PUSH2 0x1508 JUMP JUMPDEST PUSH2 0x29D SWAP2 SWAP1 PUSH2 0x14D4 JUMP JUMPDEST DUP2 PUSH1 0x4 ADD DUP2 SWAP1 SSTORE POP DUP4 PUSH20 0xFFFFFFFFFFFFFFFFFFFFFFFFFFFFFFFFFFFFFFFF AND PUSH32 0xFC577563F1B9A0461E24ABEF1E1FCC0D33D3D881F20B5DF6DDA59DE4AAE2C821 DUP3 PUSH1 0x4 ADD SLOAD PUSH1 0x40 MLOAD PUSH2 0x2EF SWAP2 SWAP1 PUSH2 0x15AA JUMP JUMPDEST PUSH1 0x40 MLOAD DUP1 SWAP2 SUB SWAP1 LOG2 POP POP POP POP JUMP JUMPDEST PUSH1 0x0 PUSH1 0x20 MSTORE DUP1 PUSH1 0x0 MSTORE PUSH1 0x40 PUSH1 0x0 KECCAK256 PUSH1 0x0 SWAP2 POP SWAP1 POP DUP1 PUSH1 0x0 ADD DUP1 SLOAD PUSH2 0x320 SWAP1 PUSH2 0x15F4 JUMP JUMPDEST DUP1 PUSH1 0x1F ADD PUSH1 0x20 DUP1 SWAP2 DIV MUL PUSH1 0x20 ADD PUSH1 0x40 MLOAD SWAP1 DUP2 ADD PUSH1 0x40 MSTORE DUP1 SWAP3 SWAP2 SWAP1 DUP2 DUP2 MSTORE PUSH1 0x20 ADD DUP3 DUP1 SLOAD PUSH2 0x34C SWAP1 PUSH2 0x15F4 JUMP JUMPDEST DUP1 ISZERO PUSH2 0x399 JUMPI DUP1 PUSH1 0x1F LT PUSH2 0x36E JUMPI PUSH2 0x100 DUP1 DUP4 SLOAD DIV MUL DUP4 MSTORE SWAP2 PUSH1 0x20 ADD SWAP2 PUSH2 0x399 JUMP JUMPDEST DUP3 ADD SWAP2 SWAP1 PUSH1 0x0 MSTORE PUSH1 0x20 PUSH1 0x0 KECCAK256 SWAP1 JUMPDEST DUP2 SLOAD DUP2 MSTORE SWAP1 PUSH1 0x1 ADD SWAP1 PUSH1 0x20 ADD DUP1 DUP4 GT PUSH2 0x37C JUMPI DUP3 SWAP1 SUB PUSH1 0x1F AND DUP3 ADD SWAP2 JUMPDEST POP POP POP POP POP SWAP1 DUP1 PUSH1 0x1 ADD PUSH1 0x0 SWAP1 SLOAD SWAP1 PUSH2 0x100 EXP SWAP1 DIV PUSH20 0xFFFFFFFFFFFFFFFFFFFFFFFFFFFFFFFFFFFFFFFF AND SWAP1 DUP1 PUSH1 0x2 ADD PUSH1 0x0 SWAP1 SLOAD SWAP1 PUSH2 0x100 EXP SWAP1 DIV PUSH20 0xFFFFFFFFFFFFFFFFFFFFFFFFFFFFFFFFFFFFFFFF AND SWAP1 DUP1 PUSH1 0x3 ADD SLOAD SWAP1 DUP1 PUSH1 0x4 ADD SLOAD SWAP1 DUP1 PUSH1 0x5 ADD PUSH1 0x0 SWAP1 SLOAD SWAP1 PUSH2 0x100 EXP SWAP1 DIV PUSH1 0xFF AND SWAP1 POP DUP7 JUMP JUMPDEST PUSH1 0x60 PUSH1 0x0 PUSH1 0x1 DUP1 SLOAD SWAP1 POP PUSH8 0xFFFFFFFFFFFFFFFF DUP2 GT ISZERO PUSH2 0x431 JUMPI PUSH2 0x430 PUSH2 0x129F JUMP JUMPDEST JUMPDEST PUSH1 0x40 MLOAD SWAP1 DUP1 DUP3 MSTORE DUP1 PUSH1 0x20 MUL PUSH1 0x20 ADD DUP3 ADD PUSH1 0x40 MSTORE DUP1 ISZERO PUSH2 0x46A JUMPI DUP2 PUSH1 0x20 ADD JUMPDEST PUSH2 0x457 PUSH2 0xC9B JUMP JUMPDEST DUP2 MSTORE PUSH1 0x20 ADD SWAP1 PUSH1 0x1 SWAP1 SUB SWAP1 DUP2 PUSH2 0x44F JUMPI SWAP1 POP JUMPDEST POP SWAP1 POP PUSH1 0x0 JUMPDEST PUSH1 0x1 DUP1 SLOAD SWAP1 POP DUP2 LT ISZERO PUSH2 0x6A2 JUMPI PUSH1 0x0 DUP1 PUSH1 0x1 DUP4 DUP2 SLOAD DUP2 LT PUSH2 0x494 JUMPI PUSH2 0x493 PUSH2 0x1625 JUMP JUMPDEST JUMPDEST SWAP1 PUSH1 0x0 MSTORE PUSH1 0x20 PUSH1 0x0 KECCAK256 ADD PUSH1 0x0 SWAP1 SLOAD SWAP1 PUSH2 0x100 EXP SWAP1 DIV PUSH20 0xFFFFFFFFFFFFFFFFFFFFFFFFFFFFFFFFFFFFFFFF AND PUSH20 0xFFFFFFFFFFFFFFFFFFFFFFFFFFFFFFFFFFFFFFFF AND PUSH20 0xFFFFFFFFFFFFFFFFFFFFFFFFFFFFFFFFFFFFFFFF AND DUP2 MSTORE PUSH1 0x20 ADD SWAP1 DUP2 MSTORE PUSH1 0x20 ADD PUSH1 0x0 KECCAK256 PUSH1 0x40 MLOAD DUP1 PUSH1 0xC0 ADD PUSH1 0x40 MSTORE SWAP1 DUP2 PUSH1 0x0 DUP3 ADD DUP1 SLOAD PUSH2 0x514 SWAP1 PUSH2 0x15F4 JUMP JUMPDEST DUP1 PUSH1 0x1F ADD PUSH1 0x20 DUP1 SWAP2 DIV MUL PUSH1 0x20 ADD PUSH1 0x40 MLOAD SWAP1 DUP2 ADD PUSH1 0x40 MSTORE DUP1 SWAP3 SWAP2 SWAP1 DUP2 DUP2 MSTORE PUSH1 0x20 ADD DUP3 DUP1 SLOAD PUSH2 0x540 SWAP1 PUSH2 0x15F4 JUMP JUMPDEST DUP1 ISZERO PUSH2 0x58D JUMPI DUP1 PUSH1 0x1F LT PUSH2 0x562 JUMPI PUSH2 0x100 DUP1 DUP4 SLOAD DIV MUL DUP4 MSTORE SWAP2 PUSH1 0x20 ADD SWAP2 PUSH2 0x58D JUMP JUMPDEST DUP3 ADD SWAP2 SWAP1 PUSH1 0x0 MSTORE PUSH1 0x20 PUSH1 0x0 KECCAK256 SWAP1 JUMPDEST DUP2 SLOAD DUP2 MSTORE SWAP1 PUSH1 0x1 ADD SWAP1 PUSH1 0x20 ADD DUP1 DUP4 GT PUSH2 0x570 JUMPI DUP3 SWAP1 SUB PUSH1 0x1F AND DUP3 ADD SWAP2 JUMPDEST POP POP POP POP POP DUP2 MSTORE PUSH1 0x20 ADD PUSH1 0x1 DUP3 ADD PUSH1 0x0 SWAP1 SLOAD SWAP1 PUSH2 0x100 EXP SWAP1 DIV PUSH20 0xFFFFFFFFFFFFFFFFFFFFFFFFFFFFFFFFFFFFFFFF AND PUSH20 0xFFFFFFFFFFFFFFFFFFFFFFFFFFFFFFFFFFFFFFFF AND PUSH20 0xFFFFFFFFFFFFFFFFFFFFFFFFFFFFFFFFFFFFFFFF AND DUP2 MSTORE PUSH1 0x20 ADD PUSH1 0x2 DUP3 ADD PUSH1 0x0 SWAP1 SLOAD SWAP1 PUSH2 0x100 EXP SWAP1 DIV PUSH20 0xFFFFFFFFFFFFFFFFFFFFFFFFFFFFFFFFFFFFFFFF AND PUSH20 0xFFFFFFFFFFFFFFFFFFFFFFFFFFFFFFFFFFFFFFFF AND PUSH20 0xFFFFFFFFFFFFFFFFFFFFFFFFFFFFFFFFFFFFFFFF AND DUP2 MSTORE PUSH1 0x20 ADD PUSH1 0x3 DUP3 ADD SLOAD DUP2 MSTORE PUSH1 0x20 ADD PUSH1 0x4 DUP3 ADD SLOAD DUP2 MSTORE PUSH1 0x20 ADD PUSH1 0x5 DUP3 ADD PUSH1 0x0 SWAP1 SLOAD SWAP1 PUSH2 0x100 EXP SWAP1 DIV PUSH1 0xFF AND ISZERO ISZERO ISZERO ISZERO DUP2 MSTORE POP POP DUP3 DUP3 DUP2 MLOAD DUP2 LT PUSH2 0x684 JUMPI PUSH2 0x683 PUSH2 0x1625 JUMP JUMPDEST JUMPDEST PUSH1 0x20 MUL PUSH1 0x20 ADD ADD DUP2 SWAP1 MSTORE POP DUP1 DUP1 PUSH2 0x69A SWAP1 PUSH2 0x1654 JUMP JUMPDEST SWAP2 POP POP PUSH2 0x470 JUMP JUMPDEST POP PUSH1 0x0 JUMPDEST DUP2 MLOAD DUP2 LT ISZERO PUSH2 0x7AE JUMPI PUSH1 0x0 PUSH1 0x1 DUP3 PUSH2 0x6BE SWAP2 SWAP1 PUSH2 0x14D4 JUMP JUMPDEST SWAP1 POP JUMPDEST DUP3 MLOAD DUP2 LT ISZERO PUSH2 0x79A JUMPI DUP3 DUP3 DUP2 MLOAD DUP2 LT PUSH2 0x6DD JUMPI PUSH2 0x6DC PUSH2 0x1625 JUMP JUMPDEST JUMPDEST PUSH1 0x20 MUL PUSH1 0x20 ADD ADD MLOAD PUSH1 0x80 ADD MLOAD DUP4 DUP3 DUP2 MLOAD DUP2 LT PUSH2 0x6FC JUMPI PUSH2 0x6FB PUSH2 0x1625 JUMP JUMPDEST JUMPDEST PUSH1 0x20 MUL PUSH1 0x20 ADD ADD MLOAD PUSH1 0x80 ADD MLOAD GT ISZERO PUSH2 0x787 JUMPI PUSH1 0x0 DUP4 DUP4 DUP2 MLOAD DUP2 LT PUSH2 0x723 JUMPI PUSH2 0x722 PUSH2 0x1625 JUMP JUMPDEST JUMPDEST PUSH1 0x20 MUL PUSH1 0x20 ADD ADD MLOAD SWAP1 POP DUP4 DUP3 DUP2 MLOAD DUP2 LT PUSH2 0x740 JUMPI PUSH2 0x73F PUSH2 0x1625 JUMP JUMPDEST JUMPDEST PUSH1 0x20 MUL PUSH1 0x20 ADD ADD MLOAD DUP5 DUP5 DUP2 MLOAD DUP2 LT PUSH2 0x75B JUMPI PUSH2 0x75A PUSH2 0x1625 JUMP JUMPDEST JUMPDEST PUSH1 0x20 MUL PUSH1 0x20 ADD ADD DUP2 SWAP1 MSTORE POP DUP1 DUP5 DUP4 DUP2 MLOAD DUP2 LT PUSH2 0x77A JUMPI PUSH2 0x779 PUSH2 0x1625 JUMP JUMPDEST JUMPDEST PUSH1 0x20 MUL PUSH1 0x20 ADD ADD DUP2 SWAP1 MSTORE POP POP JUMPDEST DUP1 DUP1 PUSH2 0x792 SWAP1 PUSH2 0x1654 JUMP JUMPDEST SWAP2 POP POP PUSH2 0x6C1 JUMP JUMPDEST POP DUP1 DUP1 PUSH2 0x7A6 SWAP1 PUSH2 0x1654 JUMP JUMPDEST SWAP2 POP POP PUSH2 0x6A6 JUMP JUMPDEST POP DUP1 SWAP2 POP POP SWAP1 JUMP JUMPDEST PUSH1 0x1 DUP2 DUP2 SLOAD DUP2 LT PUSH2 0x7C6 JUMPI PUSH1 0x0 DUP1 REVERT JUMPDEST SWAP1 PUSH1 0x0 MSTORE PUSH1 0x20 PUSH1 0x0 KECCAK256 ADD PUSH1 0x0 SWAP2 POP SLOAD SWAP1 PUSH2 0x100 EXP SWAP1 DIV PUSH20 0xFFFFFFFFFFFFFFFFFFFFFFFFFFFFFFFFFFFFFFFF AND DUP2 JUMP JUMPDEST PUSH1 0x0 DUP1 DUP4 PUSH20 0xFFFFFFFFFFFFFFFFFFFFFFFFFFFFFFFFFFFFFFFF AND PUSH20 0xFFFFFFFFFFFFFFFFFFFFFFFFFFFFFFFFFFFFFFFF AND DUP2 MSTORE PUSH1 0x20 ADD SWAP1 DUP2 MSTORE PUSH1 0x20 ADD PUSH1 0x0 KECCAK256 PUSH1 0x5 ADD PUSH1 0x0 SWAP1 SLOAD SWAP1 PUSH2 0x100 EXP SWAP1 DIV PUSH1 0xFF AND PUSH2 0x883 JUMPI PUSH1 0x40 MLOAD PUSH32 0x8C379A000000000000000000000000000000000000000000000000000000000 DUP2 MSTORE PUSH1 0x4 ADD PUSH2 0x87A SWAP1 PUSH2 0x1485 JUMP JUMPDEST PUSH1 0x40 MLOAD DUP1 SWAP2 SUB SWAP1 REVERT JUMPDEST PUSH1 0x0 DUP1 PUSH1 0x0 DUP5 PUSH20 0xFFFFFFFFFFFFFFFFFFFFFFFFFFFFFFFFFFFFFFFF AND PUSH20 0xFFFFFFFFFFFFFFFFFFFFFFFFFFFFFFFFFFFFFFFF AND DUP2 MSTORE PUSH1 0x20 ADD SWAP1 DUP2 MSTORE PUSH1 0x20 ADD PUSH1 0x0 KECCAK256 SWAP1 POP PUSH1 0x0 PUSH1 0x78 DUP4 PUSH2 0x8D4 SWAP2 SWAP1 PUSH2 0x1508 JUMP JUMPDEST SWAP1 POP DUP1 DUP3 PUSH1 0x4 ADD SLOAD LT PUSH2 0x901 JUMPI DUP1 DUP3 PUSH1 0x4 ADD PUSH1 0x0 DUP3 DUP3 SLOAD PUSH2 0x8F5 SWAP2 SWAP1 PUSH2 0x169C JUMP JUMPDEST SWAP3 POP POP DUP2 SWAP1 SSTORE POP PUSH2 0x90C JUMP JUMPDEST PUSH1 0x0 DUP3 PUSH1 0x4 ADD DUP2 SWAP1 SSTORE POP JUMPDEST DUP4 PUSH20 0xFFFFFFFFFFFFFFFFFFFFFFFFFFFFFFFFFFFFFFFF AND PUSH32 0xFC577563F1B9A0461E24ABEF1E1FCC0D33D3D881F20B5DF6DDA59DE4AAE2C821 DUP4 PUSH1 0x4 ADD SLOAD PUSH1 0x40 MLOAD PUSH2 0x956 SWAP2 SWAP1 PUSH2 0x15AA JUMP JUMPDEST PUSH1 0x40 MLOAD DUP1 SWAP2 SUB SWAP1 LOG2 POP POP POP POP JUMP JUMPDEST PUSH1 0x60 PUSH1 0x1 DUP1 SLOAD DUP1 PUSH1 0x20 MUL PUSH1 0x20 ADD PUSH1 0x40 MLOAD SWAP1 DUP2 ADD PUSH1 0x40 MSTORE DUP1 SWAP3 SWAP2 SWAP1 DUP2 DUP2 MSTORE PUSH1 0x20 ADD DUP3 DUP1 SLOAD DUP1 ISZERO PUSH2 0x9E8 JUMPI PUSH1 0x20 MUL DUP3 ADD SWAP2 SWAP1 PUSH1 0x0 MSTORE PUSH1 0x20 PUSH1 0x0 KECCAK256 SWAP1 JUMPDEST DUP2 PUSH1 0x0 SWAP1 SLOAD SWAP1 PUSH2 0x100 EXP SWAP1 DIV PUSH20 0xFFFFFFFFFFFFFFFFFFFFFFFFFFFFFFFFFFFFFFFF AND PUSH20 0xFFFFFFFFFFFFFFFFFFFFFFFFFFFFFFFFFFFFFFFF AND DUP2 MSTORE PUSH1 0x20 ADD SWAP1 PUSH1 0x1 ADD SWAP1 DUP1 DUP4 GT PUSH2 0x99E JUMPI JUMPDEST POP POP POP POP POP SWAP1 POP SWAP1 JUMP JUMPDEST PUSH1 0x0 DUP1 DUP4 PUSH20 0xFFFFFFFFFFFFFFFFFFFFFFFFFFFFFFFFFFFFFFFF AND PUSH20 0xFFFFFFFFFFFFFFFFFFFFFFFFFFFFFFFFFFFFFFFF AND DUP2 MSTORE PUSH1 0x20 ADD SWAP1 DUP2 MSTORE PUSH1 0x20 ADD PUSH1 0x0 KECCAK256 PUSH1 0x5 ADD PUSH1 0x0 SWAP1 SLOAD SWAP1 PUSH2 0x100 EXP SWAP1 DIV PUSH1 0xFF AND ISZERO PUSH2 0xA81 JUMPI PUSH1 0x40 MLOAD PUSH32 0x8C379A000000000000000000000000000000000000000000000000000000000 DUP2 MSTORE PUSH1 0x4 ADD PUSH2 0xA78 SWAP1 PUSH2 0x171C JUMP JUMPDEST PUSH1 0x40 MLOAD DUP1 SWAP2 SUB SWAP1 REVERT JUMPDEST PUSH1 0x40 MLOAD DUP1 PUSH1 0xC0 ADD PUSH1 0x40 MSTORE DUP1 DUP5 DUP2 MSTORE PUSH1 0x20 ADD DUP4 PUSH20 0xFFFFFFFFFFFFFFFFFFFFFFFFFFFFFFFFFFFFFFFF AND DUP2 MSTORE PUSH1 0x20 ADD DUP3 PUSH20 0xFFFFFFFFFFFFFFFFFFFFFFFFFFFFFFFFFFFFFFFF AND DUP2 MSTORE PUSH1 0x20 ADD PUSH1 0x0 DUP2 MSTORE PUSH1 0x20 ADD PUSH1 0x0 DUP2 MSTORE PUSH1 0x20 ADD PUSH1 0x1 ISZERO ISZERO DUP2 MSTORE POP PUSH1 0x0 DUP1 DUP5 PUSH20 0xFFFFFFFFFFFFFFFFFFFFFFFFFFFFFFFFFFFFFFFF AND PUSH20 0xFFFFFFFFFFFFFFFFFFFFFFFFFFFFFFFFFFFFFFFF AND DUP2 MSTORE PUSH1 0x20 ADD SWAP1 DUP2 MSTORE PUSH1 0x20 ADD PUSH1 0x0 KECCAK256 PUSH1 0x0 DUP3 ADD MLOAD DUP2 PUSH1 0x0 ADD SWAP1 DUP2 PUSH2 0xB32 SWAP2 SWAP1 PUSH2 0x18E8 JUMP JUMPDEST POP PUSH1 0x20 DUP3 ADD MLOAD DUP2 PUSH1 0x1 ADD PUSH1 0x0 PUSH2 0x100 EXP DUP2 SLOAD DUP2 PUSH20 0xFFFFFFFFFFFFFFFFFFFFFFFFFFFFFFFFFFFFFFFF MUL NOT AND SWAP1 DUP4 PUSH20 0xFFFFFFFFFFFFFFFFFFFFFFFFFFFFFFFFFFFFFFFF AND MUL OR SWAP1 SSTORE POP PUSH1 0x40 DUP3 ADD MLOAD DUP2 PUSH1 0x2 ADD PUSH1 0x0 PUSH2 0x100 EXP DUP2 SLOAD DUP2 PUSH20 0xFFFFFFFFFFFFFFFFFFFFFFFFFFFFFFFFFFFFFFFF MUL NOT AND SWAP1 DUP4 PUSH20 0xFFFFFFFFFFFFFFFFFFFFFFFFFFFFFFFFFFFFFFFF AND MUL OR SWAP1 SSTORE POP PUSH1 0x60 DUP3 ADD MLOAD DUP2 PUSH1 0x3 ADD SSTORE PUSH1 0x80 DUP3 ADD MLOAD DUP2 PUSH1 0x4 ADD SSTORE PUSH1 0xA0 DUP3 ADD MLOAD DUP2 PUSH1 0x5 ADD PUSH1 0x0 PUSH2 0x100 EXP DUP2 SLOAD DUP2 PUSH1 0xFF MUL NOT AND SWAP1 DUP4 ISZERO ISZERO MUL OR SWAP1 SSTORE POP SWAP1 POP POP PUSH1 0x1 DUP3 SWAP1 DUP1 PUSH1 0x1 DUP2 SLOAD ADD DUP1 DUP3 SSTORE DUP1 SWAP2 POP POP PUSH1 0x1 SWAP1 SUB SWAP1 PUSH1 0x0 MSTORE PUSH1 0x20 PUSH1 0x0 KECCAK256 ADD PUSH1 0x0 SWAP1 SWAP2 SWAP1 SWAP2 SWAP1 SWAP2 PUSH2 0x100 EXP DUP2 SLOAD DUP2 PUSH20 0xFFFFFFFFFFFFFFFFFFFFFFFFFFFFFFFFFFFFFFFF MUL NOT AND SWAP1 DUP4 PUSH20 0xFFFFFFFFFFFFFFFFFFFFFFFFFFFFFFFFFFFFFFFF AND MUL OR SWAP1 SSTORE POP PUSH32 0x94AEC3DC6CB6F40C1DE17E8E63A10905C1D89509EE5F4649A1640AE029A25595 DUP4 DUP4 DUP4 PUSH1 0x40 MLOAD PUSH2 0xC8E SWAP4 SWAP3 SWAP2 SWAP1 PUSH2 0x19BA JUMP JUMPDEST PUSH1 0x40 MLOAD DUP1 SWAP2 SUB SWAP1 LOG1 POP POP POP JUMP JUMPDEST PUSH1 0x40 MLOAD DUP1 PUSH1 0xC0 ADD PUSH1 0x40 MSTORE DUP1 PUSH1 0x60 DUP2 MSTORE PUSH1 0x20 ADD PUSH1 0x0 PUSH20 0xFFFFFFFFFFFFFFFFFFFFFFFFFFFFFFFFFFFFFFFF AND DUP2 MSTORE PUSH1 0x20 ADD PUSH1 0x0 PUSH20 0xFFFFFFFFFFFFFFFFFFFFFFFFFFFFFFFFFFFFFFFF AND DUP2 MSTORE PUSH1 0x20 ADD PUSH1 0x0 DUP2 MSTORE PUSH1 0x20 ADD PUSH1 0x0 DUP2 MSTORE PUSH1 0x20 ADD PUSH1 0x0 ISZERO ISZERO DUP2 MSTORE POP SWAP1 JUMP JUMPDEST PUSH1 0x0 PUSH1 0x40 MLOAD SWAP1 POP SWAP1 JUMP JUMPDEST PUSH1 0x0 DUP1 REVERT JUMPDEST PUSH1 0x0 DUP1 REVERT JUMPDEST PUSH1 0x0 PUSH20 0xFFFFFFFFFFFFFFFFFFFFFFFFFFFFFFFFFFFFFFFF DUP3 AND SWAP1 POP SWAP2 SWAP1 POP JUMP JUMPDEST PUSH1 0x0 PUSH2 0xD3E DUP3 PUSH2 0xD13 JUMP JUMPDEST SWAP1 POP SWAP2 SWAP1 POP JUMP JUMPDEST PUSH2 0xD4E DUP2 PUSH2 0xD33 JUMP JUMPDEST DUP2 EQ PUSH2 0xD59 JUMPI PUSH1 0x0 DUP1 REVERT JUMPDEST POP JUMP JUMPDEST PUSH1 0x0 DUP2 CALLDATALOAD SWAP1 POP PUSH2 0xD6B DUP2 PUSH2 0xD45 JUMP JUMPDEST SWAP3 SWAP2 POP POP JUMP JUMPDEST PUSH1 0x0 DUP2 SWAP1 POP SWAP2 SWAP1 POP JUMP JUMPDEST PUSH2 0xD84 DUP2 PUSH2 0xD71 JUMP JUMPDEST DUP2 EQ PUSH2 0xD8F JUMPI PUSH1 0x0 DUP1 REVERT JUMPDEST POP JUMP JUMPDEST PUSH1 0x0 DUP2 CALLDATALOAD SWAP1 POP PUSH2 0xDA1 DUP2 PUSH2 0xD7B JUMP JUMPDEST SWAP3 SWAP2 POP POP JUMP JUMPDEST PUSH1 0x0 DUP1 PUSH1 0x0 PUSH1 0x60 DUP5 DUP7 SUB SLT ISZERO PUSH2 0xDC0 JUMPI PUSH2 0xDBF PUSH2 0xD09 JUMP JUMPDEST JUMPDEST PUSH1 0x0 PUSH2 0xDCE DUP7 DUP3 DUP8 ADD PUSH2 0xD5C JUMP JUMPDEST SWAP4 POP POP PUSH1 0x20 PUSH2 0xDDF DUP7 DUP3 DUP8 ADD PUSH2 0xD92 JUMP JUMPDEST SWAP3 POP POP PUSH1 0x40 PUSH2 0xDF0 DUP7 DUP3 DUP8 ADD PUSH2 0xD92 JUMP JUMPDEST SWAP2 POP POP SWAP3 POP SWAP3 POP SWAP3 JUMP JUMPDEST PUSH1 0x0 PUSH1 0x20 DUP3 DUP5 SUB SLT ISZERO PUSH2 0xE10 JUMPI PUSH2 0xE0F PUSH2 0xD09 JUMP JUMPDEST JUMPDEST PUSH1 0x0 PUSH2 0xE1E DUP5 DUP3 DUP6 ADD PUSH2 0xD5C JUMP JUMPDEST SWAP2 POP POP SWAP3 SWAP2 POP POP JUMP JUMPDEST PUSH1 0x0 DUP2 MLOAD SWAP1 POP SWAP2 SWAP1 POP JUMP JUMPDEST PUSH1 0x0 DUP3 DUP3 MSTORE PUSH1 0x20 DUP3 ADD SWAP1 POP SWAP3 SWAP2 POP POP JUMP JUMPDEST PUSH1 0x0 JUMPDEST DUP4 DUP2 LT ISZERO PUSH2 0xE61 JUMPI DUP1 DUP3 ADD MLOAD DUP2 DUP5 ADD MSTORE PUSH1 0x20 DUP2 ADD SWAP1 POP PUSH2 0xE46 JUMP JUMPDEST PUSH1 0x0 DUP5 DUP5 ADD MSTORE POP POP POP POP JUMP JUMPDEST PUSH1 0x0 PUSH1 0x1F NOT PUSH1 0x1F DUP4 ADD AND SWAP1 POP SWAP2 SWAP1 POP JUMP JUMPDEST PUSH1 0x0 PUSH2 0xE89 DUP3 PUSH2 0xE27 JUMP JUMPDEST PUSH2 0xE93 DUP2 DUP6 PUSH2 0xE32 JUMP JUMPDEST SWAP4 POP PUSH2 0xEA3 DUP2 DUP6 PUSH1 0x20 DUP7 ADD PUSH2 0xE43 JUMP JUMPDEST PUSH2 0xEAC DUP2 PUSH2 0xE6D JUMP JUMPDEST DUP5 ADD SWAP2 POP POP SWAP3 SWAP2 POP POP JUMP JUMPDEST PUSH2 0xEC0 DUP2 PUSH2 0xD33 JUMP JUMPDEST DUP3 MSTORE POP POP JUMP JUMPDEST PUSH2 0xECF DUP2 PUSH2 0xD71 JUMP JUMPDEST DUP3 MSTORE POP POP JUMP JUMPDEST PUSH1 0x0 DUP2 ISZERO ISZERO SWAP1 POP SWAP2 SWAP1 POP JUMP JUMPDEST PUSH2 0xEEA DUP2 PUSH2 0xED5 JUMP JUMPDEST DUP3 MSTORE POP POP JUMP JUMPDEST PUSH1 0x0 PUSH1 0xC0 DUP3 ADD SWAP1 POP DUP2 DUP2 SUB PUSH1 0x0 DUP4 ADD MSTORE PUSH2 0xF0A DUP2 DUP10 PUSH2 0xE7E JUMP JUMPDEST SWAP1 POP PUSH2 0xF19 PUSH1 0x20 DUP4 ADD DUP9 PUSH2 0xEB7 JUMP JUMPDEST PUSH2 0xF26 PUSH1 0x40 DUP4 ADD DUP8 PUSH2 0xEB7 JUMP JUMPDEST PUSH2 0xF33 PUSH1 0x60 DUP4 ADD DUP7 PUSH2 0xEC6 JUMP JUMPDEST PUSH2 0xF40 PUSH1 0x80 DUP4 ADD DUP6 PUSH2 0xEC6 JUMP JUMPDEST PUSH2 0xF4D PUSH1 0xA0 DUP4 ADD DUP5 PUSH2 0xEE1 JUMP JUMPDEST SWAP8 SWAP7 POP POP POP POP POP POP POP JUMP JUMPDEST PUSH1 0x0 DUP2 MLOAD SWAP1 POP SWAP2 SWAP1 POP JUMP JUMPDEST PUSH1 0x0 DUP3 DUP3 MSTORE PUSH1 0x20 DUP3 ADD SWAP1 POP SWAP3 SWAP2 POP POP JUMP JUMPDEST PUSH1 0x0 DUP2 SWAP1 POP PUSH1 0x20 DUP3 ADD SWAP1 POP SWAP2 SWAP1 POP JUMP JUMPDEST PUSH1 0x0 DUP3 DUP3 MSTORE PUSH1 0x20 DUP3 ADD SWAP1 POP SWAP3 SWAP2 POP POP JUMP JUMPDEST PUSH1 0x0 PUSH2 0xFA0 DUP3 PUSH2 0xE27 JUMP JUMPDEST PUSH2 0xFAA DUP2 DUP6 PUSH2 0xF84 JUMP JUMPDEST SWAP4 POP PUSH2 0xFBA DUP2 DUP6 PUSH1 0x20 DUP7 ADD PUSH2 0xE43 JUMP JUMPDEST PUSH2 0xFC3 DUP2 PUSH2 0xE6D JUMP JUMPDEST DUP5 ADD SWAP2 POP POP SWAP3 SWAP2 POP POP JUMP JUMPDEST PUSH2 0xFD7 DUP2 PUSH2 0xD33 JUMP JUMPDEST DUP3 MSTORE POP POP JUMP JUMPDEST PUSH2 0xFE6 DUP2 PUSH2 0xD71 JUMP JUMPDEST DUP3 MSTORE POP POP JUMP JUMPDEST PUSH2 0xFF5 DUP2 PUSH2 0xED5 JUMP JUMPDEST DUP3 MSTORE POP POP JUMP JUMPDEST PUSH1 0x0 PUSH1 0xC0 DUP4 ADD PUSH1 0x0 DUP4 ADD MLOAD DUP5 DUP3 SUB PUSH1 0x0 DUP7 ADD MSTORE PUSH2 0x1018 DUP3 DUP3 PUSH2 0xF95 JUMP JUMPDEST SWAP2 POP POP PUSH1 0x20 DUP4 ADD MLOAD PUSH2 0x102D PUSH1 0x20 DUP7 ADD DUP3 PUSH2 0xFCE JUMP JUMPDEST POP PUSH1 0x40 DUP4 ADD MLOAD PUSH2 0x1040 PUSH1 0x40 DUP7 ADD DUP3 PUSH2 0xFCE JUMP JUMPDEST POP PUSH1 0x60 DUP4 ADD MLOAD PUSH2 0x1053 PUSH1 0x60 DUP7 ADD DUP3 PUSH2 0xFDD JUMP JUMPDEST POP PUSH1 0x80 DUP4 ADD MLOAD PUSH2 0x1066 PUSH1 0x80 DUP7 ADD DUP3 PUSH2 0xFDD JUMP JUMPDEST POP PUSH1 0xA0 DUP4 ADD MLOAD PUSH2 0x1079 PUSH1 0xA0 DUP7 ADD DUP3 PUSH2 0xFEC JUMP JUMPDEST POP DUP1 SWAP2 POP POP SWAP3 SWAP2 POP POP JUMP JUMPDEST PUSH1 0x0 PUSH2 0x1090 DUP4 DUP4 PUSH2 0xFFB JUMP JUMPDEST SWAP1 POP SWAP3 SWAP2 POP POP JUMP JUMPDEST PUSH1 0x0 PUSH1 0x20 DUP3 ADD SWAP1 POP SWAP2 SWAP1 POP JUMP JUMPDEST PUSH1 0x0 PUSH2 0x10B0 DUP3 PUSH2 0xF58 JUMP JUMPDEST PUSH2 0x10BA DUP2 DUP6 PUSH2 0xF63 JUMP JUMPDEST SWAP4 POP DUP4 PUSH1 0x20 DUP3 MUL DUP6 ADD PUSH2 0x10CC DUP6 PUSH2 0xF74 JUMP JUMPDEST DUP1 PUSH1 0x0 JUMPDEST DUP6 DUP2 LT ISZERO PUSH2 0x1108 JUMPI DUP5 DUP5 SUB DUP10 MSTORE DUP2 MLOAD PUSH2 0x10E9 DUP6 DUP3 PUSH2 0x1084 JUMP JUMPDEST SWAP5 POP PUSH2 0x10F4 DUP4 PUSH2 0x1098 JUMP JUMPDEST SWAP3 POP PUSH1 0x20 DUP11 ADD SWAP10 POP POP PUSH1 0x1 DUP2 ADD SWAP1 POP PUSH2 0x10D0 JUMP JUMPDEST POP DUP3 SWAP8 POP DUP8 SWAP6 POP POP POP POP POP POP SWAP3 SWAP2 POP POP JUMP JUMPDEST PUSH1 0x0 PUSH1 0x20 DUP3 ADD SWAP1 POP DUP2 DUP2 SUB PUSH1 0x0 DUP4 ADD MSTORE PUSH2 0x1134 DUP2 DUP5 PUSH2 0x10A5 JUMP JUMPDEST SWAP1 POP SWAP3 SWAP2 POP POP JUMP JUMPDEST PUSH1 0x0 PUSH1 0x20 DUP3 DUP5 SUB SLT ISZERO PUSH2 0x1152 JUMPI PUSH2 0x1151 PUSH2 0xD09 JUMP JUMPDEST JUMPDEST PUSH1 0x0 PUSH2 0x1160 DUP5 DUP3 DUP6 ADD PUSH2 0xD92 JUMP JUMPDEST SWAP2 POP POP SWAP3 SWAP2 POP POP JUMP JUMPDEST PUSH1 0x0 PUSH1 0x20 DUP3 ADD SWAP1 POP PUSH2 0x117E PUSH1 0x0 DUP4 ADD DUP5 PUSH2 0xEB7 JUMP JUMPDEST SWAP3 SWAP2 POP POP JUMP JUMPDEST PUSH1 0x0 DUP1 PUSH1 0x40 DUP4 DUP6 SUB SLT ISZERO PUSH2 0x119B JUMPI PUSH2 0x119A PUSH2 0xD09 JUMP JUMPDEST JUMPDEST PUSH1 0x0 PUSH2 0x11A9 DUP6 DUP3 DUP7 ADD PUSH2 0xD5C JUMP JUMPDEST SWAP3 POP POP PUSH1 0x20 PUSH2 0x11BA DUP6 DUP3 DUP7 ADD PUSH2 0xD92 JUMP JUMPDEST SWAP2 POP POP SWAP3 POP SWAP3 SWAP1 POP JUMP JUMPDEST PUSH1 0x0 DUP2 MLOAD SWAP1 POP SWAP2 SWAP1 POP JUMP JUMPDEST PUSH1 0x0 DUP3 DUP3 MSTORE PUSH1 0x20 DUP3 ADD SWAP1 POP SWAP3 SWAP2 POP POP JUMP JUMPDEST PUSH1 0x0 DUP2 SWAP1 POP PUSH1 0x20 DUP3 ADD SWAP1 POP SWAP2 SWAP1 POP JUMP JUMPDEST PUSH1 0x0 PUSH2 0x11FC DUP4 DUP4 PUSH2 0xFCE JUMP JUMPDEST PUSH1 0x20 DUP4 ADD SWAP1 POP SWAP3 SWAP2 POP POP JUMP JUMPDEST PUSH1 0x0 PUSH1 0x20 DUP3 ADD SWAP1 POP SWAP2 SWAP1 POP JUMP JUMPDEST PUSH1 0x0 PUSH2 0x1220 DUP3 PUSH2 0x11C4 JUMP JUMPDEST PUSH2 0x122A DUP2 DUP6 PUSH2 0x11CF JUMP JUMPDEST SWAP4 POP PUSH2 0x1235 DUP4 PUSH2 0x11E0 JUMP JUMPDEST DUP1 PUSH1 0x0 JUMPDEST DUP4 DUP2 LT ISZERO PUSH2 0x1266 JUMPI DUP2 MLOAD PUSH2 0x124D DUP9 DUP3 PUSH2 0x11F0 JUMP JUMPDEST SWAP8 POP PUSH2 0x1258 DUP4 PUSH2 0x1208 JUMP JUMPDEST SWAP3 POP POP PUSH1 0x1 DUP2 ADD SWAP1 POP PUSH2 0x1239 JUMP JUMPDEST POP DUP6 SWAP4 POP POP POP POP SWAP3 SWAP2 POP POP JUMP JUMPDEST PUSH1 0x0 PUSH1 0x20 DUP3 ADD SWAP1 POP DUP2 DUP2 SUB PUSH1 0x0 DUP4 ADD MSTORE PUSH2 0x128D DUP2 DUP5 PUSH2 0x1215 JUMP JUMPDEST SWAP1 POP SWAP3 SWAP2 POP POP JUMP JUMPDEST PUSH1 0x0 DUP1 REVERT JUMPDEST PUSH1 0x0 DUP1 REVERT JUMPDEST PUSH32 0x4E487B7100000000000000000000000000000000000000000000000000000000 PUSH1 0x0 MSTORE PUSH1 0x41 PUSH1 0x4 MSTORE PUSH1 0x24 PUSH1 0x0 REVERT JUMPDEST PUSH2 0x12D7 DUP3 PUSH2 0xE6D JUMP JUMPDEST DUP2 ADD DUP2 DUP2 LT PUSH8 0xFFFFFFFFFFFFFFFF DUP3 GT OR ISZERO PUSH2 0x12F6 JUMPI PUSH2 0x12F5 PUSH2 0x129F JUMP JUMPDEST JUMPDEST DUP1 PUSH1 0x40 MSTORE POP POP POP JUMP JUMPDEST PUSH1 0x0 PUSH2 0x1309 PUSH2 0xCFF JUMP JUMPDEST SWAP1 POP PUSH2 0x1315 DUP3 DUP3 PUSH2 0x12CE JUMP JUMPDEST SWAP2 SWAP1 POP JUMP JUMPDEST PUSH1 0x0 PUSH8 0xFFFFFFFFFFFFFFFF DUP3 GT ISZERO PUSH2 0x1335 JUMPI PUSH2 0x1334 PUSH2 0x129F JUMP JUMPDEST JUMPDEST PUSH2 0x133E DUP3 PUSH2 0xE6D JUMP JUMPDEST SWAP1 POP PUSH1 0x20 DUP2 ADD SWAP1 POP SWAP2 SWAP1 POP JUMP JUMPDEST DUP3 DUP2 DUP4 CALLDATACOPY PUSH1 0x0 DUP4 DUP4 ADD MSTORE POP POP POP JUMP JUMPDEST PUSH1 0x0 PUSH2 0x136D PUSH2 0x1368 DUP5 PUSH2 0x131A JUMP JUMPDEST PUSH2 0x12FF JUMP JUMPDEST SWAP1 POP DUP3 DUP2 MSTORE PUSH1 0x20 DUP2 ADD DUP5 DUP5 DUP5 ADD GT ISZERO PUSH2 0x1389 JUMPI PUSH2 0x1388 PUSH2 0x129A JUMP JUMPDEST JUMPDEST PUSH2 0x1394 DUP5 DUP3 DUP6 PUSH2 0x134B JUMP JUMPDEST POP SWAP4 SWAP3 POP POP POP JUMP JUMPDEST PUSH1 0x0 DUP3 PUSH1 0x1F DUP4 ADD SLT PUSH2 0x13B1 JUMPI PUSH2 0x13B0 PUSH2 0x1295 JUMP JUMPDEST JUMPDEST DUP2 CALLDATALOAD PUSH2 0x13C1 DUP5 DUP3 PUSH1 0x20 DUP7 ADD PUSH2 0x135A JUMP JUMPDEST SWAP2 POP POP SWAP3 SWAP2 POP POP JUMP JUMPDEST PUSH1 0x0 DUP1 PUSH1 0x0 PUSH1 0x60 DUP5 DUP7 SUB SLT ISZERO PUSH2 0x13E3 JUMPI PUSH2 0x13E2 PUSH2 0xD09 JUMP JUMPDEST JUMPDEST PUSH1 0x0 DUP5 ADD CALLDATALOAD PUSH8 0xFFFFFFFFFFFFFFFF DUP2 GT ISZERO PUSH2 0x1401 JUMPI PUSH2 0x1400 PUSH2 0xD0E JUMP JUMPDEST JUMPDEST PUSH2 0x140D DUP7 DUP3 DUP8 ADD PUSH2 0x139C JUMP JUMPDEST SWAP4 POP POP PUSH1 0x20 PUSH2 0x141E DUP7 DUP3 DUP8 ADD PUSH2 0xD5C JUMP JUMPDEST SWAP3 POP POP PUSH1 0x40 PUSH2 0x142F DUP7 DUP3 DUP8 ADD PUSH2 0xD5C JUMP JUMPDEST SWAP2 POP POP SWAP3 POP SWAP3 POP SWAP3 JUMP JUMPDEST PUSH32 0x436F6D70616E79206E6F74207265676973746572656400000000000000000000 PUSH1 0x0 DUP3 ADD MSTORE POP JUMP JUMPDEST PUSH1 0x0 PUSH2 0x146F PUSH1 0x16 DUP4 PUSH2 0xE32 JUMP JUMPDEST SWAP2 POP PUSH2 0x147A DUP3 PUSH2 0x1439 JUMP JUMPDEST PUSH1 0x20 DUP3 ADD SWAP1 POP SWAP2 SWAP1 POP JUMP JUMPDEST PUSH1 0x0 PUSH1 0x20 DUP3 ADD SWAP1 POP DUP2 DUP2 SUB PUSH1 0x0 DUP4 ADD MSTORE PUSH2 0x149E DUP2 PUSH2 0x1462 JUMP JUMPDEST SWAP1 POP SWAP2 SWAP1 POP JUMP JUMPDEST PUSH32 0x4E487B7100000000000000000000000000000000000000000000000000000000 PUSH1 0x0 MSTORE PUSH1 0x11 PUSH1 0x4 MSTORE PUSH1 0x24 PUSH1 0x0 REVERT JUMPDEST PUSH1 0x0 PUSH2 0x14DF DUP3 PUSH2 0xD71 JUMP JUMPDEST SWAP2 POP PUSH2 0x14EA DUP4 PUSH2 0xD71 JUMP JUMPDEST SWAP3 POP DUP3 DUP3 ADD SWAP1 POP DUP1 DUP3 GT ISZERO PUSH2 0x1502 JUMPI PUSH2 0x1501 PUSH2 0x14A5 JUMP JUMPDEST JUMPDEST SWAP3 SWAP2 POP POP JUMP JUMPDEST PUSH1 0x0 PUSH2 0x1513 DUP3 PUSH2 0xD71 JUMP JUMPDEST SWAP2 POP PUSH2 0x151E DUP4 PUSH2 0xD71 JUMP JUMPDEST SWAP3 POP DUP3 DUP3 MUL PUSH2 0x152C DUP2 PUSH2 0xD71 JUMP JUMPDEST SWAP2 POP DUP3 DUP3 DIV DUP5 EQ DUP4 ISZERO OR PUSH2 0x1543 JUMPI PUSH2 0x1542 PUSH2 0x14A5 JUMP JUMPDEST JUMPDEST POP SWAP3 SWAP2 POP POP JUMP JUMPDEST PUSH32 0x4E487B7100000000000000000000000000000000000000000000000000000000 PUSH1 0x0 MSTORE PUSH1 0x12 PUSH1 0x4 MSTORE PUSH1 0x24 PUSH1 0x0 REVERT JUMPDEST PUSH1 0x0 PUSH2 0x1584 DUP3 PUSH2 0xD71 JUMP JUMPDEST SWAP2 POP PUSH2 0x158F DUP4 PUSH2 0xD71 JUMP JUMPDEST SWAP3 POP DUP3 PUSH2 0x159F JUMPI PUSH2 0x159E PUSH2 0x154A JUMP JUMPDEST JUMPDEST DUP3 DUP3 DIV SWAP1 POP SWAP3 SWAP2 POP POP JUMP JUMPDEST PUSH1 0x0 PUSH1 0x20 DUP3 ADD SWAP1 POP PUSH2 0x15BF PUSH1 0x0 DUP4 ADD DUP5 PUSH2 0xEC6 JUMP JUMPDEST SWAP3 SWAP2 POP POP JUMP JUMPDEST PUSH32 0x4E487B7100000000000000000000000000000000000000000000000000000000 PUSH1 0x0 MSTORE PUSH1 0x22 PUSH1 0x4 MSTORE PUSH1 0x24 PUSH1 0x0 REVERT JUMPDEST PUSH1 0x0 PUSH1 0x2 DUP3 DIV SWAP1 POP PUSH1 0x1 DUP3 AND DUP1 PUSH2 0x160C JUMPI PUSH1 0x7F DUP3 AND SWAP2 POP JUMPDEST PUSH1 0x20 DUP3 LT DUP2 SUB PUSH2 0x161F JUMPI PUSH2 0x161E PUSH2 0x15C5 JUMP JUMPDEST JUMPDEST POP SWAP2 SWAP1 POP JUMP JUMPDEST PUSH32 0x4E487B7100000000000000000000000000000000000000000000000000000000 PUSH1 0x0 MSTORE PUSH1 0x32 PUSH1 0x4 MSTORE PUSH1 0x24 PUSH1 0x0 REVERT JUMPDEST PUSH1 0x0 PUSH2 0x165F DUP3 PUSH2 0xD71 JUMP JUMPDEST SWAP2 POP PUSH32 0xFFFFFFFFFFFFFFFFFFFFFFFFFFFFFFFFFFFFFFFFFFFFFFFFFFFFFFFFFFFFFFFF DUP3 SUB PUSH2 0x1691 JUMPI PUSH2 0x1690 PUSH2 0x14A5 JUMP JUMPDEST JUMPDEST PUSH1 0x1 DUP3 ADD SWAP1 POP SWAP2 SWAP1 POP JUMP JUMPDEST PUSH1 0x0 PUSH2 0x16A7 DUP3 PUSH2 0xD71 JUMP JUMPDEST SWAP2 POP PUSH2 0x16B2 DUP4 PUSH2 0xD71 JUMP JUMPDEST SWAP3 POP DUP3 DUP3 SUB SWAP1 POP DUP2 DUP2 GT ISZERO PUSH2 0x16CA JUMPI PUSH2 0x16C9 PUSH2 0x14A5 JUMP JUMPDEST JUMPDEST SWAP3 SWAP2 POP POP JUMP JUMPDEST PUSH32 0x436F6D70616E7920616C72656164792072656769737465726564000000000000 PUSH1 0x0 DUP3 ADD MSTORE POP JUMP JUMPDEST PUSH1 0x0 PUSH2 0x1706 PUSH1 0x1A DUP4 PUSH2 0xE32 JUMP JUMPDEST SWAP2 POP PUSH2 0x1711 DUP3 PUSH2 0x16D0 JUMP JUMPDEST PUSH1 0x20 DUP3 ADD SWAP1 POP SWAP2 SWAP1 POP JUMP JUMPDEST PUSH1 0x0 PUSH1 0x20 DUP3 ADD SWAP1 POP DUP2 DUP2 SUB PUSH1 0x0 DUP4 ADD MSTORE PUSH2 0x1735 DUP2 PUSH2 0x16F9 JUMP JUMPDEST SWAP1 POP SWAP2 SWAP1 POP JUMP JUMPDEST PUSH1 0x0 DUP2 SWAP1 POP DUP2 PUSH1 0x0 MSTORE PUSH1 0x20 PUSH1 0x0 KECCAK256 SWAP1 POP SWAP2 SWAP1 POP JUMP JUMPDEST PUSH1 0x0 PUSH1 0x20 PUSH1 0x1F DUP4 ADD DIV SWAP1 POP SWAP2 SWAP1 POP JUMP JUMPDEST PUSH1 0x0 DUP3 DUP3 SHL SWAP1 POP SWAP3 SWAP2 POP POP JUMP JUMPDEST PUSH1 0x0 PUSH1 0x8 DUP4 MUL PUSH2 0x179E PUSH32 0xFFFFFFFFFFFFFFFFFFFFFFFFFFFFFFFFFFFFFFFFFFFFFFFFFFFFFFFFFFFFFFFF DUP3 PUSH2 0x1761 JUMP JUMPDEST PUSH2 0x17A8 DUP7 DUP4 PUSH2 0x1761 JUMP JUMPDEST SWAP6 POP DUP1 NOT DUP5 AND SWAP4 POP DUP1 DUP7 AND DUP5 OR SWAP3 POP POP POP SWAP4 SWAP3 POP POP POP JUMP JUMPDEST PUSH1 0x0 DUP2 SWAP1 POP SWAP2 SWAP1 POP JUMP JUMPDEST PUSH1 0x0 PUSH2 0x17E5 PUSH2 0x17E0 PUSH2 0x17DB DUP5 PUSH2 0xD71 JUMP JUMPDEST PUSH2 0x17C0 JUMP JUMPDEST PUSH2 0xD71 JUMP JUMPDEST SWAP1 POP SWAP2 SWAP1 POP JUMP JUMPDEST PUSH1 0x0 DUP2 SWAP1 POP SWAP2 SWAP1 POP JUMP JUMPDEST PUSH2 0x17FF DUP4 PUSH2 0x17CA JUMP JUMPDEST PUSH2 0x1813 PUSH2 0x180B DUP3 PUSH2 0x17EC JUMP JUMPDEST DUP5 DUP5 SLOAD PUSH2 0x176E JUMP JUMPDEST DUP3 SSTORE POP POP POP POP JUMP JUMPDEST PUSH1 0x0 SWAP1 JUMP JUMPDEST PUSH2 0x1828 PUSH2 0x181B JUMP JUMPDEST PUSH2 0x1833 DUP2 DUP5 DUP5 PUSH2 0x17F6 JUMP JUMPDEST POP POP POP JUMP JUMPDEST JUMPDEST DUP2 DUP2 LT ISZERO PUSH2 0x1857 JUMPI PUSH2 0x184C PUSH1 0x0 DUP3 PUSH2 0x1820 JUMP JUMPDEST PUSH1 0x1 DUP2 ADD SWAP1 POP PUSH2 0x1839 JUMP JUMPDEST POP POP JUMP JUMPDEST PUSH1 0x1F DUP3 GT ISZERO PUSH2 0x189C JUMPI PUSH2 0x186D DUP2 PUSH2 0x173C JUMP JUMPDEST PUSH2 0x1876 DUP5 PUSH2 0x1751 JUMP JUMPDEST DUP2 ADD PUSH1 0x20 DUP6 LT ISZERO PUSH2 0x1885 JUMPI DUP2 SWAP1 POP JUMPDEST PUSH2 0x1899 PUSH2 0x1891 DUP6 PUSH2 0x1751 JUMP JUMPDEST DUP4 ADD DUP3 PUSH2 0x1838 JUMP JUMPDEST POP POP JUMPDEST POP POP POP JUMP JUMPDEST PUSH1 0x0 DUP3 DUP3 SHR SWAP1 POP SWAP3 SWAP2 POP POP JUMP JUMPDEST PUSH1 0x0 PUSH2 0x18BF PUSH1 0x0 NOT DUP5 PUSH1 0x8 MUL PUSH2 0x18A1 JUMP JUMPDEST NOT DUP1 DUP4 AND SWAP2 POP POP SWAP3 SWAP2 POP POP JUMP JUMPDEST PUSH1 0x0 PUSH2 0x18D8 DUP4 DUP4 PUSH2 0x18AE JUMP JUMPDEST SWAP2 POP DUP3 PUSH1 0x2 MUL DUP3 OR SWAP1 POP SWAP3 SWAP2 POP POP JUMP JUMPDEST PUSH2 0x18F1 DUP3 PUSH2 0xE27 JUMP JUMPDEST PUSH8 0xFFFFFFFFFFFFFFFF DUP2 GT ISZERO PUSH2 0x190A JUMPI PUSH2 0x1909 PUSH2 0x129F JUMP JUMPDEST JUMPDEST PUSH2 0x1914 DUP3 SLOAD PUSH2 0x15F4 JUMP JUMPDEST PUSH2 0x191F DUP3 DUP3 DUP6 PUSH2 0x185B JUMP JUMPDEST PUSH1 0x0 PUSH1 0x20 SWAP1 POP PUSH1 0x1F DUP4 GT PUSH1 0x1 DUP2 EQ PUSH2 0x1952 JUMPI PUSH1 0x0 DUP5 ISZERO PUSH2 0x1940 JUMPI DUP3 DUP8 ADD MLOAD SWAP1 POP JUMPDEST PUSH2 0x194A DUP6 DUP3 PUSH2 0x18CC JUMP JUMPDEST DUP7 SSTORE POP PUSH2 0x19B2 JUMP JUMPDEST PUSH1 0x1F NOT DUP5 AND PUSH2 0x1960 DUP7 PUSH2 0x173C JUMP JUMPDEST PUSH1 0x0 JUMPDEST DUP3 DUP2 LT ISZERO PUSH2 0x1988 JUMPI DUP5 DUP10 ADD MLOAD DUP3 SSTORE PUSH1 0x1 DUP3 ADD SWAP2 POP PUSH1 0x20 DUP6 ADD SWAP5 POP PUSH1 0x20 DUP2 ADD SWAP1 POP PUSH2 0x1963 JUMP JUMPDEST DUP7 DUP4 LT ISZERO PUSH2 0x19A5 JUMPI DUP5 DUP10 ADD MLOAD PUSH2 0x19A1 PUSH1 0x1F DUP10 AND DUP3 PUSH2 0x18AE JUMP JUMPDEST DUP4 SSTORE POP JUMPDEST PUSH1 0x1 PUSH1 0x2 DUP9 MUL ADD DUP9 SSTORE POP POP POP JUMPDEST POP POP POP POP POP POP JUMP JUMPDEST PUSH1 0x0 PUSH1 0x60 DUP3 ADD SWAP1 POP DUP2 DUP2 SUB PUSH1 0x0 DUP4 ADD MSTORE PUSH2 0x19D4 DUP2 DUP7 PUSH2 0xE7E JUMP JUMPDEST SWAP1 POP PUSH2 0x19E3 PUSH1 0x20 DUP4 ADD DUP6 PUSH2 0xEB7 JUMP JUMPDEST PUSH2 0x19F0 PUSH1 0x40 DUP4 ADD DUP5 PUSH2 0xEB7 JUMP JUMPDEST SWAP5 SWAP4 POP POP POP POP JUMP INVALID LOG2 PUSH5 0x6970667358 0x22 SLT KECCAK256 SHL SWAP2 0x5C LT 0xAC 0xC3 0xE7 0xD4 0xDF 0xE2 CREATE2 0xAB PUSH23 0xC85FED3744FBE567F096DE0997419C99BA8C4C64736F6C PUSH4 0x43000814 STOP CALLER "},"methodIdentifiers":{"companies(address)":"355e6ce8","getCompaniesByReputation()":"35d2e6f1","getRegisteredCompanies()":"ce0a8ed5","registerCompany(string,address,address)":"fcc436b1","registeredCompanies(uint256)":"5e96b80d","updateReputation(address,uint256,uint256)":"2c92a969","updateReputationDecrease(address,uint256)":"bc997437"}}}}}