{"contracts/TokenPriceManager.sol":{"TokenPriceManager":{"abi":[{"inputs":[{"internalType":"address","name":"_token","type":"address"},{"internalType":"address","name":"_escrow","type":"address"},{"internalType":"address","name":"_beneficiary","type":"address"},{"internalType":"uint256","name":"_initialPrice","type":"uint256"}],"stateMutability":"nonpayable","type":"constructor"},{"anonymous":false,"inputs":[{"indexed":true,"internalType":"address","name":"beneficiary","type":"address"},{"indexed":false,"internalType":"uint256","name":"amount","type":"uint256"}],"name":"MilestonePayment","type":"event"},{"anonymous":false,"inputs":[{"indexed":false,"internalType":"uint256","name":"newPrice","type":"uint256"}],"name":"PriceUpdated","type":"event"},{"inputs":[],"name":"beneficiary","outputs":[{"internalType":"address","name":"","type":"address"}],"stateMutability":"view","type":"function"},{"inputs":[],"name":"escrow","outputs":[{"internalType":"contract EscrowWallet","name":"","type":"address"}],"stateMutability":"view","type":"function"},{"inputs":[],"name":"getTokenPrice","outputs":[{"internalType":"uint256","name":"","type":"uint256"}],"stateMutability":"view","type":"function"},{"inputs":[],"name":"initialTokenPrice","outputs":[{"internalType":"uint256","name":"","type":"uint256"}],"stateMutability":"view","type":"function"},{"inputs":[],"name":"token","outputs":[{"internalType":"contract IERC20","name":"","type":"address"}],"stateMutability":"view","type":"function"},{"inputs":[],"name":"tokenPrice","outputs":[{"internalType":"uint256","name":"","type":"uint256"}],"stateMutability":"view","type":"function"},{"inputs":[],"name":"totalDeposited","outputs":[{"internalType":"uint256","name":"","type":"uint256"}],"stateMutability":"view","type":"function"},{"inputs":[{"internalType":"uint256","name":"amountDeposited","type":"uint256"}],"name":"updatePriceOnDeposit","outputs":[],"stateMutability":"nonpayable","type":"function"},{"inputs":[{"internalType":"uint256","name":"amountWithdrawn","type":"uint256"}],"name":"updatePriceOnWithdrawal","outputs":[],"stateMutability":"nonpayable","type":"function"}],"evm":{"bytecode":{"linkReferences":{},"object":"60806040523480156200001157600080fd5b5060405162000bed38038062000bed8339818101604052810190620000379190620001b6565b836000806101000a81548173ffffffffffffffffffffffffffffffffffffffff021916908373ffffffffffffffffffffffffffffffffffffffff16021790555082600160006101000a81548173ffffffffffffffffffffffffffffffffffffffff021916908373ffffffffffffffffffffffffffffffffffffffff16021790555081600260006101000a81548173ffffffffffffffffffffffffffffffffffffffff021916908373ffffffffffffffffffffffffffffffffffffffff16021790555080600381905550806004819055505050505062000228565b600080fd5b600073ffffffffffffffffffffffffffffffffffffffff82169050919050565b6000620001438262000116565b9050919050565b620001558162000136565b81146200016157600080fd5b50565b60008151905062000175816200014a565b92915050565b6000819050919050565b62000190816200017b565b81146200019c57600080fd5b50565b600081519050620001b08162000185565b92915050565b60008060008060808587031215620001d357620001d262000111565b5b6000620001e38782880162000164565b9450506020620001f68782880162000164565b9350506040620002098782880162000164565b92505060606200021c878288016200019f565b91505092959194509250565b6109b580620002386000396000f3fe608060405234801561001057600080fd5b50600436106100935760003560e01c8063700c877b11610066578063700c877b1461010e5780637ff9b5961461012a578063e2fdcc1714610148578063fc0c546a14610166578063ff50abdc1461018457610093565b80632ca0228a1461009857806333ceab93146100b657806338af3eed146100d25780634b94f50e146100f0575b600080fd5b6100a06101a2565b6040516100ad91906105fc565b60405180910390f35b6100d060048036038101906100cb9190610648565b6101a8565b005b6100da6103ee565b6040516100e791906106b6565b60405180910390f35b6100f8610414565b60405161010591906105fc565b60405180910390f35b61012860048036038101906101239190610648565b61041e565b005b61013261058d565b60405161013f91906105fc565b60405180910390f35b610150610593565b60405161015d9190610730565b60405180910390f35b61016e6105b9565b60405161017b919061076c565b60405180910390f35b61018c6105dd565b60405161019991906105fc565b60405180910390f35b60045481565b80600560008282546101ba91906107b6565b9250508190555060008060009054906101000a900473ffffffffffffffffffffffffffffffffffffffff1673ffffffffffffffffffffffffffffffffffffffff166318160ddd6040518163ffffffff1660e01b8152600401602060405180830381865afa15801561022f573d6000803e3d6000fd5b505050506040513d601f19601f8201168201806040525081019061025391906107ff565b9050600a81670de0b6b3a764000060055461026e919061082c565b610278919061089d565b610282919061089d565b60045461028f91906107b6565b6003819055507f66cbca4f3c64fecf1dcb9ce094abcf7f68c3450a1d4e3a8e917dd621edb4ebe06003546040516102c691906105fc565b60405180910390a16000600a600b6004546102e1919061082c565b6102eb919061089d565b905080600354106103e9576000600a84610305919061089d565b9050600260009054906101000a900473ffffffffffffffffffffffffffffffffffffffff1673ffffffffffffffffffffffffffffffffffffffff166108fc829081150290604051600060405180830381858888f1935050505015801561036f573d6000803e3d6000fd5b50600260009054906101000a900473ffffffffffffffffffffffffffffffffffffffff1673ffffffffffffffffffffffffffffffffffffffff167fe55ff739743b681568df2ddb431c4110cef072d9a355c3088b4b6bd3275b79b4826040516103d891906105fc565b60405180910390a281600481905550505b505050565b600260009054906101000a900473ffffffffffffffffffffffffffffffffffffffff1681565b6000600354905090565b806005541015610463576040517f08c379a000000000000000000000000000000000000000000000000000000000815260040161045a9061092b565b60405180910390fd5b8060056000828254610475919061094b565b9250508190555060008060009054906101000a900473ffffffffffffffffffffffffffffffffffffffff1673ffffffffffffffffffffffffffffffffffffffff166318160ddd6040518163ffffffff1660e01b8152600401602060405180830381865afa1580156104ea573d6000803e3d6000fd5b505050506040513d601f19601f8201168201806040525081019061050e91906107ff565b9050600a81670de0b6b3a7640000600554610529919061082c565b610533919061089d565b61053d919061089d565b60045461054a919061094b565b6003819055507f66cbca4f3c64fecf1dcb9ce094abcf7f68c3450a1d4e3a8e917dd621edb4ebe060035460405161058191906105fc565b60405180910390a15050565b60035481565b600160009054906101000a900473ffffffffffffffffffffffffffffffffffffffff1681565b60008054906101000a900473ffffffffffffffffffffffffffffffffffffffff1681565b60055481565b6000819050919050565b6105f6816105e3565b82525050565b600060208201905061061160008301846105ed565b92915050565b600080fd5b610625816105e3565b811461063057600080fd5b50565b6000813590506106428161061c565b92915050565b60006020828403121561065e5761065d610617565b5b600061066c84828501610633565b91505092915050565b600073ffffffffffffffffffffffffffffffffffffffff82169050919050565b60006106a082610675565b9050919050565b6106b081610695565b82525050565b60006020820190506106cb60008301846106a7565b92915050565b6000819050919050565b60006106f66106f16106ec84610675565b6106d1565b610675565b9050919050565b6000610708826106db565b9050919050565b600061071a826106fd565b9050919050565b61072a8161070f565b82525050565b60006020820190506107456000830184610721565b92915050565b6000610756826106fd565b9050919050565b6107668161074b565b82525050565b6000602082019050610781600083018461075d565b92915050565b7f4e487b7100000000000000000000000000000000000000000000000000000000600052601160045260246000fd5b60006107c1826105e3565b91506107cc836105e3565b92508282019050808211156107e4576107e3610787565b5b92915050565b6000815190506107f98161061c565b92915050565b60006020828403121561081557610814610617565b5b6000610823848285016107ea565b91505092915050565b6000610837826105e3565b9150610842836105e3565b9250828202610850816105e3565b9150828204841483151761086757610866610787565b5b5092915050565b7f4e487b7100000000000000000000000000000000000000000000000000000000600052601260045260246000fd5b60006108a8826105e3565b91506108b3836105e3565b9250826108c3576108c261086e565b5b828204905092915050565b600082825260208201905092915050565b7f5769746864726177616c2065786365656473206465706f736974730000000000600082015250565b6000610915601b836108ce565b9150610920826108df565b602082019050919050565b6000602082019050818103600083015261094481610908565b9050919050565b6000610956826105e3565b9150610961836105e3565b925082820390508181111561097957610978610787565b5b9291505056fea2646970667358221220a0fe39f64d60371f68b0fc477b61aa9265a4e945fcc4ff629dacabad31bbcd6764736f6c63430008140033","opcodes":"PUSH1 0x80 PUSH1 0x40 MSTORE CALLVALUE DUP1 ISZERO PUSH3 0x11 JUMPI PUSH1 0x0 DUP1 REVERT JUMPDEST POP PUSH1 0x40 MLOAD PUSH3 0xBED CODESIZE SUB DUP1 PUSH3 0xBED DUP4 CODECOPY DUP2 DUP2 ADD PUSH1 0x40 MSTORE DUP2 ADD SWAP1 PUSH3 0x37 SWAP2 SWAP1 PUSH3 0x1B6 JUMP JUMPDEST DUP4 PUSH1 0x0 DUP1 PUSH2 0x100 EXP DUP2 SLOAD DUP2 PUSH20 0xFFFFFFFFFFFFFFFFFFFFFFFFFFFFFFFFFFFFFFFF MUL NOT AND SWAP1 DUP4 PUSH20 0xFFFFFFFFFFFFFFFFFFFFFFFFFFFFFFFFFFFFFFFF AND MUL OR SWAP1 SSTORE POP DUP3 PUSH1 0x1 PUSH1 0x0 PUSH2 0x100 EXP DUP2 SLOAD DUP2 PUSH20 0xFFFFFFFFFFFFFFFFFFFFFFFFFFFFFFFFFFFFFFFF MUL NOT AND SWAP1 DUP4 PUSH20 0xFFFFFFFFFFFFFFFFFFFFFFFFFFFFFFFFFFFFFFFF AND MUL OR SWAP1 SSTORE POP DUP2 PUSH1 0x2 PUSH1 0x0 PUSH2 0x100 EXP DUP2 SLOAD DUP2 PUSH20 0xFFFFFFFFFFFFFFFFFFFFFFFFFFFFFFFFFFFFFFFF MUL NOT AND SWAP1 DUP4 PUSH20 0xFFFFFFFFFFFFFFFFFFFFFFFFFFFFFFFFFFFFFFFF AND MUL OR SWAP1 SSTORE POP DUP1 PUSH1 0x3 DUP2 SWAP1 SSTORE POP DUP1 PUSH1 0x4 DUP2 SWAP1 SSTORE POP POP POP POP POP PUSH3 0x228 JUMP JUMPDEST PUSH1 0x0 DUP1 REVERT JUMPDEST PUSH1 0x0 PUSH20 0xFFFFFFFFFFFFFFFFFFFFFFFFFFFFFFFFFFFFFFFF DUP3 AND SWAP1 POP SWAP2 SWAP1 POP JUMP JUMPDEST PUSH1 0x0 PUSH3 0x143 DUP3 PUSH3 0x116 JUMP JUMPDEST SWAP1 POP SWAP2 SWAP1 POP JUMP JUMPDEST PUSH3 0x155 DUP2 PUSH3 0x136 JUMP JUMPDEST DUP2 EQ PUSH3 0x161 JUMPI PUSH1 0x0 DUP1 REVERT JUMPDEST POP JUMP JUMPDEST PUSH1 0x0 DUP2 MLOAD SWAP1 POP PUSH3 0x175 DUP2 PUSH3 0x14A JUMP JUMPDEST SWAP3 SWAP2 POP POP JUMP JUMPDEST PUSH1 0x0 DUP2 SWAP1 POP SWAP2 SWAP1 POP JUMP JUMPDEST PUSH3 0x190 DUP2 PUSH3 0x17B JUMP JUMPDEST DUP2 EQ PUSH3 0x19C JUMPI PUSH1 0x0 DUP1 REVERT JUMPDEST POP JUMP JUMPDEST PUSH1 0x0 DUP2 MLOAD SWAP1 POP PUSH3 0x1B0 DUP2 PUSH3 0x185 JUMP JUMPDEST SWAP3 SWAP2 POP POP JUMP JUMPDEST PUSH1 0x0 DUP1 PUSH1 0x0 DUP1 PUSH1 0x80 DUP6 DUP8 SUB SLT ISZERO PUSH3 0x1D3 JUMPI PUSH3 0x1D2 PUSH3 0x111 JUMP JUMPDEST JUMPDEST PUSH1 0x0 PUSH3 0x1E3 DUP8 DUP3 DUP9 ADD PUSH3 0x164 JUMP JUMPDEST SWAP5 POP POP PUSH1 0x20 PUSH3 0x1F6 DUP8 DUP3 DUP9 ADD PUSH3 0x164 JUMP JUMPDEST SWAP4 POP POP PUSH1 0x40 PUSH3 0x209 DUP8 DUP3 DUP9 ADD PUSH3 0x164 JUMP JUMPDEST SWAP3 POP POP PUSH1 0x60 PUSH3 0x21C DUP8 DUP3 DUP9 ADD PUSH3 0x19F JUMP JUMPDEST SWAP2 POP POP SWAP3 SWAP6 SWAP2 SWAP5 POP SWAP3 POP JUMP JUMPDEST PUSH2 0x9B5 DUP1 PUSH3 0x238 PUSH1 0x0 CODECOPY PUSH1 0x0 RETURN INVALID PUSH1 0x80 PUSH1 0x40 MSTORE CALLVALUE DUP1 ISZERO PUSH2 0x10 JUMPI PUSH1 0x0 DUP1 REVERT JUMPDEST POP PUSH1 0x4 CALLDATASIZE LT PUSH2 0x93 JUMPI PUSH1 0x0 CALLDATALOAD PUSH1 0xE0 SHR DUP1 PUSH4 0x700C877B GT PUSH2 0x66 JUMPI DUP1 PUSH4 0x700C877B EQ PUSH2 0x10E JUMPI DUP1 PUSH4 0x7FF9B596 EQ PUSH2 0x12A JUMPI DUP1 PUSH4 0xE2FDCC17 EQ PUSH2 0x148 JUMPI DUP1 PUSH4 0xFC0C546A EQ PUSH2 0x166 JUMPI DUP1 PUSH4 0xFF50ABDC EQ PUSH2 0x184 JUMPI PUSH2 0x93 JUMP JUMPDEST DUP1 PUSH4 0x2CA0228A EQ PUSH2 0x98 JUMPI DUP1 PUSH4 0x33CEAB93 EQ PUSH2 0xB6 JUMPI DUP1 PUSH4 0x38AF3EED EQ PUSH2 0xD2 JUMPI DUP1 PUSH4 0x4B94F50E EQ PUSH2 0xF0 JUMPI JUMPDEST PUSH1 0x0 DUP1 REVERT JUMPDEST PUSH2 0xA0 PUSH2 0x1A2 JUMP JUMPDEST PUSH1 0x40 MLOAD PUSH2 0xAD SWAP2 SWAP1 PUSH2 0x5FC JUMP JUMPDEST PUSH1 0x40 MLOAD DUP1 SWAP2 SUB SWAP1 RETURN JUMPDEST PUSH2 0xD0 PUSH1 0x4 DUP1 CALLDATASIZE SUB DUP2 ADD SWAP1 PUSH2 0xCB SWAP2 SWAP1 PUSH2 0x648 JUMP JUMPDEST PUSH2 0x1A8 JUMP JUMPDEST STOP JUMPDEST PUSH2 0xDA PUSH2 0x3EE JUMP JUMPDEST PUSH1 0x40 MLOAD PUSH2 0xE7 SWAP2 SWAP1 PUSH2 0x6B6 JUMP JUMPDEST PUSH1 0x40 MLOAD DUP1 SWAP2 SUB SWAP1 RETURN JUMPDEST PUSH2 0xF8 PUSH2 0x414 JUMP JUMPDEST PUSH1 0x40 MLOAD PUSH2 0x105 SWAP2 SWAP1 PUSH2 0x5FC JUMP JUMPDEST PUSH1 0x40 MLOAD DUP1 SWAP2 SUB SWAP1 RETURN JUMPDEST PUSH2 0x128 PUSH1 0x4 DUP1 CALLDATASIZE SUB DUP2 ADD SWAP1 PUSH2 0x123 SWAP2 SWAP1 PUSH2 0x648 JUMP JUMPDEST PUSH2 0x41E JUMP JUMPDEST STOP JUMPDEST PUSH2 0x132 PUSH2 0x58D JUMP JUMPDEST PUSH1 0x40 MLOAD PUSH2 0x13F SWAP2 SWAP1 PUSH2 0x5FC JUMP JUMPDEST PUSH1 0x40 MLOAD DUP1 SWAP2 SUB SWAP1 RETURN JUMPDEST PUSH2 0x150 PUSH2 0x593 JUMP JUMPDEST PUSH1 0x40 MLOAD PUSH2 0x15D SWAP2 SWAP1 PUSH2 0x730 JUMP JUMPDEST PUSH1 0x40 MLOAD DUP1 SWAP2 SUB SWAP1 RETURN JUMPDEST PUSH2 0x16E PUSH2 0x5B9 JUMP JUMPDEST PUSH1 0x40 MLOAD PUSH2 0x17B SWAP2 SWAP1 PUSH2 0x76C JUMP JUMPDEST PUSH1 0x40 MLOAD DUP1 SWAP2 SUB SWAP1 RETURN JUMPDEST PUSH2 0x18C PUSH2 0x5DD JUMP JUMPDEST PUSH1 0x40 MLOAD PUSH2 0x199 SWAP2 SWAP1 PUSH2 0x5FC JUMP JUMPDEST PUSH1 0x40 MLOAD DUP1 SWAP2 SUB SWAP1 RETURN JUMPDEST PUSH1 0x4 SLOAD DUP2 JUMP JUMPDEST DUP1 PUSH1 0x5 PUSH1 0x0 DUP3 DUP3 SLOAD PUSH2 0x1BA SWAP2 SWAP1 PUSH2 0x7B6 JUMP JUMPDEST SWAP3 POP POP DUP2 SWAP1 SSTORE POP PUSH1 0x0 DUP1 PUSH1 0x0 SWAP1 SLOAD SWAP1 PUSH2 0x100 EXP SWAP1 DIV PUSH20 0xFFFFFFFFFFFFFFFFFFFFFFFFFFFFFFFFFFFFFFFF AND PUSH20 0xFFFFFFFFFFFFFFFFFFFFFFFFFFFFFFFFFFFFFFFF AND PUSH4 0x18160DDD PUSH1 0x40 MLOAD DUP2 PUSH4 0xFFFFFFFF AND PUSH1 0xE0 SHL DUP2 MSTORE PUSH1 0x4 ADD PUSH1 0x20 PUSH1 0x40 MLOAD DUP1 DUP4 SUB DUP2 DUP7 GAS STATICCALL ISZERO DUP1 ISZERO PUSH2 0x22F JUMPI RETURNDATASIZE PUSH1 0x0 DUP1 RETURNDATACOPY RETURNDATASIZE PUSH1 0x0 REVERT JUMPDEST POP POP POP POP PUSH1 0x40 MLOAD RETURNDATASIZE PUSH1 0x1F NOT PUSH1 0x1F DUP3 ADD AND DUP3 ADD DUP1 PUSH1 0x40 MSTORE POP DUP2 ADD SWAP1 PUSH2 0x253 SWAP2 SWAP1 PUSH2 0x7FF JUMP JUMPDEST SWAP1 POP PUSH1 0xA DUP2 PUSH8 0xDE0B6B3A7640000 PUSH1 0x5 SLOAD PUSH2 0x26E SWAP2 SWAP1 PUSH2 0x82C JUMP JUMPDEST PUSH2 0x278 SWAP2 SWAP1 PUSH2 0x89D JUMP JUMPDEST PUSH2 0x282 SWAP2 SWAP1 PUSH2 0x89D JUMP JUMPDEST PUSH1 0x4 SLOAD PUSH2 0x28F SWAP2 SWAP1 PUSH2 0x7B6 JUMP JUMPDEST PUSH1 0x3 DUP2 SWAP1 SSTORE POP PUSH32 0x66CBCA4F3C64FECF1DCB9CE094ABCF7F68C3450A1D4E3A8E917DD621EDB4EBE0 PUSH1 0x3 SLOAD PUSH1 0x40 MLOAD PUSH2 0x2C6 SWAP2 SWAP1 PUSH2 0x5FC JUMP JUMPDEST PUSH1 0x40 MLOAD DUP1 SWAP2 SUB SWAP1 LOG1 PUSH1 0x0 PUSH1 0xA PUSH1 0xB PUSH1 0x4 SLOAD PUSH2 0x2E1 SWAP2 SWAP1 PUSH2 0x82C JUMP JUMPDEST PUSH2 0x2EB SWAP2 SWAP1 PUSH2 0x89D JUMP JUMPDEST SWAP1 POP DUP1 PUSH1 0x3 SLOAD LT PUSH2 0x3E9 JUMPI PUSH1 0x0 PUSH1 0xA DUP5 PUSH2 0x305 SWAP2 SWAP1 PUSH2 0x89D JUMP JUMPDEST SWAP1 POP PUSH1 0x2 PUSH1 0x0 SWAP1 SLOAD SWAP1 PUSH2 0x100 EXP SWAP1 DIV PUSH20 0xFFFFFFFFFFFFFFFFFFFFFFFFFFFFFFFFFFFFFFFF AND PUSH20 0xFFFFFFFFFFFFFFFFFFFFFFFFFFFFFFFFFFFFFFFF AND PUSH2 0x8FC DUP3 SWAP1 DUP2 ISZERO MUL SWAP1 PUSH1 0x40 MLOAD PUSH1 0x0 PUSH1 0x40 MLOAD DUP1 DUP4 SUB DUP2 DUP6 DUP9 DUP9 CALL SWAP4 POP POP POP POP ISZERO DUP1 ISZERO PUSH2 0x36F JUMPI RETURNDATASIZE PUSH1 0x0 DUP1 RETURNDATACOPY RETURNDATASIZE PUSH1 0x0 REVERT JUMPDEST POP PUSH1 0x2 PUSH1 0x0 SWAP1 SLOAD SWAP1 PUSH2 0x100 EXP SWAP1 DIV PUSH20 0xFFFFFFFFFFFFFFFFFFFFFFFFFFFFFFFFFFFFFFFF AND PUSH20 0xFFFFFFFFFFFFFFFFFFFFFFFFFFFFFFFFFFFFFFFF AND PUSH32 0xE55FF739743B681568DF2DDB431C4110CEF072D9A355C3088B4B6BD3275B79B4 DUP3 PUSH1 0x40 MLOAD PUSH2 0x3D8 SWAP2 SWAP1 PUSH2 0x5FC JUMP JUMPDEST PUSH1 0x40 MLOAD DUP1 SWAP2 SUB SWAP1 LOG2 DUP2 PUSH1 0x4 DUP2 SWAP1 SSTORE POP POP JUMPDEST POP POP POP JUMP JUMPDEST PUSH1 0x2 PUSH1 0x0 SWAP1 SLOAD SWAP1 PUSH2 0x100 EXP SWAP1 DIV PUSH20 0xFFFFFFFFFFFFFFFFFFFFFFFFFFFFFFFFFFFFFFFF AND DUP2 JUMP JUMPDEST PUSH1 0x0 PUSH1 0x3 SLOAD SWAP1 POP SWAP1 JUMP JUMPDEST DUP1 PUSH1 0x5 SLOAD LT ISZERO PUSH2 0x463 JUMPI PUSH1 0x40 MLOAD PUSH32 0x8C379A000000000000000000000000000000000000000000000000000000000 DUP2 MSTORE PUSH1 0x4 ADD PUSH2 0x45A SWAP1 PUSH2 0x92B JUMP JUMPDEST PUSH1 0x40 MLOAD DUP1 SWAP2 SUB SWAP1 REVERT JUMPDEST DUP1 PUSH1 0x5 PUSH1 0x0 DUP3 DUP3 SLOAD PUSH2 0x475 SWAP2 SWAP1 PUSH2 0x94B JUMP JUMPDEST SWAP3 POP POP DUP2 SWAP1 SSTORE POP PUSH1 0x0 DUP1 PUSH1 0x0 SWAP1 SLOAD SWAP1 PUSH2 0x100 EXP SWAP1 DIV PUSH20 0xFFFFFFFFFFFFFFFFFFFFFFFFFFFFFFFFFFFFFFFF AND PUSH20 0xFFFFFFFFFFFFFFFFFFFFFFFFFFFFFFFFFFFFFFFF AND PUSH4 0x18160DDD PUSH1 0x40 MLOAD DUP2 PUSH4 0xFFFFFFFF AND PUSH1 0xE0 SHL DUP2 MSTORE PUSH1 0x4 ADD PUSH1 0x20 PUSH1 0x40 MLOAD DUP1 DUP4 SUB DUP2 DUP7 GAS STATICCALL ISZERO DUP1 ISZERO PUSH2 0x4EA JUMPI RETURNDATASIZE PUSH1 0x0 DUP1 RETURNDATACOPY RETURNDATASIZE PUSH1 0x0 REVERT JUMPDEST POP POP POP POP PUSH1 0x40 MLOAD RETURNDATASIZE PUSH1 0x1F NOT PUSH1 0x1F DUP3 ADD AND DUP3 ADD DUP1 PUSH1 0x40 MSTORE POP DUP2 ADD SWAP1 PUSH2 0x50E SWAP2 SWAP1 PUSH2 0x7FF JUMP JUMPDEST SWAP1 POP PUSH1 0xA DUP2 PUSH8 0xDE0B6B3A7640000 PUSH1 0x5 SLOAD PUSH2 0x529 SWAP2 SWAP1 PUSH2 0x82C JUMP JUMPDEST PUSH2 0x533 SWAP2 SWAP1 PUSH2 0x89D JUMP JUMPDEST PUSH2 0x53D SWAP2 SWAP1 PUSH2 0x89D JUMP JUMPDEST PUSH1 0x4 SLOAD PUSH2 0x54A SWAP2 SWAP1 PUSH2 0x94B JUMP JUMPDEST PUSH1 0x3 DUP2 SWAP1 SSTORE POP PUSH32 0x66CBCA4F3C64FECF1DCB9CE094ABCF7F68C3450A1D4E3A8E917DD621EDB4EBE0 PUSH1 0x3 SLOAD PUSH1 0x40 MLOAD PUSH2 0x581 SWAP2 SWAP1 PUSH2 0x5FC JUMP JUMPDEST PUSH1 0x40 MLOAD DUP1 SWAP2 SUB SWAP1 LOG1 POP POP JUMP JUMPDEST PUSH1 0x3 SLOAD DUP2 JUMP JUMPDEST PUSH1 0x1 PUSH1 0x0 SWAP1 SLOAD SWAP1 PUSH2 0x100 EXP SWAP1 DIV PUSH20 0xFFFFFFFFFFFFFFFFFFFFFFFFFFFFFFFFFFFFFFFF AND DUP2 JUMP JUMPDEST PUSH1 0x0 DUP1 SLOAD SWAP1 PUSH2 0x100 EXP SWAP1 DIV PUSH20 0xFFFFFFFFFFFFFFFFFFFFFFFFFFFFFFFFFFFFFFFF AND DUP2 JUMP JUMPDEST PUSH1 0x5 SLOAD DUP2 JUMP JUMPDEST PUSH1 0x0 DUP2 SWAP1 POP SWAP2 SWAP1 POP JUMP JUMPDEST PUSH2 0x5F6 DUP2 PUSH2 0x5E3 JUMP JUMPDEST DUP3 MSTORE POP POP JUMP JUMPDEST PUSH1 0x0 PUSH1 0x20 DUP3 ADD SWAP1 POP PUSH2 0x611 PUSH1 0x0 DUP4 ADD DUP5 PUSH2 0x5ED JUMP JUMPDEST SWAP3 SWAP2 POP POP JUMP JUMPDEST PUSH1 0x0 DUP1 REVERT JUMPDEST PUSH2 0x625 DUP2 PUSH2 0x5E3 JUMP JUMPDEST DUP2 EQ PUSH2 0x630 JUMPI PUSH1 0x0 DUP1 REVERT JUMPDEST POP JUMP JUMPDEST PUSH1 0x0 DUP2 CALLDATALOAD SWAP1 POP PUSH2 0x642 DUP2 PUSH2 0x61C JUMP JUMPDEST SWAP3 SWAP2 POP POP JUMP JUMPDEST PUSH1 0x0 PUSH1 0x20 DUP3 DUP5 SUB SLT ISZERO PUSH2 0x65E JUMPI PUSH2 0x65D PUSH2 0x617 JUMP JUMPDEST JUMPDEST PUSH1 0x0 PUSH2 0x66C DUP5 DUP3 DUP6 ADD PUSH2 0x633 JUMP JUMPDEST SWAP2 POP POP SWAP3 SWAP2 POP POP JUMP JUMPDEST PUSH1 0x0 PUSH20 0xFFFFFFFFFFFFFFFFFFFFFFFFFFFFFFFFFFFFFFFF DUP3 AND SWAP1 POP SWAP2 SWAP1 POP JUMP JUMPDEST PUSH1 0x0 PUSH2 0x6A0 DUP3 PUSH2 0x675 JUMP JUMPDEST SWAP1 POP SWAP2 SWAP1 POP JUMP JUMPDEST PUSH2 0x6B0 DUP2 PUSH2 0x695 JUMP JUMPDEST DUP3 MSTORE POP POP JUMP JUMPDEST PUSH1 0x0 PUSH1 0x20 DUP3 ADD SWAP1 POP PUSH2 0x6CB PUSH1 0x0 DUP4 ADD DUP5 PUSH2 0x6A7 JUMP JUMPDEST SWAP3 SWAP2 POP POP JUMP JUMPDEST PUSH1 0x0 DUP2 SWAP1 POP SWAP2 SWAP1 POP JUMP JUMPDEST PUSH1 0x0 PUSH2 0x6F6 PUSH2 0x6F1 PUSH2 0x6EC DUP5 PUSH2 0x675 JUMP JUMPDEST PUSH2 0x6D1 JUMP JUMPDEST PUSH2 0x675 JUMP JUMPDEST SWAP1 POP SWAP2 SWAP1 POP JUMP JUMPDEST PUSH1 0x0 PUSH2 0x708 DUP3 PUSH2 0x6DB JUMP JUMPDEST SWAP1 POP SWAP2 SWAP1 POP JUMP JUMPDEST PUSH1 0x0 PUSH2 0x71A DUP3 PUSH2 0x6FD JUMP JUMPDEST SWAP1 POP SWAP2 SWAP1 POP JUMP JUMPDEST PUSH2 0x72A DUP2 PUSH2 0x70F JUMP JUMPDEST DUP3 MSTORE POP POP JUMP JUMPDEST PUSH1 0x0 PUSH1 0x20 DUP3 ADD SWAP1 POP PUSH2 0x745 PUSH1 0x0 DUP4 ADD DUP5 PUSH2 0x721 JUMP JUMPDEST SWAP3 SWAP2 POP POP JUMP JUMPDEST PUSH1 0x0 PUSH2 0x756 DUP3 PUSH2 0x6FD JUMP JUMPDEST SWAP1 POP SWAP2 SWAP1 POP JUMP JUMPDEST PUSH2 0x766 DUP2 PUSH2 0x74B JUMP JUMPDEST DUP3 MSTORE POP POP JUMP JUMPDEST PUSH1 0x0 PUSH1 0x20 DUP3 ADD SWAP1 POP PUSH2 0x781 PUSH1 0x0 DUP4 ADD DUP5 PUSH2 0x75D JUMP JUMPDEST SWAP3 SWAP2 POP POP JUMP JUMPDEST PUSH32 0x4E487B7100000000000000000000000000000000000000000000000000000000 PUSH1 0x0 MSTORE PUSH1 0x11 PUSH1 0x4 MSTORE PUSH1 0x24 PUSH1 0x0 REVERT JUMPDEST PUSH1 0x0 PUSH2 0x7C1 DUP3 PUSH2 0x5E3 JUMP JUMPDEST SWAP2 POP PUSH2 0x7CC DUP4 PUSH2 0x5E3 JUMP JUMPDEST SWAP3 POP DUP3 DUP3 ADD SWAP1 POP DUP1 DUP3 GT ISZERO PUSH2 0x7E4 JUMPI PUSH2 0x7E3 PUSH2 0x787 JUMP JUMPDEST JUMPDEST SWAP3 SWAP2 POP POP JUMP JUMPDEST PUSH1 0x0 DUP2 MLOAD SWAP1 POP PUSH2 0x7F9 DUP2 PUSH2 0x61C JUMP JUMPDEST SWAP3 SWAP2 POP POP JUMP JUMPDEST PUSH1 0x0 PUSH1 0x20 DUP3 DUP5 SUB SLT ISZERO PUSH2 0x815 JUMPI PUSH2 0x814 PUSH2 0x617 JUMP JUMPDEST JUMPDEST PUSH1 0x0 PUSH2 0x823 DUP5 DUP3 DUP6 ADD PUSH2 0x7EA JUMP JUMPDEST SWAP2 POP POP SWAP3 SWAP2 POP POP JUMP JUMPDEST PUSH1 0x0 PUSH2 0x837 DUP3 PUSH2 0x5E3 JUMP JUMPDEST SWAP2 POP PUSH2 0x842 DUP4 PUSH2 0x5E3 JUMP JUMPDEST SWAP3 POP DUP3 DUP3 MUL PUSH2 0x850 DUP2 PUSH2 0x5E3 JUMP JUMPDEST SWAP2 POP DUP3 DUP3 DIV DUP5 EQ DUP4 ISZERO OR PUSH2 0x867 JUMPI PUSH2 0x866 PUSH2 0x787 JUMP JUMPDEST JUMPDEST POP SWAP3 SWAP2 POP POP JUMP JUMPDEST PUSH32 0x4E487B7100000000000000000000000000000000000000000000000000000000 PUSH1 0x0 MSTORE PUSH1 0x12 PUSH1 0x4 MSTORE PUSH1 0x24 PUSH1 0x0 REVERT JUMPDEST PUSH1 0x0 PUSH2 0x8A8 DUP3 PUSH2 0x5E3 JUMP JUMPDEST SWAP2 POP PUSH2 0x8B3 DUP4 PUSH2 0x5E3 JUMP JUMPDEST SWAP3 POP DUP3 PUSH2 0x8C3 JUMPI PUSH2 0x8C2 PUSH2 0x86E JUMP JUMPDEST JUMPDEST DUP3 DUP3 DIV SWAP1 POP SWAP3 SWAP2 POP POP JUMP JUMPDEST PUSH1 0x0 DUP3 DUP3 MSTORE PUSH1 0x20 DUP3 ADD SWAP1 POP SWAP3 SWAP2 POP POP JUMP JUMPDEST PUSH32 0x5769746864726177616C2065786365656473206465706F736974730000000000 PUSH1 0x0 DUP3 ADD MSTORE POP JUMP JUMPDEST PUSH1 0x0 PUSH2 0x915 PUSH1 0x1B DUP4 PUSH2 0x8CE JUMP JUMPDEST SWAP2 POP PUSH2 0x920 DUP3 PUSH2 0x8DF JUMP JUMPDEST PUSH1 0x20 DUP3 ADD SWAP1 POP SWAP2 SWAP1 POP JUMP JUMPDEST PUSH1 0x0 PUSH1 0x20 DUP3 ADD SWAP1 POP DUP2 DUP2 SUB PUSH1 0x0 DUP4 ADD MSTORE PUSH2 0x944 DUP2 PUSH2 0x908 JUMP JUMPDEST SWAP1 POP SWAP2 SWAP1 POP JUMP JUMPDEST PUSH1 0x0 PUSH2 0x956 DUP3 PUSH2 0x5E3 JUMP JUMPDEST SWAP2 POP PUSH2 0x961 DUP4 PUSH2 0x5E3 JUMP JUMPDEST SWAP3 POP DUP3 DUP3 SUB SWAP1 POP DUP2 DUP2 GT ISZERO PUSH2 0x979 JUMPI PUSH2 0x978 PUSH2 0x787 JUMP JUMPDEST JUMPDEST SWAP3 SWAP2 POP POP JUMP INVALID LOG2 PUSH5 0x6970667358 0x22 SLT KECCAK256 LOG0 INVALID CODECOPY 0xF6 0x4D PUSH1 0x37 0x1F PUSH9 0xB0FC477B61AA9265A4 0xE9 GASLIMIT 0xFC 0xC4 SELFDESTRUCT PUSH3 0x9DACAB 0xAD BALANCE 0xBB 0xCD PUSH8 0x64736F6C63430008 EQ STOP CALLER "},"methodIdentifiers":{"beneficiary()":"38af3eed","escrow()":"e2fdcc17","getTokenPrice()":"4b94f50e","initialTokenPrice()":"2ca0228a","token()":"fc0c546a","tokenPrice()":"7ff9b596","totalDeposited()":"ff50abdc","updatePriceOnDeposit(uint256)":"33ceab93","updatePriceOnWithdrawal(uint256)":"700c877b"}}}}}