{"contracts/CompanyRegistry.sol":{"CompanyRegistry":{"abi":[{"anonymous":false,"inputs":[{"indexed":false,"internalType":"string","name":"name","type":"string"},{"indexed":false,"internalType":"address","name":"escrowAddress","type":"address"},{"indexed":false,"internalType":"address","name":"tokenAddress","type":"address"}],"name":"CompanyRegistered","type":"event"},{"anonymous":false,"inputs":[{"indexed":true,"internalType":"address","name":"escrowAddress","type":"address"},{"indexed":false,"internalType":"uint256","name":"reputationScore","type":"uint256"}],"name":"ReputationUpdated","type":"event"},{"inputs":[{"internalType":"address","name":"","type":"address"}],"name":"companies","outputs":[{"internalType":"string","name":"name","type":"string"},{"internalType":"address","name":"escrowAddress","type":"address"},{"internalType":"address","name":"tokenAddress","type":"address"},{"internalType":"uint256","name":"totalDeposits","type":"uint256"},{"internalType":"uint256","name":"reputationScore","type":"uint256"},{"internalType":"bool","name":"isRegistered","type":"bool"}],"stateMutability":"view","type":"function"},{"inputs":[],"name":"getCompaniesByReputation","outputs":[{"components":[{"internalType":"string","name":"name","type":"string"},{"internalType":"address","name":"escrowAddress","type":"address"},{"internalType":"address","name":"tokenAddress","type":"address"},{"internalType":"uint256","name":"totalDeposits","type":"uint256"},{"internalType":"uint256","name":"reputationScore","type":"uint256"},{"internalType":"bool","name":"isRegistered","type":"bool"}],"internalType":"struct CompanyRegistry.Company[]","name":"","type":"tuple[]"}],"stateMutability":"view","type":"function"},{"inputs":[],"name":"getRegisteredCompanies","outputs":[{"internalType":"address[]","name":"","type":"address[]"}],"stateMutability":"view","type":"function"},{"inputs":[{"internalType":"string","name":"_name","type":"string"},{"internalType":"address","name":"_escrowAddress","type":"address"},{"internalType":"address","name":"_tokenAddress","type":"address"}],"name":"registerCompany","outputs":[],"stateMutability":"nonpayable","type":"function"},{"inputs":[{"internalType":"uint256","name":"","type":"uint256"}],"name":"registeredCompanies","outputs":[{"internalType":"address","name":"","type":"address"}],"stateMutability":"view","type":"function"},{"inputs":[{"internalType":"address","name":"_escrowAddress","type":"address"},{"internalType":"uint256","name":"depositAmount","type":"uint256"},{"internalType":"uint256","name":"tokenPriceIncrease","type":"uint256"}],"name":"updateReputation","outputs":[],"stateMutability":"nonpayable","type":"function"},{"inputs":[{"internalType":"address","name":"_escrowAddress","type":"address"},{"internalType":"uint256","name":"withdrawalAmount","type":"uint256"}],"name":"updateReputationDecrease","outputs":[],"stateMutability":"nonpayable","type":"function"}],"evm":{"bytecode":{"linkReferences":{},"object":"608060405234801561001057600080fd5b50611b1c806100206000396000f3fe608060405234801561001057600080fd5b506004361061007d5760003560e01c80635e96b80d1161005b5780635e96b80d146100f1578063bc99743714610121578063ce0a8ed51461013d578063fcc436b11461015b5761007d565b80632c92a96914610082578063355e6ce81461009e57806335d2e6f1146100d3575b600080fd5b61009c60048036038101906100979190610e03565b610177565b005b6100b860048036038101906100b39190610e56565b6102fd565b6040516100ca96959493929190610f4c565b60405180910390f35b6100db61040e565b6040516100e89190611176565b60405180910390f35b61010b60048036038101906101069190611198565b6107b6565b60405161011891906111c5565b60405180910390f35b61013b600480360381019061013691906111e0565b6107f5565b005b6101456109c0565b60405161015291906112cf565b60405180910390f35b61017560048036038101906101709190611426565b610a4e565b005b6000808473ffffffffffffffffffffffffffffffffffffffff1673ffffffffffffffffffffffffffffffffffffffff16815260200190815260200160002060050160009054906101000a900460ff16610205576040517f08c379a00000000000000000000000000000000000000000000000000000000081526004016101fc906114e1565b60405180910390fd5b60008060008573ffffffffffffffffffffffffffffffffffffffff1673ffffffffffffffffffffffffffffffffffffffff16815260200190815260200160002090508281600301600082825461025b9190611530565b92505081905550601e8261026f9190611564565b6046670de0b6b3a7640000836003015461028991906115d5565b6102939190611564565b61029d9190611530565b81600401819055508373ffffffffffffffffffffffffffffffffffffffff167ffc577563f1b9a0461e24abef1e1fcc0d33d3d881f20b5df6dda59de4aae2c82182600401546040516102ef9190611606565b60405180910390a250505050565b600060205280600052604060002060009150905080600001805461032090611650565b80601f016020809104026020016040519081016040528092919081815260200182805461034c90611650565b80156103995780601f1061036e57610100808354040283529160200191610399565b820191906000526020600020905b81548152906001019060200180831161037c57829003601f168201915b5050505050908060010160009054906101000a900473ffffffffffffffffffffffffffffffffffffffff16908060020160009054906101000a900473ffffffffffffffffffffffffffffffffffffffff16908060030154908060040154908060050160009054906101000a900460ff16905086565b6060600060018054905067ffffffffffffffff811115610431576104306112fb565b5b60405190808252806020026020018201604052801561046a57816020015b610457610cf7565b81526020019060019003908161044f5790505b50905060005b6001805490508110156106a2576000806001838154811061049457610493611681565b5b9060005260206000200160009054906101000a900473ffffffffffffffffffffffffffffffffffffffff1673ffffffffffffffffffffffffffffffffffffffff1673ffffffffffffffffffffffffffffffffffffffff1681526020019081526020016000206040518060c001604052908160008201805461051490611650565b80601f016020809104026020016040519081016040528092919081815260200182805461054090611650565b801561058d5780601f106105625761010080835404028352916020019161058d565b820191906000526020600020905b81548152906001019060200180831161057057829003601f168201915b505050505081526020016001820160009054906101000a900473ffffffffffffffffffffffffffffffffffffffff1673ffffffffffffffffffffffffffffffffffffffff1673ffffffffffffffffffffffffffffffffffffffff1681526020016002820160009054906101000a900473ffffffffffffffffffffffffffffffffffffffff1673ffffffffffffffffffffffffffffffffffffffff1673ffffffffffffffffffffffffffffffffffffffff16815260200160038201548152602001600482015481526020016005820160009054906101000a900460ff16151515158152505082828151811061068457610683611681565b5b6020026020010181905250808061069a906116b0565b915050610470565b5060005b81518110156107ae5760006001826106be9190611530565b90505b825181101561079a578282815181106106dd576106dc611681565b5b6020026020010151608001518382815181106106fc576106fb611681565b5b602002602001015160800151111561078757600083838151811061072357610722611681565b5b602002602001015190508382815181106107405761073f611681565b5b602002602001015184848151811061075b5761075a611681565b5b60200260200101819052508084838151811061077a57610779611681565b5b6020026020010181905250505b8080610792906116b0565b9150506106c1565b5080806107a6906116b0565b9150506106a6565b508091505090565b600181815481106107c657600080fd5b906000526020600020016000915054906101000a900473ffffffffffffffffffffffffffffffffffffffff1681565b6000808373ffffffffffffffffffffffffffffffffffffffff1673ffffffffffffffffffffffffffffffffffffffff16815260200190815260200160002060050160009054906101000a900460ff16610883576040517f08c379a000000000000000000000000000000000000000000000000000000000815260040161087a906114e1565b60405180910390fd5b60008060008473ffffffffffffffffffffffffffffffffffffffff1673ffffffffffffffffffffffffffffffffffffffff168152602001908152602001600020905060008160030154905060008111610911576040517f08c379a00000000000000000000000000000000000000000000000000000000081526004016109089061176a565b60405180910390fd5b6000818360040154856109249190611564565b61092e91906115d5565b9050808360040154111561095c5780836004016000828254610950919061178a565b92505081905550610967565b600083600401819055505b8473ffffffffffffffffffffffffffffffffffffffff167ffc577563f1b9a0461e24abef1e1fcc0d33d3d881f20b5df6dda59de4aae2c82184600401546040516109b19190611606565b60405180910390a25050505050565b60606001805480602002602001604051908101604052809291908181526020018280548015610a4457602002820191906000526020600020905b8160009054906101000a900473ffffffffffffffffffffffffffffffffffffffff1673ffffffffffffffffffffffffffffffffffffffff16815260200190600101908083116109fa575b5050505050905090565b6000808373ffffffffffffffffffffffffffffffffffffffff1673ffffffffffffffffffffffffffffffffffffffff16815260200190815260200160002060050160009054906101000a900460ff1615610add576040517f08c379a0000000000000000000000000000000000000000000000000000000008152600401610ad49061180a565b60405180910390fd5b6040518060c001604052808481526020018373ffffffffffffffffffffffffffffffffffffffff1681526020018273ffffffffffffffffffffffffffffffffffffffff1681526020016000815260200160008152602001600115158152506000808473ffffffffffffffffffffffffffffffffffffffff1673ffffffffffffffffffffffffffffffffffffffff1681526020019081526020016000206000820151816000019081610b8e91906119d6565b5060208201518160010160006101000a81548173ffffffffffffffffffffffffffffffffffffffff021916908373ffffffffffffffffffffffffffffffffffffffff16021790555060408201518160020160006101000a81548173ffffffffffffffffffffffffffffffffffffffff021916908373ffffffffffffffffffffffffffffffffffffffff160217905550606082015181600301556080820151816004015560a08201518160050160006101000a81548160ff0219169083151502179055509050506001829080600181540180825580915050600190039060005260206000200160009091909190916101000a81548173ffffffffffffffffffffffffffffffffffffffff021916908373ffffffffffffffffffffffffffffffffffffffff1602179055507f94aec3dc6cb6f40c1de17e8e63a10905c1d89509ee5f4649a1640ae029a25595838383604051610cea93929190611aa8565b60405180910390a1505050565b6040518060c0016040528060608152602001600073ffffffffffffffffffffffffffffffffffffffff168152602001600073ffffffffffffffffffffffffffffffffffffffff16815260200160008152602001600081526020016000151581525090565b6000604051905090565b600080fd5b600080fd5b600073ffffffffffffffffffffffffffffffffffffffff82169050919050565b6000610d9a82610d6f565b9050919050565b610daa81610d8f565b8114610db557600080fd5b50565b600081359050610dc781610da1565b92915050565b6000819050919050565b610de081610dcd565b8114610deb57600080fd5b50565b600081359050610dfd81610dd7565b92915050565b600080600060608486031215610e1c57610e1b610d65565b5b6000610e2a86828701610db8565b9350506020610e3b86828701610dee565b9250506040610e4c86828701610dee565b9150509250925092565b600060208284031215610e6c57610e6b610d65565b5b6000610e7a84828501610db8565b91505092915050565b600081519050919050565b600082825260208201905092915050565b60005b83811015610ebd578082015181840152602081019050610ea2565b60008484015250505050565b6000601f19601f8301169050919050565b6000610ee582610e83565b610eef8185610e8e565b9350610eff818560208601610e9f565b610f0881610ec9565b840191505092915050565b610f1c81610d8f565b82525050565b610f2b81610dcd565b82525050565b60008115159050919050565b610f4681610f31565b82525050565b600060c0820190508181036000830152610f668189610eda565b9050610f756020830188610f13565b610f826040830187610f13565b610f8f6060830186610f22565b610f9c6080830185610f22565b610fa960a0830184610f3d565b979650505050505050565b600081519050919050565b600082825260208201905092915050565b6000819050602082019050919050565b600082825260208201905092915050565b6000610ffc82610e83565b6110068185610fe0565b9350611016818560208601610e9f565b61101f81610ec9565b840191505092915050565b61103381610d8f565b82525050565b61104281610dcd565b82525050565b61105181610f31565b82525050565b600060c08301600083015184820360008601526110748282610ff1565b9150506020830151611089602086018261102a565b50604083015161109c604086018261102a565b5060608301516110af6060860182611039565b5060808301516110c26080860182611039565b5060a08301516110d560a0860182611048565b508091505092915050565b60006110ec8383611057565b905092915050565b6000602082019050919050565b600061110c82610fb4565b6111168185610fbf565b93508360208202850161112885610fd0565b8060005b85811015611164578484038952815161114585826110e0565b9450611150836110f4565b925060208a0199505060018101905061112c565b50829750879550505050505092915050565b600060208201905081810360008301526111908184611101565b905092915050565b6000602082840312156111ae576111ad610d65565b5b60006111bc84828501610dee565b91505092915050565b60006020820190506111da6000830184610f13565b92915050565b600080604083850312156111f7576111f6610d65565b5b600061120585828601610db8565b925050602061121685828601610dee565b9150509250929050565b600081519050919050565b600082825260208201905092915050565b6000819050602082019050919050565b6000611258838361102a565b60208301905092915050565b6000602082019050919050565b600061127c82611220565b611286818561122b565b93506112918361123c565b8060005b838110156112c25781516112a9888261124c565b97506112b483611264565b925050600181019050611295565b5085935050505092915050565b600060208201905081810360008301526112e98184611271565b905092915050565b600080fd5b600080fd5b7f4e487b7100000000000000000000000000000000000000000000000000000000600052604160045260246000fd5b61133382610ec9565b810181811067ffffffffffffffff82111715611352576113516112fb565b5b80604052505050565b6000611365610d5b565b9050611371828261132a565b919050565b600067ffffffffffffffff821115611391576113906112fb565b5b61139a82610ec9565b9050602081019050919050565b82818337600083830152505050565b60006113c96113c484611376565b61135b565b9050828152602081018484840111156113e5576113e46112f6565b5b6113f08482856113a7565b509392505050565b600082601f83011261140d5761140c6112f1565b5b813561141d8482602086016113b6565b91505092915050565b60008060006060848603121561143f5761143e610d65565b5b600084013567ffffffffffffffff81111561145d5761145c610d6a565b5b611469868287016113f8565b935050602061147a86828701610db8565b925050604061148b86828701610db8565b9150509250925092565b7f436f6d70616e79206e6f74207265676973746572656400000000000000000000600082015250565b60006114cb601683610e8e565b91506114d682611495565b602082019050919050565b600060208201905081810360008301526114fa816114be565b9050919050565b7f4e487b7100000000000000000000000000000000000000000000000000000000600052601160045260246000fd5b600061153b82610dcd565b915061154683610dcd565b925082820190508082111561155e5761155d611501565b5b92915050565b600061156f82610dcd565b915061157a83610dcd565b925082820261158881610dcd565b9150828204841483151761159f5761159e611501565b5b5092915050565b7f4e487b7100000000000000000000000000000000000000000000000000000000600052601260045260246000fd5b60006115e082610dcd565b91506115eb83610dcd565b9250826115fb576115fa6115a6565b5b828204905092915050565b600060208201905061161b6000830184610f22565b92915050565b7f4e487b7100000000000000000000000000000000000000000000000000000000600052602260045260246000fd5b6000600282049050600182168061166857607f821691505b60208210810361167b5761167a611621565b5b50919050565b7f4e487b7100000000000000000000000000000000000000000000000000000000600052603260045260246000fd5b60006116bb82610dcd565b91507fffffffffffffffffffffffffffffffffffffffffffffffffffffffffffffffff82036116ed576116ec611501565b5b600182019050919050565b7f4e6f206465706f7369747320746f2063616c63756c617465207265707574617460008201527f696f6e2064656372656173650000000000000000000000000000000000000000602082015250565b6000611754602c83610e8e565b915061175f826116f8565b604082019050919050565b6000602082019050818103600083015261178381611747565b9050919050565b600061179582610dcd565b91506117a083610dcd565b92508282039050818111156117b8576117b7611501565b5b92915050565b7f436f6d70616e7920616c72656164792072656769737465726564000000000000600082015250565b60006117f4601a83610e8e565b91506117ff826117be565b602082019050919050565b60006020820190508181036000830152611823816117e7565b9050919050565b60008190508160005260206000209050919050565b60006020601f8301049050919050565b600082821b905092915050565b60006008830261188c7fffffffffffffffffffffffffffffffffffffffffffffffffffffffffffffffff8261184f565b611896868361184f565b95508019841693508086168417925050509392505050565b6000819050919050565b60006118d36118ce6118c984610dcd565b6118ae565b610dcd565b9050919050565b6000819050919050565b6118ed836118b8565b6119016118f9826118da565b84845461185c565b825550505050565b600090565b611916611909565b6119218184846118e4565b505050565b5b818110156119455761193a60008261190e565b600181019050611927565b5050565b601f82111561198a5761195b8161182a565b6119648461183f565b81016020851015611973578190505b61198761197f8561183f565b830182611926565b50505b505050565b600082821c905092915050565b60006119ad6000198460080261198f565b1980831691505092915050565b60006119c6838361199c565b9150826002028217905092915050565b6119df82610e83565b67ffffffffffffffff8111156119f8576119f76112fb565b5b611a028254611650565b611a0d828285611949565b600060209050601f831160018114611a405760008415611a2e578287015190505b611a3885826119ba565b865550611aa0565b601f198416611a4e8661182a565b60005b82811015611a7657848901518255600182019150602085019450602081019050611a51565b86831015611a935784890151611a8f601f89168261199c565b8355505b6001600288020188555050505b505050505050565b60006060820190508181036000830152611ac28186610eda565b9050611ad16020830185610f13565b611ade6040830184610f13565b94935050505056fea2646970667358221220c4a3cf44fe5123b62f88fddda462851f521da02e5855293a0395cff0fe1aa06d64736f6c63430008140033","opcodes":"PUSH1 0x80 PUSH1 0x40 MSTORE CALLVALUE DUP1 ISZERO PUSH2 0x10 JUMPI PUSH1 0x0 DUP1 REVERT JUMPDEST POP PUSH2 0x1B1C DUP1 PUSH2 0x20 PUSH1 0x0 CODECOPY PUSH1 0x0 RETURN INVALID PUSH1 0x80 PUSH1 0x40 MSTORE CALLVALUE DUP1 ISZERO PUSH2 0x10 JUMPI PUSH1 0x0 DUP1 REVERT JUMPDEST POP PUSH1 0x4 CALLDATASIZE LT PUSH2 0x7D JUMPI PUSH1 0x0 CALLDATALOAD PUSH1 0xE0 SHR DUP1 PUSH4 0x5E96B80D GT PUSH2 0x5B JUMPI DUP1 PUSH4 0x5E96B80D EQ PUSH2 0xF1 JUMPI DUP1 PUSH4 0xBC997437 EQ PUSH2 0x121 JUMPI DUP1 PUSH4 0xCE0A8ED5 EQ PUSH2 0x13D JUMPI DUP1 PUSH4 0xFCC436B1 EQ PUSH2 0x15B JUMPI PUSH2 0x7D JUMP JUMPDEST DUP1 PUSH4 0x2C92A969 EQ PUSH2 0x82 JUMPI DUP1 PUSH4 0x355E6CE8 EQ PUSH2 0x9E JUMPI DUP1 PUSH4 0x35D2E6F1 EQ PUSH2 0xD3 JUMPI JUMPDEST PUSH1 0x0 DUP1 REVERT JUMPDEST PUSH2 0x9C PUSH1 0x4 DUP1 CALLDATASIZE SUB DUP2 ADD SWAP1 PUSH2 0x97 SWAP2 SWAP1 PUSH2 0xE03 JUMP JUMPDEST PUSH2 0x177 JUMP JUMPDEST STOP JUMPDEST PUSH2 0xB8 PUSH1 0x4 DUP1 CALLDATASIZE SUB DUP2 ADD SWAP1 PUSH2 0xB3 SWAP2 SWAP1 PUSH2 0xE56 JUMP JUMPDEST PUSH2 0x2FD JUMP JUMPDEST PUSH1 0x40 MLOAD PUSH2 0xCA SWAP7 SWAP6 SWAP5 SWAP4 SWAP3 SWAP2 SWAP1 PUSH2 0xF4C JUMP JUMPDEST PUSH1 0x40 MLOAD DUP1 SWAP2 SUB SWAP1 RETURN JUMPDEST PUSH2 0xDB PUSH2 0x40E JUMP JUMPDEST PUSH1 0x40 MLOAD PUSH2 0xE8 SWAP2 SWAP1 PUSH2 0x1176 JUMP JUMPDEST PUSH1 0x40 MLOAD DUP1 SWAP2 SUB SWAP1 RETURN JUMPDEST PUSH2 0x10B PUSH1 0x4 DUP1 CALLDATASIZE SUB DUP2 ADD SWAP1 PUSH2 0x106 SWAP2 SWAP1 PUSH2 0x1198 JUMP JUMPDEST PUSH2 0x7B6 JUMP JUMPDEST PUSH1 0x40 MLOAD PUSH2 0x118 SWAP2 SWAP1 PUSH2 0x11C5 JUMP JUMPDEST PUSH1 0x40 MLOAD DUP1 SWAP2 SUB SWAP1 RETURN JUMPDEST PUSH2 0x13B PUSH1 0x4 DUP1 CALLDATASIZE SUB DUP2 ADD SWAP1 PUSH2 0x136 SWAP2 SWAP1 PUSH2 0x11E0 JUMP JUMPDEST PUSH2 0x7F5 JUMP JUMPDEST STOP JUMPDEST PUSH2 0x145 PUSH2 0x9C0 JUMP JUMPDEST PUSH1 0x40 MLOAD PUSH2 0x152 SWAP2 SWAP1 PUSH2 0x12CF JUMP JUMPDEST PUSH1 0x40 MLOAD DUP1 SWAP2 SUB SWAP1 RETURN JUMPDEST PUSH2 0x175 PUSH1 0x4 DUP1 CALLDATASIZE SUB DUP2 ADD SWAP1 PUSH2 0x170 SWAP2 SWAP1 PUSH2 0x1426 JUMP JUMPDEST PUSH2 0xA4E JUMP JUMPDEST STOP JUMPDEST PUSH1 0x0 DUP1 DUP5 PUSH20 0xFFFFFFFFFFFFFFFFFFFFFFFFFFFFFFFFFFFFFFFF AND PUSH20 0xFFFFFFFFFFFFFFFFFFFFFFFFFFFFFFFFFFFFFFFF AND DUP2 MSTORE PUSH1 0x20 ADD SWAP1 DUP2 MSTORE PUSH1 0x20 ADD PUSH1 0x0 KECCAK256 PUSH1 0x5 ADD PUSH1 0x0 SWAP1 SLOAD SWAP1 PUSH2 0x100 EXP SWAP1 DIV PUSH1 0xFF AND PUSH2 0x205 JUMPI PUSH1 0x40 MLOAD PUSH32 0x8C379A000000000000000000000000000000000000000000000000000000000 DUP2 MSTORE PUSH1 0x4 ADD PUSH2 0x1FC SWAP1 PUSH2 0x14E1 JUMP JUMPDEST PUSH1 0x40 MLOAD DUP1 SWAP2 SUB SWAP1 REVERT JUMPDEST PUSH1 0x0 DUP1 PUSH1 0x0 DUP6 PUSH20 0xFFFFFFFFFFFFFFFFFFFFFFFFFFFFFFFFFFFFFFFF AND PUSH20 0xFFFFFFFFFFFFFFFFFFFFFFFFFFFFFFFFFFFFFFFF AND DUP2 MSTORE PUSH1 0x20 ADD SWAP1 DUP2 MSTORE PUSH1 0x20 ADD PUSH1 0x0 KECCAK256 SWAP1 POP DUP3 DUP2 PUSH1 0x3 ADD PUSH1 0x0 DUP3 DUP3 SLOAD PUSH2 0x25B SWAP2 SWAP1 PUSH2 0x1530 JUMP JUMPDEST SWAP3 POP POP DUP2 SWAP1 SSTORE POP PUSH1 0x1E DUP3 PUSH2 0x26F SWAP2 SWAP1 PUSH2 0x1564 JUMP JUMPDEST PUSH1 0x46 PUSH8 0xDE0B6B3A7640000 DUP4 PUSH1 0x3 ADD SLOAD PUSH2 0x289 SWAP2 SWAP1 PUSH2 0x15D5 JUMP JUMPDEST PUSH2 0x293 SWAP2 SWAP1 PUSH2 0x1564 JUMP JUMPDEST PUSH2 0x29D SWAP2 SWAP1 PUSH2 0x1530 JUMP JUMPDEST DUP2 PUSH1 0x4 ADD DUP2 SWAP1 SSTORE POP DUP4 PUSH20 0xFFFFFFFFFFFFFFFFFFFFFFFFFFFFFFFFFFFFFFFF AND PUSH32 0xFC577563F1B9A0461E24ABEF1E1FCC0D33D3D881F20B5DF6DDA59DE4AAE2C821 DUP3 PUSH1 0x4 ADD SLOAD PUSH1 0x40 MLOAD PUSH2 0x2EF SWAP2 SWAP1 PUSH2 0x1606 JUMP JUMPDEST PUSH1 0x40 MLOAD DUP1 SWAP2 SUB SWAP1 LOG2 POP POP POP POP JUMP JUMPDEST PUSH1 0x0 PUSH1 0x20 MSTORE DUP1 PUSH1 0x0 MSTORE PUSH1 0x40 PUSH1 0x0 KECCAK256 PUSH1 0x0 SWAP2 POP SWAP1 POP DUP1 PUSH1 0x0 ADD DUP1 SLOAD PUSH2 0x320 SWAP1 PUSH2 0x1650 JUMP JUMPDEST DUP1 PUSH1 0x1F ADD PUSH1 0x20 DUP1 SWAP2 DIV MUL PUSH1 0x20 ADD PUSH1 0x40 MLOAD SWAP1 DUP2 ADD PUSH1 0x40 MSTORE DUP1 SWAP3 SWAP2 SWAP1 DUP2 DUP2 MSTORE PUSH1 0x20 ADD DUP3 DUP1 SLOAD PUSH2 0x34C SWAP1 PUSH2 0x1650 JUMP JUMPDEST DUP1 ISZERO PUSH2 0x399 JUMPI DUP1 PUSH1 0x1F LT PUSH2 0x36E JUMPI PUSH2 0x100 DUP1 DUP4 SLOAD DIV MUL DUP4 MSTORE SWAP2 PUSH1 0x20 ADD SWAP2 PUSH2 0x399 JUMP JUMPDEST DUP3 ADD SWAP2 SWAP1 PUSH1 0x0 MSTORE PUSH1 0x20 PUSH1 0x0 KECCAK256 SWAP1 JUMPDEST DUP2 SLOAD DUP2 MSTORE SWAP1 PUSH1 0x1 ADD SWAP1 PUSH1 0x20 ADD DUP1 DUP4 GT PUSH2 0x37C JUMPI DUP3 SWAP1 SUB PUSH1 0x1F AND DUP3 ADD SWAP2 JUMPDEST POP POP POP POP POP SWAP1 DUP1 PUSH1 0x1 ADD PUSH1 0x0 SWAP1 SLOAD SWAP1 PUSH2 0x100 EXP SWAP1 DIV PUSH20 0xFFFFFFFFFFFFFFFFFFFFFFFFFFFFFFFFFFFFFFFF AND SWAP1 DUP1 PUSH1 0x2 ADD PUSH1 0x0 SWAP1 SLOAD SWAP1 PUSH2 0x100 EXP SWAP1 DIV PUSH20 0xFFFFFFFFFFFFFFFFFFFFFFFFFFFFFFFFFFFFFFFF AND SWAP1 DUP1 PUSH1 0x3 ADD SLOAD SWAP1 DUP1 PUSH1 0x4 ADD SLOAD SWAP1 DUP1 PUSH1 0x5 ADD PUSH1 0x0 SWAP1 SLOAD SWAP1 PUSH2 0x100 EXP SWAP1 DIV PUSH1 0xFF AND SWAP1 POP DUP7 JUMP JUMPDEST PUSH1 0x60 PUSH1 0x0 PUSH1 0x1 DUP1 SLOAD SWAP1 POP PUSH8 0xFFFFFFFFFFFFFFFF DUP2 GT ISZERO PUSH2 0x431 JUMPI PUSH2 0x430 PUSH2 0x12FB JUMP JUMPDEST JUMPDEST PUSH1 0x40 MLOAD SWAP1 DUP1 DUP3 MSTORE DUP1 PUSH1 0x20 MUL PUSH1 0x20 ADD DUP3 ADD PUSH1 0x40 MSTORE DUP1 ISZERO PUSH2 0x46A JUMPI DUP2 PUSH1 0x20 ADD JUMPDEST PUSH2 0x457 PUSH2 0xCF7 JUMP JUMPDEST DUP2 MSTORE PUSH1 0x20 ADD SWAP1 PUSH1 0x1 SWAP1 SUB SWAP1 DUP2 PUSH2 0x44F JUMPI SWAP1 POP JUMPDEST POP SWAP1 POP PUSH1 0x0 JUMPDEST PUSH1 0x1 DUP1 SLOAD SWAP1 POP DUP2 LT ISZERO PUSH2 0x6A2 JUMPI PUSH1 0x0 DUP1 PUSH1 0x1 DUP4 DUP2 SLOAD DUP2 LT PUSH2 0x494 JUMPI PUSH2 0x493 PUSH2 0x1681 JUMP JUMPDEST JUMPDEST SWAP1 PUSH1 0x0 MSTORE PUSH1 0x20 PUSH1 0x0 KECCAK256 ADD PUSH1 0x0 SWAP1 SLOAD SWAP1 PUSH2 0x100 EXP SWAP1 DIV PUSH20 0xFFFFFFFFFFFFFFFFFFFFFFFFFFFFFFFFFFFFFFFF AND PUSH20 0xFFFFFFFFFFFFFFFFFFFFFFFFFFFFFFFFFFFFFFFF AND PUSH20 0xFFFFFFFFFFFFFFFFFFFFFFFFFFFFFFFFFFFFFFFF AND DUP2 MSTORE PUSH1 0x20 ADD SWAP1 DUP2 MSTORE PUSH1 0x20 ADD PUSH1 0x0 KECCAK256 PUSH1 0x40 MLOAD DUP1 PUSH1 0xC0 ADD PUSH1 0x40 MSTORE SWAP1 DUP2 PUSH1 0x0 DUP3 ADD DUP1 SLOAD PUSH2 0x514 SWAP1 PUSH2 0x1650 JUMP JUMPDEST DUP1 PUSH1 0x1F ADD PUSH1 0x20 DUP1 SWAP2 DIV MUL PUSH1 0x20 ADD PUSH1 0x40 MLOAD SWAP1 DUP2 ADD PUSH1 0x40 MSTORE DUP1 SWAP3 SWAP2 SWAP1 DUP2 DUP2 MSTORE PUSH1 0x20 ADD DUP3 DUP1 SLOAD PUSH2 0x540 SWAP1 PUSH2 0x1650 JUMP JUMPDEST DUP1 ISZERO PUSH2 0x58D JUMPI DUP1 PUSH1 0x1F LT PUSH2 0x562 JUMPI PUSH2 0x100 DUP1 DUP4 SLOAD DIV MUL DUP4 MSTORE SWAP2 PUSH1 0x20 ADD SWAP2 PUSH2 0x58D JUMP JUMPDEST DUP3 ADD SWAP2 SWAP1 PUSH1 0x0 MSTORE PUSH1 0x20 PUSH1 0x0 KECCAK256 SWAP1 JUMPDEST DUP2 SLOAD DUP2 MSTORE SWAP1 PUSH1 0x1 ADD SWAP1 PUSH1 0x20 ADD DUP1 DUP4 GT PUSH2 0x570 JUMPI DUP3 SWAP1 SUB PUSH1 0x1F AND DUP3 ADD SWAP2 JUMPDEST POP POP POP POP POP DUP2 MSTORE PUSH1 0x20 ADD PUSH1 0x1 DUP3 ADD PUSH1 0x0 SWAP1 SLOAD SWAP1 PUSH2 0x100 EXP SWAP1 DIV PUSH20 0xFFFFFFFFFFFFFFFFFFFFFFFFFFFFFFFFFFFFFFFF AND PUSH20 0xFFFFFFFFFFFFFFFFFFFFFFFFFFFFFFFFFFFFFFFF AND PUSH20 0xFFFFFFFFFFFFFFFFFFFFFFFFFFFFFFFFFFFFFFFF AND DUP2 MSTORE PUSH1 0x20 ADD PUSH1 0x2 DUP3 ADD PUSH1 0x0 SWAP1 SLOAD SWAP1 PUSH2 0x100 EXP SWAP1 DIV PUSH20 0xFFFFFFFFFFFFFFFFFFFFFFFFFFFFFFFFFFFFFFFF AND PUSH20 0xFFFFFFFFFFFFFFFFFFFFFFFFFFFFFFFFFFFFFFFF AND PUSH20 0xFFFFFFFFFFFFFFFFFFFFFFFFFFFFFFFFFFFFFFFF AND DUP2 MSTORE PUSH1 0x20 ADD PUSH1 0x3 DUP3 ADD SLOAD DUP2 MSTORE PUSH1 0x20 ADD PUSH1 0x4 DUP3 ADD SLOAD DUP2 MSTORE PUSH1 0x20 ADD PUSH1 0x5 DUP3 ADD PUSH1 0x0 SWAP1 SLOAD SWAP1 PUSH2 0x100 EXP SWAP1 DIV PUSH1 0xFF AND ISZERO ISZERO ISZERO ISZERO DUP2 MSTORE POP POP DUP3 DUP3 DUP2 MLOAD DUP2 LT PUSH2 0x684 JUMPI PUSH2 0x683 PUSH2 0x1681 JUMP JUMPDEST JUMPDEST PUSH1 0x20 MUL PUSH1 0x20 ADD ADD DUP2 SWAP1 MSTORE POP DUP1 DUP1 PUSH2 0x69A SWAP1 PUSH2 0x16B0 JUMP JUMPDEST SWAP2 POP POP PUSH2 0x470 JUMP JUMPDEST POP PUSH1 0x0 JUMPDEST DUP2 MLOAD DUP2 LT ISZERO PUSH2 0x7AE JUMPI PUSH1 0x0 PUSH1 0x1 DUP3 PUSH2 0x6BE SWAP2 SWAP1 PUSH2 0x1530 JUMP JUMPDEST SWAP1 POP JUMPDEST DUP3 MLOAD DUP2 LT ISZERO PUSH2 0x79A JUMPI DUP3 DUP3 DUP2 MLOAD DUP2 LT PUSH2 0x6DD JUMPI PUSH2 0x6DC PUSH2 0x1681 JUMP JUMPDEST JUMPDEST PUSH1 0x20 MUL PUSH1 0x20 ADD ADD MLOAD PUSH1 0x80 ADD MLOAD DUP4 DUP3 DUP2 MLOAD DUP2 LT PUSH2 0x6FC JUMPI PUSH2 0x6FB PUSH2 0x1681 JUMP JUMPDEST JUMPDEST PUSH1 0x20 MUL PUSH1 0x20 ADD ADD MLOAD PUSH1 0x80 ADD MLOAD GT ISZERO PUSH2 0x787 JUMPI PUSH1 0x0 DUP4 DUP4 DUP2 MLOAD DUP2 LT PUSH2 0x723 JUMPI PUSH2 0x722 PUSH2 0x1681 JUMP JUMPDEST JUMPDEST PUSH1 0x20 MUL PUSH1 0x20 ADD ADD MLOAD SWAP1 POP DUP4 DUP3 DUP2 MLOAD DUP2 LT PUSH2 0x740 JUMPI PUSH2 0x73F PUSH2 0x1681 JUMP JUMPDEST JUMPDEST PUSH1 0x20 MUL PUSH1 0x20 ADD ADD MLOAD DUP5 DUP5 DUP2 MLOAD DUP2 LT PUSH2 0x75B JUMPI PUSH2 0x75A PUSH2 0x1681 JUMP JUMPDEST JUMPDEST PUSH1 0x20 MUL PUSH1 0x20 ADD ADD DUP2 SWAP1 MSTORE POP DUP1 DUP5 DUP4 DUP2 MLOAD DUP2 LT PUSH2 0x77A JUMPI PUSH2 0x779 PUSH2 0x1681 JUMP JUMPDEST JUMPDEST PUSH1 0x20 MUL PUSH1 0x20 ADD ADD DUP2 SWAP1 MSTORE POP POP JUMPDEST DUP1 DUP1 PUSH2 0x792 SWAP1 PUSH2 0x16B0 JUMP JUMPDEST SWAP2 POP POP PUSH2 0x6C1 JUMP JUMPDEST POP DUP1 DUP1 PUSH2 0x7A6 SWAP1 PUSH2 0x16B0 JUMP JUMPDEST SWAP2 POP POP PUSH2 0x6A6 JUMP JUMPDEST POP DUP1 SWAP2 POP POP SWAP1 JUMP JUMPDEST PUSH1 0x1 DUP2 DUP2 SLOAD DUP2 LT PUSH2 0x7C6 JUMPI PUSH1 0x0 DUP1 REVERT JUMPDEST SWAP1 PUSH1 0x0 MSTORE PUSH1 0x20 PUSH1 0x0 KECCAK256 ADD PUSH1 0x0 SWAP2 POP SLOAD SWAP1 PUSH2 0x100 EXP SWAP1 DIV PUSH20 0xFFFFFFFFFFFFFFFFFFFFFFFFFFFFFFFFFFFFFFFF AND DUP2 JUMP JUMPDEST PUSH1 0x0 DUP1 DUP4 PUSH20 0xFFFFFFFFFFFFFFFFFFFFFFFFFFFFFFFFFFFFFFFF AND PUSH20 0xFFFFFFFFFFFFFFFFFFFFFFFFFFFFFFFFFFFFFFFF AND DUP2 MSTORE PUSH1 0x20 ADD SWAP1 DUP2 MSTORE PUSH1 0x20 ADD PUSH1 0x0 KECCAK256 PUSH1 0x5 ADD PUSH1 0x0 SWAP1 SLOAD SWAP1 PUSH2 0x100 EXP SWAP1 DIV PUSH1 0xFF AND PUSH2 0x883 JUMPI PUSH1 0x40 MLOAD PUSH32 0x8C379A000000000000000000000000000000000000000000000000000000000 DUP2 MSTORE PUSH1 0x4 ADD PUSH2 0x87A SWAP1 PUSH2 0x14E1 JUMP JUMPDEST PUSH1 0x40 MLOAD DUP1 SWAP2 SUB SWAP1 REVERT JUMPDEST PUSH1 0x0 DUP1 PUSH1 0x0 DUP5 PUSH20 0xFFFFFFFFFFFFFFFFFFFFFFFFFFFFFFFFFFFFFFFF AND PUSH20 0xFFFFFFFFFFFFFFFFFFFFFFFFFFFFFFFFFFFFFFFF AND DUP2 MSTORE PUSH1 0x20 ADD SWAP1 DUP2 MSTORE PUSH1 0x20 ADD PUSH1 0x0 KECCAK256 SWAP1 POP PUSH1 0x0 DUP2 PUSH1 0x3 ADD SLOAD SWAP1 POP PUSH1 0x0 DUP2 GT PUSH2 0x911 JUMPI PUSH1 0x40 MLOAD PUSH32 0x8C379A000000000000000000000000000000000000000000000000000000000 DUP2 MSTORE PUSH1 0x4 ADD PUSH2 0x908 SWAP1 PUSH2 0x176A JUMP JUMPDEST PUSH1 0x40 MLOAD DUP1 SWAP2 SUB SWAP1 REVERT JUMPDEST PUSH1 0x0 DUP2 DUP4 PUSH1 0x4 ADD SLOAD DUP6 PUSH2 0x924 SWAP2 SWAP1 PUSH2 0x1564 JUMP JUMPDEST PUSH2 0x92E SWAP2 SWAP1 PUSH2 0x15D5 JUMP JUMPDEST SWAP1 POP DUP1 DUP4 PUSH1 0x4 ADD SLOAD GT ISZERO PUSH2 0x95C JUMPI DUP1 DUP4 PUSH1 0x4 ADD PUSH1 0x0 DUP3 DUP3 SLOAD PUSH2 0x950 SWAP2 SWAP1 PUSH2 0x178A JUMP JUMPDEST SWAP3 POP POP DUP2 SWAP1 SSTORE POP PUSH2 0x967 JUMP JUMPDEST PUSH1 0x0 DUP4 PUSH1 0x4 ADD DUP2 SWAP1 SSTORE POP JUMPDEST DUP5 PUSH20 0xFFFFFFFFFFFFFFFFFFFFFFFFFFFFFFFFFFFFFFFF AND PUSH32 0xFC577563F1B9A0461E24ABEF1E1FCC0D33D3D881F20B5DF6DDA59DE4AAE2C821 DUP5 PUSH1 0x4 ADD SLOAD PUSH1 0x40 MLOAD PUSH2 0x9B1 SWAP2 SWAP1 PUSH2 0x1606 JUMP JUMPDEST PUSH1 0x40 MLOAD DUP1 SWAP2 SUB SWAP1 LOG2 POP POP POP POP POP JUMP JUMPDEST PUSH1 0x60 PUSH1 0x1 DUP1 SLOAD DUP1 PUSH1 0x20 MUL PUSH1 0x20 ADD PUSH1 0x40 MLOAD SWAP1 DUP2 ADD PUSH1 0x40 MSTORE DUP1 SWAP3 SWAP2 SWAP1 DUP2 DUP2 MSTORE PUSH1 0x20 ADD DUP3 DUP1 SLOAD DUP1 ISZERO PUSH2 0xA44 JUMPI PUSH1 0x20 MUL DUP3 ADD SWAP2 SWAP1 PUSH1 0x0 MSTORE PUSH1 0x20 PUSH1 0x0 KECCAK256 SWAP1 JUMPDEST DUP2 PUSH1 0x0 SWAP1 SLOAD SWAP1 PUSH2 0x100 EXP SWAP1 DIV PUSH20 0xFFFFFFFFFFFFFFFFFFFFFFFFFFFFFFFFFFFFFFFF AND PUSH20 0xFFFFFFFFFFFFFFFFFFFFFFFFFFFFFFFFFFFFFFFF AND DUP2 MSTORE PUSH1 0x20 ADD SWAP1 PUSH1 0x1 ADD SWAP1 DUP1 DUP4 GT PUSH2 0x9FA JUMPI JUMPDEST POP POP POP POP POP SWAP1 POP SWAP1 JUMP JUMPDEST PUSH1 0x0 DUP1 DUP4 PUSH20 0xFFFFFFFFFFFFFFFFFFFFFFFFFFFFFFFFFFFFFFFF AND PUSH20 0xFFFFFFFFFFFFFFFFFFFFFFFFFFFFFFFFFFFFFFFF AND DUP2 MSTORE PUSH1 0x20 ADD SWAP1 DUP2 MSTORE PUSH1 0x20 ADD PUSH1 0x0 KECCAK256 PUSH1 0x5 ADD PUSH1 0x0 SWAP1 SLOAD SWAP1 PUSH2 0x100 EXP SWAP1 DIV PUSH1 0xFF AND ISZERO PUSH2 0xADD JUMPI PUSH1 0x40 MLOAD PUSH32 0x8C379A000000000000000000000000000000000000000000000000000000000 DUP2 MSTORE PUSH1 0x4 ADD PUSH2 0xAD4 SWAP1 PUSH2 0x180A JUMP JUMPDEST PUSH1 0x40 MLOAD DUP1 SWAP2 SUB SWAP1 REVERT JUMPDEST PUSH1 0x40 MLOAD DUP1 PUSH1 0xC0 ADD PUSH1 0x40 MSTORE DUP1 DUP5 DUP2 MSTORE PUSH1 0x20 ADD DUP4 PUSH20 0xFFFFFFFFFFFFFFFFFFFFFFFFFFFFFFFFFFFFFFFF AND DUP2 MSTORE PUSH1 0x20 ADD DUP3 PUSH20 0xFFFFFFFFFFFFFFFFFFFFFFFFFFFFFFFFFFFFFFFF AND DUP2 MSTORE PUSH1 0x20 ADD PUSH1 0x0 DUP2 MSTORE PUSH1 0x20 ADD PUSH1 0x0 DUP2 MSTORE PUSH1 0x20 ADD PUSH1 0x1 ISZERO ISZERO DUP2 MSTORE POP PUSH1 0x0 DUP1 DUP5 PUSH20 0xFFFFFFFFFFFFFFFFFFFFFFFFFFFFFFFFFFFFFFFF AND PUSH20 0xFFFFFFFFFFFFFFFFFFFFFFFFFFFFFFFFFFFFFFFF AND DUP2 MSTORE PUSH1 0x20 ADD SWAP1 DUP2 MSTORE PUSH1 0x20 ADD PUSH1 0x0 KECCAK256 PUSH1 0x0 DUP3 ADD MLOAD DUP2 PUSH1 0x0 ADD SWAP1 DUP2 PUSH2 0xB8E SWAP2 SWAP1 PUSH2 0x19D6 JUMP JUMPDEST POP PUSH1 0x20 DUP3 ADD MLOAD DUP2 PUSH1 0x1 ADD PUSH1 0x0 PUSH2 0x100 EXP DUP2 SLOAD DUP2 PUSH20 0xFFFFFFFFFFFFFFFFFFFFFFFFFFFFFFFFFFFFFFFF MUL NOT AND SWAP1 DUP4 PUSH20 0xFFFFFFFFFFFFFFFFFFFFFFFFFFFFFFFFFFFFFFFF AND MUL OR SWAP1 SSTORE POP PUSH1 0x40 DUP3 ADD MLOAD DUP2 PUSH1 0x2 ADD PUSH1 0x0 PUSH2 0x100 EXP DUP2 SLOAD DUP2 PUSH20 0xFFFFFFFFFFFFFFFFFFFFFFFFFFFFFFFFFFFFFFFF MUL NOT AND SWAP1 DUP4 PUSH20 0xFFFFFFFFFFFFFFFFFFFFFFFFFFFFFFFFFFFFFFFF AND MUL OR SWAP1 SSTORE POP PUSH1 0x60 DUP3 ADD MLOAD DUP2 PUSH1 0x3 ADD SSTORE PUSH1 0x80 DUP3 ADD MLOAD DUP2 PUSH1 0x4 ADD SSTORE PUSH1 0xA0 DUP3 ADD MLOAD DUP2 PUSH1 0x5 ADD PUSH1 0x0 PUSH2 0x100 EXP DUP2 SLOAD DUP2 PUSH1 0xFF MUL NOT AND SWAP1 DUP4 ISZERO ISZERO MUL OR SWAP1 SSTORE POP SWAP1 POP POP PUSH1 0x1 DUP3 SWAP1 DUP1 PUSH1 0x1 DUP2 SLOAD ADD DUP1 DUP3 SSTORE DUP1 SWAP2 POP POP PUSH1 0x1 SWAP1 SUB SWAP1 PUSH1 0x0 MSTORE PUSH1 0x20 PUSH1 0x0 KECCAK256 ADD PUSH1 0x0 SWAP1 SWAP2 SWAP1 SWAP2 SWAP1 SWAP2 PUSH2 0x100 EXP DUP2 SLOAD DUP2 PUSH20 0xFFFFFFFFFFFFFFFFFFFFFFFFFFFFFFFFFFFFFFFF MUL NOT AND SWAP1 DUP4 PUSH20 0xFFFFFFFFFFFFFFFFFFFFFFFFFFFFFFFFFFFFFFFF AND MUL OR SWAP1 SSTORE POP PUSH32 0x94AEC3DC6CB6F40C1DE17E8E63A10905C1D89509EE5F4649A1640AE029A25595 DUP4 DUP4 DUP4 PUSH1 0x40 MLOAD PUSH2 0xCEA SWAP4 SWAP3 SWAP2 SWAP1 PUSH2 0x1AA8 JUMP JUMPDEST PUSH1 0x40 MLOAD DUP1 SWAP2 SUB SWAP1 LOG1 POP POP POP JUMP JUMPDEST PUSH1 0x40 MLOAD DUP1 PUSH1 0xC0 ADD PUSH1 0x40 MSTORE DUP1 PUSH1 0x60 DUP2 MSTORE PUSH1 0x20 ADD PUSH1 0x0 PUSH20 0xFFFFFFFFFFFFFFFFFFFFFFFFFFFFFFFFFFFFFFFF AND DUP2 MSTORE PUSH1 0x20 ADD PUSH1 0x0 PUSH20 0xFFFFFFFFFFFFFFFFFFFFFFFFFFFFFFFFFFFFFFFF AND DUP2 MSTORE PUSH1 0x20 ADD PUSH1 0x0 DUP2 MSTORE PUSH1 0x20 ADD PUSH1 0x0 DUP2 MSTORE PUSH1 0x20 ADD PUSH1 0x0 ISZERO ISZERO DUP2 MSTORE POP SWAP1 JUMP JUMPDEST PUSH1 0x0 PUSH1 0x40 MLOAD SWAP1 POP SWAP1 JUMP JUMPDEST PUSH1 0x0 DUP1 REVERT JUMPDEST PUSH1 0x0 DUP1 REVERT JUMPDEST PUSH1 0x0 PUSH20 0xFFFFFFFFFFFFFFFFFFFFFFFFFFFFFFFFFFFFFFFF DUP3 AND SWAP1 POP SWAP2 SWAP1 POP JUMP JUMPDEST PUSH1 0x0 PUSH2 0xD9A DUP3 PUSH2 0xD6F JUMP JUMPDEST SWAP1 POP SWAP2 SWAP1 POP JUMP JUMPDEST PUSH2 0xDAA DUP2 PUSH2 0xD8F JUMP JUMPDEST DUP2 EQ PUSH2 0xDB5 JUMPI PUSH1 0x0 DUP1 REVERT JUMPDEST POP JUMP JUMPDEST PUSH1 0x0 DUP2 CALLDATALOAD SWAP1 POP PUSH2 0xDC7 DUP2 PUSH2 0xDA1 JUMP JUMPDEST SWAP3 SWAP2 POP POP JUMP JUMPDEST PUSH1 0x0 DUP2 SWAP1 POP SWAP2 SWAP1 POP JUMP JUMPDEST PUSH2 0xDE0 DUP2 PUSH2 0xDCD JUMP JUMPDEST DUP2 EQ PUSH2 0xDEB JUMPI PUSH1 0x0 DUP1 REVERT JUMPDEST POP JUMP JUMPDEST PUSH1 0x0 DUP2 CALLDATALOAD SWAP1 POP PUSH2 0xDFD DUP2 PUSH2 0xDD7 JUMP JUMPDEST SWAP3 SWAP2 POP POP JUMP JUMPDEST PUSH1 0x0 DUP1 PUSH1 0x0 PUSH1 0x60 DUP5 DUP7 SUB SLT ISZERO PUSH2 0xE1C JUMPI PUSH2 0xE1B PUSH2 0xD65 JUMP JUMPDEST JUMPDEST PUSH1 0x0 PUSH2 0xE2A DUP7 DUP3 DUP8 ADD PUSH2 0xDB8 JUMP JUMPDEST SWAP4 POP POP PUSH1 0x20 PUSH2 0xE3B DUP7 DUP3 DUP8 ADD PUSH2 0xDEE JUMP JUMPDEST SWAP3 POP POP PUSH1 0x40 PUSH2 0xE4C DUP7 DUP3 DUP8 ADD PUSH2 0xDEE JUMP JUMPDEST SWAP2 POP POP SWAP3 POP SWAP3 POP SWAP3 JUMP JUMPDEST PUSH1 0x0 PUSH1 0x20 DUP3 DUP5 SUB SLT ISZERO PUSH2 0xE6C JUMPI PUSH2 0xE6B PUSH2 0xD65 JUMP JUMPDEST JUMPDEST PUSH1 0x0 PUSH2 0xE7A DUP5 DUP3 DUP6 ADD PUSH2 0xDB8 JUMP JUMPDEST SWAP2 POP POP SWAP3 SWAP2 POP POP JUMP JUMPDEST PUSH1 0x0 DUP2 MLOAD SWAP1 POP SWAP2 SWAP1 POP JUMP JUMPDEST PUSH1 0x0 DUP3 DUP3 MSTORE PUSH1 0x20 DUP3 ADD SWAP1 POP SWAP3 SWAP2 POP POP JUMP JUMPDEST PUSH1 0x0 JUMPDEST DUP4 DUP2 LT ISZERO PUSH2 0xEBD JUMPI DUP1 DUP3 ADD MLOAD DUP2 DUP5 ADD MSTORE PUSH1 0x20 DUP2 ADD SWAP1 POP PUSH2 0xEA2 JUMP JUMPDEST PUSH1 0x0 DUP5 DUP5 ADD MSTORE POP POP POP POP JUMP JUMPDEST PUSH1 0x0 PUSH1 0x1F NOT PUSH1 0x1F DUP4 ADD AND SWAP1 POP SWAP2 SWAP1 POP JUMP JUMPDEST PUSH1 0x0 PUSH2 0xEE5 DUP3 PUSH2 0xE83 JUMP JUMPDEST PUSH2 0xEEF DUP2 DUP6 PUSH2 0xE8E JUMP JUMPDEST SWAP4 POP PUSH2 0xEFF DUP2 DUP6 PUSH1 0x20 DUP7 ADD PUSH2 0xE9F JUMP JUMPDEST PUSH2 0xF08 DUP2 PUSH2 0xEC9 JUMP JUMPDEST DUP5 ADD SWAP2 POP POP SWAP3 SWAP2 POP POP JUMP JUMPDEST PUSH2 0xF1C DUP2 PUSH2 0xD8F JUMP JUMPDEST DUP3 MSTORE POP POP JUMP JUMPDEST PUSH2 0xF2B DUP2 PUSH2 0xDCD JUMP JUMPDEST DUP3 MSTORE POP POP JUMP JUMPDEST PUSH1 0x0 DUP2 ISZERO ISZERO SWAP1 POP SWAP2 SWAP1 POP JUMP JUMPDEST PUSH2 0xF46 DUP2 PUSH2 0xF31 JUMP JUMPDEST DUP3 MSTORE POP POP JUMP JUMPDEST PUSH1 0x0 PUSH1 0xC0 DUP3 ADD SWAP1 POP DUP2 DUP2 SUB PUSH1 0x0 DUP4 ADD MSTORE PUSH2 0xF66 DUP2 DUP10 PUSH2 0xEDA JUMP JUMPDEST SWAP1 POP PUSH2 0xF75 PUSH1 0x20 DUP4 ADD DUP9 PUSH2 0xF13 JUMP JUMPDEST PUSH2 0xF82 PUSH1 0x40 DUP4 ADD DUP8 PUSH2 0xF13 JUMP JUMPDEST PUSH2 0xF8F PUSH1 0x60 DUP4 ADD DUP7 PUSH2 0xF22 JUMP JUMPDEST PUSH2 0xF9C PUSH1 0x80 DUP4 ADD DUP6 PUSH2 0xF22 JUMP JUMPDEST PUSH2 0xFA9 PUSH1 0xA0 DUP4 ADD DUP5 PUSH2 0xF3D JUMP JUMPDEST SWAP8 SWAP7 POP POP POP POP POP POP POP JUMP JUMPDEST PUSH1 0x0 DUP2 MLOAD SWAP1 POP SWAP2 SWAP1 POP JUMP JUMPDEST PUSH1 0x0 DUP3 DUP3 MSTORE PUSH1 0x20 DUP3 ADD SWAP1 POP SWAP3 SWAP2 POP POP JUMP JUMPDEST PUSH1 0x0 DUP2 SWAP1 POP PUSH1 0x20 DUP3 ADD SWAP1 POP SWAP2 SWAP1 POP JUMP JUMPDEST PUSH1 0x0 DUP3 DUP3 MSTORE PUSH1 0x20 DUP3 ADD SWAP1 POP SWAP3 SWAP2 POP POP JUMP JUMPDEST PUSH1 0x0 PUSH2 0xFFC DUP3 PUSH2 0xE83 JUMP JUMPDEST PUSH2 0x1006 DUP2 DUP6 PUSH2 0xFE0 JUMP JUMPDEST SWAP4 POP PUSH2 0x1016 DUP2 DUP6 PUSH1 0x20 DUP7 ADD PUSH2 0xE9F JUMP JUMPDEST PUSH2 0x101F DUP2 PUSH2 0xEC9 JUMP JUMPDEST DUP5 ADD SWAP2 POP POP SWAP3 SWAP2 POP POP JUMP JUMPDEST PUSH2 0x1033 DUP2 PUSH2 0xD8F JUMP JUMPDEST DUP3 MSTORE POP POP JUMP JUMPDEST PUSH2 0x1042 DUP2 PUSH2 0xDCD JUMP JUMPDEST DUP3 MSTORE POP POP JUMP JUMPDEST PUSH2 0x1051 DUP2 PUSH2 0xF31 JUMP JUMPDEST DUP3 MSTORE POP POP JUMP JUMPDEST PUSH1 0x0 PUSH1 0xC0 DUP4 ADD PUSH1 0x0 DUP4 ADD MLOAD DUP5 DUP3 SUB PUSH1 0x0 DUP7 ADD MSTORE PUSH2 0x1074 DUP3 DUP3 PUSH2 0xFF1 JUMP JUMPDEST SWAP2 POP POP PUSH1 0x20 DUP4 ADD MLOAD PUSH2 0x1089 PUSH1 0x20 DUP7 ADD DUP3 PUSH2 0x102A JUMP JUMPDEST POP PUSH1 0x40 DUP4 ADD MLOAD PUSH2 0x109C PUSH1 0x40 DUP7 ADD DUP3 PUSH2 0x102A JUMP JUMPDEST POP PUSH1 0x60 DUP4 ADD MLOAD PUSH2 0x10AF PUSH1 0x60 DUP7 ADD DUP3 PUSH2 0x1039 JUMP JUMPDEST POP PUSH1 0x80 DUP4 ADD MLOAD PUSH2 0x10C2 PUSH1 0x80 DUP7 ADD DUP3 PUSH2 0x1039 JUMP JUMPDEST POP PUSH1 0xA0 DUP4 ADD MLOAD PUSH2 0x10D5 PUSH1 0xA0 DUP7 ADD DUP3 PUSH2 0x1048 JUMP JUMPDEST POP DUP1 SWAP2 POP POP SWAP3 SWAP2 POP POP JUMP JUMPDEST PUSH1 0x0 PUSH2 0x10EC DUP4 DUP4 PUSH2 0x1057 JUMP JUMPDEST SWAP1 POP SWAP3 SWAP2 POP POP JUMP JUMPDEST PUSH1 0x0 PUSH1 0x20 DUP3 ADD SWAP1 POP SWAP2 SWAP1 POP JUMP JUMPDEST PUSH1 0x0 PUSH2 0x110C DUP3 PUSH2 0xFB4 JUMP JUMPDEST PUSH2 0x1116 DUP2 DUP6 PUSH2 0xFBF JUMP JUMPDEST SWAP4 POP DUP4 PUSH1 0x20 DUP3 MUL DUP6 ADD PUSH2 0x1128 DUP6 PUSH2 0xFD0 JUMP JUMPDEST DUP1 PUSH1 0x0 JUMPDEST DUP6 DUP2 LT ISZERO PUSH2 0x1164 JUMPI DUP5 DUP5 SUB DUP10 MSTORE DUP2 MLOAD PUSH2 0x1145 DUP6 DUP3 PUSH2 0x10E0 JUMP JUMPDEST SWAP5 POP PUSH2 0x1150 DUP4 PUSH2 0x10F4 JUMP JUMPDEST SWAP3 POP PUSH1 0x20 DUP11 ADD SWAP10 POP POP PUSH1 0x1 DUP2 ADD SWAP1 POP PUSH2 0x112C JUMP JUMPDEST POP DUP3 SWAP8 POP DUP8 SWAP6 POP POP POP POP POP POP SWAP3 SWAP2 POP POP JUMP JUMPDEST PUSH1 0x0 PUSH1 0x20 DUP3 ADD SWAP1 POP DUP2 DUP2 SUB PUSH1 0x0 DUP4 ADD MSTORE PUSH2 0x1190 DUP2 DUP5 PUSH2 0x1101 JUMP JUMPDEST SWAP1 POP SWAP3 SWAP2 POP POP JUMP JUMPDEST PUSH1 0x0 PUSH1 0x20 DUP3 DUP5 SUB SLT ISZERO PUSH2 0x11AE JUMPI PUSH2 0x11AD PUSH2 0xD65 JUMP JUMPDEST JUMPDEST PUSH1 0x0 PUSH2 0x11BC DUP5 DUP3 DUP6 ADD PUSH2 0xDEE JUMP JUMPDEST SWAP2 POP POP SWAP3 SWAP2 POP POP JUMP JUMPDEST PUSH1 0x0 PUSH1 0x20 DUP3 ADD SWAP1 POP PUSH2 0x11DA PUSH1 0x0 DUP4 ADD DUP5 PUSH2 0xF13 JUMP JUMPDEST SWAP3 SWAP2 POP POP JUMP JUMPDEST PUSH1 0x0 DUP1 PUSH1 0x40 DUP4 DUP6 SUB SLT ISZERO PUSH2 0x11F7 JUMPI PUSH2 0x11F6 PUSH2 0xD65 JUMP JUMPDEST JUMPDEST PUSH1 0x0 PUSH2 0x1205 DUP6 DUP3 DUP7 ADD PUSH2 0xDB8 JUMP JUMPDEST SWAP3 POP POP PUSH1 0x20 PUSH2 0x1216 DUP6 DUP3 DUP7 ADD PUSH2 0xDEE JUMP JUMPDEST SWAP2 POP POP SWAP3 POP SWAP3 SWAP1 POP JUMP JUMPDEST PUSH1 0x0 DUP2 MLOAD SWAP1 POP SWAP2 SWAP1 POP JUMP JUMPDEST PUSH1 0x0 DUP3 DUP3 MSTORE PUSH1 0x20 DUP3 ADD SWAP1 POP SWAP3 SWAP2 POP POP JUMP JUMPDEST PUSH1 0x0 DUP2 SWAP1 POP PUSH1 0x20 DUP3 ADD SWAP1 POP SWAP2 SWAP1 POP JUMP JUMPDEST PUSH1 0x0 PUSH2 0x1258 DUP4 DUP4 PUSH2 0x102A JUMP JUMPDEST PUSH1 0x20 DUP4 ADD SWAP1 POP SWAP3 SWAP2 POP POP JUMP JUMPDEST PUSH1 0x0 PUSH1 0x20 DUP3 ADD SWAP1 POP SWAP2 SWAP1 POP JUMP JUMPDEST PUSH1 0x0 PUSH2 0x127C DUP3 PUSH2 0x1220 JUMP JUMPDEST PUSH2 0x1286 DUP2 DUP6 PUSH2 0x122B JUMP JUMPDEST SWAP4 POP PUSH2 0x1291 DUP4 PUSH2 0x123C JUMP JUMPDEST DUP1 PUSH1 0x0 JUMPDEST DUP4 DUP2 LT ISZERO PUSH2 0x12C2 JUMPI DUP2 MLOAD PUSH2 0x12A9 DUP9 DUP3 PUSH2 0x124C JUMP JUMPDEST SWAP8 POP PUSH2 0x12B4 DUP4 PUSH2 0x1264 JUMP JUMPDEST SWAP3 POP POP PUSH1 0x1 DUP2 ADD SWAP1 POP PUSH2 0x1295 JUMP JUMPDEST POP DUP6 SWAP4 POP POP POP POP SWAP3 SWAP2 POP POP JUMP JUMPDEST PUSH1 0x0 PUSH1 0x20 DUP3 ADD SWAP1 POP DUP2 DUP2 SUB PUSH1 0x0 DUP4 ADD MSTORE PUSH2 0x12E9 DUP2 DUP5 PUSH2 0x1271 JUMP JUMPDEST SWAP1 POP SWAP3 SWAP2 POP POP JUMP JUMPDEST PUSH1 0x0 DUP1 REVERT JUMPDEST PUSH1 0x0 DUP1 REVERT JUMPDEST PUSH32 0x4E487B7100000000000000000000000000000000000000000000000000000000 PUSH1 0x0 MSTORE PUSH1 0x41 PUSH1 0x4 MSTORE PUSH1 0x24 PUSH1 0x0 REVERT JUMPDEST PUSH2 0x1333 DUP3 PUSH2 0xEC9 JUMP JUMPDEST DUP2 ADD DUP2 DUP2 LT PUSH8 0xFFFFFFFFFFFFFFFF DUP3 GT OR ISZERO PUSH2 0x1352 JUMPI PUSH2 0x1351 PUSH2 0x12FB JUMP JUMPDEST JUMPDEST DUP1 PUSH1 0x40 MSTORE POP POP POP JUMP JUMPDEST PUSH1 0x0 PUSH2 0x1365 PUSH2 0xD5B JUMP JUMPDEST SWAP1 POP PUSH2 0x1371 DUP3 DUP3 PUSH2 0x132A JUMP JUMPDEST SWAP2 SWAP1 POP JUMP JUMPDEST PUSH1 0x0 PUSH8 0xFFFFFFFFFFFFFFFF DUP3 GT ISZERO PUSH2 0x1391 JUMPI PUSH2 0x1390 PUSH2 0x12FB JUMP JUMPDEST JUMPDEST PUSH2 0x139A DUP3 PUSH2 0xEC9 JUMP JUMPDEST SWAP1 POP PUSH1 0x20 DUP2 ADD SWAP1 POP SWAP2 SWAP1 POP JUMP JUMPDEST DUP3 DUP2 DUP4 CALLDATACOPY PUSH1 0x0 DUP4 DUP4 ADD MSTORE POP POP POP JUMP JUMPDEST PUSH1 0x0 PUSH2 0x13C9 PUSH2 0x13C4 DUP5 PUSH2 0x1376 JUMP JUMPDEST PUSH2 0x135B JUMP JUMPDEST SWAP1 POP DUP3 DUP2 MSTORE PUSH1 0x20 DUP2 ADD DUP5 DUP5 DUP5 ADD GT ISZERO PUSH2 0x13E5 JUMPI PUSH2 0x13E4 PUSH2 0x12F6 JUMP JUMPDEST JUMPDEST PUSH2 0x13F0 DUP5 DUP3 DUP6 PUSH2 0x13A7 JUMP JUMPDEST POP SWAP4 SWAP3 POP POP POP JUMP JUMPDEST PUSH1 0x0 DUP3 PUSH1 0x1F DUP4 ADD SLT PUSH2 0x140D JUMPI PUSH2 0x140C PUSH2 0x12F1 JUMP JUMPDEST JUMPDEST DUP2 CALLDATALOAD PUSH2 0x141D DUP5 DUP3 PUSH1 0x20 DUP7 ADD PUSH2 0x13B6 JUMP JUMPDEST SWAP2 POP POP SWAP3 SWAP2 POP POP JUMP JUMPDEST PUSH1 0x0 DUP1 PUSH1 0x0 PUSH1 0x60 DUP5 DUP7 SUB SLT ISZERO PUSH2 0x143F JUMPI PUSH2 0x143E PUSH2 0xD65 JUMP JUMPDEST JUMPDEST PUSH1 0x0 DUP5 ADD CALLDATALOAD PUSH8 0xFFFFFFFFFFFFFFFF DUP2 GT ISZERO PUSH2 0x145D JUMPI PUSH2 0x145C PUSH2 0xD6A JUMP JUMPDEST JUMPDEST PUSH2 0x1469 DUP7 DUP3 DUP8 ADD PUSH2 0x13F8 JUMP JUMPDEST SWAP4 POP POP PUSH1 0x20 PUSH2 0x147A DUP7 DUP3 DUP8 ADD PUSH2 0xDB8 JUMP JUMPDEST SWAP3 POP POP PUSH1 0x40 PUSH2 0x148B DUP7 DUP3 DUP8 ADD PUSH2 0xDB8 JUMP JUMPDEST SWAP2 POP POP SWAP3 POP SWAP3 POP SWAP3 JUMP JUMPDEST PUSH32 0x436F6D70616E79206E6F74207265676973746572656400000000000000000000 PUSH1 0x0 DUP3 ADD MSTORE POP JUMP JUMPDEST PUSH1 0x0 PUSH2 0x14CB PUSH1 0x16 DUP4 PUSH2 0xE8E JUMP JUMPDEST SWAP2 POP PUSH2 0x14D6 DUP3 PUSH2 0x1495 JUMP JUMPDEST PUSH1 0x20 DUP3 ADD SWAP1 POP SWAP2 SWAP1 POP JUMP JUMPDEST PUSH1 0x0 PUSH1 0x20 DUP3 ADD SWAP1 POP DUP2 DUP2 SUB PUSH1 0x0 DUP4 ADD MSTORE PUSH2 0x14FA DUP2 PUSH2 0x14BE JUMP JUMPDEST SWAP1 POP SWAP2 SWAP1 POP JUMP JUMPDEST PUSH32 0x4E487B7100000000000000000000000000000000000000000000000000000000 PUSH1 0x0 MSTORE PUSH1 0x11 PUSH1 0x4 MSTORE PUSH1 0x24 PUSH1 0x0 REVERT JUMPDEST PUSH1 0x0 PUSH2 0x153B DUP3 PUSH2 0xDCD JUMP JUMPDEST SWAP2 POP PUSH2 0x1546 DUP4 PUSH2 0xDCD JUMP JUMPDEST SWAP3 POP DUP3 DUP3 ADD SWAP1 POP DUP1 DUP3 GT ISZERO PUSH2 0x155E JUMPI PUSH2 0x155D PUSH2 0x1501 JUMP JUMPDEST JUMPDEST SWAP3 SWAP2 POP POP JUMP JUMPDEST PUSH1 0x0 PUSH2 0x156F DUP3 PUSH2 0xDCD JUMP JUMPDEST SWAP2 POP PUSH2 0x157A DUP4 PUSH2 0xDCD JUMP JUMPDEST SWAP3 POP DUP3 DUP3 MUL PUSH2 0x1588 DUP2 PUSH2 0xDCD JUMP JUMPDEST SWAP2 POP DUP3 DUP3 DIV DUP5 EQ DUP4 ISZERO OR PUSH2 0x159F JUMPI PUSH2 0x159E PUSH2 0x1501 JUMP JUMPDEST JUMPDEST POP SWAP3 SWAP2 POP POP JUMP JUMPDEST PUSH32 0x4E487B7100000000000000000000000000000000000000000000000000000000 PUSH1 0x0 MSTORE PUSH1 0x12 PUSH1 0x4 MSTORE PUSH1 0x24 PUSH1 0x0 REVERT JUMPDEST PUSH1 0x0 PUSH2 0x15E0 DUP3 PUSH2 0xDCD JUMP JUMPDEST SWAP2 POP PUSH2 0x15EB DUP4 PUSH2 0xDCD JUMP JUMPDEST SWAP3 POP DUP3 PUSH2 0x15FB JUMPI PUSH2 0x15FA PUSH2 0x15A6 JUMP JUMPDEST JUMPDEST DUP3 DUP3 DIV SWAP1 POP SWAP3 SWAP2 POP POP JUMP JUMPDEST PUSH1 0x0 PUSH1 0x20 DUP3 ADD SWAP1 POP PUSH2 0x161B PUSH1 0x0 DUP4 ADD DUP5 PUSH2 0xF22 JUMP JUMPDEST SWAP3 SWAP2 POP POP JUMP JUMPDEST PUSH32 0x4E487B7100000000000000000000000000000000000000000000000000000000 PUSH1 0x0 MSTORE PUSH1 0x22 PUSH1 0x4 MSTORE PUSH1 0x24 PUSH1 0x0 REVERT JUMPDEST PUSH1 0x0 PUSH1 0x2 DUP3 DIV SWAP1 POP PUSH1 0x1 DUP3 AND DUP1 PUSH2 0x1668 JUMPI PUSH1 0x7F DUP3 AND SWAP2 POP JUMPDEST PUSH1 0x20 DUP3 LT DUP2 SUB PUSH2 0x167B JUMPI PUSH2 0x167A PUSH2 0x1621 JUMP JUMPDEST JUMPDEST POP SWAP2 SWAP1 POP JUMP JUMPDEST PUSH32 0x4E487B7100000000000000000000000000000000000000000000000000000000 PUSH1 0x0 MSTORE PUSH1 0x32 PUSH1 0x4 MSTORE PUSH1 0x24 PUSH1 0x0 REVERT JUMPDEST PUSH1 0x0 PUSH2 0x16BB DUP3 PUSH2 0xDCD JUMP JUMPDEST SWAP2 POP PUSH32 0xFFFFFFFFFFFFFFFFFFFFFFFFFFFFFFFFFFFFFFFFFFFFFFFFFFFFFFFFFFFFFFFF DUP3 SUB PUSH2 0x16ED JUMPI PUSH2 0x16EC PUSH2 0x1501 JUMP JUMPDEST JUMPDEST PUSH1 0x1 DUP3 ADD SWAP1 POP SWAP2 SWAP1 POP JUMP JUMPDEST PUSH32 0x4E6F206465706F7369747320746F2063616C63756C6174652072657075746174 PUSH1 0x0 DUP3 ADD MSTORE PUSH32 0x696F6E2064656372656173650000000000000000000000000000000000000000 PUSH1 0x20 DUP3 ADD MSTORE POP JUMP JUMPDEST PUSH1 0x0 PUSH2 0x1754 PUSH1 0x2C DUP4 PUSH2 0xE8E JUMP JUMPDEST SWAP2 POP PUSH2 0x175F DUP3 PUSH2 0x16F8 JUMP JUMPDEST PUSH1 0x40 DUP3 ADD SWAP1 POP SWAP2 SWAP1 POP JUMP JUMPDEST PUSH1 0x0 PUSH1 0x20 DUP3 ADD SWAP1 POP DUP2 DUP2 SUB PUSH1 0x0 DUP4 ADD MSTORE PUSH2 0x1783 DUP2 PUSH2 0x1747 JUMP JUMPDEST SWAP1 POP SWAP2 SWAP1 POP JUMP JUMPDEST PUSH1 0x0 PUSH2 0x1795 DUP3 PUSH2 0xDCD JUMP JUMPDEST SWAP2 POP PUSH2 0x17A0 DUP4 PUSH2 0xDCD JUMP JUMPDEST SWAP3 POP DUP3 DUP3 SUB SWAP1 POP DUP2 DUP2 GT ISZERO PUSH2 0x17B8 JUMPI PUSH2 0x17B7 PUSH2 0x1501 JUMP JUMPDEST JUMPDEST SWAP3 SWAP2 POP POP JUMP JUMPDEST PUSH32 0x436F6D70616E7920616C72656164792072656769737465726564000000000000 PUSH1 0x0 DUP3 ADD MSTORE POP JUMP JUMPDEST PUSH1 0x0 PUSH2 0x17F4 PUSH1 0x1A DUP4 PUSH2 0xE8E JUMP JUMPDEST SWAP2 POP PUSH2 0x17FF DUP3 PUSH2 0x17BE JUMP JUMPDEST PUSH1 0x20 DUP3 ADD SWAP1 POP SWAP2 SWAP1 POP JUMP JUMPDEST PUSH1 0x0 PUSH1 0x20 DUP3 ADD SWAP1 POP DUP2 DUP2 SUB PUSH1 0x0 DUP4 ADD MSTORE PUSH2 0x1823 DUP2 PUSH2 0x17E7 JUMP JUMPDEST SWAP1 POP SWAP2 SWAP1 POP JUMP JUMPDEST PUSH1 0x0 DUP2 SWAP1 POP DUP2 PUSH1 0x0 MSTORE PUSH1 0x20 PUSH1 0x0 KECCAK256 SWAP1 POP SWAP2 SWAP1 POP JUMP JUMPDEST PUSH1 0x0 PUSH1 0x20 PUSH1 0x1F DUP4 ADD DIV SWAP1 POP SWAP2 SWAP1 POP JUMP JUMPDEST PUSH1 0x0 DUP3 DUP3 SHL SWAP1 POP SWAP3 SWAP2 POP POP JUMP JUMPDEST PUSH1 0x0 PUSH1 0x8 DUP4 MUL PUSH2 0x188C PUSH32 0xFFFFFFFFFFFFFFFFFFFFFFFFFFFFFFFFFFFFFFFFFFFFFFFFFFFFFFFFFFFFFFFF DUP3 PUSH2 0x184F JUMP JUMPDEST PUSH2 0x1896 DUP7 DUP4 PUSH2 0x184F JUMP JUMPDEST SWAP6 POP DUP1 NOT DUP5 AND SWAP4 POP DUP1 DUP7 AND DUP5 OR SWAP3 POP POP POP SWAP4 SWAP3 POP POP POP JUMP JUMPDEST PUSH1 0x0 DUP2 SWAP1 POP SWAP2 SWAP1 POP JUMP JUMPDEST PUSH1 0x0 PUSH2 0x18D3 PUSH2 0x18CE PUSH2 0x18C9 DUP5 PUSH2 0xDCD JUMP JUMPDEST PUSH2 0x18AE JUMP JUMPDEST PUSH2 0xDCD JUMP JUMPDEST SWAP1 POP SWAP2 SWAP1 POP JUMP JUMPDEST PUSH1 0x0 DUP2 SWAP1 POP SWAP2 SWAP1 POP JUMP JUMPDEST PUSH2 0x18ED DUP4 PUSH2 0x18B8 JUMP JUMPDEST PUSH2 0x1901 PUSH2 0x18F9 DUP3 PUSH2 0x18DA JUMP JUMPDEST DUP5 DUP5 SLOAD PUSH2 0x185C JUMP JUMPDEST DUP3 SSTORE POP POP POP POP JUMP JUMPDEST PUSH1 0x0 SWAP1 JUMP JUMPDEST PUSH2 0x1916 PUSH2 0x1909 JUMP JUMPDEST PUSH2 0x1921 DUP2 DUP5 DUP5 PUSH2 0x18E4 JUMP JUMPDEST POP POP POP JUMP JUMPDEST JUMPDEST DUP2 DUP2 LT ISZERO PUSH2 0x1945 JUMPI PUSH2 0x193A PUSH1 0x0 DUP3 PUSH2 0x190E JUMP JUMPDEST PUSH1 0x1 DUP2 ADD SWAP1 POP PUSH2 0x1927 JUMP JUMPDEST POP POP JUMP JUMPDEST PUSH1 0x1F DUP3 GT ISZERO PUSH2 0x198A JUMPI PUSH2 0x195B DUP2 PUSH2 0x182A JUMP JUMPDEST PUSH2 0x1964 DUP5 PUSH2 0x183F JUMP JUMPDEST DUP2 ADD PUSH1 0x20 DUP6 LT ISZERO PUSH2 0x1973 JUMPI DUP2 SWAP1 POP JUMPDEST PUSH2 0x1987 PUSH2 0x197F DUP6 PUSH2 0x183F JUMP JUMPDEST DUP4 ADD DUP3 PUSH2 0x1926 JUMP JUMPDEST POP POP JUMPDEST POP POP POP JUMP JUMPDEST PUSH1 0x0 DUP3 DUP3 SHR SWAP1 POP SWAP3 SWAP2 POP POP JUMP JUMPDEST PUSH1 0x0 PUSH2 0x19AD PUSH1 0x0 NOT DUP5 PUSH1 0x8 MUL PUSH2 0x198F JUMP JUMPDEST NOT DUP1 DUP4 AND SWAP2 POP POP SWAP3 SWAP2 POP POP JUMP JUMPDEST PUSH1 0x0 PUSH2 0x19C6 DUP4 DUP4 PUSH2 0x199C JUMP JUMPDEST SWAP2 POP DUP3 PUSH1 0x2 MUL DUP3 OR SWAP1 POP SWAP3 SWAP2 POP POP JUMP JUMPDEST PUSH2 0x19DF DUP3 PUSH2 0xE83 JUMP JUMPDEST PUSH8 0xFFFFFFFFFFFFFFFF DUP2 GT ISZERO PUSH2 0x19F8 JUMPI PUSH2 0x19F7 PUSH2 0x12FB JUMP JUMPDEST JUMPDEST PUSH2 0x1A02 DUP3 SLOAD PUSH2 0x1650 JUMP JUMPDEST PUSH2 0x1A0D DUP3 DUP3 DUP6 PUSH2 0x1949 JUMP JUMPDEST PUSH1 0x0 PUSH1 0x20 SWAP1 POP PUSH1 0x1F DUP4 GT PUSH1 0x1 DUP2 EQ PUSH2 0x1A40 JUMPI PUSH1 0x0 DUP5 ISZERO PUSH2 0x1A2E JUMPI DUP3 DUP8 ADD MLOAD SWAP1 POP JUMPDEST PUSH2 0x1A38 DUP6 DUP3 PUSH2 0x19BA JUMP JUMPDEST DUP7 SSTORE POP PUSH2 0x1AA0 JUMP JUMPDEST PUSH1 0x1F NOT DUP5 AND PUSH2 0x1A4E DUP7 PUSH2 0x182A JUMP JUMPDEST PUSH1 0x0 JUMPDEST DUP3 DUP2 LT ISZERO PUSH2 0x1A76 JUMPI DUP5 DUP10 ADD MLOAD DUP3 SSTORE PUSH1 0x1 DUP3 ADD SWAP2 POP PUSH1 0x20 DUP6 ADD SWAP5 POP PUSH1 0x20 DUP2 ADD SWAP1 POP PUSH2 0x1A51 JUMP JUMPDEST DUP7 DUP4 LT ISZERO PUSH2 0x1A93 JUMPI DUP5 DUP10 ADD MLOAD PUSH2 0x1A8F PUSH1 0x1F DUP10 AND DUP3 PUSH2 0x199C JUMP JUMPDEST DUP4 SSTORE POP JUMPDEST PUSH1 0x1 PUSH1 0x2 DUP9 MUL ADD DUP9 SSTORE POP POP POP JUMPDEST POP POP POP POP POP POP JUMP JUMPDEST PUSH1 0x0 PUSH1 0x60 DUP3 ADD SWAP1 POP DUP2 DUP2 SUB PUSH1 0x0 DUP4 ADD MSTORE PUSH2 0x1AC2 DUP2 DUP7 PUSH2 0xEDA JUMP JUMPDEST SWAP1 POP PUSH2 0x1AD1 PUSH1 0x20 DUP4 ADD DUP6 PUSH2 0xF13 JUMP JUMPDEST PUSH2 0x1ADE PUSH1 0x40 DUP4 ADD DUP5 PUSH2 0xF13 JUMP JUMPDEST SWAP5 SWAP4 POP POP POP POP JUMP INVALID LOG2 PUSH5 0x6970667358 0x22 SLT KECCAK256 0xC4 LOG3 0xCF PREVRANDAO INVALID MLOAD 0x23 0xB6 0x2F DUP9 REVERT 0xDD LOG4 PUSH3 0x851F52 SAR LOG0 0x2E PC SSTORE 0x29 GASPRICE SUB SWAP6 0xCF CREATE INVALID BYTE LOG0 PUSH14 0x64736F6C63430008140033000000 "},"methodIdentifiers":{"companies(address)":"355e6ce8","getCompaniesByReputation()":"35d2e6f1","getRegisteredCompanies()":"ce0a8ed5","registerCompany(string,address,address)":"fcc436b1","registeredCompanies(uint256)":"5e96b80d","updateReputation(address,uint256,uint256)":"2c92a969","updateReputationDecrease(address,uint256)":"bc997437"}}}}}