{"contracts/Escrow.sol":{"EscrowWallet":{"abi":[{"inputs":[{"internalType":"address","name":"_token","type":"address"},{"internalType":"address","name":"_companyAccount","type":"address"}],"stateMutability":"nonpayable","type":"constructor"},{"anonymous":false,"inputs":[{"indexed":true,"internalType":"address","name":"investor","type":"address"},{"indexed":false,"internalType":"uint256","name":"amount","type":"uint256"},{"indexed":false,"internalType":"uint256","name":"tokensMinted","type":"uint256"}],"name":"DepositMade","type":"event"},{"anonymous":false,"inputs":[{"indexed":false,"internalType":"uint256","name":"amount","type":"uint256"}],"name":"FundsReleased","type":"event"},{"anonymous":false,"inputs":[{"indexed":false,"internalType":"uint256","name":"milestoneNumber","type":"uint256"}],"name":"MilestoneApproved","type":"event"},{"inputs":[],"name":"approveMilestone","outputs":[],"stateMutability":"nonpayable","type":"function"},{"inputs":[],"name":"companyAccount","outputs":[{"internalType":"address","name":"","type":"address"}],"stateMutability":"view","type":"function"},{"inputs":[],"name":"currentMilestone","outputs":[{"internalType":"uint256","name":"","type":"uint256"}],"stateMutability":"view","type":"function"},{"inputs":[],"name":"deposit","outputs":[],"stateMutability":"payable","type":"function"},{"inputs":[],"name":"getBalance","outputs":[{"internalType":"uint256","name":"","type":"uint256"}],"stateMutability":"view","type":"function"},{"inputs":[],"name":"investor","outputs":[{"internalType":"address","name":"","type":"address"}],"stateMutability":"view","type":"function"},{"inputs":[],"name":"lastTokenPrice","outputs":[{"internalType":"uint256","name":"","type":"uint256"}],"stateMutability":"view","type":"function"},{"inputs":[],"name":"milestoneCount","outputs":[{"internalType":"uint256","name":"","type":"uint256"}],"stateMutability":"view","type":"function"},{"inputs":[],"name":"milestoneMet","outputs":[{"internalType":"bool","name":"","type":"bool"}],"stateMutability":"view","type":"function"},{"inputs":[],"name":"owner","outputs":[{"internalType":"address","name":"","type":"address"}],"stateMutability":"view","type":"function"},{"inputs":[{"internalType":"uint256","name":"_milestoneCount","type":"uint256"}],"name":"setMilestone","outputs":[],"stateMutability":"nonpayable","type":"function"},{"inputs":[],"name":"token","outputs":[{"internalType":"contract DemandBasedToken","name":"","type":"address"}],"stateMutability":"view","type":"function"}],"evm":{"bytecode":{"linkReferences":{},"object":"60806040523480156200001157600080fd5b506040516200121938038062001219833981810160405281019062000037919062000215565b336000806101000a81548173ffffffffffffffffffffffffffffffffffffffff021916908373ffffffffffffffffffffffffffffffffffffffff16021790555081600160006101000a81548173ffffffffffffffffffffffffffffffffffffffff021916908373ffffffffffffffffffffffffffffffffffffffff16021790555080600660006101000a81548173ffffffffffffffffffffffffffffffffffffffff021916908373ffffffffffffffffffffffffffffffffffffffff160217905550600160009054906101000a900473ffffffffffffffffffffffffffffffffffffffff1673ffffffffffffffffffffffffffffffffffffffff16637ff9b5966040518163ffffffff1660e01b8152600401602060405180830381865afa15801562000167573d6000803e3d6000fd5b505050506040513d601f19601f820116820180604052508101906200018d919062000297565b600481905550600060028190555060006003819055505050620002c9565b600080fd5b600073ffffffffffffffffffffffffffffffffffffffff82169050919050565b6000620001dd82620001b0565b9050919050565b620001ef81620001d0565b8114620001fb57600080fd5b50565b6000815190506200020f81620001e4565b92915050565b600080604083850312156200022f576200022e620001ab565b5b60006200023f85828601620001fe565b92505060206200025285828601620001fe565b9150509250929050565b6000819050919050565b62000271816200025c565b81146200027d57600080fd5b50565b600081519050620002918162000266565b92915050565b600060208284031215620002b057620002af620001ab565b5b6000620002c08482850162000280565b91505092915050565b610f4080620002d96000396000f3fe6080604052600436106100a75760003560e01c8063996d1c0611610064578063996d1c061461019a578063b0304813146101c5578063b64d7df1146101f0578063c547092b1461021b578063d0e30db014610244578063fc0c546a1461024e576100a7565b80630681ca55146100ac57806312065fe0146100d75780631e0018d614610102578063642a833f1461012d5780638da5cb5b1461015857806391f8533914610183575b600080fd5b3480156100b857600080fd5b506100c1610279565b6040516100ce919061092b565b60405180910390f35b3480156100e357600080fd5b506100ec61027f565b6040516100f9919061092b565b60405180910390f35b34801561010e57600080fd5b50610117610287565b6040516101249190610987565b60405180910390f35b34801561013957600080fd5b506101426102ad565b60405161014f9190610987565b60405180910390f35b34801561016457600080fd5b5061016d6102d3565b60405161017a9190610987565b60405180910390f35b34801561018f57600080fd5b506101986102f7565b005b3480156101a657600080fd5b506101af610402565b6040516101bc91906109bd565b60405180910390f35b3480156101d157600080fd5b506101da610415565b6040516101e7919061092b565b60405180910390f35b3480156101fc57600080fd5b5061020561041b565b604051610212919061092b565b60405180910390f35b34801561022757600080fd5b50610242600480360381019061023d9190610a09565b610421565b005b61024c6104b9565b005b34801561025a57600080fd5b50610263610826565b6040516102709190610a95565b60405180910390f35b60025481565b600047905090565b600560009054906101000a900473ffffffffffffffffffffffffffffffffffffffff1681565b600660009054906101000a900473ffffffffffffffffffffffffffffffffffffffff1681565b60008054906101000a900473ffffffffffffffffffffffffffffffffffffffff1681565b600560009054906101000a900473ffffffffffffffffffffffffffffffffffffffff1673ffffffffffffffffffffffffffffffffffffffff163373ffffffffffffffffffffffffffffffffffffffff1614610387576040517f08c379a000000000000000000000000000000000000000000000000000000000815260040161037e90610b33565b60405180910390fd5b600254600354106103cd576040517f08c379a00000000000000000000000000000000000000000000000000000000081526004016103c490610b9f565b60405180910390fd5b600360008154809291906103e090610bee565b91905055506001600660146101000a81548160ff021916908315150217905550565b600660149054906101000a900460ff1681565b60035481565b60045481565b60008054906101000a900473ffffffffffffffffffffffffffffffffffffffff1673ffffffffffffffffffffffffffffffffffffffff163373ffffffffffffffffffffffffffffffffffffffff16146104af576040517f08c379a00000000000000000000000000000000000000000000000000000000081526004016104a690610ca8565b60405180910390fd5b8060028190555050565b600034116104fc576040517f08c379a00000000000000000000000000000000000000000000000000000000081526004016104f390610d14565b60405180910390fd5b60025460035410610542576040517f08c379a000000000000000000000000000000000000000000000000000000000815260040161053990610d80565b60405180910390fd5b6000600160009054906101000a900473ffffffffffffffffffffffffffffffffffffffff1673ffffffffffffffffffffffffffffffffffffffff16637ff9b5966040518163ffffffff1660e01b8152600401602060405180830381865afa1580156105b1573d6000803e3d6000fd5b505050506040513d601f19601f820116820180604052508101906105d59190610db5565b670de0b6b3a7640000346105e99190610de2565b6105f39190610e53565b9050600160009054906101000a900473ffffffffffffffffffffffffffffffffffffffff1673ffffffffffffffffffffffffffffffffffffffff1663f0dda65c33836040518363ffffffff1660e01b8152600401610652929190610e84565b600060405180830381600087803b15801561066c57600080fd5b505af1158015610680573d6000803e3d6000fd5b505050503373ffffffffffffffffffffffffffffffffffffffff167f0b05f0d1cd0819f155b8a61f60baf7767c1ee49d04aeaab701df236140eb93f934836040516106cc929190610ead565b60405180910390a260006064600a346106e59190610de2565b6106ef9190610e53565b9050600660009054906101000a900473ffffffffffffffffffffffffffffffffffffffff1673ffffffffffffffffffffffffffffffffffffffff166108fc829081150290604051600060405180830381858888f19350505050158015610759573d6000803e3d6000fd5b506000600160009054906101000a900473ffffffffffffffffffffffffffffffffffffffff1673ffffffffffffffffffffffffffffffffffffffff16637ff9b5966040518163ffffffff1660e01b8152600401602060405180830381865afa1580156107c9573d6000803e3d6000fd5b505050506040513d601f19601f820116820180604052508101906107ed9190610db5565b905060146004546107fe9190610e53565b60045461080b9190610ed6565b8110610821578060048190555061082061084c565b5b505050565b600160009054906101000a900473ffffffffffffffffffffffffffffffffffffffff1681565b600047905060006064600a836108629190610de2565b61086c9190610e53565b9050600660009054906101000a900473ffffffffffffffffffffffffffffffffffffffff1673ffffffffffffffffffffffffffffffffffffffff166108fc829081150290604051600060405180830381858888f193505050501580156108d6573d6000803e3d6000fd5b507f952b264c8e0a06cddb4bbaa6d6af1d565145329fd95bbe72cb2b53942b2dc96681604051610906919061092b565b60405180910390a15050565b6000819050919050565b61092581610912565b82525050565b6000602082019050610940600083018461091c565b92915050565b600073ffffffffffffffffffffffffffffffffffffffff82169050919050565b600061097182610946565b9050919050565b61098181610966565b82525050565b600060208201905061099c6000830184610978565b92915050565b60008115159050919050565b6109b7816109a2565b82525050565b60006020820190506109d260008301846109ae565b92915050565b600080fd5b6109e681610912565b81146109f157600080fd5b50565b600081359050610a03816109dd565b92915050565b600060208284031215610a1f57610a1e6109d8565b5b6000610a2d848285016109f4565b91505092915050565b6000819050919050565b6000610a5b610a56610a5184610946565b610a36565b610946565b9050919050565b6000610a6d82610a40565b9050919050565b6000610a7f82610a62565b9050919050565b610a8f81610a74565b82525050565b6000602082019050610aaa6000830184610a86565b92915050565b600082825260208201905092915050565b7f4f6e6c7920696e766573746f722063616e20617070726f7665206d696c65737460008201527f6f6e650000000000000000000000000000000000000000000000000000000000602082015250565b6000610b1d602383610ab0565b9150610b2882610ac1565b604082019050919050565b60006020820190508181036000830152610b4c81610b10565b9050919050565b7f416c6c206d696c6573746f6e6573206d65740000000000000000000000000000600082015250565b6000610b89601283610ab0565b9150610b9482610b53565b602082019050919050565b60006020820190508181036000830152610bb881610b7c565b9050919050565b7f4e487b7100000000000000000000000000000000000000000000000000000000600052601160045260246000fd5b6000610bf982610912565b91507fffffffffffffffffffffffffffffffffffffffffffffffffffffffffffffffff8203610c2b57610c2a610bbf565b5b600182019050919050565b7f4f6e6c79206f776e65722063616e2063616c6c20746869732066756e6374696f60008201527f6e00000000000000000000000000000000000000000000000000000000000000602082015250565b6000610c92602183610ab0565b9150610c9d82610c36565b604082019050919050565b60006020820190508181036000830152610cc181610c85565b9050919050565b7f4d757374206465706f73697420736f6d652066756e6473000000000000000000600082015250565b6000610cfe601783610ab0565b9150610d0982610cc8565b602082019050919050565b60006020820190508181036000830152610d2d81610cf1565b9050919050565b7f416c6c206d696c6573746f6e657320616c726561647920616368696576656400600082015250565b6000610d6a601f83610ab0565b9150610d7582610d34565b602082019050919050565b60006020820190508181036000830152610d9981610d5d565b9050919050565b600081519050610daf816109dd565b92915050565b600060208284031215610dcb57610dca6109d8565b5b6000610dd984828501610da0565b91505092915050565b6000610ded82610912565b9150610df883610912565b9250828202610e0681610912565b91508282048414831517610e1d57610e1c610bbf565b5b5092915050565b7f4e487b7100000000000000000000000000000000000000000000000000000000600052601260045260246000fd5b6000610e5e82610912565b9150610e6983610912565b925082610e7957610e78610e24565b5b828204905092915050565b6000604082019050610e996000830185610978565b610ea6602083018461091c565b9392505050565b6000604082019050610ec2600083018561091c565b610ecf602083018461091c565b9392505050565b6000610ee182610912565b9150610eec83610912565b9250828201905080821115610f0457610f03610bbf565b5b9291505056fea26469706673582212204c013b0001540dbce95087c7628a9794dfddec080334e32e396a8b6b6a638d0164736f6c63430008140033","opcodes":"PUSH1 0x80 PUSH1 0x40 MSTORE CALLVALUE DUP1 ISZERO PUSH3 0x11 JUMPI PUSH1 0x0 DUP1 REVERT JUMPDEST POP PUSH1 0x40 MLOAD PUSH3 0x1219 CODESIZE SUB DUP1 PUSH3 0x1219 DUP4 CODECOPY DUP2 DUP2 ADD PUSH1 0x40 MSTORE DUP2 ADD SWAP1 PUSH3 0x37 SWAP2 SWAP1 PUSH3 0x215 JUMP JUMPDEST CALLER PUSH1 0x0 DUP1 PUSH2 0x100 EXP DUP2 SLOAD DUP2 PUSH20 0xFFFFFFFFFFFFFFFFFFFFFFFFFFFFFFFFFFFFFFFF MUL NOT AND SWAP1 DUP4 PUSH20 0xFFFFFFFFFFFFFFFFFFFFFFFFFFFFFFFFFFFFFFFF AND MUL OR SWAP1 SSTORE POP DUP2 PUSH1 0x1 PUSH1 0x0 PUSH2 0x100 EXP DUP2 SLOAD DUP2 PUSH20 0xFFFFFFFFFFFFFFFFFFFFFFFFFFFFFFFFFFFFFFFF MUL NOT AND SWAP1 DUP4 PUSH20 0xFFFFFFFFFFFFFFFFFFFFFFFFFFFFFFFFFFFFFFFF AND MUL OR SWAP1 SSTORE POP DUP1 PUSH1 0x6 PUSH1 0x0 PUSH2 0x100 EXP DUP2 SLOAD DUP2 PUSH20 0xFFFFFFFFFFFFFFFFFFFFFFFFFFFFFFFFFFFFFFFF MUL NOT AND SWAP1 DUP4 PUSH20 0xFFFFFFFFFFFFFFFFFFFFFFFFFFFFFFFFFFFFFFFF AND MUL OR SWAP1 SSTORE POP PUSH1 0x1 PUSH1 0x0 SWAP1 SLOAD SWAP1 PUSH2 0x100 EXP SWAP1 DIV PUSH20 0xFFFFFFFFFFFFFFFFFFFFFFFFFFFFFFFFFFFFFFFF AND PUSH20 0xFFFFFFFFFFFFFFFFFFFFFFFFFFFFFFFFFFFFFFFF AND PUSH4 0x7FF9B596 PUSH1 0x40 MLOAD DUP2 PUSH4 0xFFFFFFFF AND PUSH1 0xE0 SHL DUP2 MSTORE PUSH1 0x4 ADD PUSH1 0x20 PUSH1 0x40 MLOAD DUP1 DUP4 SUB DUP2 DUP7 GAS STATICCALL ISZERO DUP1 ISZERO PUSH3 0x167 JUMPI RETURNDATASIZE PUSH1 0x0 DUP1 RETURNDATACOPY RETURNDATASIZE PUSH1 0x0 REVERT JUMPDEST POP POP POP POP PUSH1 0x40 MLOAD RETURNDATASIZE PUSH1 0x1F NOT PUSH1 0x1F DUP3 ADD AND DUP3 ADD DUP1 PUSH1 0x40 MSTORE POP DUP2 ADD SWAP1 PUSH3 0x18D SWAP2 SWAP1 PUSH3 0x297 JUMP JUMPDEST PUSH1 0x4 DUP2 SWAP1 SSTORE POP PUSH1 0x0 PUSH1 0x2 DUP2 SWAP1 SSTORE POP PUSH1 0x0 PUSH1 0x3 DUP2 SWAP1 SSTORE POP POP POP PUSH3 0x2C9 JUMP JUMPDEST PUSH1 0x0 DUP1 REVERT JUMPDEST PUSH1 0x0 PUSH20 0xFFFFFFFFFFFFFFFFFFFFFFFFFFFFFFFFFFFFFFFF DUP3 AND SWAP1 POP SWAP2 SWAP1 POP JUMP JUMPDEST PUSH1 0x0 PUSH3 0x1DD DUP3 PUSH3 0x1B0 JUMP JUMPDEST SWAP1 POP SWAP2 SWAP1 POP JUMP JUMPDEST PUSH3 0x1EF DUP2 PUSH3 0x1D0 JUMP JUMPDEST DUP2 EQ PUSH3 0x1FB JUMPI PUSH1 0x0 DUP1 REVERT JUMPDEST POP JUMP JUMPDEST PUSH1 0x0 DUP2 MLOAD SWAP1 POP PUSH3 0x20F DUP2 PUSH3 0x1E4 JUMP JUMPDEST SWAP3 SWAP2 POP POP JUMP JUMPDEST PUSH1 0x0 DUP1 PUSH1 0x40 DUP4 DUP6 SUB SLT ISZERO PUSH3 0x22F JUMPI PUSH3 0x22E PUSH3 0x1AB JUMP JUMPDEST JUMPDEST PUSH1 0x0 PUSH3 0x23F DUP6 DUP3 DUP7 ADD PUSH3 0x1FE JUMP JUMPDEST SWAP3 POP POP PUSH1 0x20 PUSH3 0x252 DUP6 DUP3 DUP7 ADD PUSH3 0x1FE JUMP JUMPDEST SWAP2 POP POP SWAP3 POP SWAP3 SWAP1 POP JUMP JUMPDEST PUSH1 0x0 DUP2 SWAP1 POP SWAP2 SWAP1 POP JUMP JUMPDEST PUSH3 0x271 DUP2 PUSH3 0x25C JUMP JUMPDEST DUP2 EQ PUSH3 0x27D JUMPI PUSH1 0x0 DUP1 REVERT JUMPDEST POP JUMP JUMPDEST PUSH1 0x0 DUP2 MLOAD SWAP1 POP PUSH3 0x291 DUP2 PUSH3 0x266 JUMP JUMPDEST SWAP3 SWAP2 POP POP JUMP JUMPDEST PUSH1 0x0 PUSH1 0x20 DUP3 DUP5 SUB SLT ISZERO PUSH3 0x2B0 JUMPI PUSH3 0x2AF PUSH3 0x1AB JUMP JUMPDEST JUMPDEST PUSH1 0x0 PUSH3 0x2C0 DUP5 DUP3 DUP6 ADD PUSH3 0x280 JUMP JUMPDEST SWAP2 POP POP SWAP3 SWAP2 POP POP JUMP JUMPDEST PUSH2 0xF40 DUP1 PUSH3 0x2D9 PUSH1 0x0 CODECOPY PUSH1 0x0 RETURN INVALID PUSH1 0x80 PUSH1 0x40 MSTORE PUSH1 0x4 CALLDATASIZE LT PUSH2 0xA7 JUMPI PUSH1 0x0 CALLDATALOAD PUSH1 0xE0 SHR DUP1 PUSH4 0x996D1C06 GT PUSH2 0x64 JUMPI DUP1 PUSH4 0x996D1C06 EQ PUSH2 0x19A JUMPI DUP1 PUSH4 0xB0304813 EQ PUSH2 0x1C5 JUMPI DUP1 PUSH4 0xB64D7DF1 EQ PUSH2 0x1F0 JUMPI DUP1 PUSH4 0xC547092B EQ PUSH2 0x21B JUMPI DUP1 PUSH4 0xD0E30DB0 EQ PUSH2 0x244 JUMPI DUP1 PUSH4 0xFC0C546A EQ PUSH2 0x24E JUMPI PUSH2 0xA7 JUMP JUMPDEST DUP1 PUSH4 0x681CA55 EQ PUSH2 0xAC JUMPI DUP1 PUSH4 0x12065FE0 EQ PUSH2 0xD7 JUMPI DUP1 PUSH4 0x1E0018D6 EQ PUSH2 0x102 JUMPI DUP1 PUSH4 0x642A833F EQ PUSH2 0x12D JUMPI DUP1 PUSH4 0x8DA5CB5B EQ PUSH2 0x158 JUMPI DUP1 PUSH4 0x91F85339 EQ PUSH2 0x183 JUMPI JUMPDEST PUSH1 0x0 DUP1 REVERT JUMPDEST CALLVALUE DUP1 ISZERO PUSH2 0xB8 JUMPI PUSH1 0x0 DUP1 REVERT JUMPDEST POP PUSH2 0xC1 PUSH2 0x279 JUMP JUMPDEST PUSH1 0x40 MLOAD PUSH2 0xCE SWAP2 SWAP1 PUSH2 0x92B JUMP JUMPDEST PUSH1 0x40 MLOAD DUP1 SWAP2 SUB SWAP1 RETURN JUMPDEST CALLVALUE DUP1 ISZERO PUSH2 0xE3 JUMPI PUSH1 0x0 DUP1 REVERT JUMPDEST POP PUSH2 0xEC PUSH2 0x27F JUMP JUMPDEST PUSH1 0x40 MLOAD PUSH2 0xF9 SWAP2 SWAP1 PUSH2 0x92B JUMP JUMPDEST PUSH1 0x40 MLOAD DUP1 SWAP2 SUB SWAP1 RETURN JUMPDEST CALLVALUE DUP1 ISZERO PUSH2 0x10E JUMPI PUSH1 0x0 DUP1 REVERT JUMPDEST POP PUSH2 0x117 PUSH2 0x287 JUMP JUMPDEST PUSH1 0x40 MLOAD PUSH2 0x124 SWAP2 SWAP1 PUSH2 0x987 JUMP JUMPDEST PUSH1 0x40 MLOAD DUP1 SWAP2 SUB SWAP1 RETURN JUMPDEST CALLVALUE DUP1 ISZERO PUSH2 0x139 JUMPI PUSH1 0x0 DUP1 REVERT JUMPDEST POP PUSH2 0x142 PUSH2 0x2AD JUMP JUMPDEST PUSH1 0x40 MLOAD PUSH2 0x14F SWAP2 SWAP1 PUSH2 0x987 JUMP JUMPDEST PUSH1 0x40 MLOAD DUP1 SWAP2 SUB SWAP1 RETURN JUMPDEST CALLVALUE DUP1 ISZERO PUSH2 0x164 JUMPI PUSH1 0x0 DUP1 REVERT JUMPDEST POP PUSH2 0x16D PUSH2 0x2D3 JUMP JUMPDEST PUSH1 0x40 MLOAD PUSH2 0x17A SWAP2 SWAP1 PUSH2 0x987 JUMP JUMPDEST PUSH1 0x40 MLOAD DUP1 SWAP2 SUB SWAP1 RETURN JUMPDEST CALLVALUE DUP1 ISZERO PUSH2 0x18F JUMPI PUSH1 0x0 DUP1 REVERT JUMPDEST POP PUSH2 0x198 PUSH2 0x2F7 JUMP JUMPDEST STOP JUMPDEST CALLVALUE DUP1 ISZERO PUSH2 0x1A6 JUMPI PUSH1 0x0 DUP1 REVERT JUMPDEST POP PUSH2 0x1AF PUSH2 0x402 JUMP JUMPDEST PUSH1 0x40 MLOAD PUSH2 0x1BC SWAP2 SWAP1 PUSH2 0x9BD JUMP JUMPDEST PUSH1 0x40 MLOAD DUP1 SWAP2 SUB SWAP1 RETURN JUMPDEST CALLVALUE DUP1 ISZERO PUSH2 0x1D1 JUMPI PUSH1 0x0 DUP1 REVERT JUMPDEST POP PUSH2 0x1DA PUSH2 0x415 JUMP JUMPDEST PUSH1 0x40 MLOAD PUSH2 0x1E7 SWAP2 SWAP1 PUSH2 0x92B JUMP JUMPDEST PUSH1 0x40 MLOAD DUP1 SWAP2 SUB SWAP1 RETURN JUMPDEST CALLVALUE DUP1 ISZERO PUSH2 0x1FC JUMPI PUSH1 0x0 DUP1 REVERT JUMPDEST POP PUSH2 0x205 PUSH2 0x41B JUMP JUMPDEST PUSH1 0x40 MLOAD PUSH2 0x212 SWAP2 SWAP1 PUSH2 0x92B JUMP JUMPDEST PUSH1 0x40 MLOAD DUP1 SWAP2 SUB SWAP1 RETURN JUMPDEST CALLVALUE DUP1 ISZERO PUSH2 0x227 JUMPI PUSH1 0x0 DUP1 REVERT JUMPDEST POP PUSH2 0x242 PUSH1 0x4 DUP1 CALLDATASIZE SUB DUP2 ADD SWAP1 PUSH2 0x23D SWAP2 SWAP1 PUSH2 0xA09 JUMP JUMPDEST PUSH2 0x421 JUMP JUMPDEST STOP JUMPDEST PUSH2 0x24C PUSH2 0x4B9 JUMP JUMPDEST STOP JUMPDEST CALLVALUE DUP1 ISZERO PUSH2 0x25A JUMPI PUSH1 0x0 DUP1 REVERT JUMPDEST POP PUSH2 0x263 PUSH2 0x826 JUMP JUMPDEST PUSH1 0x40 MLOAD PUSH2 0x270 SWAP2 SWAP1 PUSH2 0xA95 JUMP JUMPDEST PUSH1 0x40 MLOAD DUP1 SWAP2 SUB SWAP1 RETURN JUMPDEST PUSH1 0x2 SLOAD DUP2 JUMP JUMPDEST PUSH1 0x0 SELFBALANCE SWAP1 POP SWAP1 JUMP JUMPDEST PUSH1 0x5 PUSH1 0x0 SWAP1 SLOAD SWAP1 PUSH2 0x100 EXP SWAP1 DIV PUSH20 0xFFFFFFFFFFFFFFFFFFFFFFFFFFFFFFFFFFFFFFFF AND DUP2 JUMP JUMPDEST PUSH1 0x6 PUSH1 0x0 SWAP1 SLOAD SWAP1 PUSH2 0x100 EXP SWAP1 DIV PUSH20 0xFFFFFFFFFFFFFFFFFFFFFFFFFFFFFFFFFFFFFFFF AND DUP2 JUMP JUMPDEST PUSH1 0x0 DUP1 SLOAD SWAP1 PUSH2 0x100 EXP SWAP1 DIV PUSH20 0xFFFFFFFFFFFFFFFFFFFFFFFFFFFFFFFFFFFFFFFF AND DUP2 JUMP JUMPDEST PUSH1 0x5 PUSH1 0x0 SWAP1 SLOAD SWAP1 PUSH2 0x100 EXP SWAP1 DIV PUSH20 0xFFFFFFFFFFFFFFFFFFFFFFFFFFFFFFFFFFFFFFFF AND PUSH20 0xFFFFFFFFFFFFFFFFFFFFFFFFFFFFFFFFFFFFFFFF AND CALLER PUSH20 0xFFFFFFFFFFFFFFFFFFFFFFFFFFFFFFFFFFFFFFFF AND EQ PUSH2 0x387 JUMPI PUSH1 0x40 MLOAD PUSH32 0x8C379A000000000000000000000000000000000000000000000000000000000 DUP2 MSTORE PUSH1 0x4 ADD PUSH2 0x37E SWAP1 PUSH2 0xB33 JUMP JUMPDEST PUSH1 0x40 MLOAD DUP1 SWAP2 SUB SWAP1 REVERT JUMPDEST PUSH1 0x2 SLOAD PUSH1 0x3 SLOAD LT PUSH2 0x3CD JUMPI PUSH1 0x40 MLOAD PUSH32 0x8C379A000000000000000000000000000000000000000000000000000000000 DUP2 MSTORE PUSH1 0x4 ADD PUSH2 0x3C4 SWAP1 PUSH2 0xB9F JUMP JUMPDEST PUSH1 0x40 MLOAD DUP1 SWAP2 SUB SWAP1 REVERT JUMPDEST PUSH1 0x3 PUSH1 0x0 DUP2 SLOAD DUP1 SWAP3 SWAP2 SWAP1 PUSH2 0x3E0 SWAP1 PUSH2 0xBEE JUMP JUMPDEST SWAP2 SWAP1 POP SSTORE POP PUSH1 0x1 PUSH1 0x6 PUSH1 0x14 PUSH2 0x100 EXP DUP2 SLOAD DUP2 PUSH1 0xFF MUL NOT AND SWAP1 DUP4 ISZERO ISZERO MUL OR SWAP1 SSTORE POP JUMP JUMPDEST PUSH1 0x6 PUSH1 0x14 SWAP1 SLOAD SWAP1 PUSH2 0x100 EXP SWAP1 DIV PUSH1 0xFF AND DUP2 JUMP JUMPDEST PUSH1 0x3 SLOAD DUP2 JUMP JUMPDEST PUSH1 0x4 SLOAD DUP2 JUMP JUMPDEST PUSH1 0x0 DUP1 SLOAD SWAP1 PUSH2 0x100 EXP SWAP1 DIV PUSH20 0xFFFFFFFFFFFFFFFFFFFFFFFFFFFFFFFFFFFFFFFF AND PUSH20 0xFFFFFFFFFFFFFFFFFFFFFFFFFFFFFFFFFFFFFFFF AND CALLER PUSH20 0xFFFFFFFFFFFFFFFFFFFFFFFFFFFFFFFFFFFFFFFF AND EQ PUSH2 0x4AF JUMPI PUSH1 0x40 MLOAD PUSH32 0x8C379A000000000000000000000000000000000000000000000000000000000 DUP2 MSTORE PUSH1 0x4 ADD PUSH2 0x4A6 SWAP1 PUSH2 0xCA8 JUMP JUMPDEST PUSH1 0x40 MLOAD DUP1 SWAP2 SUB SWAP1 REVERT JUMPDEST DUP1 PUSH1 0x2 DUP2 SWAP1 SSTORE POP POP JUMP JUMPDEST PUSH1 0x0 CALLVALUE GT PUSH2 0x4FC JUMPI PUSH1 0x40 MLOAD PUSH32 0x8C379A000000000000000000000000000000000000000000000000000000000 DUP2 MSTORE PUSH1 0x4 ADD PUSH2 0x4F3 SWAP1 PUSH2 0xD14 JUMP JUMPDEST PUSH1 0x40 MLOAD DUP1 SWAP2 SUB SWAP1 REVERT JUMPDEST PUSH1 0x2 SLOAD PUSH1 0x3 SLOAD LT PUSH2 0x542 JUMPI PUSH1 0x40 MLOAD PUSH32 0x8C379A000000000000000000000000000000000000000000000000000000000 DUP2 MSTORE PUSH1 0x4 ADD PUSH2 0x539 SWAP1 PUSH2 0xD80 JUMP JUMPDEST PUSH1 0x40 MLOAD DUP1 SWAP2 SUB SWAP1 REVERT JUMPDEST PUSH1 0x0 PUSH1 0x1 PUSH1 0x0 SWAP1 SLOAD SWAP1 PUSH2 0x100 EXP SWAP1 DIV PUSH20 0xFFFFFFFFFFFFFFFFFFFFFFFFFFFFFFFFFFFFFFFF AND PUSH20 0xFFFFFFFFFFFFFFFFFFFFFFFFFFFFFFFFFFFFFFFF AND PUSH4 0x7FF9B596 PUSH1 0x40 MLOAD DUP2 PUSH4 0xFFFFFFFF AND PUSH1 0xE0 SHL DUP2 MSTORE PUSH1 0x4 ADD PUSH1 0x20 PUSH1 0x40 MLOAD DUP1 DUP4 SUB DUP2 DUP7 GAS STATICCALL ISZERO DUP1 ISZERO PUSH2 0x5B1 JUMPI RETURNDATASIZE PUSH1 0x0 DUP1 RETURNDATACOPY RETURNDATASIZE PUSH1 0x0 REVERT JUMPDEST POP POP POP POP PUSH1 0x40 MLOAD RETURNDATASIZE PUSH1 0x1F NOT PUSH1 0x1F DUP3 ADD AND DUP3 ADD DUP1 PUSH1 0x40 MSTORE POP DUP2 ADD SWAP1 PUSH2 0x5D5 SWAP2 SWAP1 PUSH2 0xDB5 JUMP JUMPDEST PUSH8 0xDE0B6B3A7640000 CALLVALUE PUSH2 0x5E9 SWAP2 SWAP1 PUSH2 0xDE2 JUMP JUMPDEST PUSH2 0x5F3 SWAP2 SWAP1 PUSH2 0xE53 JUMP JUMPDEST SWAP1 POP PUSH1 0x1 PUSH1 0x0 SWAP1 SLOAD SWAP1 PUSH2 0x100 EXP SWAP1 DIV PUSH20 0xFFFFFFFFFFFFFFFFFFFFFFFFFFFFFFFFFFFFFFFF AND PUSH20 0xFFFFFFFFFFFFFFFFFFFFFFFFFFFFFFFFFFFFFFFF AND PUSH4 0xF0DDA65C CALLER DUP4 PUSH1 0x40 MLOAD DUP4 PUSH4 0xFFFFFFFF AND PUSH1 0xE0 SHL DUP2 MSTORE PUSH1 0x4 ADD PUSH2 0x652 SWAP3 SWAP2 SWAP1 PUSH2 0xE84 JUMP JUMPDEST PUSH1 0x0 PUSH1 0x40 MLOAD DUP1 DUP4 SUB DUP2 PUSH1 0x0 DUP8 DUP1 EXTCODESIZE ISZERO DUP1 ISZERO PUSH2 0x66C JUMPI PUSH1 0x0 DUP1 REVERT JUMPDEST POP GAS CALL ISZERO DUP1 ISZERO PUSH2 0x680 JUMPI RETURNDATASIZE PUSH1 0x0 DUP1 RETURNDATACOPY RETURNDATASIZE PUSH1 0x0 REVERT JUMPDEST POP POP POP POP CALLER PUSH20 0xFFFFFFFFFFFFFFFFFFFFFFFFFFFFFFFFFFFFFFFF AND PUSH32 0xB05F0D1CD0819F155B8A61F60BAF7767C1EE49D04AEAAB701DF236140EB93F9 CALLVALUE DUP4 PUSH1 0x40 MLOAD PUSH2 0x6CC SWAP3 SWAP2 SWAP1 PUSH2 0xEAD JUMP JUMPDEST PUSH1 0x40 MLOAD DUP1 SWAP2 SUB SWAP1 LOG2 PUSH1 0x0 PUSH1 0x64 PUSH1 0xA CALLVALUE PUSH2 0x6E5 SWAP2 SWAP1 PUSH2 0xDE2 JUMP JUMPDEST PUSH2 0x6EF SWAP2 SWAP1 PUSH2 0xE53 JUMP JUMPDEST SWAP1 POP PUSH1 0x6 PUSH1 0x0 SWAP1 SLOAD SWAP1 PUSH2 0x100 EXP SWAP1 DIV PUSH20 0xFFFFFFFFFFFFFFFFFFFFFFFFFFFFFFFFFFFFFFFF AND PUSH20 0xFFFFFFFFFFFFFFFFFFFFFFFFFFFFFFFFFFFFFFFF AND PUSH2 0x8FC DUP3 SWAP1 DUP2 ISZERO MUL SWAP1 PUSH1 0x40 MLOAD PUSH1 0x0 PUSH1 0x40 MLOAD DUP1 DUP4 SUB DUP2 DUP6 DUP9 DUP9 CALL SWAP4 POP POP POP POP ISZERO DUP1 ISZERO PUSH2 0x759 JUMPI RETURNDATASIZE PUSH1 0x0 DUP1 RETURNDATACOPY RETURNDATASIZE PUSH1 0x0 REVERT JUMPDEST POP PUSH1 0x0 PUSH1 0x1 PUSH1 0x0 SWAP1 SLOAD SWAP1 PUSH2 0x100 EXP SWAP1 DIV PUSH20 0xFFFFFFFFFFFFFFFFFFFFFFFFFFFFFFFFFFFFFFFF AND PUSH20 0xFFFFFFFFFFFFFFFFFFFFFFFFFFFFFFFFFFFFFFFF AND PUSH4 0x7FF9B596 PUSH1 0x40 MLOAD DUP2 PUSH4 0xFFFFFFFF AND PUSH1 0xE0 SHL DUP2 MSTORE PUSH1 0x4 ADD PUSH1 0x20 PUSH1 0x40 MLOAD DUP1 DUP4 SUB DUP2 DUP7 GAS STATICCALL ISZERO DUP1 ISZERO PUSH2 0x7C9 JUMPI RETURNDATASIZE PUSH1 0x0 DUP1 RETURNDATACOPY RETURNDATASIZE PUSH1 0x0 REVERT JUMPDEST POP POP POP POP PUSH1 0x40 MLOAD RETURNDATASIZE PUSH1 0x1F NOT PUSH1 0x1F DUP3 ADD AND DUP3 ADD DUP1 PUSH1 0x40 MSTORE POP DUP2 ADD SWAP1 PUSH2 0x7ED SWAP2 SWAP1 PUSH2 0xDB5 JUMP JUMPDEST SWAP1 POP PUSH1 0x14 PUSH1 0x4 SLOAD PUSH2 0x7FE SWAP2 SWAP1 PUSH2 0xE53 JUMP JUMPDEST PUSH1 0x4 SLOAD PUSH2 0x80B SWAP2 SWAP1 PUSH2 0xED6 JUMP JUMPDEST DUP2 LT PUSH2 0x821 JUMPI DUP1 PUSH1 0x4 DUP2 SWAP1 SSTORE POP PUSH2 0x820 PUSH2 0x84C JUMP JUMPDEST JUMPDEST POP POP POP JUMP JUMPDEST PUSH1 0x1 PUSH1 0x0 SWAP1 SLOAD SWAP1 PUSH2 0x100 EXP SWAP1 DIV PUSH20 0xFFFFFFFFFFFFFFFFFFFFFFFFFFFFFFFFFFFFFFFF AND DUP2 JUMP JUMPDEST PUSH1 0x0 SELFBALANCE SWAP1 POP PUSH1 0x0 PUSH1 0x64 PUSH1 0xA DUP4 PUSH2 0x862 SWAP2 SWAP1 PUSH2 0xDE2 JUMP JUMPDEST PUSH2 0x86C SWAP2 SWAP1 PUSH2 0xE53 JUMP JUMPDEST SWAP1 POP PUSH1 0x6 PUSH1 0x0 SWAP1 SLOAD SWAP1 PUSH2 0x100 EXP SWAP1 DIV PUSH20 0xFFFFFFFFFFFFFFFFFFFFFFFFFFFFFFFFFFFFFFFF AND PUSH20 0xFFFFFFFFFFFFFFFFFFFFFFFFFFFFFFFFFFFFFFFF AND PUSH2 0x8FC DUP3 SWAP1 DUP2 ISZERO MUL SWAP1 PUSH1 0x40 MLOAD PUSH1 0x0 PUSH1 0x40 MLOAD DUP1 DUP4 SUB DUP2 DUP6 DUP9 DUP9 CALL SWAP4 POP POP POP POP ISZERO DUP1 ISZERO PUSH2 0x8D6 JUMPI RETURNDATASIZE PUSH1 0x0 DUP1 RETURNDATACOPY RETURNDATASIZE PUSH1 0x0 REVERT JUMPDEST POP PUSH32 0x952B264C8E0A06CDDB4BBAA6D6AF1D565145329FD95BBE72CB2B53942B2DC966 DUP2 PUSH1 0x40 MLOAD PUSH2 0x906 SWAP2 SWAP1 PUSH2 0x92B JUMP JUMPDEST PUSH1 0x40 MLOAD DUP1 SWAP2 SUB SWAP1 LOG1 POP POP JUMP JUMPDEST PUSH1 0x0 DUP2 SWAP1 POP SWAP2 SWAP1 POP JUMP JUMPDEST PUSH2 0x925 DUP2 PUSH2 0x912 JUMP JUMPDEST DUP3 MSTORE POP POP JUMP JUMPDEST PUSH1 0x0 PUSH1 0x20 DUP3 ADD SWAP1 POP PUSH2 0x940 PUSH1 0x0 DUP4 ADD DUP5 PUSH2 0x91C JUMP JUMPDEST SWAP3 SWAP2 POP POP JUMP JUMPDEST PUSH1 0x0 PUSH20 0xFFFFFFFFFFFFFFFFFFFFFFFFFFFFFFFFFFFFFFFF DUP3 AND SWAP1 POP SWAP2 SWAP1 POP JUMP JUMPDEST PUSH1 0x0 PUSH2 0x971 DUP3 PUSH2 0x946 JUMP JUMPDEST SWAP1 POP SWAP2 SWAP1 POP JUMP JUMPDEST PUSH2 0x981 DUP2 PUSH2 0x966 JUMP JUMPDEST DUP3 MSTORE POP POP JUMP JUMPDEST PUSH1 0x0 PUSH1 0x20 DUP3 ADD SWAP1 POP PUSH2 0x99C PUSH1 0x0 DUP4 ADD DUP5 PUSH2 0x978 JUMP JUMPDEST SWAP3 SWAP2 POP POP JUMP JUMPDEST PUSH1 0x0 DUP2 ISZERO ISZERO SWAP1 POP SWAP2 SWAP1 POP JUMP JUMPDEST PUSH2 0x9B7 DUP2 PUSH2 0x9A2 JUMP JUMPDEST DUP3 MSTORE POP POP JUMP JUMPDEST PUSH1 0x0 PUSH1 0x20 DUP3 ADD SWAP1 POP PUSH2 0x9D2 PUSH1 0x0 DUP4 ADD DUP5 PUSH2 0x9AE JUMP JUMPDEST SWAP3 SWAP2 POP POP JUMP JUMPDEST PUSH1 0x0 DUP1 REVERT JUMPDEST PUSH2 0x9E6 DUP2 PUSH2 0x912 JUMP JUMPDEST DUP2 EQ PUSH2 0x9F1 JUMPI PUSH1 0x0 DUP1 REVERT JUMPDEST POP JUMP JUMPDEST PUSH1 0x0 DUP2 CALLDATALOAD SWAP1 POP PUSH2 0xA03 DUP2 PUSH2 0x9DD JUMP JUMPDEST SWAP3 SWAP2 POP POP JUMP JUMPDEST PUSH1 0x0 PUSH1 0x20 DUP3 DUP5 SUB SLT ISZERO PUSH2 0xA1F JUMPI PUSH2 0xA1E PUSH2 0x9D8 JUMP JUMPDEST JUMPDEST PUSH1 0x0 PUSH2 0xA2D DUP5 DUP3 DUP6 ADD PUSH2 0x9F4 JUMP JUMPDEST SWAP2 POP POP SWAP3 SWAP2 POP POP JUMP JUMPDEST PUSH1 0x0 DUP2 SWAP1 POP SWAP2 SWAP1 POP JUMP JUMPDEST PUSH1 0x0 PUSH2 0xA5B PUSH2 0xA56 PUSH2 0xA51 DUP5 PUSH2 0x946 JUMP JUMPDEST PUSH2 0xA36 JUMP JUMPDEST PUSH2 0x946 JUMP JUMPDEST SWAP1 POP SWAP2 SWAP1 POP JUMP JUMPDEST PUSH1 0x0 PUSH2 0xA6D DUP3 PUSH2 0xA40 JUMP JUMPDEST SWAP1 POP SWAP2 SWAP1 POP JUMP JUMPDEST PUSH1 0x0 PUSH2 0xA7F DUP3 PUSH2 0xA62 JUMP JUMPDEST SWAP1 POP SWAP2 SWAP1 POP JUMP JUMPDEST PUSH2 0xA8F DUP2 PUSH2 0xA74 JUMP JUMPDEST DUP3 MSTORE POP POP JUMP JUMPDEST PUSH1 0x0 PUSH1 0x20 DUP3 ADD SWAP1 POP PUSH2 0xAAA PUSH1 0x0 DUP4 ADD DUP5 PUSH2 0xA86 JUMP JUMPDEST SWAP3 SWAP2 POP POP JUMP JUMPDEST PUSH1 0x0 DUP3 DUP3 MSTORE PUSH1 0x20 DUP3 ADD SWAP1 POP SWAP3 SWAP2 POP POP JUMP JUMPDEST PUSH32 0x4F6E6C7920696E766573746F722063616E20617070726F7665206D696C657374 PUSH1 0x0 DUP3 ADD MSTORE PUSH32 0x6F6E650000000000000000000000000000000000000000000000000000000000 PUSH1 0x20 DUP3 ADD MSTORE POP JUMP JUMPDEST PUSH1 0x0 PUSH2 0xB1D PUSH1 0x23 DUP4 PUSH2 0xAB0 JUMP JUMPDEST SWAP2 POP PUSH2 0xB28 DUP3 PUSH2 0xAC1 JUMP JUMPDEST PUSH1 0x40 DUP3 ADD SWAP1 POP SWAP2 SWAP1 POP JUMP JUMPDEST PUSH1 0x0 PUSH1 0x20 DUP3 ADD SWAP1 POP DUP2 DUP2 SUB PUSH1 0x0 DUP4 ADD MSTORE PUSH2 0xB4C DUP2 PUSH2 0xB10 JUMP JUMPDEST SWAP1 POP SWAP2 SWAP1 POP JUMP JUMPDEST PUSH32 0x416C6C206D696C6573746F6E6573206D65740000000000000000000000000000 PUSH1 0x0 DUP3 ADD MSTORE POP JUMP JUMPDEST PUSH1 0x0 PUSH2 0xB89 PUSH1 0x12 DUP4 PUSH2 0xAB0 JUMP JUMPDEST SWAP2 POP PUSH2 0xB94 DUP3 PUSH2 0xB53 JUMP JUMPDEST PUSH1 0x20 DUP3 ADD SWAP1 POP SWAP2 SWAP1 POP JUMP JUMPDEST PUSH1 0x0 PUSH1 0x20 DUP3 ADD SWAP1 POP DUP2 DUP2 SUB PUSH1 0x0 DUP4 ADD MSTORE PUSH2 0xBB8 DUP2 PUSH2 0xB7C JUMP JUMPDEST SWAP1 POP SWAP2 SWAP1 POP JUMP JUMPDEST PUSH32 0x4E487B7100000000000000000000000000000000000000000000000000000000 PUSH1 0x0 MSTORE PUSH1 0x11 PUSH1 0x4 MSTORE PUSH1 0x24 PUSH1 0x0 REVERT JUMPDEST PUSH1 0x0 PUSH2 0xBF9 DUP3 PUSH2 0x912 JUMP JUMPDEST SWAP2 POP PUSH32 0xFFFFFFFFFFFFFFFFFFFFFFFFFFFFFFFFFFFFFFFFFFFFFFFFFFFFFFFFFFFFFFFF DUP3 SUB PUSH2 0xC2B JUMPI PUSH2 0xC2A PUSH2 0xBBF JUMP JUMPDEST JUMPDEST PUSH1 0x1 DUP3 ADD SWAP1 POP SWAP2 SWAP1 POP JUMP JUMPDEST PUSH32 0x4F6E6C79206F776E65722063616E2063616C6C20746869732066756E6374696F PUSH1 0x0 DUP3 ADD MSTORE PUSH32 0x6E00000000000000000000000000000000000000000000000000000000000000 PUSH1 0x20 DUP3 ADD MSTORE POP JUMP JUMPDEST PUSH1 0x0 PUSH2 0xC92 PUSH1 0x21 DUP4 PUSH2 0xAB0 JUMP JUMPDEST SWAP2 POP PUSH2 0xC9D DUP3 PUSH2 0xC36 JUMP JUMPDEST PUSH1 0x40 DUP3 ADD SWAP1 POP SWAP2 SWAP1 POP JUMP JUMPDEST PUSH1 0x0 PUSH1 0x20 DUP3 ADD SWAP1 POP DUP2 DUP2 SUB PUSH1 0x0 DUP4 ADD MSTORE PUSH2 0xCC1 DUP2 PUSH2 0xC85 JUMP JUMPDEST SWAP1 POP SWAP2 SWAP1 POP JUMP JUMPDEST PUSH32 0x4D757374206465706F73697420736F6D652066756E6473000000000000000000 PUSH1 0x0 DUP3 ADD MSTORE POP JUMP JUMPDEST PUSH1 0x0 PUSH2 0xCFE PUSH1 0x17 DUP4 PUSH2 0xAB0 JUMP JUMPDEST SWAP2 POP PUSH2 0xD09 DUP3 PUSH2 0xCC8 JUMP JUMPDEST PUSH1 0x20 DUP3 ADD SWAP1 POP SWAP2 SWAP1 POP JUMP JUMPDEST PUSH1 0x0 PUSH1 0x20 DUP3 ADD SWAP1 POP DUP2 DUP2 SUB PUSH1 0x0 DUP4 ADD MSTORE PUSH2 0xD2D DUP2 PUSH2 0xCF1 JUMP JUMPDEST SWAP1 POP SWAP2 SWAP1 POP JUMP JUMPDEST PUSH32 0x416C6C206D696C6573746F6E657320616C726561647920616368696576656400 PUSH1 0x0 DUP3 ADD MSTORE POP JUMP JUMPDEST PUSH1 0x0 PUSH2 0xD6A PUSH1 0x1F DUP4 PUSH2 0xAB0 JUMP JUMPDEST SWAP2 POP PUSH2 0xD75 DUP3 PUSH2 0xD34 JUMP JUMPDEST PUSH1 0x20 DUP3 ADD SWAP1 POP SWAP2 SWAP1 POP JUMP JUMPDEST PUSH1 0x0 PUSH1 0x20 DUP3 ADD SWAP1 POP DUP2 DUP2 SUB PUSH1 0x0 DUP4 ADD MSTORE PUSH2 0xD99 DUP2 PUSH2 0xD5D JUMP JUMPDEST SWAP1 POP SWAP2 SWAP1 POP JUMP JUMPDEST PUSH1 0x0 DUP2 MLOAD SWAP1 POP PUSH2 0xDAF DUP2 PUSH2 0x9DD JUMP JUMPDEST SWAP3 SWAP2 POP POP JUMP JUMPDEST PUSH1 0x0 PUSH1 0x20 DUP3 DUP5 SUB SLT ISZERO PUSH2 0xDCB JUMPI PUSH2 0xDCA PUSH2 0x9D8 JUMP JUMPDEST JUMPDEST PUSH1 0x0 PUSH2 0xDD9 DUP5 DUP3 DUP6 ADD PUSH2 0xDA0 JUMP JUMPDEST SWAP2 POP POP SWAP3 SWAP2 POP POP JUMP JUMPDEST PUSH1 0x0 PUSH2 0xDED DUP3 PUSH2 0x912 JUMP JUMPDEST SWAP2 POP PUSH2 0xDF8 DUP4 PUSH2 0x912 JUMP JUMPDEST SWAP3 POP DUP3 DUP3 MUL PUSH2 0xE06 DUP2 PUSH2 0x912 JUMP JUMPDEST SWAP2 POP DUP3 DUP3 DIV DUP5 EQ DUP4 ISZERO OR PUSH2 0xE1D JUMPI PUSH2 0xE1C PUSH2 0xBBF JUMP JUMPDEST JUMPDEST POP SWAP3 SWAP2 POP POP JUMP JUMPDEST PUSH32 0x4E487B7100000000000000000000000000000000000000000000000000000000 PUSH1 0x0 MSTORE PUSH1 0x12 PUSH1 0x4 MSTORE PUSH1 0x24 PUSH1 0x0 REVERT JUMPDEST PUSH1 0x0 PUSH2 0xE5E DUP3 PUSH2 0x912 JUMP JUMPDEST SWAP2 POP PUSH2 0xE69 DUP4 PUSH2 0x912 JUMP JUMPDEST SWAP3 POP DUP3 PUSH2 0xE79 JUMPI PUSH2 0xE78 PUSH2 0xE24 JUMP JUMPDEST JUMPDEST DUP3 DUP3 DIV SWAP1 POP SWAP3 SWAP2 POP POP JUMP JUMPDEST PUSH1 0x0 PUSH1 0x40 DUP3 ADD SWAP1 POP PUSH2 0xE99 PUSH1 0x0 DUP4 ADD DUP6 PUSH2 0x978 JUMP JUMPDEST PUSH2 0xEA6 PUSH1 0x20 DUP4 ADD DUP5 PUSH2 0x91C JUMP JUMPDEST SWAP4 SWAP3 POP POP POP JUMP JUMPDEST PUSH1 0x0 PUSH1 0x40 DUP3 ADD SWAP1 POP PUSH2 0xEC2 PUSH1 0x0 DUP4 ADD DUP6 PUSH2 0x91C JUMP JUMPDEST PUSH2 0xECF PUSH1 0x20 DUP4 ADD DUP5 PUSH2 0x91C JUMP JUMPDEST SWAP4 SWAP3 POP POP POP JUMP JUMPDEST PUSH1 0x0 PUSH2 0xEE1 DUP3 PUSH2 0x912 JUMP JUMPDEST SWAP2 POP PUSH2 0xEEC DUP4 PUSH2 0x912 JUMP JUMPDEST SWAP3 POP DUP3 DUP3 ADD SWAP1 POP DUP1 DUP3 GT ISZERO PUSH2 0xF04 JUMPI PUSH2 0xF03 PUSH2 0xBBF JUMP JUMPDEST JUMPDEST SWAP3 SWAP2 POP POP JUMP INVALID LOG2 PUSH5 0x6970667358 0x22 SLT KECCAK256 0x4C ADD EXTCODESIZE STOP ADD SLOAD 0xD 0xBC 0xE9 POP DUP8 0xC7 PUSH3 0x8A9794 0xDF 0xDD 0xEC ADDMOD SUB CALLVALUE 0xE3 0x2E CODECOPY PUSH11 0x8B6B6A638D0164736F6C63 NUMBER STOP ADDMOD EQ STOP CALLER "},"methodIdentifiers":{"approveMilestone()":"91f85339","companyAccount()":"642a833f","currentMilestone()":"b0304813","deposit()":"d0e30db0","getBalance()":"12065fe0","investor()":"1e0018d6","lastTokenPrice()":"b64d7df1","milestoneCount()":"0681ca55","milestoneMet()":"996d1c06","owner()":"8da5cb5b","setMilestone(uint256)":"c547092b","token()":"fc0c546a"}}}}}