{"contracts/TokenPriceManager.sol":{"TokenPriceManager":{"abi":[{"inputs":[{"internalType":"address","name":"_token","type":"address"},{"internalType":"address","name":"_escrow","type":"address"},{"internalType":"address","name":"_beneficiary","type":"address"},{"internalType":"uint256","name":"_initialPrice","type":"uint256"}],"stateMutability":"nonpayable","type":"constructor"},{"anonymous":false,"inputs":[{"indexed":true,"internalType":"address","name":"beneficiary","type":"address"},{"indexed":false,"internalType":"uint256","name":"amount","type":"uint256"}],"name":"MilestonePayment","type":"event"},{"anonymous":false,"inputs":[{"indexed":false,"internalType":"uint256","name":"newPrice","type":"uint256"}],"name":"PriceUpdated","type":"event"},{"inputs":[],"name":"beneficiary","outputs":[{"internalType":"address","name":"","type":"address"}],"stateMutability":"view","type":"function"},{"inputs":[],"name":"escrow","outputs":[{"internalType":"contract EscrowWallet","name":"","type":"address"}],"stateMutability":"view","type":"function"},{"inputs":[],"name":"getTokenPrice","outputs":[{"internalType":"uint256","name":"","type":"uint256"}],"stateMutability":"view","type":"function"},{"inputs":[],"name":"initialTokenPrice","outputs":[{"internalType":"uint256","name":"","type":"uint256"}],"stateMutability":"view","type":"function"},{"inputs":[],"name":"token","outputs":[{"internalType":"contract IERC20","name":"","type":"address"}],"stateMutability":"view","type":"function"},{"inputs":[],"name":"tokenPrice","outputs":[{"internalType":"uint256","name":"","type":"uint256"}],"stateMutability":"view","type":"function"},{"inputs":[],"name":"totalDeposited","outputs":[{"internalType":"uint256","name":"","type":"uint256"}],"stateMutability":"view","type":"function"},{"inputs":[{"internalType":"uint256","name":"amountDeposited","type":"uint256"}],"name":"updatePriceOnDeposit","outputs":[],"stateMutability":"nonpayable","type":"function"},{"inputs":[{"internalType":"uint256","name":"amountWithdrawn","type":"uint256"}],"name":"updatePriceOnWithdrawal","outputs":[],"stateMutability":"nonpayable","type":"function"}],"evm":{"bytecode":{"linkReferences":{},"object":"608060405234801561001057600080fd5b50604051610abd380380610abd833981810160405281019061003291906101a4565b836000806101000a81548173ffffffffffffffffffffffffffffffffffffffff021916908373ffffffffffffffffffffffffffffffffffffffff16021790555082600160006101000a81548173ffffffffffffffffffffffffffffffffffffffff021916908373ffffffffffffffffffffffffffffffffffffffff16021790555081600260006101000a81548173ffffffffffffffffffffffffffffffffffffffff021916908373ffffffffffffffffffffffffffffffffffffffff16021790555080600381905550806004819055505050505061020b565b600080fd5b600073ffffffffffffffffffffffffffffffffffffffff82169050919050565b600061013b82610110565b9050919050565b61014b81610130565b811461015657600080fd5b50565b60008151905061016881610142565b92915050565b6000819050919050565b6101818161016e565b811461018c57600080fd5b50565b60008151905061019e81610178565b92915050565b600080600080608085870312156101be576101bd61010b565b5b60006101cc87828801610159565b94505060206101dd87828801610159565b93505060406101ee87828801610159565b92505060606101ff8782880161018f565b91505092959194509250565b6108a38061021a6000396000f3fe608060405234801561001057600080fd5b50600436106100935760003560e01c8063700c877b11610066578063700c877b1461010e5780637ff9b5961461012a578063e2fdcc1714610148578063fc0c546a14610166578063ff50abdc1461018457610093565b80632ca0228a1461009857806333ceab93146100b657806338af3eed146100d25780634b94f50e146100f0575b600080fd5b6100a06101a2565b6040516100ad919061052c565b60405180910390f35b6100d060048036038101906100cb9190610578565b6101a8565b005b6100da610376565b6040516100e791906105e6565b60405180910390f35b6100f861039c565b604051610105919061052c565b60405180910390f35b61012860048036038101906101239190610578565b6103a6565b005b6101326104bd565b60405161013f919061052c565b60405180910390f35b6101506104c3565b60405161015d9190610660565b60405180910390f35b61016e6104e9565b60405161017b919061069c565b60405180910390f35b61018c61050d565b604051610199919061052c565b60405180910390f35b60045481565b80600560008282546101ba91906106e6565b9250508190555060006003546064836101d3919061071a565b6101dd919061078b565b905060006064826101ee919061078b565b905067016345785d8a000081610204919061071a565b6003600082825461021591906106e6565b925050819055507f66cbca4f3c64fecf1dcb9ce094abcf7f68c3450a1d4e3a8e917dd621edb4ebe060035460405161024d919061052c565b60405180910390a16000600a600b600454610268919061071a565b610272919061078b565b90508060035410610370576000600a8561028c919061078b565b9050600260009054906101000a900473ffffffffffffffffffffffffffffffffffffffff1673ffffffffffffffffffffffffffffffffffffffff166108fc829081150290604051600060405180830381858888f193505050501580156102f6573d6000803e3d6000fd5b50600260009054906101000a900473ffffffffffffffffffffffffffffffffffffffff1673ffffffffffffffffffffffffffffffffffffffff167fe55ff739743b681568df2ddb431c4110cef072d9a355c3088b4b6bd3275b79b48260405161035f919061052c565b60405180910390a281600481905550505b50505050565b600260009054906101000a900473ffffffffffffffffffffffffffffffffffffffff1681565b6000600354905090565b8060055410156103eb576040517f08c379a00000000000000000000000000000000000000000000000000000000081526004016103e290610819565b60405180910390fd5b80600560008282546103fd9190610839565b925050819055506000600354606483610416919061071a565b610420919061078b565b90506000606482610431919061078b565b905067016345785d8a000081610447919061071a565b6003541161045757600454610479565b67016345785d8a00008161046b919061071a565b6003546104789190610839565b5b6003819055507f66cbca4f3c64fecf1dcb9ce094abcf7f68c3450a1d4e3a8e917dd621edb4ebe06003546040516104b0919061052c565b60405180910390a1505050565b60035481565b600160009054906101000a900473ffffffffffffffffffffffffffffffffffffffff1681565b60008054906101000a900473ffffffffffffffffffffffffffffffffffffffff1681565b60055481565b6000819050919050565b61052681610513565b82525050565b6000602082019050610541600083018461051d565b92915050565b600080fd5b61055581610513565b811461056057600080fd5b50565b6000813590506105728161054c565b92915050565b60006020828403121561058e5761058d610547565b5b600061059c84828501610563565b91505092915050565b600073ffffffffffffffffffffffffffffffffffffffff82169050919050565b60006105d0826105a5565b9050919050565b6105e0816105c5565b82525050565b60006020820190506105fb60008301846105d7565b92915050565b6000819050919050565b600061062661062161061c846105a5565b610601565b6105a5565b9050919050565b60006106388261060b565b9050919050565b600061064a8261062d565b9050919050565b61065a8161063f565b82525050565b60006020820190506106756000830184610651565b92915050565b60006106868261062d565b9050919050565b6106968161067b565b82525050565b60006020820190506106b1600083018461068d565b92915050565b7f4e487b7100000000000000000000000000000000000000000000000000000000600052601160045260246000fd5b60006106f182610513565b91506106fc83610513565b9250828201905080821115610714576107136106b7565b5b92915050565b600061072582610513565b915061073083610513565b925082820261073e81610513565b91508282048414831517610755576107546106b7565b5b5092915050565b7f4e487b7100000000000000000000000000000000000000000000000000000000600052601260045260246000fd5b600061079682610513565b91506107a183610513565b9250826107b1576107b061075c565b5b828204905092915050565b600082825260208201905092915050565b7f5769746864726177616c2065786365656473206465706f736974730000000000600082015250565b6000610803601b836107bc565b915061080e826107cd565b602082019050919050565b60006020820190508181036000830152610832816107f6565b9050919050565b600061084482610513565b915061084f83610513565b9250828203905081811115610867576108666106b7565b5b9291505056fea26469706673582212206fead95c731cc136a19a2a25c602fd5ec6c93725e4abca16834a86bd54a2538b64736f6c63430008140033","opcodes":"PUSH1 0x80 PUSH1 0x40 MSTORE CALLVALUE DUP1 ISZERO PUSH2 0x10 JUMPI PUSH1 0x0 DUP1 REVERT JUMPDEST POP PUSH1 0x40 MLOAD PUSH2 0xABD CODESIZE SUB DUP1 PUSH2 0xABD DUP4 CODECOPY DUP2 DUP2 ADD PUSH1 0x40 MSTORE DUP2 ADD SWAP1 PUSH2 0x32 SWAP2 SWAP1 PUSH2 0x1A4 JUMP JUMPDEST DUP4 PUSH1 0x0 DUP1 PUSH2 0x100 EXP DUP2 SLOAD DUP2 PUSH20 0xFFFFFFFFFFFFFFFFFFFFFFFFFFFFFFFFFFFFFFFF MUL NOT AND SWAP1 DUP4 PUSH20 0xFFFFFFFFFFFFFFFFFFFFFFFFFFFFFFFFFFFFFFFF AND MUL OR SWAP1 SSTORE POP DUP3 PUSH1 0x1 PUSH1 0x0 PUSH2 0x100 EXP DUP2 SLOAD DUP2 PUSH20 0xFFFFFFFFFFFFFFFFFFFFFFFFFFFFFFFFFFFFFFFF MUL NOT AND SWAP1 DUP4 PUSH20 0xFFFFFFFFFFFFFFFFFFFFFFFFFFFFFFFFFFFFFFFF AND MUL OR SWAP1 SSTORE POP DUP2 PUSH1 0x2 PUSH1 0x0 PUSH2 0x100 EXP DUP2 SLOAD DUP2 PUSH20 0xFFFFFFFFFFFFFFFFFFFFFFFFFFFFFFFFFFFFFFFF MUL NOT AND SWAP1 DUP4 PUSH20 0xFFFFFFFFFFFFFFFFFFFFFFFFFFFFFFFFFFFFFFFF AND MUL OR SWAP1 SSTORE POP DUP1 PUSH1 0x3 DUP2 SWAP1 SSTORE POP DUP1 PUSH1 0x4 DUP2 SWAP1 SSTORE POP POP POP POP POP PUSH2 0x20B JUMP JUMPDEST PUSH1 0x0 DUP1 REVERT JUMPDEST PUSH1 0x0 PUSH20 0xFFFFFFFFFFFFFFFFFFFFFFFFFFFFFFFFFFFFFFFF DUP3 AND SWAP1 POP SWAP2 SWAP1 POP JUMP JUMPDEST PUSH1 0x0 PUSH2 0x13B DUP3 PUSH2 0x110 JUMP JUMPDEST SWAP1 POP SWAP2 SWAP1 POP JUMP JUMPDEST PUSH2 0x14B DUP2 PUSH2 0x130 JUMP JUMPDEST DUP2 EQ PUSH2 0x156 JUMPI PUSH1 0x0 DUP1 REVERT JUMPDEST POP JUMP JUMPDEST PUSH1 0x0 DUP2 MLOAD SWAP1 POP PUSH2 0x168 DUP2 PUSH2 0x142 JUMP JUMPDEST SWAP3 SWAP2 POP POP JUMP JUMPDEST PUSH1 0x0 DUP2 SWAP1 POP SWAP2 SWAP1 POP JUMP JUMPDEST PUSH2 0x181 DUP2 PUSH2 0x16E JUMP JUMPDEST DUP2 EQ PUSH2 0x18C JUMPI PUSH1 0x0 DUP1 REVERT JUMPDEST POP JUMP JUMPDEST PUSH1 0x0 DUP2 MLOAD SWAP1 POP PUSH2 0x19E DUP2 PUSH2 0x178 JUMP JUMPDEST SWAP3 SWAP2 POP POP JUMP JUMPDEST PUSH1 0x0 DUP1 PUSH1 0x0 DUP1 PUSH1 0x80 DUP6 DUP8 SUB SLT ISZERO PUSH2 0x1BE JUMPI PUSH2 0x1BD PUSH2 0x10B JUMP JUMPDEST JUMPDEST PUSH1 0x0 PUSH2 0x1CC DUP8 DUP3 DUP9 ADD PUSH2 0x159 JUMP JUMPDEST SWAP5 POP POP PUSH1 0x20 PUSH2 0x1DD DUP8 DUP3 DUP9 ADD PUSH2 0x159 JUMP JUMPDEST SWAP4 POP POP PUSH1 0x40 PUSH2 0x1EE DUP8 DUP3 DUP9 ADD PUSH2 0x159 JUMP JUMPDEST SWAP3 POP POP PUSH1 0x60 PUSH2 0x1FF DUP8 DUP3 DUP9 ADD PUSH2 0x18F JUMP JUMPDEST SWAP2 POP POP SWAP3 SWAP6 SWAP2 SWAP5 POP SWAP3 POP JUMP JUMPDEST PUSH2 0x8A3 DUP1 PUSH2 0x21A PUSH1 0x0 CODECOPY PUSH1 0x0 RETURN INVALID PUSH1 0x80 PUSH1 0x40 MSTORE CALLVALUE DUP1 ISZERO PUSH2 0x10 JUMPI PUSH1 0x0 DUP1 REVERT JUMPDEST POP PUSH1 0x4 CALLDATASIZE LT PUSH2 0x93 JUMPI PUSH1 0x0 CALLDATALOAD PUSH1 0xE0 SHR DUP1 PUSH4 0x700C877B GT PUSH2 0x66 JUMPI DUP1 PUSH4 0x700C877B EQ PUSH2 0x10E JUMPI DUP1 PUSH4 0x7FF9B596 EQ PUSH2 0x12A JUMPI DUP1 PUSH4 0xE2FDCC17 EQ PUSH2 0x148 JUMPI DUP1 PUSH4 0xFC0C546A EQ PUSH2 0x166 JUMPI DUP1 PUSH4 0xFF50ABDC EQ PUSH2 0x184 JUMPI PUSH2 0x93 JUMP JUMPDEST DUP1 PUSH4 0x2CA0228A EQ PUSH2 0x98 JUMPI DUP1 PUSH4 0x33CEAB93 EQ PUSH2 0xB6 JUMPI DUP1 PUSH4 0x38AF3EED EQ PUSH2 0xD2 JUMPI DUP1 PUSH4 0x4B94F50E EQ PUSH2 0xF0 JUMPI JUMPDEST PUSH1 0x0 DUP1 REVERT JUMPDEST PUSH2 0xA0 PUSH2 0x1A2 JUMP JUMPDEST PUSH1 0x40 MLOAD PUSH2 0xAD SWAP2 SWAP1 PUSH2 0x52C JUMP JUMPDEST PUSH1 0x40 MLOAD DUP1 SWAP2 SUB SWAP1 RETURN JUMPDEST PUSH2 0xD0 PUSH1 0x4 DUP1 CALLDATASIZE SUB DUP2 ADD SWAP1 PUSH2 0xCB SWAP2 SWAP1 PUSH2 0x578 JUMP JUMPDEST PUSH2 0x1A8 JUMP JUMPDEST STOP JUMPDEST PUSH2 0xDA PUSH2 0x376 JUMP JUMPDEST PUSH1 0x40 MLOAD PUSH2 0xE7 SWAP2 SWAP1 PUSH2 0x5E6 JUMP JUMPDEST PUSH1 0x40 MLOAD DUP1 SWAP2 SUB SWAP1 RETURN JUMPDEST PUSH2 0xF8 PUSH2 0x39C JUMP JUMPDEST PUSH1 0x40 MLOAD PUSH2 0x105 SWAP2 SWAP1 PUSH2 0x52C JUMP JUMPDEST PUSH1 0x40 MLOAD DUP1 SWAP2 SUB SWAP1 RETURN JUMPDEST PUSH2 0x128 PUSH1 0x4 DUP1 CALLDATASIZE SUB DUP2 ADD SWAP1 PUSH2 0x123 SWAP2 SWAP1 PUSH2 0x578 JUMP JUMPDEST PUSH2 0x3A6 JUMP JUMPDEST STOP JUMPDEST PUSH2 0x132 PUSH2 0x4BD JUMP JUMPDEST PUSH1 0x40 MLOAD PUSH2 0x13F SWAP2 SWAP1 PUSH2 0x52C JUMP JUMPDEST PUSH1 0x40 MLOAD DUP1 SWAP2 SUB SWAP1 RETURN JUMPDEST PUSH2 0x150 PUSH2 0x4C3 JUMP JUMPDEST PUSH1 0x40 MLOAD PUSH2 0x15D SWAP2 SWAP1 PUSH2 0x660 JUMP JUMPDEST PUSH1 0x40 MLOAD DUP1 SWAP2 SUB SWAP1 RETURN JUMPDEST PUSH2 0x16E PUSH2 0x4E9 JUMP JUMPDEST PUSH1 0x40 MLOAD PUSH2 0x17B SWAP2 SWAP1 PUSH2 0x69C JUMP JUMPDEST PUSH1 0x40 MLOAD DUP1 SWAP2 SUB SWAP1 RETURN JUMPDEST PUSH2 0x18C PUSH2 0x50D JUMP JUMPDEST PUSH1 0x40 MLOAD PUSH2 0x199 SWAP2 SWAP1 PUSH2 0x52C JUMP JUMPDEST PUSH1 0x40 MLOAD DUP1 SWAP2 SUB SWAP1 RETURN JUMPDEST PUSH1 0x4 SLOAD DUP2 JUMP JUMPDEST DUP1 PUSH1 0x5 PUSH1 0x0 DUP3 DUP3 SLOAD PUSH2 0x1BA SWAP2 SWAP1 PUSH2 0x6E6 JUMP JUMPDEST SWAP3 POP POP DUP2 SWAP1 SSTORE POP PUSH1 0x0 PUSH1 0x3 SLOAD PUSH1 0x64 DUP4 PUSH2 0x1D3 SWAP2 SWAP1 PUSH2 0x71A JUMP JUMPDEST PUSH2 0x1DD SWAP2 SWAP1 PUSH2 0x78B JUMP JUMPDEST SWAP1 POP PUSH1 0x0 PUSH1 0x64 DUP3 PUSH2 0x1EE SWAP2 SWAP1 PUSH2 0x78B JUMP JUMPDEST SWAP1 POP PUSH8 0x16345785D8A0000 DUP2 PUSH2 0x204 SWAP2 SWAP1 PUSH2 0x71A JUMP JUMPDEST PUSH1 0x3 PUSH1 0x0 DUP3 DUP3 SLOAD PUSH2 0x215 SWAP2 SWAP1 PUSH2 0x6E6 JUMP JUMPDEST SWAP3 POP POP DUP2 SWAP1 SSTORE POP PUSH32 0x66CBCA4F3C64FECF1DCB9CE094ABCF7F68C3450A1D4E3A8E917DD621EDB4EBE0 PUSH1 0x3 SLOAD PUSH1 0x40 MLOAD PUSH2 0x24D SWAP2 SWAP1 PUSH2 0x52C JUMP JUMPDEST PUSH1 0x40 MLOAD DUP1 SWAP2 SUB SWAP1 LOG1 PUSH1 0x0 PUSH1 0xA PUSH1 0xB PUSH1 0x4 SLOAD PUSH2 0x268 SWAP2 SWAP1 PUSH2 0x71A JUMP JUMPDEST PUSH2 0x272 SWAP2 SWAP1 PUSH2 0x78B JUMP JUMPDEST SWAP1 POP DUP1 PUSH1 0x3 SLOAD LT PUSH2 0x370 JUMPI PUSH1 0x0 PUSH1 0xA DUP6 PUSH2 0x28C SWAP2 SWAP1 PUSH2 0x78B JUMP JUMPDEST SWAP1 POP PUSH1 0x2 PUSH1 0x0 SWAP1 SLOAD SWAP1 PUSH2 0x100 EXP SWAP1 DIV PUSH20 0xFFFFFFFFFFFFFFFFFFFFFFFFFFFFFFFFFFFFFFFF AND PUSH20 0xFFFFFFFFFFFFFFFFFFFFFFFFFFFFFFFFFFFFFFFF AND PUSH2 0x8FC DUP3 SWAP1 DUP2 ISZERO MUL SWAP1 PUSH1 0x40 MLOAD PUSH1 0x0 PUSH1 0x40 MLOAD DUP1 DUP4 SUB DUP2 DUP6 DUP9 DUP9 CALL SWAP4 POP POP POP POP ISZERO DUP1 ISZERO PUSH2 0x2F6 JUMPI RETURNDATASIZE PUSH1 0x0 DUP1 RETURNDATACOPY RETURNDATASIZE PUSH1 0x0 REVERT JUMPDEST POP PUSH1 0x2 PUSH1 0x0 SWAP1 SLOAD SWAP1 PUSH2 0x100 EXP SWAP1 DIV PUSH20 0xFFFFFFFFFFFFFFFFFFFFFFFFFFFFFFFFFFFFFFFF AND PUSH20 0xFFFFFFFFFFFFFFFFFFFFFFFFFFFFFFFFFFFFFFFF AND PUSH32 0xE55FF739743B681568DF2DDB431C4110CEF072D9A355C3088B4B6BD3275B79B4 DUP3 PUSH1 0x40 MLOAD PUSH2 0x35F SWAP2 SWAP1 PUSH2 0x52C JUMP JUMPDEST PUSH1 0x40 MLOAD DUP1 SWAP2 SUB SWAP1 LOG2 DUP2 PUSH1 0x4 DUP2 SWAP1 SSTORE POP POP JUMPDEST POP POP POP POP JUMP JUMPDEST PUSH1 0x2 PUSH1 0x0 SWAP1 SLOAD SWAP1 PUSH2 0x100 EXP SWAP1 DIV PUSH20 0xFFFFFFFFFFFFFFFFFFFFFFFFFFFFFFFFFFFFFFFF AND DUP2 JUMP JUMPDEST PUSH1 0x0 PUSH1 0x3 SLOAD SWAP1 POP SWAP1 JUMP JUMPDEST DUP1 PUSH1 0x5 SLOAD LT ISZERO PUSH2 0x3EB JUMPI PUSH1 0x40 MLOAD PUSH32 0x8C379A000000000000000000000000000000000000000000000000000000000 DUP2 MSTORE PUSH1 0x4 ADD PUSH2 0x3E2 SWAP1 PUSH2 0x819 JUMP JUMPDEST PUSH1 0x40 MLOAD DUP1 SWAP2 SUB SWAP1 REVERT JUMPDEST DUP1 PUSH1 0x5 PUSH1 0x0 DUP3 DUP3 SLOAD PUSH2 0x3FD SWAP2 SWAP1 PUSH2 0x839 JUMP JUMPDEST SWAP3 POP POP DUP2 SWAP1 SSTORE POP PUSH1 0x0 PUSH1 0x3 SLOAD PUSH1 0x64 DUP4 PUSH2 0x416 SWAP2 SWAP1 PUSH2 0x71A JUMP JUMPDEST PUSH2 0x420 SWAP2 SWAP1 PUSH2 0x78B JUMP JUMPDEST SWAP1 POP PUSH1 0x0 PUSH1 0x64 DUP3 PUSH2 0x431 SWAP2 SWAP1 PUSH2 0x78B JUMP JUMPDEST SWAP1 POP PUSH8 0x16345785D8A0000 DUP2 PUSH2 0x447 SWAP2 SWAP1 PUSH2 0x71A JUMP JUMPDEST PUSH1 0x3 SLOAD GT PUSH2 0x457 JUMPI PUSH1 0x4 SLOAD PUSH2 0x479 JUMP JUMPDEST PUSH8 0x16345785D8A0000 DUP2 PUSH2 0x46B SWAP2 SWAP1 PUSH2 0x71A JUMP JUMPDEST PUSH1 0x3 SLOAD PUSH2 0x478 SWAP2 SWAP1 PUSH2 0x839 JUMP JUMPDEST JUMPDEST PUSH1 0x3 DUP2 SWAP1 SSTORE POP PUSH32 0x66CBCA4F3C64FECF1DCB9CE094ABCF7F68C3450A1D4E3A8E917DD621EDB4EBE0 PUSH1 0x3 SLOAD PUSH1 0x40 MLOAD PUSH2 0x4B0 SWAP2 SWAP1 PUSH2 0x52C JUMP JUMPDEST PUSH1 0x40 MLOAD DUP1 SWAP2 SUB SWAP1 LOG1 POP POP POP JUMP JUMPDEST PUSH1 0x3 SLOAD DUP2 JUMP JUMPDEST PUSH1 0x1 PUSH1 0x0 SWAP1 SLOAD SWAP1 PUSH2 0x100 EXP SWAP1 DIV PUSH20 0xFFFFFFFFFFFFFFFFFFFFFFFFFFFFFFFFFFFFFFFF AND DUP2 JUMP JUMPDEST PUSH1 0x0 DUP1 SLOAD SWAP1 PUSH2 0x100 EXP SWAP1 DIV PUSH20 0xFFFFFFFFFFFFFFFFFFFFFFFFFFFFFFFFFFFFFFFF AND DUP2 JUMP JUMPDEST PUSH1 0x5 SLOAD DUP2 JUMP JUMPDEST PUSH1 0x0 DUP2 SWAP1 POP SWAP2 SWAP1 POP JUMP JUMPDEST PUSH2 0x526 DUP2 PUSH2 0x513 JUMP JUMPDEST DUP3 MSTORE POP POP JUMP JUMPDEST PUSH1 0x0 PUSH1 0x20 DUP3 ADD SWAP1 POP PUSH2 0x541 PUSH1 0x0 DUP4 ADD DUP5 PUSH2 0x51D JUMP JUMPDEST SWAP3 SWAP2 POP POP JUMP JUMPDEST PUSH1 0x0 DUP1 REVERT JUMPDEST PUSH2 0x555 DUP2 PUSH2 0x513 JUMP JUMPDEST DUP2 EQ PUSH2 0x560 JUMPI PUSH1 0x0 DUP1 REVERT JUMPDEST POP JUMP JUMPDEST PUSH1 0x0 DUP2 CALLDATALOAD SWAP1 POP PUSH2 0x572 DUP2 PUSH2 0x54C JUMP JUMPDEST SWAP3 SWAP2 POP POP JUMP JUMPDEST PUSH1 0x0 PUSH1 0x20 DUP3 DUP5 SUB SLT ISZERO PUSH2 0x58E JUMPI PUSH2 0x58D PUSH2 0x547 JUMP JUMPDEST JUMPDEST PUSH1 0x0 PUSH2 0x59C DUP5 DUP3 DUP6 ADD PUSH2 0x563 JUMP JUMPDEST SWAP2 POP POP SWAP3 SWAP2 POP POP JUMP JUMPDEST PUSH1 0x0 PUSH20 0xFFFFFFFFFFFFFFFFFFFFFFFFFFFFFFFFFFFFFFFF DUP3 AND SWAP1 POP SWAP2 SWAP1 POP JUMP JUMPDEST PUSH1 0x0 PUSH2 0x5D0 DUP3 PUSH2 0x5A5 JUMP JUMPDEST SWAP1 POP SWAP2 SWAP1 POP JUMP JUMPDEST PUSH2 0x5E0 DUP2 PUSH2 0x5C5 JUMP JUMPDEST DUP3 MSTORE POP POP JUMP JUMPDEST PUSH1 0x0 PUSH1 0x20 DUP3 ADD SWAP1 POP PUSH2 0x5FB PUSH1 0x0 DUP4 ADD DUP5 PUSH2 0x5D7 JUMP JUMPDEST SWAP3 SWAP2 POP POP JUMP JUMPDEST PUSH1 0x0 DUP2 SWAP1 POP SWAP2 SWAP1 POP JUMP JUMPDEST PUSH1 0x0 PUSH2 0x626 PUSH2 0x621 PUSH2 0x61C DUP5 PUSH2 0x5A5 JUMP JUMPDEST PUSH2 0x601 JUMP JUMPDEST PUSH2 0x5A5 JUMP JUMPDEST SWAP1 POP SWAP2 SWAP1 POP JUMP JUMPDEST PUSH1 0x0 PUSH2 0x638 DUP3 PUSH2 0x60B JUMP JUMPDEST SWAP1 POP SWAP2 SWAP1 POP JUMP JUMPDEST PUSH1 0x0 PUSH2 0x64A DUP3 PUSH2 0x62D JUMP JUMPDEST SWAP1 POP SWAP2 SWAP1 POP JUMP JUMPDEST PUSH2 0x65A DUP2 PUSH2 0x63F JUMP JUMPDEST DUP3 MSTORE POP POP JUMP JUMPDEST PUSH1 0x0 PUSH1 0x20 DUP3 ADD SWAP1 POP PUSH2 0x675 PUSH1 0x0 DUP4 ADD DUP5 PUSH2 0x651 JUMP JUMPDEST SWAP3 SWAP2 POP POP JUMP JUMPDEST PUSH1 0x0 PUSH2 0x686 DUP3 PUSH2 0x62D JUMP JUMPDEST SWAP1 POP SWAP2 SWAP1 POP JUMP JUMPDEST PUSH2 0x696 DUP2 PUSH2 0x67B JUMP JUMPDEST DUP3 MSTORE POP POP JUMP JUMPDEST PUSH1 0x0 PUSH1 0x20 DUP3 ADD SWAP1 POP PUSH2 0x6B1 PUSH1 0x0 DUP4 ADD DUP5 PUSH2 0x68D JUMP JUMPDEST SWAP3 SWAP2 POP POP JUMP JUMPDEST PUSH32 0x4E487B7100000000000000000000000000000000000000000000000000000000 PUSH1 0x0 MSTORE PUSH1 0x11 PUSH1 0x4 MSTORE PUSH1 0x24 PUSH1 0x0 REVERT JUMPDEST PUSH1 0x0 PUSH2 0x6F1 DUP3 PUSH2 0x513 JUMP JUMPDEST SWAP2 POP PUSH2 0x6FC DUP4 PUSH2 0x513 JUMP JUMPDEST SWAP3 POP DUP3 DUP3 ADD SWAP1 POP DUP1 DUP3 GT ISZERO PUSH2 0x714 JUMPI PUSH2 0x713 PUSH2 0x6B7 JUMP JUMPDEST JUMPDEST SWAP3 SWAP2 POP POP JUMP JUMPDEST PUSH1 0x0 PUSH2 0x725 DUP3 PUSH2 0x513 JUMP JUMPDEST SWAP2 POP PUSH2 0x730 DUP4 PUSH2 0x513 JUMP JUMPDEST SWAP3 POP DUP3 DUP3 MUL PUSH2 0x73E DUP2 PUSH2 0x513 JUMP JUMPDEST SWAP2 POP DUP3 DUP3 DIV DUP5 EQ DUP4 ISZERO OR PUSH2 0x755 JUMPI PUSH2 0x754 PUSH2 0x6B7 JUMP JUMPDEST JUMPDEST POP SWAP3 SWAP2 POP POP JUMP JUMPDEST PUSH32 0x4E487B7100000000000000000000000000000000000000000000000000000000 PUSH1 0x0 MSTORE PUSH1 0x12 PUSH1 0x4 MSTORE PUSH1 0x24 PUSH1 0x0 REVERT JUMPDEST PUSH1 0x0 PUSH2 0x796 DUP3 PUSH2 0x513 JUMP JUMPDEST SWAP2 POP PUSH2 0x7A1 DUP4 PUSH2 0x513 JUMP JUMPDEST SWAP3 POP DUP3 PUSH2 0x7B1 JUMPI PUSH2 0x7B0 PUSH2 0x75C JUMP JUMPDEST JUMPDEST DUP3 DUP3 DIV SWAP1 POP SWAP3 SWAP2 POP POP JUMP JUMPDEST PUSH1 0x0 DUP3 DUP3 MSTORE PUSH1 0x20 DUP3 ADD SWAP1 POP SWAP3 SWAP2 POP POP JUMP JUMPDEST PUSH32 0x5769746864726177616C2065786365656473206465706F736974730000000000 PUSH1 0x0 DUP3 ADD MSTORE POP JUMP JUMPDEST PUSH1 0x0 PUSH2 0x803 PUSH1 0x1B DUP4 PUSH2 0x7BC JUMP JUMPDEST SWAP2 POP PUSH2 0x80E DUP3 PUSH2 0x7CD JUMP JUMPDEST PUSH1 0x20 DUP3 ADD SWAP1 POP SWAP2 SWAP1 POP JUMP JUMPDEST PUSH1 0x0 PUSH1 0x20 DUP3 ADD SWAP1 POP DUP2 DUP2 SUB PUSH1 0x0 DUP4 ADD MSTORE PUSH2 0x832 DUP2 PUSH2 0x7F6 JUMP JUMPDEST SWAP1 POP SWAP2 SWAP1 POP JUMP JUMPDEST PUSH1 0x0 PUSH2 0x844 DUP3 PUSH2 0x513 JUMP JUMPDEST SWAP2 POP PUSH2 0x84F DUP4 PUSH2 0x513 JUMP JUMPDEST SWAP3 POP DUP3 DUP3 SUB SWAP1 POP DUP2 DUP2 GT ISZERO PUSH2 0x867 JUMPI PUSH2 0x866 PUSH2 0x6B7 JUMP JUMPDEST JUMPDEST SWAP3 SWAP2 POP POP JUMP INVALID LOG2 PUSH5 0x6970667358 0x22 SLT KECCAK256 PUSH16 0xEAD95C731CC136A19A2A25C602FD5EC6 0xC9 CALLDATACOPY 0x25 0xE4 0xAB 0xCA AND DUP4 0x4A DUP7 0xBD SLOAD LOG2 MSTORE8 DUP12 PUSH5 0x736F6C6343 STOP ADDMOD EQ STOP CALLER "},"methodIdentifiers":{"beneficiary()":"38af3eed","escrow()":"e2fdcc17","getTokenPrice()":"4b94f50e","initialTokenPrice()":"2ca0228a","token()":"fc0c546a","tokenPrice()":"7ff9b596","totalDeposited()":"ff50abdc","updatePriceOnDeposit(uint256)":"33ceab93","updatePriceOnWithdrawal(uint256)":"700c877b"}}}}}