{"contracts/CompanyRegistry.sol":{"CompanyRegistry":{"abi":[{"anonymous":false,"inputs":[{"indexed":false,"internalType":"string","name":"name","type":"string"},{"indexed":false,"internalType":"address","name":"escrowAddress","type":"address"},{"indexed":false,"internalType":"address","name":"tokenAddress","type":"address"}],"name":"CompanyRegistered","type":"event"},{"inputs":[{"internalType":"address","name":"","type":"address"}],"name":"companies","outputs":[{"internalType":"string","name":"name","type":"string"},{"internalType":"address","name":"escrowAddress","type":"address"},{"internalType":"address","name":"tokenAddress","type":"address"},{"internalType":"bool","name":"isRegistered","type":"bool"}],"stateMutability":"view","type":"function"},{"inputs":[],"name":"getRegisteredCompanies","outputs":[{"internalType":"address[]","name":"","type":"address[]"}],"stateMutability":"view","type":"function"},{"inputs":[{"internalType":"string","name":"_name","type":"string"},{"internalType":"address","name":"_escrowAddress","type":"address"},{"internalType":"address","name":"_tokenAddress","type":"address"}],"name":"registerCompany","outputs":[],"stateMutability":"nonpayable","type":"function"},{"inputs":[{"internalType":"uint256","name":"","type":"uint256"}],"name":"registeredCompanies","outputs":[{"internalType":"address","name":"","type":"address"}],"stateMutability":"view","type":"function"}],"evm":{"bytecode":{"linkReferences":{},"object":"608060405234801561001057600080fd5b50610dac806100206000396000f3fe608060405234801561001057600080fd5b506004361061004c5760003560e01c8063355e6ce8146100515780635e96b80d14610084578063ce0a8ed5146100b4578063fcc436b1146100d2575b600080fd5b61006b600480360381019061006691906105b9565b6100ee565b60405161007b94939291906106a0565b60405180910390f35b61009e60048036038101906100999190610722565b6101f3565b6040516100ab919061074f565b60405180910390f35b6100bc610232565b6040516100c99190610828565b60405180910390f35b6100ec60048036038101906100e7919061097f565b6102c0565b005b600060205280600052604060002060009150905080600001805461011190610a1d565b80601f016020809104026020016040519081016040528092919081815260200182805461013d90610a1d565b801561018a5780601f1061015f5761010080835404028352916020019161018a565b820191906000526020600020905b81548152906001019060200180831161016d57829003601f168201915b5050505050908060010160009054906101000a900473ffffffffffffffffffffffffffffffffffffffff16908060020160009054906101000a900473ffffffffffffffffffffffffffffffffffffffff16908060020160149054906101000a900460ff16905084565b6001818154811061020357600080fd5b906000526020600020016000915054906101000a900473ffffffffffffffffffffffffffffffffffffffff1681565b606060018054806020026020016040519081016040528092919081815260200182805480156102b657602002820191906000526020600020905b8160009054906101000a900473ffffffffffffffffffffffffffffffffffffffff1673ffffffffffffffffffffffffffffffffffffffff168152602001906001019080831161026c575b5050505050905090565b6000808373ffffffffffffffffffffffffffffffffffffffff1673ffffffffffffffffffffffffffffffffffffffff16815260200190815260200160002060020160149054906101000a900460ff161561034f576040517f08c379a000000000000000000000000000000000000000000000000000000000815260040161034690610a9a565b60405180910390fd5b60405180608001604052808481526020018373ffffffffffffffffffffffffffffffffffffffff1681526020018273ffffffffffffffffffffffffffffffffffffffff168152602001600115158152506000808473ffffffffffffffffffffffffffffffffffffffff1673ffffffffffffffffffffffffffffffffffffffff16815260200190815260200160002060008201518160000190816103f29190610c66565b5060208201518160010160006101000a81548173ffffffffffffffffffffffffffffffffffffffff021916908373ffffffffffffffffffffffffffffffffffffffff16021790555060408201518160020160006101000a81548173ffffffffffffffffffffffffffffffffffffffff021916908373ffffffffffffffffffffffffffffffffffffffff16021790555060608201518160020160146101000a81548160ff0219169083151502179055509050506001829080600181540180825580915050600190039060005260206000200160009091909190916101000a81548173ffffffffffffffffffffffffffffffffffffffff021916908373ffffffffffffffffffffffffffffffffffffffff1602179055507f94aec3dc6cb6f40c1de17e8e63a10905c1d89509ee5f4649a1640ae029a2559583838360405161053a93929190610d38565b60405180910390a1505050565b6000604051905090565b600080fd5b600080fd5b600073ffffffffffffffffffffffffffffffffffffffff82169050919050565b60006105868261055b565b9050919050565b6105968161057b565b81146105a157600080fd5b50565b6000813590506105b38161058d565b92915050565b6000602082840312156105cf576105ce610551565b5b60006105dd848285016105a4565b91505092915050565b600081519050919050565b600082825260208201905092915050565b60005b83811015610620578082015181840152602081019050610605565b60008484015250505050565b6000601f19601f8301169050919050565b6000610648826105e6565b61065281856105f1565b9350610662818560208601610602565b61066b8161062c565b840191505092915050565b61067f8161057b565b82525050565b60008115159050919050565b61069a81610685565b82525050565b600060808201905081810360008301526106ba818761063d565b90506106c96020830186610676565b6106d66040830185610676565b6106e36060830184610691565b95945050505050565b6000819050919050565b6106ff816106ec565b811461070a57600080fd5b50565b60008135905061071c816106f6565b92915050565b60006020828403121561073857610737610551565b5b60006107468482850161070d565b91505092915050565b60006020820190506107646000830184610676565b92915050565b600081519050919050565b600082825260208201905092915050565b6000819050602082019050919050565b61079f8161057b565b82525050565b60006107b18383610796565b60208301905092915050565b6000602082019050919050565b60006107d58261076a565b6107df8185610775565b93506107ea83610786565b8060005b8381101561081b57815161080288826107a5565b975061080d836107bd565b9250506001810190506107ee565b5085935050505092915050565b6000602082019050818103600083015261084281846107ca565b905092915050565b600080fd5b600080fd5b7f4e487b7100000000000000000000000000000000000000000000000000000000600052604160045260246000fd5b61088c8261062c565b810181811067ffffffffffffffff821117156108ab576108aa610854565b5b80604052505050565b60006108be610547565b90506108ca8282610883565b919050565b600067ffffffffffffffff8211156108ea576108e9610854565b5b6108f38261062c565b9050602081019050919050565b82818337600083830152505050565b600061092261091d846108cf565b6108b4565b90508281526020810184848401111561093e5761093d61084f565b5b610949848285610900565b509392505050565b600082601f8301126109665761096561084a565b5b813561097684826020860161090f565b91505092915050565b60008060006060848603121561099857610997610551565b5b600084013567ffffffffffffffff8111156109b6576109b5610556565b5b6109c286828701610951565b93505060206109d3868287016105a4565b92505060406109e4868287016105a4565b9150509250925092565b7f4e487b7100000000000000000000000000000000000000000000000000000000600052602260045260246000fd5b60006002820490506001821680610a3557607f821691505b602082108103610a4857610a476109ee565b5b50919050565b7f436f6d70616e7920616c72656164792072656769737465726564000000000000600082015250565b6000610a84601a836105f1565b9150610a8f82610a4e565b602082019050919050565b60006020820190508181036000830152610ab381610a77565b9050919050565b60008190508160005260206000209050919050565b60006020601f8301049050919050565b600082821b905092915050565b600060088302610b1c7fffffffffffffffffffffffffffffffffffffffffffffffffffffffffffffffff82610adf565b610b268683610adf565b95508019841693508086168417925050509392505050565b6000819050919050565b6000610b63610b5e610b59846106ec565b610b3e565b6106ec565b9050919050565b6000819050919050565b610b7d83610b48565b610b91610b8982610b6a565b848454610aec565b825550505050565b600090565b610ba6610b99565b610bb1818484610b74565b505050565b5b81811015610bd557610bca600082610b9e565b600181019050610bb7565b5050565b601f821115610c1a57610beb81610aba565b610bf484610acf565b81016020851015610c03578190505b610c17610c0f85610acf565b830182610bb6565b50505b505050565b600082821c905092915050565b6000610c3d60001984600802610c1f565b1980831691505092915050565b6000610c568383610c2c565b9150826002028217905092915050565b610c6f826105e6565b67ffffffffffffffff811115610c8857610c87610854565b5b610c928254610a1d565b610c9d828285610bd9565b600060209050601f831160018114610cd05760008415610cbe578287015190505b610cc88582610c4a565b865550610d30565b601f198416610cde86610aba565b60005b82811015610d0657848901518255600182019150602085019450602081019050610ce1565b86831015610d235784890151610d1f601f891682610c2c565b8355505b6001600288020188555050505b505050505050565b60006060820190508181036000830152610d52818661063d565b9050610d616020830185610676565b610d6e6040830184610676565b94935050505056fea26469706673582212205d59ced54c5e6ab9ea1dd8ef43982e4bfc14ac34a7451f7c04450453f7398a4164736f6c63430008140033","opcodes":"PUSH1 0x80 PUSH1 0x40 MSTORE CALLVALUE DUP1 ISZERO PUSH2 0x10 JUMPI PUSH1 0x0 DUP1 REVERT JUMPDEST POP PUSH2 0xDAC DUP1 PUSH2 0x20 PUSH1 0x0 CODECOPY PUSH1 0x0 RETURN INVALID PUSH1 0x80 PUSH1 0x40 MSTORE CALLVALUE DUP1 ISZERO PUSH2 0x10 JUMPI PUSH1 0x0 DUP1 REVERT JUMPDEST POP PUSH1 0x4 CALLDATASIZE LT PUSH2 0x4C JUMPI PUSH1 0x0 CALLDATALOAD PUSH1 0xE0 SHR DUP1 PUSH4 0x355E6CE8 EQ PUSH2 0x51 JUMPI DUP1 PUSH4 0x5E96B80D EQ PUSH2 0x84 JUMPI DUP1 PUSH4 0xCE0A8ED5 EQ PUSH2 0xB4 JUMPI DUP1 PUSH4 0xFCC436B1 EQ PUSH2 0xD2 JUMPI JUMPDEST PUSH1 0x0 DUP1 REVERT JUMPDEST PUSH2 0x6B PUSH1 0x4 DUP1 CALLDATASIZE SUB DUP2 ADD SWAP1 PUSH2 0x66 SWAP2 SWAP1 PUSH2 0x5B9 JUMP JUMPDEST PUSH2 0xEE JUMP JUMPDEST PUSH1 0x40 MLOAD PUSH2 0x7B SWAP5 SWAP4 SWAP3 SWAP2 SWAP1 PUSH2 0x6A0 JUMP JUMPDEST PUSH1 0x40 MLOAD DUP1 SWAP2 SUB SWAP1 RETURN JUMPDEST PUSH2 0x9E PUSH1 0x4 DUP1 CALLDATASIZE SUB DUP2 ADD SWAP1 PUSH2 0x99 SWAP2 SWAP1 PUSH2 0x722 JUMP JUMPDEST PUSH2 0x1F3 JUMP JUMPDEST PUSH1 0x40 MLOAD PUSH2 0xAB SWAP2 SWAP1 PUSH2 0x74F JUMP JUMPDEST PUSH1 0x40 MLOAD DUP1 SWAP2 SUB SWAP1 RETURN JUMPDEST PUSH2 0xBC PUSH2 0x232 JUMP JUMPDEST PUSH1 0x40 MLOAD PUSH2 0xC9 SWAP2 SWAP1 PUSH2 0x828 JUMP JUMPDEST PUSH1 0x40 MLOAD DUP1 SWAP2 SUB SWAP1 RETURN JUMPDEST PUSH2 0xEC PUSH1 0x4 DUP1 CALLDATASIZE SUB DUP2 ADD SWAP1 PUSH2 0xE7 SWAP2 SWAP1 PUSH2 0x97F JUMP JUMPDEST PUSH2 0x2C0 JUMP JUMPDEST STOP JUMPDEST PUSH1 0x0 PUSH1 0x20 MSTORE DUP1 PUSH1 0x0 MSTORE PUSH1 0x40 PUSH1 0x0 KECCAK256 PUSH1 0x0 SWAP2 POP SWAP1 POP DUP1 PUSH1 0x0 ADD DUP1 SLOAD PUSH2 0x111 SWAP1 PUSH2 0xA1D JUMP JUMPDEST DUP1 PUSH1 0x1F ADD PUSH1 0x20 DUP1 SWAP2 DIV MUL PUSH1 0x20 ADD PUSH1 0x40 MLOAD SWAP1 DUP2 ADD PUSH1 0x40 MSTORE DUP1 SWAP3 SWAP2 SWAP1 DUP2 DUP2 MSTORE PUSH1 0x20 ADD DUP3 DUP1 SLOAD PUSH2 0x13D SWAP1 PUSH2 0xA1D JUMP JUMPDEST DUP1 ISZERO PUSH2 0x18A JUMPI DUP1 PUSH1 0x1F LT PUSH2 0x15F JUMPI PUSH2 0x100 DUP1 DUP4 SLOAD DIV MUL DUP4 MSTORE SWAP2 PUSH1 0x20 ADD SWAP2 PUSH2 0x18A JUMP JUMPDEST DUP3 ADD SWAP2 SWAP1 PUSH1 0x0 MSTORE PUSH1 0x20 PUSH1 0x0 KECCAK256 SWAP1 JUMPDEST DUP2 SLOAD DUP2 MSTORE SWAP1 PUSH1 0x1 ADD SWAP1 PUSH1 0x20 ADD DUP1 DUP4 GT PUSH2 0x16D JUMPI DUP3 SWAP1 SUB PUSH1 0x1F AND DUP3 ADD SWAP2 JUMPDEST POP POP POP POP POP SWAP1 DUP1 PUSH1 0x1 ADD PUSH1 0x0 SWAP1 SLOAD SWAP1 PUSH2 0x100 EXP SWAP1 DIV PUSH20 0xFFFFFFFFFFFFFFFFFFFFFFFFFFFFFFFFFFFFFFFF AND SWAP1 DUP1 PUSH1 0x2 ADD PUSH1 0x0 SWAP1 SLOAD SWAP1 PUSH2 0x100 EXP SWAP1 DIV PUSH20 0xFFFFFFFFFFFFFFFFFFFFFFFFFFFFFFFFFFFFFFFF AND SWAP1 DUP1 PUSH1 0x2 ADD PUSH1 0x14 SWAP1 SLOAD SWAP1 PUSH2 0x100 EXP SWAP1 DIV PUSH1 0xFF AND SWAP1 POP DUP5 JUMP JUMPDEST PUSH1 0x1 DUP2 DUP2 SLOAD DUP2 LT PUSH2 0x203 JUMPI PUSH1 0x0 DUP1 REVERT JUMPDEST SWAP1 PUSH1 0x0 MSTORE PUSH1 0x20 PUSH1 0x0 KECCAK256 ADD PUSH1 0x0 SWAP2 POP SLOAD SWAP1 PUSH2 0x100 EXP SWAP1 DIV PUSH20 0xFFFFFFFFFFFFFFFFFFFFFFFFFFFFFFFFFFFFFFFF AND DUP2 JUMP JUMPDEST PUSH1 0x60 PUSH1 0x1 DUP1 SLOAD DUP1 PUSH1 0x20 MUL PUSH1 0x20 ADD PUSH1 0x40 MLOAD SWAP1 DUP2 ADD PUSH1 0x40 MSTORE DUP1 SWAP3 SWAP2 SWAP1 DUP2 DUP2 MSTORE PUSH1 0x20 ADD DUP3 DUP1 SLOAD DUP1 ISZERO PUSH2 0x2B6 JUMPI PUSH1 0x20 MUL DUP3 ADD SWAP2 SWAP1 PUSH1 0x0 MSTORE PUSH1 0x20 PUSH1 0x0 KECCAK256 SWAP1 JUMPDEST DUP2 PUSH1 0x0 SWAP1 SLOAD SWAP1 PUSH2 0x100 EXP SWAP1 DIV PUSH20 0xFFFFFFFFFFFFFFFFFFFFFFFFFFFFFFFFFFFFFFFF AND PUSH20 0xFFFFFFFFFFFFFFFFFFFFFFFFFFFFFFFFFFFFFFFF AND DUP2 MSTORE PUSH1 0x20 ADD SWAP1 PUSH1 0x1 ADD SWAP1 DUP1 DUP4 GT PUSH2 0x26C JUMPI JUMPDEST POP POP POP POP POP SWAP1 POP SWAP1 JUMP JUMPDEST PUSH1 0x0 DUP1 DUP4 PUSH20 0xFFFFFFFFFFFFFFFFFFFFFFFFFFFFFFFFFFFFFFFF AND PUSH20 0xFFFFFFFFFFFFFFFFFFFFFFFFFFFFFFFFFFFFFFFF AND DUP2 MSTORE PUSH1 0x20 ADD SWAP1 DUP2 MSTORE PUSH1 0x20 ADD PUSH1 0x0 KECCAK256 PUSH1 0x2 ADD PUSH1 0x14 SWAP1 SLOAD SWAP1 PUSH2 0x100 EXP SWAP1 DIV PUSH1 0xFF AND ISZERO PUSH2 0x34F JUMPI PUSH1 0x40 MLOAD PUSH32 0x8C379A000000000000000000000000000000000000000000000000000000000 DUP2 MSTORE PUSH1 0x4 ADD PUSH2 0x346 SWAP1 PUSH2 0xA9A JUMP JUMPDEST PUSH1 0x40 MLOAD DUP1 SWAP2 SUB SWAP1 REVERT JUMPDEST PUSH1 0x40 MLOAD DUP1 PUSH1 0x80 ADD PUSH1 0x40 MSTORE DUP1 DUP5 DUP2 MSTORE PUSH1 0x20 ADD DUP4 PUSH20 0xFFFFFFFFFFFFFFFFFFFFFFFFFFFFFFFFFFFFFFFF AND DUP2 MSTORE PUSH1 0x20 ADD DUP3 PUSH20 0xFFFFFFFFFFFFFFFFFFFFFFFFFFFFFFFFFFFFFFFF AND DUP2 MSTORE PUSH1 0x20 ADD PUSH1 0x1 ISZERO ISZERO DUP2 MSTORE POP PUSH1 0x0 DUP1 DUP5 PUSH20 0xFFFFFFFFFFFFFFFFFFFFFFFFFFFFFFFFFFFFFFFF AND PUSH20 0xFFFFFFFFFFFFFFFFFFFFFFFFFFFFFFFFFFFFFFFF AND DUP2 MSTORE PUSH1 0x20 ADD SWAP1 DUP2 MSTORE PUSH1 0x20 ADD PUSH1 0x0 KECCAK256 PUSH1 0x0 DUP3 ADD MLOAD DUP2 PUSH1 0x0 ADD SWAP1 DUP2 PUSH2 0x3F2 SWAP2 SWAP1 PUSH2 0xC66 JUMP JUMPDEST POP PUSH1 0x20 DUP3 ADD MLOAD DUP2 PUSH1 0x1 ADD PUSH1 0x0 PUSH2 0x100 EXP DUP2 SLOAD DUP2 PUSH20 0xFFFFFFFFFFFFFFFFFFFFFFFFFFFFFFFFFFFFFFFF MUL NOT AND SWAP1 DUP4 PUSH20 0xFFFFFFFFFFFFFFFFFFFFFFFFFFFFFFFFFFFFFFFF AND MUL OR SWAP1 SSTORE POP PUSH1 0x40 DUP3 ADD MLOAD DUP2 PUSH1 0x2 ADD PUSH1 0x0 PUSH2 0x100 EXP DUP2 SLOAD DUP2 PUSH20 0xFFFFFFFFFFFFFFFFFFFFFFFFFFFFFFFFFFFFFFFF MUL NOT AND SWAP1 DUP4 PUSH20 0xFFFFFFFFFFFFFFFFFFFFFFFFFFFFFFFFFFFFFFFF AND MUL OR SWAP1 SSTORE POP PUSH1 0x60 DUP3 ADD MLOAD DUP2 PUSH1 0x2 ADD PUSH1 0x14 PUSH2 0x100 EXP DUP2 SLOAD DUP2 PUSH1 0xFF MUL NOT AND SWAP1 DUP4 ISZERO ISZERO MUL OR SWAP1 SSTORE POP SWAP1 POP POP PUSH1 0x1 DUP3 SWAP1 DUP1 PUSH1 0x1 DUP2 SLOAD ADD DUP1 DUP3 SSTORE DUP1 SWAP2 POP POP PUSH1 0x1 SWAP1 SUB SWAP1 PUSH1 0x0 MSTORE PUSH1 0x20 PUSH1 0x0 KECCAK256 ADD PUSH1 0x0 SWAP1 SWAP2 SWAP1 SWAP2 SWAP1 SWAP2 PUSH2 0x100 EXP DUP2 SLOAD DUP2 PUSH20 0xFFFFFFFFFFFFFFFFFFFFFFFFFFFFFFFFFFFFFFFF MUL NOT AND SWAP1 DUP4 PUSH20 0xFFFFFFFFFFFFFFFFFFFFFFFFFFFFFFFFFFFFFFFF AND MUL OR SWAP1 SSTORE POP PUSH32 0x94AEC3DC6CB6F40C1DE17E8E63A10905C1D89509EE5F4649A1640AE029A25595 DUP4 DUP4 DUP4 PUSH1 0x40 MLOAD PUSH2 0x53A SWAP4 SWAP3 SWAP2 SWAP1 PUSH2 0xD38 JUMP JUMPDEST PUSH1 0x40 MLOAD DUP1 SWAP2 SUB SWAP1 LOG1 POP POP POP JUMP JUMPDEST PUSH1 0x0 PUSH1 0x40 MLOAD SWAP1 POP SWAP1 JUMP JUMPDEST PUSH1 0x0 DUP1 REVERT JUMPDEST PUSH1 0x0 DUP1 REVERT JUMPDEST PUSH1 0x0 PUSH20 0xFFFFFFFFFFFFFFFFFFFFFFFFFFFFFFFFFFFFFFFF DUP3 AND SWAP1 POP SWAP2 SWAP1 POP JUMP JUMPDEST PUSH1 0x0 PUSH2 0x586 DUP3 PUSH2 0x55B JUMP JUMPDEST SWAP1 POP SWAP2 SWAP1 POP JUMP JUMPDEST PUSH2 0x596 DUP2 PUSH2 0x57B JUMP JUMPDEST DUP2 EQ PUSH2 0x5A1 JUMPI PUSH1 0x0 DUP1 REVERT JUMPDEST POP JUMP JUMPDEST PUSH1 0x0 DUP2 CALLDATALOAD SWAP1 POP PUSH2 0x5B3 DUP2 PUSH2 0x58D JUMP JUMPDEST SWAP3 SWAP2 POP POP JUMP JUMPDEST PUSH1 0x0 PUSH1 0x20 DUP3 DUP5 SUB SLT ISZERO PUSH2 0x5CF JUMPI PUSH2 0x5CE PUSH2 0x551 JUMP JUMPDEST JUMPDEST PUSH1 0x0 PUSH2 0x5DD DUP5 DUP3 DUP6 ADD PUSH2 0x5A4 JUMP JUMPDEST SWAP2 POP POP SWAP3 SWAP2 POP POP JUMP JUMPDEST PUSH1 0x0 DUP2 MLOAD SWAP1 POP SWAP2 SWAP1 POP JUMP JUMPDEST PUSH1 0x0 DUP3 DUP3 MSTORE PUSH1 0x20 DUP3 ADD SWAP1 POP SWAP3 SWAP2 POP POP JUMP JUMPDEST PUSH1 0x0 JUMPDEST DUP4 DUP2 LT ISZERO PUSH2 0x620 JUMPI DUP1 DUP3 ADD MLOAD DUP2 DUP5 ADD MSTORE PUSH1 0x20 DUP2 ADD SWAP1 POP PUSH2 0x605 JUMP JUMPDEST PUSH1 0x0 DUP5 DUP5 ADD MSTORE POP POP POP POP JUMP JUMPDEST PUSH1 0x0 PUSH1 0x1F NOT PUSH1 0x1F DUP4 ADD AND SWAP1 POP SWAP2 SWAP1 POP JUMP JUMPDEST PUSH1 0x0 PUSH2 0x648 DUP3 PUSH2 0x5E6 JUMP JUMPDEST PUSH2 0x652 DUP2 DUP6 PUSH2 0x5F1 JUMP JUMPDEST SWAP4 POP PUSH2 0x662 DUP2 DUP6 PUSH1 0x20 DUP7 ADD PUSH2 0x602 JUMP JUMPDEST PUSH2 0x66B DUP2 PUSH2 0x62C JUMP JUMPDEST DUP5 ADD SWAP2 POP POP SWAP3 SWAP2 POP POP JUMP JUMPDEST PUSH2 0x67F DUP2 PUSH2 0x57B JUMP JUMPDEST DUP3 MSTORE POP POP JUMP JUMPDEST PUSH1 0x0 DUP2 ISZERO ISZERO SWAP1 POP SWAP2 SWAP1 POP JUMP JUMPDEST PUSH2 0x69A DUP2 PUSH2 0x685 JUMP JUMPDEST DUP3 MSTORE POP POP JUMP JUMPDEST PUSH1 0x0 PUSH1 0x80 DUP3 ADD SWAP1 POP DUP2 DUP2 SUB PUSH1 0x0 DUP4 ADD MSTORE PUSH2 0x6BA DUP2 DUP8 PUSH2 0x63D JUMP JUMPDEST SWAP1 POP PUSH2 0x6C9 PUSH1 0x20 DUP4 ADD DUP7 PUSH2 0x676 JUMP JUMPDEST PUSH2 0x6D6 PUSH1 0x40 DUP4 ADD DUP6 PUSH2 0x676 JUMP JUMPDEST PUSH2 0x6E3 PUSH1 0x60 DUP4 ADD DUP5 PUSH2 0x691 JUMP JUMPDEST SWAP6 SWAP5 POP POP POP POP POP JUMP JUMPDEST PUSH1 0x0 DUP2 SWAP1 POP SWAP2 SWAP1 POP JUMP JUMPDEST PUSH2 0x6FF DUP2 PUSH2 0x6EC JUMP JUMPDEST DUP2 EQ PUSH2 0x70A JUMPI PUSH1 0x0 DUP1 REVERT JUMPDEST POP JUMP JUMPDEST PUSH1 0x0 DUP2 CALLDATALOAD SWAP1 POP PUSH2 0x71C DUP2 PUSH2 0x6F6 JUMP JUMPDEST SWAP3 SWAP2 POP POP JUMP JUMPDEST PUSH1 0x0 PUSH1 0x20 DUP3 DUP5 SUB SLT ISZERO PUSH2 0x738 JUMPI PUSH2 0x737 PUSH2 0x551 JUMP JUMPDEST JUMPDEST PUSH1 0x0 PUSH2 0x746 DUP5 DUP3 DUP6 ADD PUSH2 0x70D JUMP JUMPDEST SWAP2 POP POP SWAP3 SWAP2 POP POP JUMP JUMPDEST PUSH1 0x0 PUSH1 0x20 DUP3 ADD SWAP1 POP PUSH2 0x764 PUSH1 0x0 DUP4 ADD DUP5 PUSH2 0x676 JUMP JUMPDEST SWAP3 SWAP2 POP POP JUMP JUMPDEST PUSH1 0x0 DUP2 MLOAD SWAP1 POP SWAP2 SWAP1 POP JUMP JUMPDEST PUSH1 0x0 DUP3 DUP3 MSTORE PUSH1 0x20 DUP3 ADD SWAP1 POP SWAP3 SWAP2 POP POP JUMP JUMPDEST PUSH1 0x0 DUP2 SWAP1 POP PUSH1 0x20 DUP3 ADD SWAP1 POP SWAP2 SWAP1 POP JUMP JUMPDEST PUSH2 0x79F DUP2 PUSH2 0x57B JUMP JUMPDEST DUP3 MSTORE POP POP JUMP JUMPDEST PUSH1 0x0 PUSH2 0x7B1 DUP4 DUP4 PUSH2 0x796 JUMP JUMPDEST PUSH1 0x20 DUP4 ADD SWAP1 POP SWAP3 SWAP2 POP POP JUMP JUMPDEST PUSH1 0x0 PUSH1 0x20 DUP3 ADD SWAP1 POP SWAP2 SWAP1 POP JUMP JUMPDEST PUSH1 0x0 PUSH2 0x7D5 DUP3 PUSH2 0x76A JUMP JUMPDEST PUSH2 0x7DF DUP2 DUP6 PUSH2 0x775 JUMP JUMPDEST SWAP4 POP PUSH2 0x7EA DUP4 PUSH2 0x786 JUMP JUMPDEST DUP1 PUSH1 0x0 JUMPDEST DUP4 DUP2 LT ISZERO PUSH2 0x81B JUMPI DUP2 MLOAD PUSH2 0x802 DUP9 DUP3 PUSH2 0x7A5 JUMP JUMPDEST SWAP8 POP PUSH2 0x80D DUP4 PUSH2 0x7BD JUMP JUMPDEST SWAP3 POP POP PUSH1 0x1 DUP2 ADD SWAP1 POP PUSH2 0x7EE JUMP JUMPDEST POP DUP6 SWAP4 POP POP POP POP SWAP3 SWAP2 POP POP JUMP JUMPDEST PUSH1 0x0 PUSH1 0x20 DUP3 ADD SWAP1 POP DUP2 DUP2 SUB PUSH1 0x0 DUP4 ADD MSTORE PUSH2 0x842 DUP2 DUP5 PUSH2 0x7CA JUMP JUMPDEST SWAP1 POP SWAP3 SWAP2 POP POP JUMP JUMPDEST PUSH1 0x0 DUP1 REVERT JUMPDEST PUSH1 0x0 DUP1 REVERT JUMPDEST PUSH32 0x4E487B7100000000000000000000000000000000000000000000000000000000 PUSH1 0x0 MSTORE PUSH1 0x41 PUSH1 0x4 MSTORE PUSH1 0x24 PUSH1 0x0 REVERT JUMPDEST PUSH2 0x88C DUP3 PUSH2 0x62C JUMP JUMPDEST DUP2 ADD DUP2 DUP2 LT PUSH8 0xFFFFFFFFFFFFFFFF DUP3 GT OR ISZERO PUSH2 0x8AB JUMPI PUSH2 0x8AA PUSH2 0x854 JUMP JUMPDEST JUMPDEST DUP1 PUSH1 0x40 MSTORE POP POP POP JUMP JUMPDEST PUSH1 0x0 PUSH2 0x8BE PUSH2 0x547 JUMP JUMPDEST SWAP1 POP PUSH2 0x8CA DUP3 DUP3 PUSH2 0x883 JUMP JUMPDEST SWAP2 SWAP1 POP JUMP JUMPDEST PUSH1 0x0 PUSH8 0xFFFFFFFFFFFFFFFF DUP3 GT ISZERO PUSH2 0x8EA JUMPI PUSH2 0x8E9 PUSH2 0x854 JUMP JUMPDEST JUMPDEST PUSH2 0x8F3 DUP3 PUSH2 0x62C JUMP JUMPDEST SWAP1 POP PUSH1 0x20 DUP2 ADD SWAP1 POP SWAP2 SWAP1 POP JUMP JUMPDEST DUP3 DUP2 DUP4 CALLDATACOPY PUSH1 0x0 DUP4 DUP4 ADD MSTORE POP POP POP JUMP JUMPDEST PUSH1 0x0 PUSH2 0x922 PUSH2 0x91D DUP5 PUSH2 0x8CF JUMP JUMPDEST PUSH2 0x8B4 JUMP JUMPDEST SWAP1 POP DUP3 DUP2 MSTORE PUSH1 0x20 DUP2 ADD DUP5 DUP5 DUP5 ADD GT ISZERO PUSH2 0x93E JUMPI PUSH2 0x93D PUSH2 0x84F JUMP JUMPDEST JUMPDEST PUSH2 0x949 DUP5 DUP3 DUP6 PUSH2 0x900 JUMP JUMPDEST POP SWAP4 SWAP3 POP POP POP JUMP JUMPDEST PUSH1 0x0 DUP3 PUSH1 0x1F DUP4 ADD SLT PUSH2 0x966 JUMPI PUSH2 0x965 PUSH2 0x84A JUMP JUMPDEST JUMPDEST DUP2 CALLDATALOAD PUSH2 0x976 DUP5 DUP3 PUSH1 0x20 DUP7 ADD PUSH2 0x90F JUMP JUMPDEST SWAP2 POP POP SWAP3 SWAP2 POP POP JUMP JUMPDEST PUSH1 0x0 DUP1 PUSH1 0x0 PUSH1 0x60 DUP5 DUP7 SUB SLT ISZERO PUSH2 0x998 JUMPI PUSH2 0x997 PUSH2 0x551 JUMP JUMPDEST JUMPDEST PUSH1 0x0 DUP5 ADD CALLDATALOAD PUSH8 0xFFFFFFFFFFFFFFFF DUP2 GT ISZERO PUSH2 0x9B6 JUMPI PUSH2 0x9B5 PUSH2 0x556 JUMP JUMPDEST JUMPDEST PUSH2 0x9C2 DUP7 DUP3 DUP8 ADD PUSH2 0x951 JUMP JUMPDEST SWAP4 POP POP PUSH1 0x20 PUSH2 0x9D3 DUP7 DUP3 DUP8 ADD PUSH2 0x5A4 JUMP JUMPDEST SWAP3 POP POP PUSH1 0x40 PUSH2 0x9E4 DUP7 DUP3 DUP8 ADD PUSH2 0x5A4 JUMP JUMPDEST SWAP2 POP POP SWAP3 POP SWAP3 POP SWAP3 JUMP JUMPDEST PUSH32 0x4E487B7100000000000000000000000000000000000000000000000000000000 PUSH1 0x0 MSTORE PUSH1 0x22 PUSH1 0x4 MSTORE PUSH1 0x24 PUSH1 0x0 REVERT JUMPDEST PUSH1 0x0 PUSH1 0x2 DUP3 DIV SWAP1 POP PUSH1 0x1 DUP3 AND DUP1 PUSH2 0xA35 JUMPI PUSH1 0x7F DUP3 AND SWAP2 POP JUMPDEST PUSH1 0x20 DUP3 LT DUP2 SUB PUSH2 0xA48 JUMPI PUSH2 0xA47 PUSH2 0x9EE JUMP JUMPDEST JUMPDEST POP SWAP2 SWAP1 POP JUMP JUMPDEST PUSH32 0x436F6D70616E7920616C72656164792072656769737465726564000000000000 PUSH1 0x0 DUP3 ADD MSTORE POP JUMP JUMPDEST PUSH1 0x0 PUSH2 0xA84 PUSH1 0x1A DUP4 PUSH2 0x5F1 JUMP JUMPDEST SWAP2 POP PUSH2 0xA8F DUP3 PUSH2 0xA4E JUMP JUMPDEST PUSH1 0x20 DUP3 ADD SWAP1 POP SWAP2 SWAP1 POP JUMP JUMPDEST PUSH1 0x0 PUSH1 0x20 DUP3 ADD SWAP1 POP DUP2 DUP2 SUB PUSH1 0x0 DUP4 ADD MSTORE PUSH2 0xAB3 DUP2 PUSH2 0xA77 JUMP JUMPDEST SWAP1 POP SWAP2 SWAP1 POP JUMP JUMPDEST PUSH1 0x0 DUP2 SWAP1 POP DUP2 PUSH1 0x0 MSTORE PUSH1 0x20 PUSH1 0x0 KECCAK256 SWAP1 POP SWAP2 SWAP1 POP JUMP JUMPDEST PUSH1 0x0 PUSH1 0x20 PUSH1 0x1F DUP4 ADD DIV SWAP1 POP SWAP2 SWAP1 POP JUMP JUMPDEST PUSH1 0x0 DUP3 DUP3 SHL SWAP1 POP SWAP3 SWAP2 POP POP JUMP JUMPDEST PUSH1 0x0 PUSH1 0x8 DUP4 MUL PUSH2 0xB1C PUSH32 0xFFFFFFFFFFFFFFFFFFFFFFFFFFFFFFFFFFFFFFFFFFFFFFFFFFFFFFFFFFFFFFFF DUP3 PUSH2 0xADF JUMP JUMPDEST PUSH2 0xB26 DUP7 DUP4 PUSH2 0xADF JUMP JUMPDEST SWAP6 POP DUP1 NOT DUP5 AND SWAP4 POP DUP1 DUP7 AND DUP5 OR SWAP3 POP POP POP SWAP4 SWAP3 POP POP POP JUMP JUMPDEST PUSH1 0x0 DUP2 SWAP1 POP SWAP2 SWAP1 POP JUMP JUMPDEST PUSH1 0x0 PUSH2 0xB63 PUSH2 0xB5E PUSH2 0xB59 DUP5 PUSH2 0x6EC JUMP JUMPDEST PUSH2 0xB3E JUMP JUMPDEST PUSH2 0x6EC JUMP JUMPDEST SWAP1 POP SWAP2 SWAP1 POP JUMP JUMPDEST PUSH1 0x0 DUP2 SWAP1 POP SWAP2 SWAP1 POP JUMP JUMPDEST PUSH2 0xB7D DUP4 PUSH2 0xB48 JUMP JUMPDEST PUSH2 0xB91 PUSH2 0xB89 DUP3 PUSH2 0xB6A JUMP JUMPDEST DUP5 DUP5 SLOAD PUSH2 0xAEC JUMP JUMPDEST DUP3 SSTORE POP POP POP POP JUMP JUMPDEST PUSH1 0x0 SWAP1 JUMP JUMPDEST PUSH2 0xBA6 PUSH2 0xB99 JUMP JUMPDEST PUSH2 0xBB1 DUP2 DUP5 DUP5 PUSH2 0xB74 JUMP JUMPDEST POP POP POP JUMP JUMPDEST JUMPDEST DUP2 DUP2 LT ISZERO PUSH2 0xBD5 JUMPI PUSH2 0xBCA PUSH1 0x0 DUP3 PUSH2 0xB9E JUMP JUMPDEST PUSH1 0x1 DUP2 ADD SWAP1 POP PUSH2 0xBB7 JUMP JUMPDEST POP POP JUMP JUMPDEST PUSH1 0x1F DUP3 GT ISZERO PUSH2 0xC1A JUMPI PUSH2 0xBEB DUP2 PUSH2 0xABA JUMP JUMPDEST PUSH2 0xBF4 DUP5 PUSH2 0xACF JUMP JUMPDEST DUP2 ADD PUSH1 0x20 DUP6 LT ISZERO PUSH2 0xC03 JUMPI DUP2 SWAP1 POP JUMPDEST PUSH2 0xC17 PUSH2 0xC0F DUP6 PUSH2 0xACF JUMP JUMPDEST DUP4 ADD DUP3 PUSH2 0xBB6 JUMP JUMPDEST POP POP JUMPDEST POP POP POP JUMP JUMPDEST PUSH1 0x0 DUP3 DUP3 SHR SWAP1 POP SWAP3 SWAP2 POP POP JUMP JUMPDEST PUSH1 0x0 PUSH2 0xC3D PUSH1 0x0 NOT DUP5 PUSH1 0x8 MUL PUSH2 0xC1F JUMP JUMPDEST NOT DUP1 DUP4 AND SWAP2 POP POP SWAP3 SWAP2 POP POP JUMP JUMPDEST PUSH1 0x0 PUSH2 0xC56 DUP4 DUP4 PUSH2 0xC2C JUMP JUMPDEST SWAP2 POP DUP3 PUSH1 0x2 MUL DUP3 OR SWAP1 POP SWAP3 SWAP2 POP POP JUMP JUMPDEST PUSH2 0xC6F DUP3 PUSH2 0x5E6 JUMP JUMPDEST PUSH8 0xFFFFFFFFFFFFFFFF DUP2 GT ISZERO PUSH2 0xC88 JUMPI PUSH2 0xC87 PUSH2 0x854 JUMP JUMPDEST JUMPDEST PUSH2 0xC92 DUP3 SLOAD PUSH2 0xA1D JUMP JUMPDEST PUSH2 0xC9D DUP3 DUP3 DUP6 PUSH2 0xBD9 JUMP JUMPDEST PUSH1 0x0 PUSH1 0x20 SWAP1 POP PUSH1 0x1F DUP4 GT PUSH1 0x1 DUP2 EQ PUSH2 0xCD0 JUMPI PUSH1 0x0 DUP5 ISZERO PUSH2 0xCBE JUMPI DUP3 DUP8 ADD MLOAD SWAP1 POP JUMPDEST PUSH2 0xCC8 DUP6 DUP3 PUSH2 0xC4A JUMP JUMPDEST DUP7 SSTORE POP PUSH2 0xD30 JUMP JUMPDEST PUSH1 0x1F NOT DUP5 AND PUSH2 0xCDE DUP7 PUSH2 0xABA JUMP JUMPDEST PUSH1 0x0 JUMPDEST DUP3 DUP2 LT ISZERO PUSH2 0xD06 JUMPI DUP5 DUP10 ADD MLOAD DUP3 SSTORE PUSH1 0x1 DUP3 ADD SWAP2 POP PUSH1 0x20 DUP6 ADD SWAP5 POP PUSH1 0x20 DUP2 ADD SWAP1 POP PUSH2 0xCE1 JUMP JUMPDEST DUP7 DUP4 LT ISZERO PUSH2 0xD23 JUMPI DUP5 DUP10 ADD MLOAD PUSH2 0xD1F PUSH1 0x1F DUP10 AND DUP3 PUSH2 0xC2C JUMP JUMPDEST DUP4 SSTORE POP JUMPDEST PUSH1 0x1 PUSH1 0x2 DUP9 MUL ADD DUP9 SSTORE POP POP POP JUMPDEST POP POP POP POP POP POP JUMP JUMPDEST PUSH1 0x0 PUSH1 0x60 DUP3 ADD SWAP1 POP DUP2 DUP2 SUB PUSH1 0x0 DUP4 ADD MSTORE PUSH2 0xD52 DUP2 DUP7 PUSH2 0x63D JUMP JUMPDEST SWAP1 POP PUSH2 0xD61 PUSH1 0x20 DUP4 ADD DUP6 PUSH2 0x676 JUMP JUMPDEST PUSH2 0xD6E PUSH1 0x40 DUP4 ADD DUP5 PUSH2 0x676 JUMP JUMPDEST SWAP5 SWAP4 POP POP POP POP JUMP INVALID LOG2 PUSH5 0x6970667358 0x22 SLT KECCAK256 0x5D MSIZE 0xCE 0xD5 0x4C 0x5E PUSH11 0xB9EA1DD8EF43982E4BFC14 0xAC CALLVALUE 0xA7 GASLIMIT 0x1F PUSH29 0x4450453F7398A4164736F6C6343000814003300000000000000000000 "},"methodIdentifiers":{"companies(address)":"355e6ce8","getRegisteredCompanies()":"ce0a8ed5","registerCompany(string,address,address)":"fcc436b1","registeredCompanies(uint256)":"5e96b80d"}}}}}